:020000040000fa
:080000000002040000000000f2
:020000040000fa
:0400080030040000c0
:020000040000fa
:04000c0040030000ad
:020000040000fa
:040010008403000065
:020000040000fa
:040014005e03000087
:020000040000fa
:04001800a20300003f
:020000040000fa
:04001c0030040000ac
:020000040000fa
:0400200030040000a8
:020000040000fa
:0400240030040000a4
:020000040000fa
:04002800ea030000e7
:020000040000fa
:04002c00300400009c
:020000040000fa
:040030003004000098
:020000040000fa
:040034003004000094
:020000040000fa
:040038003004000090
:020000040000fa
:04003c00300400008c
:020000040000fa
:040040003004000088
:020000040000fa
:04004400c0030000f5
:020000040000fa
:040048003004000080
:020000040000fa
:04004c00300400007c
:020000040000fa
:040050003004000078
:020000040000fa
:040054003004000074
:020000040000fa
:040058003004000070
:020000040000fa
:04005c00300400006c
:020000040000fa
:040060003004000068
:020000040000fa
:040064003004000064
:020000040000fa
:040068003004000060
:020000040000fa
:04006c00300400005c
:020000040000fa
:040070003004000058
:020000040000fa
:040074003004000054
:020000040000fa
:040078003004000050
:020000040000fa
:04007c00300400004c
:020000040000fa
:040080003004000048
:020000040000fa
:040084003004000044
:020000040000fa
:040088003004000040
:020000040000fa
:04008c00300400003c
:020000040000fa
:040090003004000038
:020000040000fa
:040094003004000034
:020000040000fa
:040098003004000030
:020000040000fa
:04009c00300400002c
:020000040000fa
:0400a0003004000028
:020000040000fa
:0400a4003004000024
:020000040000fa
:0400a8003004000020
:020000040000fa
:0400ac00300400001c
:020000040000fa
:0400b0003004000018
:020000040000fa
:0400b4003004000014
:020000040000fa
:0400b8003004000010
:020000040000fa
:0400bc00300400000c
:020000040000fa
:0400c0003004000008
:020000040000fa
:0400c4003004000004
:020000040000fa
:0400c8003004000000
:020000040000fa
:0400cc0030040000fc
:020000040000fa
:0400d00030040000f8
:020000040000fa
:0400d40030040000f4
:020000040000fa
:0400d80030040000f0
:020000040000fa
:0400dc0030040000ec
:020000040000fa
:0400e00030040000e8
:020000040000fa
:0400e40030040000e4
:020000040000fa
:0400e80030040000e0
:020000040000fa
:0400ec0030040000dc
:020000040000fa
:0400f00030040000d8
:020000040000fa
:0400f40030040000d4
:020000040000fa
:0400f80030040000d0
:020000040000fa
:0400fc0030040000cc
:020000040000fa
:0401000030040000c7
:020000040000fa
:0401040030040000c3
:020000040000fa
:0401080030040000bf
:020000040000fa
:04010c0030040000bb
:020000040000fa
:0401100030040000b7
:020000040000fa
:0401140030040000b3
:020000040000fa
:0401180030040000af
:020000040000fa
:04011c0030040000ab
:020000040000fa
:0401200030040000a7
:020000040000fa
:0401240030040000a3
:020000040000fa
:04012800300400009f
:020000040000fa
:04012c00300400009b
:020000040000fa
:040130003004000097
:020000040000fa
:040134003004000093
:020000040000fa
:04013800300400008f
:020000040000fa
:04013c00300400008b
:020000040000fa
:040140003004000087
:020000040000fa
:040144003004000083
:020000040000fa
:04014800300400007f
:020000040000fa
:04014c00300400007b
:020000040000fa
:040150003004000077
:020000040000fa
:040154003004000073
:020000040000fa
:04015800300400006f
:020000040000fa
:04015c00300400006b
:020000040000fa
:040160003004000067
:020000040000fa
:040164003004000063
:020000040000fa
:04016800300400005f
:020000040000fa
:04016c00300400005b
:020000040000fa
:040170003004000057
:020000040000fa
:040174003004000053
:020000040000fa
:04017800300400004f
:020000040000fa
:04017c00300400004b
:020000040000fa
:040180000604000071
:020000040000fa
:040184003004000043
:020000040000fa
:04018800300400003f
:020000040000fa
:04018c00300400003b
:020000040000fa
:040190003004000037
:020000040000fa
:040194003004000033
:020000040000fa
:04019800300400002f
:020000040000fa
:04019c00300400002b
:020000040000fa
:0401a0003004000027
:020000040000fa
:0401a4003004000023
:020000040000fa
:0401a800300400001f
:020000040000fa
:0401ac00300400001b
:020000040000fa
:0401b0003004000017
:020000040000fa
:0401b4003004000013
:020000040000fa
:0401b800300400000f
:020000040000fa
:0401bc00300400000b
:020000040000fa
:0401c0003004000007
:020000040000fa
:0401c4003004000003
:020000040000fa
:0401c80030040000ff
:020000040000fa
:0401cc0030040000fb
:020000040000fa
:0401d00030040000f7
:020000040000fa
:0401d40030040000f3
:020000040000fa
:0401d80030040000ef
:020000040000fa
:0401dc0030040000eb
:020000040000fa
:0401e00030040000e7
:020000040000fa
:0401e40030040000e3
:020000040000fa
:0401e80030040000df
:020000040000fa
:0401ec0030040000db
:020000040000fa
:0401f00030040000d7
:020000040000fa
:0401f40030040000d3
:020000040000fa
:0401f80030040000cf
:020000040000fa
:0401fc0030040000cb
:020000040000fa
:0402080030040000be
:020000040000fa
:04020c0040030000ab
:020000040000fa
:040210008403000063
:020000040000fa
:040214005e03000085
:020000040000fa
:04021800a20300003d
:020000040000fa
:04021c0030040000aa
:020000040000fa
:0402200030040000a6
:020000040000fa
:0402240030040000a2
:020000040000fa
:04022800ea030000e5
:020000040000fa
:04022c00300400009a
:020000040000fa
:040230003004000096
:020000040000fa
:040234003004000092
:020000040000fa
:04023800300400008e
:020000040000fa
:04023c00300400008a
:020000040000fa
:040240003004000086
:020000040000fa
:04024400c0030000f3
:020000040000fa
:04024800300400007e
:020000040000fa
:04024c00300400007a
:020000040000fa
:040250003004000076
:020000040000fa
:040254003004000072
:020000040000fa
:04025800300400006e
:020000040000fa
:04025c00300400006a
:020000040000fa
:040260003004000066
:020000040000fa
:040264003004000062
:020000040000fa
:04026800300400005e
:020000040000fa
:04026c00300400005a
:020000040000fa
:040270003004000056
:020000040000fa
:040274003004000052
:020000040000fa
:04027800300400004e
:020000040000fa
:04027c00300400004a
:020000040000fa
:040280003004000046
:020000040000fa
:040284003004000042
:020000040000fa
:04028800300400003e
:020000040000fa
:04028c00300400003a
:020000040000fa
:040290003004000036
:020000040000fa
:040294003004000032
:020000040000fa
:04029800300400002e
:020000040000fa
:04029c00300400002a
:020000040000fa
:0402a0003004000026
:020000040000fa
:0402a4003004000022
:020000040000fa
:0402a800300400001e
:020000040000fa
:0402ac00300400001a
:020000040000fa
:0402b0003004000016
:020000040000fa
:0402b4003004000012
:020000040000fa
:0402b800300400000e
:020000040000fa
:0402bc00300400000a
:020000040000fa
:0402c0003004000006
:020000040000fa
:0402c4003004000002
:020000040000fa
:0402c80030040000fe
:020000040000fa
:0402cc0030040000fa
:020000040000fa
:0402d00030040000f6
:020000040000fa
:0402d40030040000f2
:020000040000fa
:0402d80030040000ee
:020000040000fa
:0402dc0030040000ea
:020000040000fa
:0402e00030040000e6
:020000040000fa
:0402e40030040000e2
:020000040000fa
:0402e80030040000de
:020000040000fa
:0402ec0030040000da
:020000040000fa
:0402f00030040000d6
:020000040000fa
:0402f40030040000d2
:020000040000fa
:0402f80030040000ce
:020000040000fa
:0402fc0030040000ca
:020000040000fa
:0403000030040000c5
:020000040000fa
:0403040030040000c1
:020000040000fa
:0403080030040000bd
:020000040000fa
:04030c0030040000b9
:020000040000fa
:0403100030040000b5
:020000040000fa
:0403140030040000b1
:020000040000fa
:0403180030040000ad
:020000040000fa
:04031c0030040000a9
:020000040000fa
:0403200030040000a5
:020000040000fa
:0403240030040000a1
:020000040000fa
:04032800300400009d
:020000040000fa
:04032c003004000099
:020000040000fa
:040330003004000095
:020000040000fa
:040334003004000091
:020000040000fa
:04033800300400008d
:020000040000fa
:04033c003004000089
:020000040000fa
:040340003004000085
:020000040000fa
:040344003004000081
:020000040000fa
:04034800300400007d
:020000040000fa
:04034c003004000079
:020000040000fa
:040350003004000075
:020000040000fa
:040354003004000071
:020000040000fa
:04035800300400006d
:020000040000fa
:04035c003004000069
:020000040000fa
:040360003004000065
:020000040000fa
:040364003004000061
:020000040000fa
:04036800300400005d
:020000040000fa
:04036c003004000059
:020000040000fa
:040370003004000055
:020000040000fa
:040374003004000051
:020000040000fa
:04037800300400004d
:020000040000fa
:04037c003004000049
:020000040000fa
:04038000060400006f
:020000040000fa
:040384003004000041
:020000040000fa
:04038800300400003d
:020000040000fa
:04038c003004000039
:020000040000fa
:040390003004000035
:020000040000fa
:040394003004000031
:020000040000fa
:04039800300400002d
:020000040000fa
:04039c003004000029
:020000040000fa
:0403a0003004000025
:020000040000fa
:0403a4003004000021
:020000040000fa
:0403a800300400001d
:020000040000fa
:0403ac003004000019
:020000040000fa
:0403b0003004000015
:020000040000fa
:0403b4003004000011
:020000040000fa
:0403b800300400000d
:020000040000fa
:0403bc003004000009
:020000040000fa
:0403c0003004000005
:020000040000fa
:0403c4003004000001
:020000040000fa
:0403c80030040000fd
:020000040000fa
:0403cc0030040000f9
:020000040000fa
:0403d00030040000f5
:020000040000fa
:0403d40030040000f1
:020000040000fa
:0403d80030040000ed
:020000040000fa
:0403dc0030040000e9
:020000040000fa
:0403e00030040000e5
:020000040000fa
:0403e40030040000e1
:020000040000fa
:0403e80030040000dd
:020000040000fa
:0403ec0030040000d9
:020000040000fa
:0403f00030040000d5
:020000040000fa
:0403f40030040000d1
:020000040000fa
:0403f80030040000cd
:020000040000fa
:0403fc0030040000c9
:020000040000fa
:100400000f4221000e7f22000e0188000000000034
:10041000000020000000e000020032000001200087
:1004200020028800140007000f0107000000e00010
:1004300003003a0000c4230001002000020037003e
:100440000000200001002000810f70000100320038
:1004500014000700000020000000e000020032004d
:100460000000020000000000563f020000000000f3
:100470000040da000000fe004440a900c0fa270056
:100480000000e000030032001020200090018800ee
:100490004440a800000006008a1f78008b1f7800e7
:1004a00000000600a1028800800478000000eb0034
:1004b0001f003700e284440054a0b4009905ba003c
:1004c000e284440054a0b4009906ba00e2844400d7
:1004d00054a0b4000006eb00476fde00fd07b20039
:1004e000ae018800636ce10003003a00eaff0700f8
:1004f0000000eb000e003700606ce10008003a00dd
:10050000004deb000a05e800020039003420ec0041
:100510000af0a0008b05e900f9ff3e000400370057
:100520006168e100010032000086eb000b0007006b
:1005300019c7ba001905ba000e04e00003003a001a
:100540000a00e000dbff3a0000000600fe07b200f0
:10055000ae0288008a047800f5ff37000cd0a300b3
:10056000e20f4d001c00390089027800354dba00b9
:100570000a05e800020039003420ec000af0a0006f
:100580008b05e9000f003200254dba000a05e8008e
:10059000020039003420ec000af0a0008b05e900cd
:1005a000080032000c00e0000600320015cdba0051
:1005b0000a05e800020039003420ec000af0a0002f
:1005c0008b05e9008984e80054a0b4000b00e0002a
:1005d000e2ff3a00000006009902ba00055d7800cb
:1005e0008b05e900f7ff3200c82ade00055d7800c0
:1005f0008b05e900f3ff32000c00e000f1ff320050
:1006000019ddba00eeff3700fc3c040000000000da
:10061000e23f0400000000002c3d04000000000048
:10062000383d040000000000503d040000000000c0
:10063000663d0400000000007c3d04000000000056
:10064000823d040000000000963d04000000000010
:10065000863d040000000000dc3f040000000000b4
:10066000d63f040000000000aa3e04000000000085
:10067000c635040000000000263904000000000018
:100680003600f800809fbe00829fbe00849fbe009f
:10069000869fbe008020a9000000eb0044400200bd
:1006a000000000004f03be004f02be004f01be001d
:1006b0004f00be003600f900004006003600f8008a
:1006c000809fbe00829fbe00849fbe00869fbe00aa
:1006d000803221008007780000342100000188006a
:1006e0008040a900100020004440020000000000eb
:1006f0004f03be004f02be004f01be004f00be00c0
:100700003600f900004006003600f800809fbe0069
:10071000829fbe00849fbe00869fbe008060a900ad
:100720002000200044400200000000004f03be00f3
:100730004f02be004f01be004f00be003600f90060
:10074000004006003600f800809fbe00829fbe0079
:10075000849fbe00869fbe008080a90030002000dc
:1007600044400200000000004f03be004f02be00e4
:100770004f01be004f00be003600f90000400600e9
:100780003600f800809fbe00829fbe00849fbe009e
:10079000869fbe00804380000000e0000100320020
:1007a00000000100103721001048e80011c0b3001c
:1007b000003721000148780084e0a9004f03be0003
:1007c0004f02be004f01be004f00be003600f900d0
:1007d000004006003600f800809fbe00829fbe00e9
:1007e000849fbe00869fbe003a40020000000000c9
:1007f0008400a9004f03be004f02be004f01be009f
:100800004f00be003600f900004006003600f80038
:10081000809fbe00829fbe00849fbe00869fbe0058
:100820003200f8003400f80010002000a001880019
:1008300010202000900188005e23020000000000cc
:100840003400f9003200f9004f03be004f02be0031
:100850004f01be004f00be003600f9000040060008
:100860000040da000000fe00000005006022b80031
:10087000060220000000d0008180d2000482d20055
:100880008582d2000000a0000202520083825a003a
:10089000030031000202420083824a000000a100ee
:1008a0000603e900f3ff3a0000000600889fbe003f
:1008b0008a9fbe0030044200b0844a0030054b00dd
:1008c00090854b006000b1000898be000a90be0001
:1008d0000440e10005c8e10006d0e10007d8e100ce
:1008e00002003100680040001008e8004f05be001b
:1008f0004f04be0000000600889fbe008a9fbe0015
:100900003004be002005be000418540005985c00a9
:1009100006185d0007985d00110020000440e1000a
:1009200005c8e10006d0e10007d8e1000100390068
:100930008000eb00108810004f05be004f04be0081
:1009400000000600f4874700889fbe008a9fbe0013
:100950008c9fbe008e1f7800d0b79f00e1b79f002c
:10096000f2b79f0083bf9f000605be000404be00cf
:10097000cfae97000000eb00c0b79f00b0b79f005c
:10098000a0b79f0090b79f0080b79f000006780037
:100990004fb09700000140000000e00006003d005d
:1009a0003c0007000f074700450007000f0040000c
:1009b000beff070005003700360007000f0747009d
:1009c0003f0007000f004000cbff07004fb7970024
:1009d0000e00e0000c0035005fb29700efb2970008
:1009e0007fb397008fbb970010002000010020000c
:1009f0006011b8000002720081827200020373006d
:100a0000838373001c0007000c06e800010420002b
:100a1000810f5600deff3a000e00e00005003d00a9
:100a20000802be000a03be0000fe2f000f004000b7
:100a30009eff07000d00e00005003a000fb297008e
:100a40009fb297002fb39700bfb397000a0007002b
:100a50005fb09700efb097007fb197008fb9970014
:100a60004f0778004f06be004f05be004f04be0082
:100a70004f01b10000000600010007000000060061
:100a800094b79f00a5b79f00b6b79f00c7b79f0058
:100a9000000006009fb097004f08de0002017000c2
:100aa000a2b79f000fb097004f01de008180400089
:100ab0008100710091b79f000efe2f00000006001c
:100ac000de0078004f09de000000400000007100e9
:100ad00080b79f006fa897004f01de008180400023
:100ae000010f71000e0007004f3ade0000004000c9
:100af00004007000e0af9f000900070004024200fc
:100b000085824a0006034b0087834b00dcff070009
:100b10000802be000a03be0000fe2f00000006000f
:100b20001fb29700afb297003fb39700cfb39700c3
:100b300000000600881f780018002000881f780039
:100b400080ff07008f87e9004f047800000006004f
:100b5000801feb007bff07008f87e9000000060085
:100b6000889fbe008a9fbe00e00f5000e08f5800b3
:100b7000e00f5900e08f59000c003d006044b800c0
:100b80006055b8000000540081805c0002015d00e7
:100b900083815d00180020001500070008003d005b
:100ba000180007000004eb00050037000004eb000c
:100bb0000f00070002003d0012000700180020008f
:100bc000dcff07000800e000060032006022b800e9
:100bd0006033b8000000520081805a0002015b00bf
:100be00083815b004f05be004f04be00000006007d
:100bf000e00f5200e08f5a00e00f5b00e08f5b00d7
:100c0000000006006044b8006055b80004025400bb
:100c100085825c0006035d0087835d00000006009e
:100c2000889fbe008a9fbe008c1f7800e00f500096
:100c3000e08f5800e00f5900e08f59000d003d0093
:100c40006044b8006055b8000000540081805c002a
:100c500002015d0083815d001c0020000820e1008e
:100c600009a8e1000ab0e1000bb8e1000d003d0069
:100c7000080037000006eb00e00f5200e08f5a003a
:100c8000e00f5b00e08f5b0006003d006044b800b1
:100c90006055b8000402540085825c0006035d00c4
:100ca00087835d00aaff07000c00e0000600320009
:100cb0006022b8006033b8000000520081805a0002
:100cc00002015b0083815b004f0678004f05be0088
:100cd0004f04be0000000600889fbe008a9fbe0031
:100ce0008c1f78000006eb00e00f5000e08f5800ea
:100cf000e00f5900e08f590007003d006044b80044
:100d00006055b8000000540081805c0002015d0065
:100d100083815d001c002000e00f5200e08f5a002c
:100d2000e00f5b00e08f5b0007003d006044b8000f
:100d30006055b8000402540085825c0006035d0023
:100d400087835d000c00a2000c0007000c00e0008f
:100d5000060032006022b8006033b8000000520084
:100d600081805a0002015b0083815b004f0678009e
:100d70004f05be004f04be0000000600889fbe0065
:100d80008a9fbe008c9fbe000404b8000506b80010
:100d90008904460060854e000606b8000a05460034
:100da000e0854e000706b8008b054600040eb8002b
:100db000890446000a854e00e0854d00050eb80006
:100dc0000a0546008b854e00060eb8008b054600ce
:100dd0000416b8000a0546008b854e000516b800bb
:100de0008b054600041eb8008b0546000800be00b7
:100df0000a01be004f06be004f05be004f04be00f4
:100e0000000006008180fb00010037000201e900bc
:100e1000800178000008a300060032000200e00014
:100e2000230032003082fb00810f5200f7ff3a00ae
:100e3000030037000000eb000200e0001e0032005b
:100e40001380fb00810f50001c00320014102000a2
:100e5000048ab90084027800010037000281e900a9
:100e600003007800e10f51000a00360033826a0067
:100e7000f6ef2f00040343000482ea00040263003b
:100e80000608280006026200f4ff32000100370065
:100e90000201e900800178000200e0000500320054
:100ea0003082fb00810f5200f9ff3a000300370047
:100eb000000005000000eb000000060003007800c1
:100ec00000000600010037000201e9000200e00016
:100ed0000500320030427800b1417800834f520063
:100ee000f9ff320001003700000005000480fb001c
:100ef0008381fb00030050000000060080017800a1
:100f000002003700b15978000201e9000200e00058
:100f1000fcff3a00000006008001780081027800a2
:100f2000810f50003b00320002824000840f5000cd
:100f30000300310002024000848f5000010039009c
:100f4000eeff370000826800810f50001b00310067
:100f50000408a30005003200150037000200e0007d
:100f60002c0032000201e900b15978000308a30007
:100f7000faff3a0003037800820278000102780049
:100f800002003700b41978000281e900e10f510036
:100f9000fcff3e00618162000500a1008501430065
:100fa0008582400002003700b55978000201e9004f
:100fb0000200e000fcff3a00000006000408a30065
:100fc00012003a00040037000200e0001100320075
:100fd0000201e90061707900820140000308a3006a
:100fe000f9ff3a0082017800020037000281e9002f
:100ff00061307900e10f5100fcff3e00618161002a
:10100000020037000201e900617079000200e0008f
:10101000fcff3a0000000600889fbe008a9fbe00c9
:10102000800478000200e0005a003200014078009d
:10103000814c780082814400f1f99f00e20f510059
:101040005400360091449800a1449800e1f99f00b3
:10105000d1f99f00e60f51004e003600b1449800d0
:10106000c1f99f00e80f51004a0036000905ea0067
:10107000630565000a8444000a055100c1ff2f0082
:10108000010565000080fb008000eb0012102000cd
:101090001310200090000700008cbe000a014400dd
:1010a00060b99f0071b99f00e80f55003900360004
:1010b00020049800310498004004980051049800de
:1010c00020b99f0031b99f0040b99f0051b99f00de
:1010d000f80f55002f003600600498007104980046
:1010e000000c9800110c9800200c9800310c98000e
:1010f000400c9800510c980020b19f0031b19f0026
:1011000040b19f0051b19f0060b19f0071b19f003d
:1011100000b99f0011b99f0064016400780141008b
:1011200002044400020555006011b8000203be002d
:101130000002be000403be006022b800000072007e
:101140008180720002017300838173000f003700f9
:1011500008027800009abe00029abe00009abe0003
:101160000292be00000c9800110c9800220c98000e
:10117000330c9800400c9800510c9800620c9800b9
:10118000730c98000a02b1000802b000ff0f55006e
:10119000efff3e00090078004f05be004f04be007f
:1011a0000000060080007800040037003104e000f1
:1011b00002003a0000005100000006000101780022
:1011c0000108a300f9ff3a0081017800310178009d
:1011d000f4ef2f00020242000281ea0002016200e5
:1011e0000408280004016100f7ff32008300780042
:1011f000010178003104e000fdff3a0000005100d9
:1012000000000600881f780001047800880078003c
:1012100005000700904f1400010032000000eb00b1
:101220004f04780000000600881f78000004780052
:101230008180fb000a003a0008007800d9ff07000f
:1012400000004400220037001804e00020003200b3
:101250000804e8001081fb00810f51001c003200df
:10126000080078000808a300f7ff3a0014102000d7
:10127000048ab9000801780038007800f5ef2f00e3
:10128000808242008081ea00838262000308280095
:101290008382620007003a0000006a00f5ef2f0029
:1012a000808242000080ea000080620083016000ca
:1012b000f0ff3200020078001204e0000400320067
:1012c0000201e8009081fb00818f5100f9ff3a0094
:1012d0004f04780000000600020ab900001bb900a4
:1012e0000200b800810042008100430000000600b7
:020000040000fa
:1012f000f4874700889fbe008a9fbe008c9fbe0077
:101300008e1f78000004780082447800184078002e
:10131000e14f500012003200e24f50003f00320017
:10132000e34f50005f003200e54f50009300320061
:10133000e64f500070003200e44f50009100320040
:10134000e74f50009a0032004f0778004f06be006a
:101350004f05be004f04be004f01b1000000060063
:1013600018409000a2c0b3000440bc0000f12e0061
:10137000020140003202be0084b79f0095b79f0073
:101380000efe2f000f0747004e00b000321f7800fe
:101390003217780012017800220798002841900047
:1013a0000281fb000201e8004411dd003fe09700ec
:1013b0000080fb00000051004f01de0000004100f2
:1013c0000080d100c44cdd0083c144008341e800ab
:1013d0000040e8005d003300c408dd00014040002b
:1013e00083407800262f020000000000110020003a
:1013f00000fe2f000f0040003e3002000000000001
:101400004f0778004f06be004f05be004f04be00d8
:101410004f01b10000000600d1ff3700f0062000a8
:10142000a84290008582fb008502e800c42add0006
:101430004200dd00c2d12e00000141001282fb00fb
:10144000048052004f02de00000042000080d10004
:101450008381fb008984fb00c44cdd00898141004d
:101460008301e8000040e800480033000000fb0072
:101470008180fb00c408dd0001004000830078008b
:10148000fe2d0200000000004f0778004f06be004e
:101490004f05be004f04be004f01b1000000060022
:1014a000afff3700e0062000a84290008582fb00d5
:1014b0008502e800c42add004200dd00c2d12e0012
:1014c000000141001282fb00048052004f02de0046
:1014d000000042000080d1008381fb008984fb0072
:1014e000c44cdd00898141008301e8000040e80030
:1014f000deff3b002500370030072000a8429000a7
:101500008582fb008502e800c42add004200dd0080
:10151000c2d12e00000141001282fb000480520063
:101520004f02de00000042000080d1008381fb00fa
:101530008984fb00c44cdd00898141008301e800ff
:101540000040e800c9ff3b00100037000040eb00fe
:10155000c408dd000140400083407800262f0200cf
:10156000000000001100200000fe2f000f004000ce
:101570003e30020000000000a1ff370010072000ed
:10158000a7ff370000072000a5ff37000040eb0051
:101590000000fb008180fb00c408dd00010040006a
:1015a00083007800fe2d020000000000b6ff370027
:1015b000080778005e82fb006622b9004c942f0079
:1015c000ec067a0045512f008d8642000d00780010
:1015d000f1b79f0083bf9f00d20802000000000007
:1015e0000002eb00ffb097008fb997000000e00009
:1015f0000f0034008d06e900040178000202780033
:1016000006f12e00dd82fb006a2db900dab79f00db
:10161000ebb79f008a024300b54290008582fb0031
:10162000050242000201e800820f5000f5ff3a0077
:10163000c44cdd0089c141008341e8004408dd005d
:101640000040e800a84090008180fb008100e80095
:10165000c408dd0004825000cf20de000482400078
:101660000482d1000440400083407800262f02000d
:10167000000000001e80fb006600b9006c007800ce
:101680004b512f0000804500a630020000000000f2
:101690004f0778004f06be004f05be004f04be0046
:1016a0004f01b100000006002dff3700e88747001a
:1016b000889fbe008a9fbe008c9fbe008e1f780050
:1016c00000067800e1b79f00f8032000f908200029
:1016d000f33e2800020a2000880078000000eb009a
:1016e0003c2d02000000000070044400890f5400eb
:1016f000f7ff3a00f003200080bf9f000007eb00d7
:10170000660646005b9a2f004d9a2f00eeef9f0071
:101710000004eb006a70b90000057800080045007d
:101720001c0040004200dd008084e800ebc07c002b
:101730000104e000150032000804e800ea0f54003c
:10174000f6ff3a000e07e8000fb89700700040005f
:1017500080bf9f00e40f5700ecff3a00f33e2800e3
:1017600002042000f10320000000eb00422d0200e3
:10177000000000004f0778004f06be004f05be0076
:101780004f04be008f00b100000006000d004000b5
:101790006fb29700f3c3b3006fe9970088407800f9
:1017a000d3fe07006dc07c000080fb000000e80055
:1017b000080040004400dd00f33e28000201200044
:1017c0008fb89700422d0200000000000804e800d6
:1017d000ea0f5400d1ff3a00daff3700f2874700e2
:1017e000889fbe008a9fbe008c9fbe008e1f78001f
:1017f000c0b79f0020422000cfb09700610578005d
:101800000000eb00d0b79f0011c1b300e1e79f00db
:101810004fb0970070004000a0b79f0080422000aa
:10182000cfb097000080400090b79f006d4220002d
:101830008d864000efe097000040eb00262f02006d
:10184000000000001fb09700100115008a0078000a
:101850002fb09700d22d02000100000080457800d3
:101860000b04e00017003200ef044500cfb09700f2
:10187000898440000a047800dcc6b300594178002e
:1018800040f22e008c4f510005003e0002407800cf
:10189000a2c0b3000440bc0001f12e0001004100d1
:1018a000e82f0200000000001d00e900880f500032
:1018b0001b0032000804e8000a40540080cf5500a5
:1018c000eeff3e002e2f0200000000000080fb0013
:1018d0009209200000015100dfb097006f0ab900a3
:1018e000f10042000002eb00f3002000a02c0200f7
:1018f000000000008b85fb000b0545005fb09700e2
:101900000000e800d0b79f00e30f50002f00320026
:10191000efe09700efc04000e1e79f00c5ff370010
:101920002e2f020000000000c0ef9f00322f0200a7
:1019300000000000004378008682fb004fe897001b
:101940000087fb000002eb00f300200012002000e3
:10195000850078000e007800f5b79f0086bf9f00d5
:10196000a02c0200000000000e00e800f43e280059
:10197000f300200022002000ffb09700a02c0200fe
:1019800000000000630047000002eb00f3002000ad
:1019900012002000ffb09700a02c02000000000001
:1019a000cfe8970064c040000fbb970086407800e6
:1019b000262f0200000000000804e8000a4054003e
:1019c00080cf5500adff3e00beff370040422000f3
:1019d000cfb09700610078000000e00017003200ef
:1019e000c2ee2e0071012000b0092000fe2d020081
:1019f0000000000080422000cfb09700008040002f
:101a0000900f5500190039000002eb00c3002000c0
:101a100052002000d1022000b0092000a02c0200ba
:101a2000000000004f0778004f06be004f05be00c3
:101a30004f04be002f01b100000006000002eb00c1
:101a4000c30020005200200071012000b0092000d6
:101a5000a02c02000000000080422000cfb09700c0
:101a600000804000900f5500e7ff310002ef2e008c
:101a7000d1022000b0092000fe2d0200000000006d
:101a80004f0778004f06be004f05be004f04be0052
:101a90002f01b10000000600e8ff370002037800c4
:101aa0000082fb008182fb0001407800a2c0b300ed
:101ab0000440bc008400410036009000808040005b
:101ac000c208dd008180e800509a2f0060c07800d5
:101ad0000080fb00429a2f0062c178000281fb0067
:101ae000020140000201e8004411dd00c428dd00cd
:101af000f103b000000052004400dd000080fb0054
:101b000003027800030120004a2d040000000000b9
:101b1000020278008180fb00c408dd007104b0007f
:101b20000080fb00020320000283b900680043002c
:101b3000030120004a2d040000000000e887470050
:101b4000889fbe008a9fbe008c9fbe008e1f7800bb
:101b50000007780001017800ce4890003e489000d0
:101b6000f33e2800cdff07000002eb000303200036
:101b7000020920007104200080002000a02c020037
:101b8000000000008cc0b3008005eb004d512f0019
:101b90000af12e000e007800e0b79f00000320003d
:101ba00000d8b90068074000c35cdd00c0952f0075
:101bb00089044000780420001904e00019003a006c
:101bc000f88444007004440070072000800f540023
:101bd000f9ff3a008b05e8000c43b000e38f550095
:101be000eeff3a006fb797000e4890000080fb00b0
:101bf000b2aa2a000201b8008300d1006309b9002b
:101c000002005000d2428000c1ff07004f07780059
:101c10004f06be004f05be004f04be008f00b1004e
:101c2000000006000082eb000301200002032000f8
:101c3000880078000e0078004a2d020000000000a5
:101c400099009000f1b79f00010078008080460065
:101c50000100780081bf9f00d20802000000000050
:101c600082c1b3008fb897000000e000110034007b
:101c70008100e9000001eb00820178005182fb0045
:101c80006a22b90004024500344290000482fb003d
:101c9000848141000201e800820f5000f7ff3a0002
:101ca00000032000830150004f19de008301410032
:101cb0000301d1008840e80002404600262f0200c0
:101cc00000000000ffb0970001804600a63002002f
:101cd00000000000f88444007004440070072000f5
:101ce000800f5400b4ff3a00baff3700889fbe004f
:101cf0008a1f780000047800680544009a84fb007d
:101d0000c34cdd00c0952f0080844400180078008b
:101d1000e20f50005400320008003600e60f500079
:101d200058003200e80f500031003200000ceb0088
:101d30004f0578004f04be0000000600e10f500080
:101d4000faff3a000000eb00902d020000000000b6
:101d50008040eb0001407800262f020000000000c8
:101d6000180090004200dd00e1ec2f006140780097
:101d70000080fb0000004000818d2f00e100780012
:101d800040512f0000804000a630020000000000fb
:101d9000f33e2800020a2000010120000000eb00b1
:101da0003c2d020000000000080078008bfe0700b8
:101db00088007800090078003cfe07006e054400aa
:101dc0001a4078000004e00062003200e24f500048
:101dd000d6ff3a000800be0058ff0700000ceb00d9
:101de0004f0578004f04be0000000600d3ff370007
:101df000684890000004e0003e003a005848900017
:101e0000e24f500067003200e14f5000c7ff3a0038
:101e1000f33e2800020a2000010120000000eb0030
:101e20003c2d020000000000f33e2800020a2000c2
:101e3000f10320000000eb003c2d02000000000038
:101e4000c848900038489000d342800009017800cb
:101e500012ff0700000ceb004f0578004f04be0096
:101e600000000600b5ff3700080078005bfe0700a1
:101e7000000ceb004f0578004f04be000000060088
:101e8000aeff3700684890000004e0003a003200de
:101e9000e14f5000f4ff3200e24f5000a3ff3a0040
:101ea000784090000080fb00b9aa2a000901b80020
:101eb0008300d1006309b90002005000f23e2800ff
:101ec00013ff07001a80fb000901b8008300d1004e
:101ed0006309b90002005000d24280000cff0700e5
:101ee000000ceb004f0578004f04be000000060018
:101ef00092ff3700e14f5000b4ff3a00c84890000d
:101f000038489000f33e280009017800e3fe0700fe
:101f1000d3428000020a2000010120000000eb00f3
:101f20003c2d020000000000d3428000020a200085
:101f3000f10320000000eb003c2d02000000000037
:101f4000000ceb004f0578004f04be0000000600b7
:101f50007aff3700c848900038489000d34280008c
:101f600009017800cdfe07001a407800e24f5000ca
:101f70006eff3a0097ff3700a8489000184890007d
:101f8000f33e280009017800c4fe0700c84890000d
:101f900038489000d342800009017800bffe070056
:101fa000acff37000002eb0003042000020a20000f
:101fb000f103200004007800a02c020000000000c3
:101fc0008800780009007800b8fd0700c848900034
:101fd00038489000d342800009017800affe070026
:101fe0009cff3700ec874700889fbe008a9fbe0099
:101ff0008c9fbe008e1f780080047800290490001a
:1020000019044400184090000004e000020032006f
:102010001804e0006d00320049009000e30f50000a
:10202000560032000a003600e50f50006f00320003
:10203000e60f5000440032004f0778004f06be0004
:102040004f05be004f04be00cf00b10000000600e7
:10205000e10f500093003200e20f5000f6ff3a000b
:10206000c84090008180fb00c408dd00f103b0008f
:10207000384090000080fb004400dd000003b00009
:10208000e442800003012000030178004a2d020091
:10209000000000008884e8001985fb000a05e900bb
:1020a0000a0545002e2f0200000000000a0544002a
:1020b000006d98001985fb000a05d0000a05e900ab
:1020c000322f0200000000000a054400006d980055
:1020d0001980fb0067004000684078000080fb002a
:1020e00041cc2f0061407800a2c0b3000440bc0086
:1020f00000f12e00020040003001be00c2b79f0078
:10210000d3b79f00788757004e00b000301f78008b
:102110003017780010007800200798001100200088
:10212000788057003e300200000000004f07780022
:102130004f06be004f05be004f04be00cf00b100e9
:1021400000000600c2ff3700e84090008180fb00dd
:10215000c408dd00f103b000584090000080fb008f
:102160004400dd000003b0000082eb00030120000a
:10217000030178004a2d020000000000c8409000d2
:102180008180fb00c408dd00f103b00038409000fe
:102190000080fb004400dd000003b000d44280005a
:1021a00003012000030178004a2d02000000000016
:1021b0004f0778004f06be004f05be004f04be001b
:1021c000cf00b10000000600a1ff37000002eb00c5
:1021d000f3002000020a2000830078000400780049
:1021e000a02c0200000000008bff37008885e8006b
:1021f0001b80fb0000004000810220008080400026
:10220000e8c478009002b000684578008a40780001
:1022100009407800262f0200000000001b80fb0010
:1022200068004000684078000080fb0041cc2f002f
:1022300061407800a2c0b3000440bc0000f12e0051
:10224000020040003001be00c2b79f00d3b79f001c
:10225000788757004e00b000301f780030177800a4
:1022600010007800200798001100200078805700a7
:102270003e2f0200000000008a40780009407800ec
:10228000262f0200000000004f0778004f06be0016
:102290004f05be004f04be00cf00b1000000060095
:1022a0006bff37000000eb00902d020000000000e3
:1022b0008005eb00708757000dc8b300445edd0059
:1022c00040cc2f000b05400009c4b3001a80fb006e
:1022d0006a00b90002f12e00000041003001be008a
:1022e000c2b79f00d3b79f003001be00e2b79f0086
:1022f000f3b79f00100f7800bfe997000380fb0041
:1023000070001000cf00de00008040000080d1008f
:102310001043b0000040460089407800262f02009c
:102320000000000011002000788057003e300200bd
:102330000000000064054500f0c444008dcf540047
:10234000e2ff3a008b05e800e48f5500dbff3a001e
:10235000090320000a0820008081eb00020420000d
:10236000f103200009007800422d02000000000067
:10237000f08444008a8f5400f7ff3a00f9032000ec
:10238000fa0820008081eb00020420008900780018
:10239000000320003c2d020000000000f0844400f7
:1023a0008a8f5400f7ff3a00c84090008180fb00fc
:1023b000c408dd00f103b000384090000080fb004d
:1023c0004400dd000003b000d4428000030120007f
:1023d000030178004a2d0200000000008040eb005d
:1023e00001407800262f02000000000049512f0014
:1023f000808e2f0010804400a630020000000000f4
:102400001804e0000b003a00f1c0b3000040eb00fc
:10241000262f0200000000004f0778004f06be0084
:102420004f05be004f04be00cf00b1000000060003
:1024300007ff3700f1c0b3000040eb00262f020079
:1024400000000000a08e2f0010804400a630020083
:1024500000000000f1c0b3000040eb00262f020096
:1024600000000000ecff3700881f78002004900077
:10247000100444001804e0000900320040009000fd
:10248000e10f500037003200e60f500060003200cc
:10249000e20f5000200032004f04780000000600d8
:1024a00040009000e10f500008003200e20f5000a1
:1024b000f9ff3a00a0fa2f0090310200000000005e
:1024c0004f04780000000600f5ff37000000eb0025
:1024d000902d02000000000021c3b3000040eb007b
:1024e000262f02000000000040512f00018e2f0017
:1024f00011004000a63002000000000081c3b300bc
:102500000040eb00262f0200000000004f0478007e
:1025100000000600e2ff3700a0fa2f009031020011
:1025200000000000284090000004e000daff3a00bc
:10253000384090000004e000d7ff32000002eb00ba
:10254000f3002000020a200061042000040078004b
:10255000a02c0200000000004f04780000000600dc
:10256000cfff37000000eb00902d020000000000bc
:102570002840900048512f000004e0000f003a006e
:102580008040eb0001407800262f02000000000090
:10259000208e2f0010004400a63002000000000032
:1025a000f1c0b3000040eb00262f02000000000045
:1025b0004f04780000000600b9ff370061c4b30083
:1025c0000040eb00262f020000000000608e2f006c
:1025d00010004400a6300200000000008040eb0024
:1025e00001407800262f020000000000208e2f00fe
:1025f00010004400a630020000000000f1c0b3004b
:102600000040eb00262f020000000000e8ff37002a
:1026100031c2b3000040eb00262f02000000000092
:1026200040512f00418e2f0011004000a6300200c3
:102630000000000021c3b3000040eb00262f020081
:10264000000000004f0478000000060094ff3700ef
:10265000889fbe008a9fbe00010578007100b90006
:10266000f34540008384fb000284fb008b80fb0069
:102670008a01780009017800080078003c2d0200ea
:1026800000000000f1c545008b80fb008a01780046
:1026900009017800080078003c2d020000000000cd
:1026a0004f05be004f04be0000000600889fbe001c
:1026b0008a9fbe00810478007105b900734545000a
:1026c0000284fb008a80fb000801be000000eb00d2
:1026d0003c2d020000000000714545008a80fb008f
:1026e0000801be000000eb003c2d020000000000cd
:1026f0004f05be004f04be0000000600ec874700f7
:10270000889fbe008a9fbe008c9fbe008e1f7800ef
:10271000200790001004780068004000f0b79f0088
:102720008000780011007800e10f50000a003200ac
:10273000e60f50001a003200e70f50001800320078
:102740004f0778004f06be004f05be004f04be0085
:10275000cf00b100000006000000eb00902d020049
:10276000000000008040eb0001407800262f0200ae
:102770000000000040512f0041902f001100400048
:10278000a630020000000000f33e2800020a2000ec
:10279000010120000000eb003c2d020000000000c1
:1027a000080747001e04e000e5ff3200a063200098
:1027b0006e0078006044b800e60f50005700360005
:1027c000216320006e8478008004eb0062045400d2
:1027d000e0845c004240a900c90034008000eb00a6
:1027e00066005000e0805800800f5400818f5c002c
:1027f0004a0035000004be0010c0b30090ef9f00f7
:102800008040eb0081ef9f00a1c9b3000040eb00c6
:10281000362f0200000000002c0420000cc6b90076
:102820000c86e8000c0647008005eb000040eb003a
:10283000a0ef9f004ac1b3004063200000004700a2
:1028400080bf9f006063200000004700e0b79f004a
:102850002d6320008d0647008a4078000040eb0081
:10286000262f0200000000008fb8970011007800aa
:102870006101b800820f5400838f5c000e003500a8
:10288000efb09700110040008000eb00800f540073
:10289000818f5c0008003d001c04e00061003200f4
:1028a0002004200000c0b900000047007300400071
:1028b0005e300200000000002e2f02000000000029
:1028c0000080fb00b209200000015100715ab900dc
:1028d000f40042000002eb00f3002000a02c0200f4
:1028e000000000001d0078008000eb00880f500001
:1028f000898f5800220032008b05e8002c04b000bc
:1029000090c6b300804f550023003200610444009c
:10291000e0844c0071454500cfff370010c0b30084
:1029200090ef9f008040780081ef9f00a1c9b30025
:102930000040eb00362f0200000000002c042000b5
:102940000cc6b9000c86e8000c0647008005eb00b9
:102950000040eb00a0ef9f004ac1b300406320009d
:102960000000470080bf9f00606320000000470018
:10297000e0b79f002d6320008d064700b6ff3700ab
:10298000abef9f008b05e8002c04b00090c6b300ad
:10299000804f5500ddff3a00ffb09700110078002e
:1029a000e60f50004b003200e10f500049003200aa
:1029b00001cab3000040eb00362f02000000000007
:1029c0009fe897000104e0002c003200c2ee2e00c8
:1029d00071012000b0092000fe2d0200000000005f
:1029e0000fe897000004e0002e003a000002eb0020
:1029f000c300200052002000e1062000b0092000a2
:102a0000a02c0200000000004f0778004f06be0017
:102a10004f05be004f04be00cf00b100000006000d
:102a20004dff370040512f0061922f0011004000f0
:102a30005e300200000000002e2f020000000000a7
:102a40000080fb00b209200000015100715ab9005a
:102a5000f40042000002eb00f3002000a02c020072
:102a6000000000001d0078008000eb00880f50007f
:102a7000898f5800a0ff3a00c1ff37000002eb0029
:102a8000c30020005200200071012000b009200086
:102a9000a02c0200000000000fe897000004e000f6
:102aa000d2ff320002ef2e00e1062000b009200024
:102ab000fe2d0200000000004f0778004f06be0008
:102ac0004f05be004f04be00cf00b100000006005d
:102ad00021ff37005e40780002cab3008000eb009f
:102ae000f2fe07002fe89700004f780002cab300fb
:102af000d14280002fe89700ecfe0700acff3700c2
:102b00006044b8000040eb0090ef9f0011c0b3009c
:102b100081ef9f00a1c9b3000040eb00362f0200f7
:102b2000000000002c0420000cc6b9000c86e80050
:102b30000c0647008005eb000040eb00a0ef9f0073
:102b40004ac1b300406320000000470080bf9f00df
:102b50006063200000004700e0b79f002d63200065
:102b60008d0647003cff37000000e00001003a00fe
:102b7000000006000040e90002cab300cbfe3700a7
:102b8000889fbe0020049000100444004000900084
:102b9000e10f50000d003200e60f5000020032003d
:102ba0004f04be0000000600180890008000eb00f3
:102bb000edff070008089000d1428000eaff0700ff
:102bc0004f04be0000000600f7ff37000000eb00d6
:102bd000902d0200000000008040eb0001407800d2
:102be000262f02000000000049512f0020902f00e6
:102bf00010804400a630020000000000f33e2800d0
:102c0000020a2000010120000000eb003c2d020020
:102c10000000000041c1b3000040eb00262f02007d
:102c200000000000a0902f0010804400a630020099
:102c30000000000041c1b30040c2b300262f0200d3
:102c400000000000740044005e300200000000003c
:102c500051c2b3000040eb00262f0200000000002c
:102c6000c0902f0010804400a63002000000000039
:102c700051c2b30040c2b300262f02000000000082
:102c800040062000080040005e3002000000000006
:102c900061c3b3000040eb00262f020000000000db
:102ca000e0902f0010804400a630020000000000d9
:102cb00061c3b30040c2b300262f02000000000031
:102cc00040082000080040005e30020000000000c4
:102cd00071c4b3000040eb00262f0200000000008a
:102ce00000912f0010804400a63002000000000078
:102cf00071c4b30040c2b300262f020000000000e0
:102d0000400a2000080040005e3002000000000081
:102d100081c5b3000040eb00262f02000000000038
:102d200020912f0010804400a63002000000000017
:102d300081c5b30040c2b300262f0200000000008e
:102d4000400f2000080040005e300200000000003c
:102d500008089000d142800083ff07004f04be00a6
:102d60000000060090ff3700a001900010017800dd
:102d7000c0009000e98f5000010032000000060002
:102d800002804100d9fb3700c0009000e18f500065
:102d90000100320000000600a000900010804000fa
:102da00090310400000000000000e0000400320048
:102db000e10f50000f003200e20f5000010032001e
:102dc000000006000102780013012000e20120004b
:102dd00011052000400620004a2d020000000000de
:102de00082ee2e0031052000c0062000fe2d0400da
:102df000000000000102780013012000e201200021
:102e000011052000020078004a2d02000000000099
:102e100002ee2e003105200060022000fe2d04008d
:102e200000000000889fbe00a004900010047800fd
:102e300040009000e10f500004003200e60f500007
:102e4000100032004f04be00000006000002eb003c
:102e50008305200082072000410120000100780046
:102e6000a02c0200000000000082eb00830520007f
:102e70008207200041012000010078004a2d020055
:102e8000000000000884440081c8b30080c1b30082
:102e9000362f02000000000081c1b300014078001d
:102ea000262f02000000000008007800a630020073
:102eb000000000002803b0008000eb00100020009c
:102ec000980f10001700320010002000b6ff070016
:102ed0008000eb0020002000980f10000900320055
:102ee00020002000b0ff070001cab3000040eb0043
:102ef000362f0200000000004f04be000000060054
:102f0000d2ff3700d142800020002000a6ff07003a
:102f100001cab3000040eb00362f020000000000a1
:102f2000f5ff3700d1428000100020009eff07000f
:102f30008000eb0020002000980f1000e8ff3a000e
:102f4000f0ff3700889fbe00020478008081fb00fc
:102f5000e38141000140780012c1b3000440bc008d
:102f600082844100080278001300200042082000fb
:102f700089007800e0002000a02c02000000000082
:102f8000f18044000802780013002000420820006d
:102f9000e0002000a02c0200000000004f04be0052
:102fa00000000600889fbe008a9fbe008c9fbe0066
:102fb0008e1f780020049000100444004000900010
:102fc000e10f50003d003200e60f500005003200d6
:102fd0004f0778004f06be004f05be004f04be00ed
:102fe00000000600f2044400194078007100b900a6
:102ff000664040000080fb00010820000080500077
:103000004f05de00000045000005d10021c9b300d6
:10301000e0c0b300362f0200000000001904e000f9
:1030200014003200644645008045eb008e8d2f0071
:103030004d512f008c407800e0c0b300262f0200d5
:10304000000000000b80fb000000400068007800da
:10305000000040006e00780000804600a6300200ac
:10306000000000008b45e8007146460099cf15002e
:10307000f0ff3e00b80890000001eb000a40780025
:10308000b0ff0700a8089000d24280000a407800f4
:10309000acff070001cab3000040eb00362f02006e
:1030a000000000004f0778004f06be004f05be002d
:1030b0004f04be0000000600caff3700f2044400bf
:1030c000194078007100b900e64540008b85fb008f
:1030d000000820000b0050004f05de0000004500f6
:1030e0000005d1000a86fb000002eb008b0178008e
:1030f000c20820008c007800a0002000a02c020054
:10310000000000000082eb008b017800c208200064
:103110008c007800a00020004a2d02000000000072
:10312000baff3700e6874700889fbe008a9fbe002f
:103130008c9fbe008e1f7800a004900090844400f5
:103140006804400018007800e10f50003800320099
:10315000e60f500053003200604120006900780003
:103160000000e0002a003200c2ee2e0071012000b3
:10317000b0092000fe2d0200000000008041200068
:10318000690078008000eb0066005000e080580085
:103190001100330062412000690179008001eb00d9
:1031a000820f5000838f58000b00340002ef2e0076
:1031b000e1062000b0092000fe2d02000000000002
:1031c0004f0778004f06be004f05be004f04be00fb
:1031d0006f00b100000006000002eb00c3002000f9
:1031e00052002000e1062000b0092000a02c0200bf
:1031f000000000004f0778004f06be004f05be00dc
:103200004f04be006f00b10000000600f2ff37005f
:103210000002eb00c30020005200200071012000da
:10322000b0092000a02c020000000000d3ff3700ee
:103230000000eb00902d0200000000008040eb0039
:1032400001407800262f020000000000004120000d
:10325000690078004200dd00f1ec2f006140780049
:103260000080fb0000004000818d2f00e10078000d
:1032700040512f0000804000a630020000000000f6
:10328000f33e2800020a2000010120000000eb00ac
:103290003c2d02000000000018007800e10f5000f3
:1032a000abff3a006b4120008b8544000004eb002b
:1032b000080578001b00e000500032004c4120005f
:1032c0000c8644000a05e8001c0114008800780000
:1032d00009007800d22d0200010000000080fb00f0
:1032e000000444009b0f1500f6ff3a008006eb0037
:1032f0002ec1b3004041200000804400f0b79f0081
:103300000cf12e00dbc6b3008e4078000040eb00cd
:10331000262f020000000000ffb097001100780087
:103320000005eb00880f500019003e002e2f020010
:10333000000000000080fb00910920000081500087
:10334000716ab900f20042000002eb00f3002000b5
:10335000a02c0200000000008d06e800e68f560059
:103360007dff32000a044400714747008e40780018
:103370000040eb00262f020000000000ffb0970085
:10338000110078000005eb00880f5000e7ff3600c1
:10339000080150008800780009007800d22d020052
:1033a000010000000085fb00e0ff32000000eb00a0
:1033b00080007800080040006941780040f22e004b
:1033c0008b4f510004003e0002407800a2c0b300c1
:1033d0000440bc000c00410081bf9f00e82f0200a8
:1033e000000000008fb897008100e800010078001d
:1033f0008a8f5000efff3900ccff37008006eb00ca
:103400002ec1b3004041200000804400f0b79f006f
:103410000cf12e00dbc6b300bbff3700889fbe0057
:103420008a9fbe008c1f78002006900090057800cf
:1034300040009000e10f500006003200e60f5000ff
:10344000160032004f0678004f05be004f04be0044
:10345000000006000000eb00902d020000000000bc
:103460008040eb0001407800262f020000000000a1
:1034700040512f0061902f0011004000a630020043
:1034800000000000f33e2800020a20000101200095
:103490000000eb003c2d02000000000082ef2e0037
:1034a0004101200050002000fe2d0200000000001d
:1034b00041c1b30090c1b300262f020000000000fc
:1034c000004380000000e00072003200e10f500075
:1034d0009a0032002e2f0200000000000080fb0046
:1034e000020a2000000151000002eb00f30020005e
:1034f00041012000a02c02000000000042ef2e003d
:103500005102200050002000fe2d020000000000ab
:1035100051c2b30090c1b300262f0200000000008a
:103520000002eb00d30020002200200061022000f6
:1035300070012000a02c0200000000000002eb003f
:10354000d30020002200200061022000900520000e
:10355000a02c020000000000990120000004eb00f4
:103560000a10200008007800800fb20008027800de
:10357000c40fb2004322dd00c800dd0004827000e9
:103580004300de0004027000d3002000120020007f
:103590006102200009007800a02c02000000000059
:1035a000640444008904e8008a0f5400edff3a00e7
:1035b0008b0446005ec8bf000080fb004600dd00b3
:1035c000b14721000180b900438cde00790044003e
:1035d000d4428000d30020001200200061022000ad
:1035e000a02c020000000000780044000002eb0064
:1035f000d30020001200200061022000a02c020055
:10360000000000007a0044000002eb00d30020001c
:103610001200200061022000a02c02000000000027
:10362000c2ef2e006103200050002000fe2d02009a
:103630000000000061c3b30090c1b300262f020058
:1036400000000000d442800093002000020420000b
:103650009103200090012000a02c02000000000037
:103660001940900002cab3008000eb000ffc070075
:1036700002cab300d1428000194078000bfc070059
:103680004f0678004f05be004f04be000000060044
:1036900070ff370040512f0041912f001100400072
:1036a000a6300200000000002e2f020000000000e3
:1036b0000080fb00020a2000000151000002eb0024
:1036c000f300200041012000a02c020000000000b7
:1036d00042ef2e005102200050002000fe2d02007b
:1036e0000000000051c2b30090c1b300262f0200b9
:1036f000000000000002eb00d300200022002000a8
:103700006102200070012000a02c020000000000d7
:103710000002eb00d3002000220020006102200004
:1037200090052000a02c020000000000990120005c
:103730000004eb000a1020008aff370040512f00e0
:1037400061912f0011004000a6300200000000002f
:103750002e2f0200000000000080fb00020a200063
:10376000000151000002eb00f300200041012000a5
:10377000a02c02000000000042ef2e0051022000a9
:1037800050002000fe2d02000000000051c2b300d6
:1037900090c1b300262f0200000000000002eb00e1
:1037a000d3002000220020006102200070012000d0
:1037b000a02c0200000000000002eb00d30020005b
:1037c000220020006102200090052000a02c0200b1
:1037d00000000000990120000004eb000a10200006
:1037e00060ff3700889fbe000284fb008004eb006e
:1037f000484bdd00c843de00870373004843dd000b
:103800000381fb008001eb000203730083837300dc
:103810000080fb004200dd00000042008181fb00cf
:103820000200200002187300039073004f04be00d2
:10383000000006000080fb004200dd0000014100a6
:10384000b201780006f02f00070020000682610018
:10385000870278004828dd004822de00040270005c
:10386000c82ade001280fb0084c1510004417800a8
:1038700077fb3700ec874700889fbe008a9fbe0019
:103880008e1f7800000478007066260000c0b90022
:10389000c28dde004fc0de00808555000b80fb002e
:1038a0004acc2f006a407800a2c0b3000440bc009c
:1038b00009f12e00028144003200be00e0b79f00f3
:1038c000f1b79f00748757004e00b000321f780098
:1038d00032177800120178002207980011002000aa
:1038e000748057003e300200000000006a58b900a2
:1038f000000454000884fb006a407c00a2c0b300ae
:103900000440bc00828444003900be00e0b79f0040
:10391000f1b79f00748757004e00b000391f780040
:1039200039177800990478002907980011002000c1
:10393000748057003e300200000000004f077800fe
:103940004f05be004f04be00cf00b10000000600ce
:103950002f02b000889fbe008a9fbe008e1f780095
:10396000a00490001004780040009000e10f500087
:1039700007003200e60f5000170032004f077800b2
:103980004f05be004f04be002f02b100000006002c
:103990000000eb00902d0200000000008040eb00d2
:1039a00001407800262f02000000000040512f0047
:1039b00081902f0011004000a6300200000000009e
:1039c000f33e2800020a2000010120000000eb0065
:1039d0003c2d020000000000088444006efd2f0012
:1039e0000f0747009001200001002000009fbe004b
:1039f00002f02e004101200050002000fe2d0200a8
:103a00000000000041c1b30090c1b300262f0200a6
:103a1000000000002e2f020000000000004578008a
:103a20002800900093ff07002e2f020000000000e6
:103a3000804478000a85fb008005eb004859dd00d2
:103a4000c851de00830171004851dd000980fb0090
:103a50008000eb00001f7100019771000980fb00de
:103a600082f02e0041012000fe2d02000000000027
:103a700064c5440041c1b3000a407800262f02000b
:103a800000000000180090007aff07002e2f0200af
:103a900000000000804478000a85fb008005eb00f0
:103aa0004859dd00c851de00830171004851dd0036
:103ab0000980fb008000eb00000271008182710030
:103ac000f4af9f0085b79f000980fb0082f02e00b5
:103ad00041012000fe2d020000000000e4c444006b
:103ae00041c1b30009407800262f02000000000009
:103af000180078005fff07002e2f02000000000072
:103b00000981fb008001eb00481add00c812de00cd
:103b1000850272004812dd000081fb008001eb008d
:103b2000020372008383720096b79f00a7b79f00bd
:103b30000080fb00090a2000008154000002eb0015
:103b4000f300200041012000a02c02000000000032
:103b50009001200011002000b0b79f00c1b79f0066
:103b600042f02e005102200050002000fe2d0200e5
:103b70000000000051c2b30090c1b300262f020024
:103b8000000000002e2f0200000000000047780017
:103b90003800900037ff07002e2f020000000000c1
:103ba000004578000a80fb008000eb000100a000c7
:103bb0000e82fb008002eb004829dd00c821de00f8
:103bc000830171004821dd000202700083827000d1
:103bd000d4b79f00e5b79f000a80fb00c2f02e001b
:103be00051022000fe2d0200000000006447450045
:103bf00051c2b3000e407800262f020000000000e2
:103c0000480090001bff07002e2f0200000000005c
:103c1000004578000a80fb008000eb000100a00056
:103c20000e82fb008002eb004829dd00c821de0087
:103c3000830171004821dd0002037000838370005e
:103c4000f6b79f0087bf9f000a80fb00c2f02e00de
:103c500051022000fe2d02000000000064454500d6
:103c600051c2b3000a407800262f02000000000075
:103c700060cc2f001080fb006a00b9000ef12e000e
:103c800000004700110020003e300200000000004c
:103c900040cc2f001080fb006a00b90000004700f4
:103ca000110020003e30020000000000580090008b
:103cb000f0fe07002e2f0200000000000081fb0034
:103cc0008001eb000300a0000a85fb008005eb00eb
:103cd000485add00c852de00850272004852dd00fd
:103ce000040371008583710096bf9f00a7bf9f00ea
:103cf0000080fb00008154000002eb00f300200074
:103d000051022000a02c02000000000098589000f2
:103d1000e1cf40000600320010c0b300e3cf5000f6
:103d20000e00360002cab3008000eb005ffa070005
:103d30000858900062fd2f000f014100d142800021
:103d4000bcfe07004f0778004f05be004f04be00c1
:103d50002f02b100000006000dff37000040eb000d
:103d600002cab3008000eb0050fa0700f0ff3700f2
:103d7000889fbe00000478000000eb00003d0200b8
:103d800000000000e60444001980fb008000eb0006
:103d900061005000e0805800ee0f5000e08f5800a6
:103da00012003e00006001001600370017003700c7
:103db00016003700150037000c0037007800370078
:103dc000080037002e003700360037003e0037006d
:103dd000460037004e003700560037005e003700bf
:103de00066003700080078007ef807006804440089
:103df000000ceb00fc3c0200000000004f04be0081
:103e00000000060008007800dffb0700680444009b
:103e100010002000980f1000f5ff3a000000eb00a2
:103e2000902d0200000000008040eb00014078006f
:103e3000262f02000000000019407800e24f5000d9
:103e400060003200e34f500069003200e44f500040
:103e5000e7ff3a0040512f00c18d2f0011004000b4
:103e6000a630020000000000000ceb00fc3c020049
:103e7000000000004f04be0000000600e1ff370014
:103e8000080078001dfa070068044400000ceb00ed
:103e9000fc3c0200000000004f04be0000000600d1
:103ea000d8ff37000800780035fb0700680444009d
:103eb000000ceb00fc3c0200000000004f04be00c0
:103ec00000000600cfff37000800780095fc0700cf
:103ed00068044400000ceb00fc3c02000000000001
:103ee0004f04be0000000600c6ff3700080078003f
:103ef0009dfb070068044400000ceb00fc3c020042
:103f0000000000004f04be0000000600bdff3700a7
:103f100008007800c3fb070068044400000ceb00b5
:103f2000fc3c0200000000004f04be000000060040
:103f3000b4ff3700080078001afc0700680444004a
:103f4000000ceb00fc3c0200000000004f04be002f
:103f500000000600abff3700080078002ffd0700c7
:103f600068044400000ceb00fc3c02000000000070
:103f70004f04be0000000600a2ff370008007800d2
:103f800073fe070068044400000ceb00fc3c0200d8
:103f9000000000004f04be000000060099ff37003b
:103fa0000800780030f9070068044400000ceb00ba
:103fb000fc3c0200000000004f04be0000000600b0
:103fc00090ff370040512f00818d2f0011004000dd
:103fd000a630020000000000000ceb00fc3c0200d8
:103fe000000000004f04be000000060085ff3700ff
:103ff00040512f00a18d2f0011004000a63002007b
:1040000000000000000ceb00fc3c0200000000007f
:104010004f04be00000006007aff37005098800071
:10402000e70f50001b003e00509880001848e20047
:104030002e003a0011c0b3008281200001497800af
:104040008080fb00529880008100510051988800c8
:104050007140800080487800f1312100d140880013
:10406000419880000108a300160032000004e0001f
:104070002900320031988000d24080003159780008
:10408000d2408800319888000040e900f9ff3a00ea
:104090000000060081002000014078005298800056
:1040a000810051005198880071408000804878005c
:1040b000f1312100d1408800419880000108a3001f
:1040c000eaff3a000004e000f1ff3200319880007e
:1040d000d240800031597800d24088003198880061
:1040e0000040e900f9ff3a0000000600818120004d
:1040f00091407800e1cf5000020032008080fb0048
:10410000d0ff370021c0b300828120000149780030
:104110008080fb00cbff3700000006009ec0a90096
:104120008ac1a8000ea4ef000aa4ef002a24ef0021
:104130002c24ef0020002000302188002824ef00ec
:104140000644a900f0092000802088006020880033
:1041500002c4a8000804a800064021004830de0080
:10416000c02088006000b80000a0880011a088006e
:1041700020a0880031a0880040a0880051a08800bd
:1041800060a0880071a0880080a0880091a08800ad
:10419000a0a08800b1a08800c0a08800d1a088009d
:1041a000e0a08800f1a088001424a8001624ef00e5
:1041b00014a4a9001424a90085302100e4302100b2
:1041c000f2302100013121008300200053208800bb
:1041d000804aeb00004aeb00124078000049eb00f7
:1041e000114078008048eb0050208000680060009b
:1041f000f6ff3a0013c0b3000282200003497800a2
:1042000012822000034978000268ef000068ef0086
:104210000468ef000a28ef0031312100804878005f
:1042200051312100804878001028ef000c28ef0061
:1042300041312100804878006131210080487800b8
:104240008040210070408800d0002000502188006c
:104250007031210010a0880080002000004b780001
:104260001040210041c0b300014878001074a00044
:104270000868ef002228ef002428ef000968ef000b
:104280000628ef00000006008181fb000338a30030
:1042900012003a000080fb000328a3000b0032004c
:1042a000800140000301e8004311dd0004402100cb
:1042b0000401410012f0a100e480200002b2790064
:1042c00012e0a1006401410012e0a00000004000e3
:1042d000a242200001717800000006000080fb006f
:1042e00000024000c322dd000240210002814200a2
:1042f00012f0a100a580200082327a0012e0a10015
:104300006401410012e0a000e3ff37000104e00077
:10431000170032008082fb0005804200e48020000c
:10432000640278000000eb000400e0000f0032009f
:1043300012029800034a78000400780003c4b30016
:1043400050c161000234a0000274a000024878004d
:104350000104e0000b003a0085824200a0802000aa
:10436000850240001520a20004007800000006002d
:104370008082fb0005804200a48020006402780057
:10438000e8ff370085824200e0802000850240007f
:104390001520a20004007800000006000004e000e0
:1043a0000f0032008180fb000080fb000000400015
:1043b000008040004300dd00034021008080410078
:1043c00042c8b30051427100844878006400400044
:1043d0000080410050417100024878000000060052
:1043e00081c0b300b0408000014878001688ec001e
:1043f00071312100010878001608ec00c1c0b3003b
:1044000001487800b0408000d04078000174a000de
:10441000014878000e08ec0041c0b3000148780064
:1044200070408000d04078000174a00001487800fe
:1044300000000600889fbe0014a4ab0017003200e5
:104440000080fb0000004000e18020000080400070
:10445000900078001104be00060420000700200030
:104460000602780008016200870178008288be0099
:10447000900078001160a200900078000120a20056
:104480000108780003c4b30051c16100824878007c
:104490001000780050426a00044878004f04be00c3
:1044a000000006001424ef000c24ef000628ef00a3
:1044b000000006000608e20014003a008cc1ab00c0
:1044c000120032001424ef000c24ef002000200022
:1044d000302188002824ef000644a900f0092000bc
:1044e000802088006020880002c4a8009ec0a80028
:1044f0001404ab0003003a001404a8001404ab0039
:10450000fdff32001000200030408800000006004f
:104510002048e2000b003a0010c0b30020e8b700ca
:104520002148e20007003a0021e8b70019c8bf009f
:10453000e24f50001d00320019c8bf00e14f50008b
:1045400001003200000006001e68ef0083c0b300c7
:10455000a14080008348780072312100a140800092
:104560008180e80082087800a14080008100e80096
:1045700044c0b30084487800a140800051427800d4
:104580000474a000844878001ee8b700b0408000a2
:10459000034878001688ec00020878001608ec0042
:1045a00001c8b30001487800000006007040800098
:1045b0000048eb000e08ec0081c4b300014878000d
:1045c00070408000d04078000174a000014878005d
:1045d000000006000268ef000068ef0019c8bf0085
:1045e000e24f50001a003200d13121001181fb004e
:1045f000e03121009081fb00c819dd0083017100ca
:1046000052988000828f5100050031009180fb009c
:104610001080fb004800dd0000807000509888008a
:104620007efe07000e88ec00f131210001087800c1
:104630000e08ec0081c4b30001487800704080008f
:10464000d04078000174a000014878000000060006
:1046500081c0b300b0408000014878001688ec00ab
:10466000f1312100010878001608ec0081c4b30084
:1046700001487800b0408000d04078000174a0006c
:1046800001487800000006001041800021418000b0
:1046900061004000e080480010418800214188000e
:1046a0000448e20004003a000968ec000948e2000e
:1046b00001003a0009e8ef0000000600e887470023
:1046c000889fbe008a9fbe008c9fbe008e1f780010
:1046d00030408000e10f5000380032000084ab0011
:1046e000020032000284ab008e003a000824ab00c6
:1046f0002b003a000a04ab00020032000c04ab00ad
:1047000098003a000a84ab00020032000c84ab002f
:10471000a9003a0000c4ab007c003a000a44ab0098
:10472000090032000c44ab00b1003a004000200008
:10473000502088001f48e200010032001f68ed0091
:104740001f48e200830032000ae4ab000b00320095
:104750000ce4ab00090032002a24ab000500320053
:10476000a040800001c8b300d0cf1000e7003200a5
:104770002a24a90000082000502088000a24ab0049
:10478000020032000c24ab007f003a003040800071
:10479000e30f5000020036000c64ab000f003a003b
:1047a0008ec0a9004f0778004f06be004f05be001f
:1047b0004f04be008f00b1000000060014c4ab001f
:1047c000c6ff3a000aa4ef000c04a8000c84a8005d
:1047d0002000200030408800c0ff370048c0b300f0
:1047e0000ac02300094023000b0024000c402800cd
:1047f0000a64ab00eaff3200902080001ce8b7009a
:104800001cc8bf000080fb004400de001de8b700ac
:1048100080002000502088001cc8bf000038a30082
:104820007d003a00d1812000914078008180fb001a
:104830005031210081004000114178006140610049
:104840000004a2000204a100804871001d48e2009b
:104850007d003a00d0c2b3001fe8b700c18120003c
:1048600091407800b10fb2007f003a001cc8bf0031
:10487000c00fb2000340210000804100a04088002a
:10488000000178000220a200b240880010026500fa
:10489000890f5200b30032009181200091407800ce
:1048a000e2cf5000e90132001968ef001e48e20033
:1048b00092003a0080c0b300004978001688ec00ee
:1048c00071312100010878001608ec00c1c0b30066
:1048d00001487800b0408000d04078000174a0000a
:1048e000014878000844e900c1ff3a008ec0a900e1
:1048f0004f0778004f06be004f05be004f04be00b4
:104900008f00b10000000600acff3700000420005b
:10491000002088005cff07000a44ab008aff3200d9
:1049200080ff370008012000082088000468ef009d
:104930000001eb008200780040072000063f0200e3
:10494000000000000284a900082088000968ef0028
:1049500066ff3700eefe07000ae4ab0087ff320077
:104960007bff3700edfd07009ec0a800400020003f
:104970003040880010002000502088000a84ab00de
:1049800064ff320061ff3700120020008000eb005e
:10499000f0ff2700063f0200000000000ea4ef0019
:1049a000200020005020880030408000e30f50009d
:1049b00079ff3e007aff37000284a8000001200042
:1049c0005020880010c0b30004e8b7000968ef0069
:1049d0000001eb008200780050072000063f020033
:1049e0000000000000c4ab004cff3200c7ff3700de
:1049f000120020008000eb0030072000063f02007c
:104a00000000000040002000502088001f48e20005
:104a10004bff320049ff3700d181200091407800e0
:104a20008180fb003031210081004000114178007d
:104a3000614061000004a2000204a10080487100ee
:104a40001d48e20083ff32000001eb00c18120001d
:104a500020072000063f0200000000000844e90093
:104a600063ff3a00a1ff37001cc8bf00b00fb200bf
:104a7000e80f50009bff3a007040800090007800e3
:104a8000ce08de00e1c660000020a2007040880071
:104a900031408000e88f50002900320091812000d1
:104aa00091407800e1cf5000e0013200ed3021006c
:104ab0001d04e0000d003d00113121001181fb00bb
:104ac000203121009081fb00c819dd000301710035
:104ad000050032009180fb001080fb004800dd00e3
:104ae00000807000000001001d74a1001968ef0033
:104af0000844e9003eff3a007cff37001e68ef00e3
:104b00000844e9003aff3a0078ff3700724080001d
:104b10000201e80041c8b30092cf100014ff3a0030
:104b2000c1c0b30001487800a0408000d0407800a8
:104b30000174a000014878002a24a9000dff370065
:104b4000913121009180fb00f107b200b120880073
:104b50001604e200b2013200010120003140880059
:104b6000ceff3700100090007e312100723121000d
:104b700007000900305978008000b1001868ef0084
:104b80000168ef000268ef000068ef001e68ef00a8
:104b90001968ef0070408000504178000274a10055
:104ba00002487800704080000020a2007040880019
:104bb000504178000274a100024878000e48aa0013
:104bc000b0408000504178000274a1000248780093
:104bd000823021000049eb0051988800ed3021001f
:104be000804eeb00f0302100904078000048eb0050
:104bf00000312100904078000048eb0001c6b3006e
:104c00001ec0600078003a00863121001680fb004b
:104c10008000eb00eb0f5000e08f580072003e0068
:104c200000600100eb0037000a0037006e0037001b
:104c3000080037006c003700e0003700cf00370075
:104c4000c8003700bb0037009700370087003700e7
:104c50007d0037009131210011417800e14f510072
:104c60000a003a009e4178007fc0610007003a00c8
:104c7000409880000070a0004098880030c0b300c9
:104c8000964f1000350232000368ef001104e00077
:104c900055003a009e4078007fc06000e24f50000f
:104ca00051003a00b3312100134178006f40610098
:104cb0004d003200934078006fc060000080fb0020
:104cc000e10f500048003c00000220000608e3000d
:104cd00045003a00409880000070a000409888008d
:104ce0001304e00029023500134178006f40610091
:104cf0000080fb0000004000a180200061027800dd
:104d0000934078006fc060000080fb0051312100ab
:104d1000e14278000508a3001a023a000420a1002d
:104d2000b03121001304e0000f023500104078007c
:104d30006f4060000080fb0000004000a180200068
:104d40008430780032c0b300964f1100e601320083
:104d5000840078000120a2001100e000d20135009b
:104d6000514078000064a000804878000518a30036
:104d700002003a001400e00010023d00b0312100b2
:104d80001304e000ee013500104078006f40600031
:104d90000080fb0051312100008040001014a10070
:104da00004007800b2c3b300d0406100014878002d
:104db00022002000840078005000200083bf9f0064
:104dc000063f0200000000008fb997009341780071
:104dd0006fc061000080fb0000004000a142200085
:104de000010040001014a1000001eb0082007800d7
:104df00030002000063f02000000000014a4a900bb
:104e0000409880000078a300d1003a001d04e00023
:104e100036013d0020c0b30019e8b7000048e200a9
:104e2000050032002168ef002068ef000844e90027
:104e30006ffe3a00adfe3700e6fd07002168ef0087
:104e40002068ef00f9ff3700409880000070a00054
:104e500040988800b03121001080fb0021812000a3
:104e60009231210092707800dfff3700b0312100cd
:104e70009080fb0020812000008040003098880056
:104e8000409880000000a0004098880011c0b30046
:104e9000a030210001487800409880000070a000f8
:104ea00040988800d0ff3700409880000070a00034
:104eb000409888002c24ef00020220008000eb00c4
:104ec0000040210083bf9f000c080200000000008a
:104ed0001424a800303121000048eb00503121009b
:104ee0000048eb00403121000048eb006031210018
:104ef0000048eb001268ef001424a9008040210054
:104f0000704088008fb99700a3408800b3408800a4
:104f10009031210090407800838020008149780002
:104f20000848e20015013a000001200030408800e6
:104f3000adff3700808020003098880040988000c6
:104f40000000a0004098880011c0b300a0302100ec
:104f500001487800409880000070a00040988800c8
:104f6000a1ff37000001eb00820078002000200044
:104f7000063f0200000000009bff370000c8b3009e
:104f80009e4f100098ff3a008030210001ccb30002
:104f900001497800a131210091407800e2cf500012
:104fa00024013200e3cf500015013200e1cf500060
:104fb000380132000048eb008bff3700409880003a
:104fc0000070a000409888008000200030408800d9
:104fd00085ff3700f6312100004beb000032210045
:104fe0000048eb009e4178007fc061000080fb001c
:104ff000e10f5000fe003200e20f5000e7003200e7
:105000000000e00006003a00409880000070a00018
:10501000409888000348e200010032001614a00006
:10502000409880000078a3006fff32003698880017
:10503000409880000000a0004098880021c0b30084
:10504000a03021000148780067ff370090427800c7
:105050000580fb00fd3021009d80fb000731210011
:105060001781fb004811dd0082807000810f500025
:10507000030036009d82fb001780fb000580fb00cb
:105080009d80fb001781fb004811dd0082807000cd
:10509000008050009d407800804e78004800de007f
:1050a00097407800804b78000504e0001100320042
:1050b0008000eb00f6312100c3302100d230210006
:1050c0001382fb001280fb004800dd00000072002c
:1050d00066d8780013427800804978004800de00e6
:1050e00012427800004978008100e80081cf520028
:1050f000f3ff3e001d80fb009780fb00c808dd0029
:10510000010070002600320080c0b300b140800072
:1051100080487800f6312100b14080008180e800ad
:1051200086087800a14080009180650065003a0003
:105130001608ec0081c4b30001487800b04080003c
:10514000d04078000174a00001487800e5fd3700e8
:105150001e04e00047003d0010c0b30019e8b7008e
:105160000248e200080032002168ef002068ef00ea
:105170000148e200dbfd3a00e5fc07000844e900d5
:105180009bfd3a00d9fd370012fd07002168ef00b2
:105190002068ef000148e200d2fd3a00f6ff370038
:1051a00081c0b300b0408000014878001688ec0050
:1051b00071312100010878001608ec0041c0b300ed
:1051c00001487800b0408000d04078000174a00011
:1051d00001487800113121001181fb0020312100ac
