:020000040000fa
:080000000002040000000000f2
:020000040000fa
:040008002c040000c4
:020000040000fa
:04000c003c030000b1
:020000040000fa
:040010008003000069
:020000040000fa
:040014005a0300008b
:020000040000fa
:040018009e03000043
:020000040000fa
:04001c002c040000b0
:020000040000fa
:040020002c040000ac
:020000040000fa
:040024002c040000a8
:020000040000fa
:04002800e6030000eb
:020000040000fa
:04002c002c040000a0
:020000040000fa
:040030002c0400009c
:020000040000fa
:040034002c04000098
:020000040000fa
:040038002c04000094
:020000040000fa
:04003c002c04000090
:020000040000fa
:040040002c0400008c
:020000040000fa
:04004400bc030000f9
:020000040000fa
:040048002c04000084
:020000040000fa
:04004c002c04000080
:020000040000fa
:040050002c0400007c
:020000040000fa
:040054002c04000078
:020000040000fa
:040058002c04000074
:020000040000fa
:04005c002c04000070
:020000040000fa
:040060002c0400006c
:020000040000fa
:040064002c04000068
:020000040000fa
:040068002c04000064
:020000040000fa
:04006c002c04000060
:020000040000fa
:040070002c0400005c
:020000040000fa
:040074002c04000058
:020000040000fa
:040078002c04000054
:020000040000fa
:04007c002c04000050
:020000040000fa
:040080002c0400004c
:020000040000fa
:040084002c04000048
:020000040000fa
:040088002c04000044
:020000040000fa
:04008c002c04000040
:020000040000fa
:040090002c0400003c
:020000040000fa
:040094002c04000038
:020000040000fa
:040098002c04000034
:020000040000fa
:04009c002c04000030
:020000040000fa
:0400a0002c0400002c
:020000040000fa
:0400a4002c04000028
:020000040000fa
:0400a8002c04000024
:020000040000fa
:0400ac002c04000020
:020000040000fa
:0400b0002c0400001c
:020000040000fa
:0400b4002c04000018
:020000040000fa
:0400b8002c04000014
:020000040000fa
:0400bc002c04000010
:020000040000fa
:0400c0002c0400000c
:020000040000fa
:0400c4002c04000008
:020000040000fa
:0400c8002c04000004
:020000040000fa
:0400cc002c04000000
:020000040000fa
:0400d0002c040000fc
:020000040000fa
:0400d4002c040000f8
:020000040000fa
:0400d8002c040000f4
:020000040000fa
:0400dc002c040000f0
:020000040000fa
:0400e0002c040000ec
:020000040000fa
:0400e4002c040000e8
:020000040000fa
:0400e8002c040000e4
:020000040000fa
:0400ec002c040000e0
:020000040000fa
:0400f0002c040000dc
:020000040000fa
:0400f4002c040000d8
:020000040000fa
:0400f8002c040000d4
:020000040000fa
:0400fc002c040000d0
:020000040000fa
:040100002c040000cb
:020000040000fa
:040104002c040000c7
:020000040000fa
:040108002c040000c3
:020000040000fa
:04010c002c040000bf
:020000040000fa
:040110002c040000bb
:020000040000fa
:040114002c040000b7
:020000040000fa
:040118002c040000b3
:020000040000fa
:04011c002c040000af
:020000040000fa
:040120002c040000ab
:020000040000fa
:040124002c040000a7
:020000040000fa
:040128002c040000a3
:020000040000fa
:04012c002c0400009f
:020000040000fa
:040130002c0400009b
:020000040000fa
:040134002c04000097
:020000040000fa
:040138002c04000093
:020000040000fa
:04013c002c0400008f
:020000040000fa
:040140002c0400008b
:020000040000fa
:040144002c04000087
:020000040000fa
:040148002c04000083
:020000040000fa
:04014c002c0400007f
:020000040000fa
:040150002c0400007b
:020000040000fa
:040154002c04000077
:020000040000fa
:040158002c04000073
:020000040000fa
:04015c002c0400006f
:020000040000fa
:040160002c0400006b
:020000040000fa
:040164002c04000067
:020000040000fa
:040168002c04000063
:020000040000fa
:04016c002c0400005f
:020000040000fa
:040170002c0400005b
:020000040000fa
:040174002c04000057
:020000040000fa
:040178002c04000053
:020000040000fa
:04017c002c0400004f
:020000040000fa
:040180000204000075
:020000040000fa
:040184002c04000047
:020000040000fa
:040188002c04000043
:020000040000fa
:04018c002c0400003f
:020000040000fa
:040190002c0400003b
:020000040000fa
:040194002c04000037
:020000040000fa
:040198002c04000033
:020000040000fa
:04019c002c0400002f
:020000040000fa
:0401a0002c0400002b
:020000040000fa
:0401a4002c04000027
:020000040000fa
:0401a8002c04000023
:020000040000fa
:0401ac002c0400001f
:020000040000fa
:0401b0002c0400001b
:020000040000fa
:0401b4002c04000017
:020000040000fa
:0401b8002c04000013
:020000040000fa
:0401bc002c0400000f
:020000040000fa
:0401c0002c0400000b
:020000040000fa
:0401c4002c04000007
:020000040000fa
:0401c8002c04000003
:020000040000fa
:0401cc002c040000ff
:020000040000fa
:0401d0002c040000fb
:020000040000fa
:0401d4002c040000f7
:020000040000fa
:0401d8002c040000f3
:020000040000fa
:0401dc002c040000ef
:020000040000fa
:0401e0002c040000eb
:020000040000fa
:0401e4002c040000e7
:020000040000fa
:0401e8002c040000e3
:020000040000fa
:0401ec002c040000df
:020000040000fa
:0401f0002c040000db
:020000040000fa
:0401f4002c040000d7
:020000040000fa
:0401f8002c040000d3
:020000040000fa
:0401fc002c040000cf
:020000040000fa
:040208002c040000c2
:020000040000fa
:04020c003c030000af
:020000040000fa
:040210008003000067
:020000040000fa
:040214005a03000089
:020000040000fa
:040218009e03000041
:020000040000fa
:04021c002c040000ae
:020000040000fa
:040220002c040000aa
:020000040000fa
:040224002c040000a6
:020000040000fa
:04022800e6030000e9
:020000040000fa
:04022c002c0400009e
:020000040000fa
:040230002c0400009a
:020000040000fa
:040234002c04000096
:020000040000fa
:040238002c04000092
:020000040000fa
:04023c002c0400008e
:020000040000fa
:040240002c0400008a
:020000040000fa
:04024400bc030000f7
:020000040000fa
:040248002c04000082
:020000040000fa
:04024c002c0400007e
:020000040000fa
:040250002c0400007a
:020000040000fa
:040254002c04000076
:020000040000fa
:040258002c04000072
:020000040000fa
:04025c002c0400006e
:020000040000fa
:040260002c0400006a
:020000040000fa
:040264002c04000066
:020000040000fa
:040268002c04000062
:020000040000fa
:04026c002c0400005e
:020000040000fa
:040270002c0400005a
:020000040000fa
:040274002c04000056
:020000040000fa
:040278002c04000052
:020000040000fa
:04027c002c0400004e
:020000040000fa
:040280002c0400004a
:020000040000fa
:040284002c04000046
:020000040000fa
:040288002c04000042
:020000040000fa
:04028c002c0400003e
:020000040000fa
:040290002c0400003a
:020000040000fa
:040294002c04000036
:020000040000fa
:040298002c04000032
:020000040000fa
:04029c002c0400002e
:020000040000fa
:0402a0002c0400002a
:020000040000fa
:0402a4002c04000026
:020000040000fa
:0402a8002c04000022
:020000040000fa
:0402ac002c0400001e
:020000040000fa
:0402b0002c0400001a
:020000040000fa
:0402b4002c04000016
:020000040000fa
:0402b8002c04000012
:020000040000fa
:0402bc002c0400000e
:020000040000fa
:0402c0002c0400000a
:020000040000fa
:0402c4002c04000006
:020000040000fa
:0402c8002c04000002
:020000040000fa
:0402cc002c040000fe
:020000040000fa
:0402d0002c040000fa
:020000040000fa
:0402d4002c040000f6
:020000040000fa
:0402d8002c040000f2
:020000040000fa
:0402dc002c040000ee
:020000040000fa
:0402e0002c040000ea
:020000040000fa
:0402e4002c040000e6
:020000040000fa
:0402e8002c040000e2
:020000040000fa
:0402ec002c040000de
:020000040000fa
:0402f0002c040000da
:020000040000fa
:0402f4002c040000d6
:020000040000fa
:0402f8002c040000d2
:020000040000fa
:0402fc002c040000ce
:020000040000fa
:040300002c040000c9
:020000040000fa
:040304002c040000c5
:020000040000fa
:040308002c040000c1
:020000040000fa
:04030c002c040000bd
:020000040000fa
:040310002c040000b9
:020000040000fa
:040314002c040000b5
:020000040000fa
:040318002c040000b1
:020000040000fa
:04031c002c040000ad
:020000040000fa
:040320002c040000a9
:020000040000fa
:040324002c040000a5
:020000040000fa
:040328002c040000a1
:020000040000fa
:04032c002c0400009d
:020000040000fa
:040330002c04000099
:020000040000fa
:040334002c04000095
:020000040000fa
:040338002c04000091
:020000040000fa
:04033c002c0400008d
:020000040000fa
:040340002c04000089
:020000040000fa
:040344002c04000085
:020000040000fa
:040348002c04000081
:020000040000fa
:04034c002c0400007d
:020000040000fa
:040350002c04000079
:020000040000fa
:040354002c04000075
:020000040000fa
:040358002c04000071
:020000040000fa
:04035c002c0400006d
:020000040000fa
:040360002c04000069
:020000040000fa
:040364002c04000065
:020000040000fa
:040368002c04000061
:020000040000fa
:04036c002c0400005d
:020000040000fa
:040370002c04000059
:020000040000fa
:040374002c04000055
:020000040000fa
:040378002c04000051
:020000040000fa
:04037c002c0400004d
:020000040000fa
:040380000204000073
:020000040000fa
:040384002c04000045
:020000040000fa
:040388002c04000041
:020000040000fa
:04038c002c0400003d
:020000040000fa
:040390002c04000039
:020000040000fa
:040394002c04000035
:020000040000fa
:040398002c04000031
:020000040000fa
:04039c002c0400002d
:020000040000fa
:0403a0002c04000029
:020000040000fa
:0403a4002c04000025
:020000040000fa
:0403a8002c04000021
:020000040000fa
:0403ac002c0400001d
:020000040000fa
:0403b0002c04000019
:020000040000fa
:0403b4002c04000015
:020000040000fa
:0403b8002c04000011
:020000040000fa
:0403bc002c0400000d
:020000040000fa
:0403c0002c04000009
:020000040000fa
:0403c4002c04000005
:020000040000fa
:0403c8002c04000001
:020000040000fa
:0403cc002c040000fd
:020000040000fa
:0403d0002c040000f9
:020000040000fa
:0403d4002c040000f5
:020000040000fa
:0403d8002c040000f1
:020000040000fa
:0403dc002c040000ed
:020000040000fa
:0403e0002c040000e9
:020000040000fa
:0403e4002c040000e5
:020000040000fa
:0403e8002c040000e1
:020000040000fa
:0403ec002c040000dd
:020000040000fa
:0403f0002c040000d9
:020000040000fa
:0403f4002c040000d5
:020000040000fa
:0403f8002c040000d1
:020000040000fa
:0403fc002c040000cd
:020000040000fa
:100400000f4221000e7f22000e0188000000000034
:10041000000020000000e000020032000001200087
:1004200020028800140007000d0107000000e00012
:1004300003003a004046220011002000020037006d
:100440000000200001002000810f70000100320038
:1004500014000700000020000000e000020032004d
:10046000000002000000000046270200010000001a
:100470000040da000000fe004440a900609b21001b
:100480000000e000030032000020200090018800fe
:100490004440a800000006008a1f78008b1f7800e7
:1004a00000000600a1028800800478000000eb0034
:1004b0001f003700e284440054a0b4009905ba003c
:1004c000e284440054a0b4009906ba00e2844400d7
:1004d00054a0b4000006eb00476fde00fd07b20039
:1004e000ae018800636ce10003003a00eaff0700f8
:1004f0000000eb000e003700606ce10008003a00dd
:10050000004deb000a05e800020039003420ec0041
:100510000af0a0008b05e900f9ff3e000400370057
:100520006168e100010032000086eb000b0007006b
:1005300019c7ba001905ba000e04e00003003a001a
:100540000a00e000dbff3a0000000600fe07b200f0
:10055000ae0288008a047800f5ff37000cd0a300b3
:10056000e20f4d001c00390089027800354dba00b9
:100570000a05e800020039003420ec000af0a0006f
:100580008b05e9000f003200254dba000a05e8008e
:10059000020039003420ec000af0a0008b05e900cd
:1005a000080032000c00e0000600320015cdba0051
:1005b0000a05e800020039003420ec000af0a0002f
:1005c0008b05e9008984e80054a0b4000b00e0002a
:1005d000e2ff3a00000006009902ba00055d7800cb
:1005e0008b05e900f7ff3200c82ade00055d7800c0
:1005f0008b05e900f3ff32000c00e000f1ff320050
:1006000019ddba00eeff37002425040001000000c8
:100610004a280400010000005425040001000000e5
:10062000602504000100000078250400010000009e
:100630008e25040001000000a42504000100000034
:10064000aa25040001000000be25040001000000ee
:10065000ae25040001000000442804000100000051
:100660003e280400010000009e1d0400010000005f
:10067000cc1f0400010000003600f800809fbe007f
:10068000829fbe00849fbe00869fbe008020a9007e
:100690000000eb00d8280200010000004f03be005c
:1006a0004f02be004f01be004f00be003600f900f1
:1006b000004006003600f800809fbe00829fbe000a
:1006c000849fbe00869fbe006033210080077800b3
:1006d000e0342100000188008040a90010002000c3
:1006e000d8280200010000004f03be004f02be00e8
:1006f0004f01be004f00be003600f900004006006a
:100700003600f800809fbe00829fbe00849fbe001e
:10071000869fbe008060a90020002000d82802002b
:10072000010000004f03be004f02be004f01be009b
:100730004f00be003600f900004006003600f80009
:10074000809fbe00829fbe00849fbe00869fbe0029
:100750008080a90030002000d8280200010000009d
:100760004f03be004f02be004f01be004f00be004f
:100770003600f900004006003600f800809fbe00f9
:10078000829fbe00849fbe00869fbe008043800083
:100790000000e0000100320000000100d03821001c
:1007a0001048e80011c0b300c038210001487800ab
:1007b00084e0a9004f03be004f02be004f01be00ff
:1007c0004f00be003600f900004006003600f80079
:1007d000809fbe00829fbe00849fbe00869fbe0099
:1007e000ce280200010000008400a9004f03be00d3
:1007f0004f02be004f01be004f00be003600f900a0
:10080000004006003600f800809fbe00829fbe00b8
:10081000849fbe00869fbe003200f8003400f800be
:1008200010002000a0018800002020009001880016
:10083000f6f90200000000003400f9003200f9006f
:100840004f03be004f02be004f01be004f00be006e
:100850003600f900004006000040da000000fe000b
:1008600000000500839f68000100e00002003d00d9
:1008700060001000e08018000300e00002003d006e
:1008800060011100e08119004b0007004f00e000fb
:1008900002003b0060001000e0801800000006002d
:1008a00014002000ac033700f4ff2f00aa03370028
:1008b0000001be001c0007000470a70003f0a100a7
:1008c00003f8a30013003a006509b10010003200dc
:1008d000090035006928e100020035000100280008
:1008e0000000050000004000818048008502e9000a
:1008f000fcff3a0000000600f88f420005003500ba
:100900008100d1000080d3008502e800fcff3a009e
:10091000000006008000eb00000005004f89de00ab
:1009200082017800a7033700c70ade00f107b20092
:10093000f50fb20008003200e1cf420002003200a1
:100940000170a00024000500810f7000010032003a
:100950000408050044000500810f700002003a0001
:10096000140005008502e9000000400081c0480035
:10097000fcff3b000170a00024000500811f7800ef
:100980000100e00002003d0060001000e08018005f
:100990000300e00002003d0060011100e081190049
:1009a000150007004f00e00002003b00600010004f
:1009b000e0801800000006006022b8000602200057
:1009c0000000d0008180d2000482d2008582d20053
:1009d0000000a0000202520083825a00030031008e
:1009e0000202420083824a000000a1000603e900df
:1009f000f3ff3a0000000600efff07000400be000e
:100a00000000060007f82700078361000638e100b0
:100a100004003a00f7072000878361008703710014
:100a200001003a0003f0a200889fbe008a9fbe002a
:100a30008c9fbe00470ade000480a100c71ade00ba
:100a40000580a100070028000785600087856100f8
:100a5000f70f20000720e1009e0032000728e10088
:100a60009c003200010678000400e000b40032006f
:100a7000f7072000878060000170a0000500e000fb
:100a8000c0003200f7072000878161000370a000da
:100a9000050652000f003a000b50e1000b00320037
:100aa0000308e10002003a000200e1007e0032008b
:100ab0000204500083845800040031000001fd004e
:100ac0008101fd008402fd008a05fd006044b8003c
:100ad000210037000520e10005003d000001fd0078
:100ae0008101fd008402fd008a05fd00050652001b
:100af0007a60e100050035000170a1004722dd00a9
:100b0000848070008a807000630037006044b80001
:100b1000ef02660007ff2f00070666000500e000f1
:100b200006003400f08312008714dd000511de009a
:100b3000071bdd00060171008519de007060e10011
:100b4000050035000904780082047800030178006c
:100b50008001eb00700656000b50e10003003a00e4
:100b60000200400083804800040037006004140045
:100b7000e0841c0002005800838058000188a30014
:100b8000060032008100d1000080d3008984d300a8
:100b90000884d3000402e800270037000178a3008e
:100ba00025003a000100e000030032008186cf00fa
:100bb000698656000a0037008c0020000000e00023
:100bc00004003a0009007800880478000004eb0073
:100bd000700252008086cf000d0646000c06e90028
:100be0007060e100060035008000780009007800a0
:100bf000880478000004eb00700656007002520072
:100c00000c00e0000c0034008c08dd00f00316003e
:100c10000703de00868070000c00dd00074bde005d
:100c2000060070008c4cdd000743de0086847400f3
:100c30000c44dd000c0252006120e1002000350070
:100c4000610160000700280087816400f7ff27002a
:100c500087836400070374000300e000060032008d
:100c600082037300040032000000e800e0804800c6
:100c70000188a3000e003a00f70f20000720e100d2
:100c80004a003d000170a1004722dd008100720092
:100c90008a8070000000be004f06be004f05be00f7
:100ca0004f04be00000006006000b800faff3700e5
:100cb0008100d1000080d3000402e800eeff37007d
:100cc0000401780089017400a10107008a80700086
:100cd000f1ff3700f7010700070278000001fd006f
:100ce0008101fd00f301070087027800850372008f
:100cf0000778a300040032000001fd008101fd001f
:100d000006020700e4ff3700850362000768a300be
:100d1000080032000b50e10003003200f0ff2f000a
:100d2000f1ff2700dcff37000001fd008101fd001d
:100d3000d9ff37000468a300d7ff3200faff37005d
:100d4000f8ff2700888360000b003a000000e000f5
:100d500009003a00830364008283730002003200ba
:100d60000200be00ccff37000b50e100ceff3a007e
:100d70000200be00c8ff370014002000810064009c
:100d80003eff3700f8ff27008883610004003a0027
:100d90000200e00002003a008c007800beff37003d
:100da000150020008301640039ff370001f8270097
:100db0000000200081007500b7ff3700889fbe004b
:100dc0008a9fbe008c9fbe001b0020000202be0056
:100dd0000586680006002800060666004709de0052
:100de000f20fb200820032000243e80080003200bd
:100df000c729de00f30fb2007d0032000343e80094
:100e00007b003200f107b2000170a000f507b200cc
:100e10000570a000c708dd004903de008680700071
:100e20004700dd00c72add004923de00868272000c
:100e30004722dd000305510004035000858358005c
:100e40000300310000004000818048000a05e900ed
:100e50008c1f78008a9fbe000400500085805800d7
:100e60000402420085824a00000040008180480060
:100e70000005eb000004be006033b8000406be00ad
:100e80000d48e10056003100110009004dccd8009a
:100e90000c01b8000d02b8008481410060824a0054
:100ea0008283530003045c0084845c0060055d0061
:100eb0000a00e00025003a00800578000d40e100be
:100ec000490031008800780007007800110009000f
:100ed0004d88d8000c01b8000d02b8008481410093
:100ee00060824a006003110083835b0004045c009d
:100ef000e0845c000900e00021003a004f01be00e0
:100f00000300e0002b003200e301600007067300dd
:100f10008c81710001003200640070004200de002c
:100f20004e5edd000c007000c258de0001e0a00043
:100f300083010700cf017800818071004f06be0059
:100f40004f05be004f04be00000006008c83430026
:100f50000d044c00e0844c0060054d000000e900e9
:100f60000a00e000d4ff32008c8343000d044c00e3
:100f7000e0844c0060054d000000e900ceff370022
:100f80000c0343008d834b0060044c00e0844c0054
:100f90000000e9000900e000d8ff32000c03430024
:100fa0008d834b0060044c00e0844c000000e9009d
:100fb000d2ff37004200de004e5edd000c00700004
:100fc000c258de0001e0a000cf0178000300e0007d
:100fd000daff320060001000e0801800d7ff370011
:100fe000f0ff2f00aaff3700f0ff2f00b9ff3700f6
:100ff0000404be002f010700870678000004fd00ee
:101000008104fd002b010700078366000678a3001a
:10101000030032000960a7000800be002c00370062
:101020000d78a300020032000800be00280037003f
:101030000778a30026003a0001f0a10009f0a10002
:101040000668a30003003200f1ff2700f0ff2f0025
:10105000baff37000d68a300030032000800be008d
:101060008c807000b5ff37000768a30007003a00c6
:101070000648a30003003200f1ff2700f0ff2f0015
:10108000aeff37000d48a300030032006000b80037
:101090008c807000a9ff37000748a30004003200cd
:1010a00001f82700000020008c807000a3ff3700ab
:1010b000760107000004fd008104fd0002057800b0
:1010c000720107000802be008a01780059ff37004c
:1010d0000160a00012022000e243880097ff370061
:1010e0000100e000120032000500e00010003200b4
:1010f000889fbe008a9fbe008c9fbe000006eb004a
:1011000001f8a3000300320060001000e080180026
:101110000cf0a00005f8a3000300320060021200ea
:10112000e0821a000cf0a2008005eb0041ff3700be
:101130006000b80002000500038368000700280073
:1011400007036300470ade000480a100c71ade001f
:101150000580a100f70f20000720e10042003200c7
:101160000728e10040003200889fbe008a9fbe0031
:101170008c1f7800f107b200f307b2000400e00012
:10118000640032000170a0000500e0006800320039
:101190000370a00085054200eb07b1000204b8000f
:1011a0000302b8008484440060854a00020ab80043
:1011b000848444000a854a00030ab80004054500f7
:1011c000040033000804d0008984d2000a85d200cc
:1011d0008b05e9006158e1003d0035000210200058
:1011e000090161000308200089816100f7072000e0
:1011f0008783640008867300c84cde00c853dd0096
:10120000878474004855de000300e00006003200c9
:1012100082037600040032008904e80060054d0076
:101220000a88a3000c003a00f70f20000758e100dd
:1012300044003d000a70a100c75ddd000a8575000d
:101240008a007300090078004f0678004f05be0041
:101250004f04be00000006000a05d1008984d300b7
:101260008b05e800f0ff3700881f7800060478003f
:1012700090000700070278000001fd008101fd00d9
:101280008c00070087027800850372000778a300ae
:10129000050032000001fd008101fd009f000700f4
:1012a0004f04780000000600850372000748a30081
:1012b00003003200f0ff2f00f1ff2700f8ff370096
:1012c0000000200001f8270088807000f4ff37003c
:1012d000880178004848dd00808171004848de00c0
:1012e000c850dd0001007000c850de000604780020
:1012f0000b0178001600070088807000d2ff3700cd
:101300000500e00005003200170020003a00070049
:101310009dff370081037000f9ff3a0086007800d6
:101320004f0678004f05be004f04be0000000500c8
:1013300083037100f9ff3200270020002e00070010
:1013400094ff370001f8270086807000f4ff370013
:101350000100e00026003200610111007810e10078
:1013600023003c006022b8007010e100040035004a
:1013700080027800010078008000eb0070015100cd
:101380000200e0000900340070031100062add00ad
:10139000822ade008603dd00878272000200de0002
:1013a000860bdd00070070008208de00848171007a
:1013b000f4ff270004826200848171000400280089
:1013c000848262006102600005f0a6000000060051
:1013d00004827100070032000000e800e08048004d
:1013e000000006000002be006000b800efff3700fa
:1013f0006000b80000000600889fbe000004eb00fb
:101400006138e10016003a000100e00008003a00ef
:10141000c800de004800dd00880020000100e00078
:1014200003003a00c800de004800dd006804440004
:101430008184cf00e9845400060034008908dd006f
:10144000f08314008703de00878070000900dd0050
:1014500009044400610214004f04be0000000600ad
:101460000300e00008003a00c811de004811dd006a
:10147000880020000300e00003003a00c811de00ed
:101480004811dd00680444008384cf00e9845400df
:10149000060034008919dd00f08314008713de0094
:1014a000878171000911dd0009044400e102140084
:1014b000e9ff37002700200001f0a70017002000f7
:1014c000470bde00f60fb200040032000643e800ce
:1014d0000a0032004702b300000006000103780052
:1014e000f607b2000603700002003a000703b300db
:1014f000000006008702b300000006000103780028
:10150000f607b20006037000020032000770a00068
:10151000000006000760a000000006000478a30099
:10152000040032000578a300030032000168a30024
:1015300001003a000200be000160a00000000600a9
:1015400081017000270032008002eb0001f8a30047
:101550000300320060001000e08018001500200039
:10156000f40720000202420020003400f7032000ac
:1015700087036000060420000003630002082000c7
:10158000000161004700de00c909dd000080710034
:10159000c708de000600e000080032008703710083
:1015a000060032001000b0000180b0000188a300e6
:1015b00002003200c108de000402e800f107b200b8
:1015c000f30f20000320e10003003d004722dd006f
:1015d000810072002900370001f827000000eb00ad
:1015e000260037006000b800000006006802120004
:1015f0007f20e100020034006000b8001f003700c7
:101600006011b8007020e10004003500800178000e
:10161000010078008000eb00700252000400e0003e
:1016200009003400f00312000719dd008419de0000
:101630000703dd00868171000400de00070bdd007a
:10164000060070008408de00f7ff27008383630034
:1016500087037100060028000303630007003200bf
:101660000700e00003003a0061016000028173009e
:10167000020032001000b0000180b0000500a6009a
:101680000000060001f0a000000006004f0ade0086
:101690004709de00f107b200f20fb2000b00320082
:1016a000f207b1000170a000c708dd00c901de002b
:1016b000838070004700dd000400a60000000600e3
:1016c00060001000e080180000000600810f70002c
:1016d00001003a00000006008182cf000500e00012
:1016e00010003e008082cf00ee8242007028e100b0
:1016f0000400390007003e00800078000000eb0085
:101700000e003700708312008600de000500dd0049
:101710000a003700708352008600dd000000eb00f5
:1017200006003700e28252008508dd007083120057
:101730000603de00868070000500dd007507b0003e
:101740000501ea000400a600000006006000100089
:10175000e080180000000600889fbe008a9fbe003f
:10176000841f78007c0007004f00780011003300d0
:10177000f0ff2f00838f6c0006003b00040565001e
:101780000a00a7000800370009f0a600100020009a
:1017900008003700820f5400838f5c00030039007b
:1017a0001000200001003e000000200009f0a7000a
:1017b0000000ea004f05be004f04be000000e0003c
:1017c00000000600881f7800030478000300e00092
:1017d00007003d0060001000e08018006001190063
:1017e000e081190002003b0001f02d0003003700ea
:1017f0000400070008f0a70001f0a0004f047800e3
:1018000000000600889fbe008a9fbe000082700014
:101810000402710004827100260032000004be0040
:101820000200be006011b8006b0920009502200084
:101830000182cf000a0039000541b1000082cf00cb
:10184000070039000541b1000982cf0004003900ca
:101850000541b1000882cf00010039000541b10007
:1018600005425200120032000a003b0082817100e2
:10187000610164008100d1000080d3008984d3001d
:101880000884d3008b05e8000442e800f7ff3a0023
:10189000070037000804440089844c000000480019
:1018a000818048008b05e9000442e900f9ff3a0015
:1018b000030007004f05be004f04be0000000600f5
:1018c00081002000618055000b003d000b002000ce
:1018d00061fe2f000100e1001d00340082817100d3
:1018e000610164008904d1000884d3000000e8008d
:1018f000faff3a00710020006100640003007000ec
:10190000020060000900320061044400e0844c00e1
:101910000988a500050032008b05e8006808e10091
:1019200002003a008904d1000884d300f20f20009d
:101930000258e10005003d00c75ddd00f907b20077
:101940008980750008007800000006000bf8270069
:101950008b007800000005000004be00f2fb0700c9
:101960000003be000405be000200be00eefb07003f
:10197000844f750000000600889fbe008a9fbe004d
:1019800030044200b0844a0030054b0090854b0083
:101990006000b1000898be000a90be000440e1005b
:1019a00005c8e10006d0e10007d8e10002003100df
:1019b000680040001008e8004f05be004f04be005c
:1019c00000000600889fbe008a9fbe003004be0053
:1019d0002005be000418540005985c0006185d0040
:1019e00007985d00110020000440e10005c8e100f7
:1019f00006d0e10007d8e100010039008000eb00cb
:101a0000108810004f05be004f04be000000060005
:101a1000f4874700889fbe008a9fbe008c9fbe004f
:101a20008e1f7800d0b79f00e1b79f00f2b79f00ec
:101a300083bf9f000605be000404be00cfae970022
:101a40000000eb00c0b79f00b0b79f00a0b79f0099
:101a500090b79f0080b79f00000678004fb09700b6
:101a6000000140000000e00006003d003c000700cf
:101a70000f074700450007000f004000beff0700aa
:101a800005003700360007000f0747003f0007003a
:101a90000f004000cbff07004fb797000e00e0009b
:101aa0000c0035005fb29700efb297007fb397004c
:101ab0008fbb970010002000010020006011b800cb
:101ac000000272008182720002037300838373003c
:101ad0001c0007000c06e80001042000810f5600de
:101ae000deff3a000e00e00005003d000802be00e7
:101af0000a03be0000fe2f000f0040009eff0700fb
:101b00000d00e00005003a000fb297009fb2970069
:101b10002fb39700bfb397000a0007005fb097008c
:101b2000efb097007fb197008fb997004f0778000b
:101b30004f06be004f05be004f04be004f01b1006e
:101b400000000600010007000000060094b79f0097
:101b5000a5b79f00b6b79f00c7b79f00000006005b
:101b60009fb097004f08de0002017000a2b79f00ef
:101b70000fb097004f01de008180400081007100ae
:101b800091b79f000efe2f0000000600de007800d7
:101b90004f09de00000040000000710080b79f0088
:101ba0006fa897004f01de0081804000010f710097
:101bb0000e0007004f3ade000000400004007000f5
:101bc000e0af9f00090007000402420085824a003e
:101bd00006034b0087834b00dcff07000802be00b2
:101be0000a03be0000fe2f00000006001fb297008f
:101bf000afb297003fb39700cfb397000000060045
:101c0000881f780018002000881f780080ff0700d8
:101c10008f87e9004f04780000000600801feb006a
:101c20007bff07008f87e90000000600889fbe0049
:101c30008a9fbe00e00f5000e08f5800e00f59006f
:101c4000e08f59000c003d006044b8006055b800ba
:101c50000000540081805c0002015d0083815d0012
:101c6000180020001500070008003d0018000700bc
:101c70000004eb00050037000004eb000f00070034
:101c800002003d001200070018002000dcff0700e2
:101c90000800e000060032006022b8006033b8009f
:101ca0000000520081805a0002015b0083815b00ca
:101cb0004f05be004f04be0000000600e00f5200ba
:101cc000e08f5a00e00f5b00e08f5b000000060031
:101cd0006044b8006055b8000402540085825c007e
:101ce00006035d0087835d0000000600889fbe003c
:101cf0008a9fbe008c1f7800e00f5000e08f5800d4
:101d0000e00f5900e08f59000d003d006044b8001d
:101d10006055b8000000540081805c0002015d0045
:101d200083815d001c0020000820e10009a8e1007b
:101d30000ab0e1000bb8e1000d003d0008003700db
:101d40000006eb00e00f5200e08f5a00e00f5b004e
:101d5000e08f5b0006003d006044b8006055b800ad
:101d60000402540085825c0006035d0087835d00e9
:101d7000aaff07000c00e000060032006022b80055
:101d80006033b8000000520081805a0002015b00fd
:101d900083815b004f0678004f05be004f04be00f4
:101da00000000600889fbe008a9fbe008c1f78003e
:101db0000006eb00e00f5000e08f5800e00f5900e4
:101dc000e08f590007003d006044b8006055b8003e
:101dd0000000540081805c0002015d0083815d0091
:101de0001c002000e00f5200e08f5a00e00f5b0063
:101df000e08f5b0007003d006044b8006055b8000c
:101e00000402540085825c0006035d0087835d0048
:101e10000c00a2000c0007000c00e00006003200dd
:101e20006022b8006033b8000000520081805a0080
:101e300002015b0083815b004f0678004f05be0006
:101e40004f04be0000000600889fbe008a9fbe00af
:101e50008c9fbe000404b8000506b8008904460043
:101e600060854e000606b8000a054600e0854e0073
:101e70000706b8008b054600040eb800890446002a
:101e80000a854e00e0854d00050eb8000a054600a3
:101e90008b854e00060eb8008b0546000416b80070
:101ea0000a0546008b854e000516b8008b054600d6
:101eb000041eb8008b0546000800be000a01be00e3
:101ec0004f06be004f05be004f04be0000000600d6
:101ed000010037000201e9000200e00005003200c5
:101ee00030427800b1417800834f5200f9ff320050
:101ef00001003700000005000480fb008381fb0027
:101f00000300500000000600800178000200370046
:101f1000b15978000201e9000200e000fcff3a003c
:101f2000000006008001780081027800810f5000d7
:101f30003b00320002824000840f50000300310059
:101f400002024000848f500001003900eeff37008c
:101f500000826800810f50001b0031000408a300bc
:101f600005003200150037000200e0002c003200ae
:101f70000201e900b15978000308a300faff3a0012
:101f80000303780082027800010278000200370023
:101f9000b41978000281e900e10f5100fcff3e0016
:101fa000618162000500a100850143008582400037
:101fb00002003700b55978000201e9000200e00094
:101fc000fcff3a00000006000408a30012003a00db
:101fd000040037000200e000110032000201e900b5
:101fe00061707900820140000308a300f9ff3a0004
:101ff00082017800020037000281e9006130790037
:10200000e10f5100fcff3e006181610002003700da
:102010000201e900617079000200e000fcff3a0073
:1020200000000600889fbe008a9fbe0080047800e2
:102030000200e0005a00320001407800814c780034
:1020400082814400f1f99f00e20f510054003600f4
:1020500091449800a1449800e1f99f00d1f99f00b4
:10206000e60f51004e003600b1449800c1f99f00c0
:10207000e80f51004a0036000905ea0063056500d3
:102080000a8444000a055100c1ff2f0001056500c4
:102090000080fb008000eb001210200013102000d5
:1020a00090000700008cbe000a01440060b99f0048
:1020b00071b99f00e80f55003900360020049800e0
:1020c00031049800400498005104980020b99f0002
:1020d00031b99f0040b99f0051b99f00f80f5500da
:1020e0002f0036006004980071049800000c9800de
:1020f000110c9800200c9800310c9800400c9800ae
:10210000510c980020b19f0031b19f0040b19f0059
:1021100051b19f0060b19f0071b19f0000b99f0055
:1021200011b99f0064016400780141000204440079
:10213000020555006011b8000203be000002be0097
:102140000403be006022b8000000720081807200ab
:1021500002017300838173000f00370008027800ca
:10216000009abe00029abe00009abe000292be0013
:10217000000c9800110c9800220c9800330c980069
:10218000400c9800510c9800620c9800730c980059
:102190000a02b1000802b000ff0f5500efff3e0039
:1021a000090078004f05be004f04be000000060085
:1021b00080007800040037003104e00002003a009b
:1021c0000000510000000600010178000108a30092
:1021d000f9ff3a008101780031017800f4ef2f0017
:1021e000020242000281ea000201620004082800a3
:1021f00004016100f7ff32008300780001017800dc
:102200003104e000fdff3a0000005100000006002c
:10221000881f780001047800880078000500070016
:10222000904f1400010032000000eb004f047800d2
:1022300000000600881f7800000478008180fb0001
:102240000a003a0008007800d9ff070000004400a7
:10225000220037001804e000200032000804e800e3
:102260001081fb00810f51001c0032000800780033
:102270000808a300f7ff3a0014102000048ab900f0
:102280000801780038007800f5ef2f0080824200c6
:102290008081ea0083826200030828008382620052
:1022a00007003a0000006a00f5ef2f00808242002c
:1022b0000080ea000080620083016000f0ff3200cd
:1022c000020078001204e000040032000201e8007d
:1022d0009081fb00818f5100f9ff3a004f04780094
:1022e00000000600020ab900001bb9000200b80095
:0c22f00081004200810043000000060055
:020000040000fa
:1022fc00030f000000800000030f000004800000aa
:10230c00050f000026800000090f00003c80000033
:10231c00070f0000868000000c0f0000d580000025
:10232c00090f000040810000030f000093810000a2
:10233c00050f0000a3810000050f0000e4810000e0
:10234c00070f000025820000090f00004b820000df
:10235c00040f00007d820000050f00009182000038
:10236c00020f00009d820000060f0000a8820000f2
:10237c00070f0000ee820000050f00003283000002
:10238c00070f000065830000070f0000a683000004
:10239c00080f0000e6830000070f000029840000ee
:1023ac00070f000067840000070f0000a9840000dd
:1023bc00070f0000e3840000070f000027850000d2
:1023cc00020f000068850000040f00007a850000f1
:1023dc00080f000098850000080f0000c48500005d
:1023ec00080f0000da850000060f000006860000ca
:1023fc000b0f00003a860000080f0000a2860000b8
:10240c00070f0000eb860000080f0000308700006b
:10241c00080f000071870000070f0000be87000046
:10242c00070f0000fb870000080f00003788000032
:10243c00080f00007f880000050f0000cd88000009
:10244c00060f000001890000080f00003c89000005
:10245c00070f00008b890000090f0000c9890000dc
:10246c00080f0000218a0000090f0000708a00008c
:10247c00070f0000c48a0000090f0000048b000045
:10248c00080f0000658b0000070f0000b48b0000e4
:10249c00090f0000f28b0000080f0000308c0000c8
:1024ac00080f00007e8c00000c0f0000c98c00008f
:1024bc00090f00003a8d0000090f00008b8d000001
:1024cc00070f0000d18d0000050f00000d8e0000dd
:1024dc00050f0000508e0000050f0000938e0000c9
:1024ec00090f0000d68e0000090f0000fc8e0000c2
:1024fc00040f00000a8f0000060f0000198f000067
:10250c00070f0000498f0000070f0000928f00009a
:10251c00070f0000c28f0000070f00000990000099
:10252c00050f00003d900000070f000073900000a5
:10253c00070f0000b6900000020f00000091000091
:10254c00050f000019910000070f000051910000c9
:10255c00020f00009b9100000b0f0000b6910000d1
:10256c00070f00000a920000070f000042920000c3
:10257c00070f000078920000070f0000b9920000ce
:10258c00050f0000fc920000060f000024930000d1
:10259c00070f000052930000070f00008f930000fc
:1025ac00080f0000c79300000a0f00000094000001
:1025bc00080f00004c940000080f000087940000e6
:1025cc00050f0000ca940000060f0000f4940000f0
:1025dc00030f000039950000060f00006595000000
:1025ec00090f0000aa950000070f0000ca95000013
:1025fc00060f000016960000060f00003396000030
:10260c00060f000057960000040f0000799600009a
:10261c00070f000086960000080f0000c796000008
:10262c00080f00001c970000080f000070970000b6
:10263c00080f0000c7970000070f00001898000053
:10264c00070f000061980000070f0000aa98000017
:10265c00050f0000f6980000050f000034990000eb
:10266c00050f000072990000090f0000b1990000dd
:10267c00090f0000109a0000090f0000709a00006a
:10268c00090f0000d39a0000080f00002f9b0000d8
:10269c00080f0000899b0000080f0000e39b00005e
:1026ac00080f0000409c0000090f0000969c0000e1
:1026bc00070f0000e89c0000060f0000339d00008f
:1026cc00060f00006f9d0000060f0000aa9d000081
:1026dc00060f0000e89d0000070f0000209e000080
:1026ec00070f00005f9e0000070f00009e9e000079
:1026fc00030f0000e09e0000040f0000049f000088
:10270c00040f00002f9f0000070f00005b9f0000cc
:10271c00070f00009d9f0000070f0000de9f0000c8
:10272c00070f000022a00000070f000060a00000af
:10273c00070f0000a4a00000070f0000e8a0000095
:10274c00070f00002ea10000080f00006ea1000072
:10275c00080f0000bca10000090f000009a2000036
:10276c00000000004ea20000050f000050220000e7
:10277c000f0f0000562200000f0f0000fe22000079
:10278c000e0e0000912300000f0f0000b923000073
:10279c000f0f0000682400000f0f00000825000038
:1027ac000f0f000073260000050c0000fc27000032
:1027bc00050c0000692800000f0f0000d62800004f
:1027cc000f0f0000152a00000f0f0000ca2a00008e
:1027dc000f0f00006d2c00000e0f0000aa2d000042
:1027ec00040f0000e22e0000040f0000022f000076
:1027fc000f0f0000142f00000f0f00001f300000ff
:10280c000a0f0000843100000a0f00001032000093
:10281c000a0f0000a43200000f0f00003833000034
:10282c000f0f0000003500000f0f0000c83600002d
:10283c000f0f00008d3800000f0f0000553a0000fc
:10284c000f0f00001d3c00000f0f0000e53d0000c5
:10285c000f0f0000ad3f00000f0f0000754100008e
:10286c000f0f00003d4300000f0f00000545000056
:10287c0008080000cd460000080800005147000081
:10288c0008080000d547000008080000594800005f
:10289c0008080000dd48000008080000614900003d
:1028ac0008080000e549000008080000694a00001b
:1028bc0008080000ed4a00000000000000000000c5
:1028cc0000000000000000000000000000000000fc
:1028dc00000000000a0000000028000000000000ba
:1028ec0090000000000f0000fdff00000000000041
:1028fc00000000008f000000000500002000000018
:10290c00002c00000000000001000000000300008b
:10291c0021000000021e0000000000000200000068
:10292c000005000022000000021f00000000000053
:10293c00030000000009000023000000003100002b
:10294c00000000000400000000070000240000004c
:10295c00022100000000000005000000000c000037
:10296c00250000000222000000000000060000000c
:10297c0000090000260000000223000000000000f7
:10298c0007000000000300002700000002310000d7
:10299c0000000000080000000005000028000000f6
:1029ac0002250000000000000900000000050000e6
:1029bc002900000002260000000000000a000000b0
:1029cc00000700002a000000023000000000000098
:1029dc000b000000000900002b000000003000007c
:1029ec00000000000c000000000400002c0000009f
:1029fc0000360000000000000d0000000005000083
:102a0c002d00000000380000000000000e00000047
:102a1c00010200002e000000003700000000000042
:102a2c000f000000000600002f0000000224000030
:102a3c000000000010000000000700003000000043
:102a4c00002700000000000011000000010500003c
:102a5c0031000000001e0000000000001200000009
:102a6c000007000032000000001f00000000000002
:102a7c0013000000000700003300000000200000dd
:102a8c0000000000140000000008000034000000ea
:102a9c0000210000000000001500000000070000ed
:102aac0035000000002200000000000016000000ad
:102abc0000070000360000000023000000000000aa
:102acc001700000000070000370000000024000081
:102adc000000000018000000000700003800000093
:102aec000025000000000000190000000007000095
:102afc003900000000260000000000001a00000051
:102b0c00010200003a000000023700000000000043
:102b1c001b000000000400003b0000000236000017
:102b2c00000000001c000000000800003c00000039
:102b3c0000640000000000001d0000000008000000
:102b4c003d00000002270000000000001e000000f5
:102b5c00010800003e0000000264000000000000bc
:102b6c001f000000000600003f000000022d0000c6
:102b7c000000000020000000000b000040000000de
:102b8c0040140000000000002100000000080000bc
:102b9c0041000000020400000000000022000000c0
:102bac0000070000420000000205000000000000c9
:102bbc002300000000080000430000000206000093
:102bcc000000000024000000000800004400000089
:102bdc0002070000000000002500000000070000b4
:102bec004500000002080000000000002600000064
:102bfc000007000046000000020900000000000071
:102c0c00270000000008000047000000020a000036
:102c1c000000000028000000000800004800000030
:102c2c00020b00000000000029000000000500005d
:102c3c0049000000020c0000000000002a00000007
:102c4c00000600004a000000020d00000000000019
:102c5c002b000000000800004b000000020e0000da
:102c6c00000000002c000000000700004c000000d9
:102c7c00020f0000000000002d0000000009000001
:102c8c004d00000002100000000000002e000000ab
:102c9c00000800004e0000000211000000000000bf
:102cac002f000000000900004f000000021200007d
:102cbc000000000030000000000700005000000081
:102ccc0002130000000000003100000000090000a9
:102cdc00510000000214000000000000320000004f
:102cec000008000052000000021500000000000067
:102cfc003300000000070000530000000216000023
:102d0c000000000034000000000900005400000026
:102d1c000217000000000000350000000008000051
:102d2c0055000000021800000000000036000000f2
:102d3c00000800005600000002190000000000000e
:102d4c0037000000000c000057000000021a0000c1
:102d5c0000000000380000000009000058000000ce
:102d6c00021b0000000000003900000000090000f8
:102d7c0059000000021d0000000000003a00000095
:102d8c00000700005a000000021c000000000000b8
:102d9c003b000000000500005b0000004025000027
:102dac00000000003c000000000500005c0000007a
:102dbc00402d0000000000003d0000000005000058
:102dcc005d00000040260000000000003e000000f6
:102ddc00000900005e00000000350000002c00001f
:102dec003f000000000900005f00000002380000f6
:102dfc000000000040000000010400006000000022
:102e0c00022e0000002c0000410000000006000013
:102e1c0061000000000400000000000042000000ff
:102e2c000007000062000000000500000000000028
:102e3c0043000000000700006300000000060000d3
:102e4c0000000000440000000007000064000000c7
:102e5c000007000000000000450000000007000013
:102e6c0065000000000800000000000046000000a3
:102e7c0000050000660000000009000000000000d2
:102e8c00470000000007000067000000000a000077
:102e9c00000000004800000000070000680000006f
:102eac00000b0000000000004900000000020000c0
:102ebc0069000000000c0000000000004a00000047
:102ecc00000500006a000000000d0000000000007a
:102edc004b000000000700006b000000000e00001b
:102eec00000000004c000000000200006c0000001c
:102efc00000f0000000000004d000000000b00005f
:102f0c006d00000000100000000000004e000000ea
:102f1c00000700006e00000000110000000000001f
:102f2c004f000000000700006f00000000120000be
:102f3c0000000000500000000007000070000000be
:102f4c00001300000000000051000000000700000a
:102f5c00710000000014000000000000520000008e
:102f6c0000050000720000000015000000000000c9
:102f7c005300000000060000730000000016000063
:102f8c000000000054000000000700007400000066
:102f9c0000170000000000005500000000070000b2
:102fac007500000000180000000000005600000032
:102fbc00000800007600000000190000000000006e
:102fcc0057000000000a000077000000001a000003
:102fdc00000000005800000000080000780000000d
:102fec00001b000000000000590000000008000059
:102ffc0079000000001d0000000000005a000000d5
:10300c00000500007a000000001c00000000000019
:10301c005b000000000600007b0000004024000064
:10302c00000000005c000000010300007c000000b8
:10303c0040640000000000005d000000000600007d
:10304c007d00000040270000000000005e00000032
:10305c00000900007e00000040300000000000006d
:10306c005f00000000070000a70000000220000025
:10307c00000000006000000000060000b00000002e
:10308c000235000000000000610000000006000096
:10309c00b2000000401f00000000000062000000b1
:1030ac0000060000b30000004020000000000000fb
:1030bc006300000002040000b4000000002e0000b9
:1030cc00002c00006400000000070000b5000000a8
:1030dc004010000000000000650000000008000027
:1030ec00c0000000022e0000020400006600000078
:1030fc0000080000c1000000002e000002040000c7
:10310c006700000000080000c2000000003500004d
:10311c00020400006800000000080000c400000069
:10312c0002340000000000006900000000070000ed
:10313c00c8000000022e0000020800006a00000017
:10314c0000070000c9000000002e0000020800006b
:10315c006b00000000070000ca00000000350000f2
:10316c00020800006c00000000050000cc0000000c
:10317c00022e0000020c00006d0000000005000093
:10318c00cd000000002e0000020c00006e000000bc
:10319c0000050000ce00000000350000020c00000d
:1031ac006f00000000090000d2000000022e000099
:1031bc00021200007000000000090000d3000000a3
:1031cc00002e000002120000710000000009000037
:1031dc00d400000000350000021200007200000054
:1031ec0000090000d60000000233000000000000bf
:1031fc007300000000080000d9000000022e00003f
:10320c00021800007400000000080000da00000042
:10321c00002e0000021800007500000000080000dd
:10322c00db000000003500000218000076000000f2
:10323c0000080000dc000000022f0000000000006d
:10324c007700000000090000dd000000002e0000e7
:10325c00021d00007800000000070000df000000e5
:10326c00002d0000000000007900000000060000a6
:10327c00e0000000022e0000000400007a000000b4
:10328c0000060000e1000000002e00000004000019
:10329c007b00000000060000e2000000003500008a
:1032ac00000400007c00000000060000e4000000a8
:1032bc0000340000000000007d000000000700004a
:1032cc00e8000000022e0000000800007e00000054
:1032dc0000070000e9000000002e000000080000bc
:1032ec007f00000000070000ea000000003500002d
:1032fc00000800008000000000030000ec0000004b
:10330c00022e0000000c00008100000000040000f0
:10331c00ed000000002e0000000c000082000000f8
:10332c0000040000ee00000000350000000c00005e
:10333c008300000000070000f2000000022e0000d5
:10334c00001200008400000000070000f3000000e1
:10335c00002e000000120000850000000007000095
:10336c00f400000000350000001200008600000090
:10337c0000070000f6000000003300000000000011
:10338c008700000000070000f9000000022e00007a
:10339c00001800008800000000070000fa00000080
:1033ac00002e00000018000089000000000700003b
:1033bc00fb00000000350000001800008a0000002f
:1033cc0000070000fc000000002f000000000000bf
:1033dc008b00000000080000fd000000002e000023
:1033ec00001d00008c000000000800009e1e000064
:1033fc00422d0000000000008d00000000090000bc
:10340c00ac2000004008000000000000000000009c
:10341c00000000000a000000010000002000000075
:10342c000300000021000000040000002200000046
:10343c00050000002300000006000000240000002e
:10344c000700000025000000080000002600000016
:10345c0009000000270000000a00000028000000fe
:10346c000b000000290000000c0000002a000000e6
:10347c000d0000002b0000000e0000002c000000ce
:10348c000f0000002d000000100000002e000000b6
:10349c00110000002f00000012000000300000009e
:1034ac001300000031000000140000003200000086
:1034bc00150000003300000016000000340000006e
:1034cc001700000035000000180000003600000056
:1034dc0019000000370000001a000000380000003e
:1034ec001b000000390000001c0000003a00000026
:1034fc001d0000003b0000001e0000003c0000000e
:10350c001f0000003d000000200000003e000000f5
:10351c00210000003f0000002200000040000000dd
:10352c0023000000410000002400000042000000c5
:10353c0025000000430000002600000044000000ad
:10354c002700000045000000280000004600000095
:10355c0029000000470000002a000000480000007d
:10356c002b000000490000002c0000004a00000065
:10357c002d0000004b0000002e0000004c0000004d
:10358c002f0000004d000000300000004e00000035
:10359c00310000004f00000032000000500000001d
:1035ac003300000051000000340000005200000005
:1035bc0035000000530000003600000054000000ed
:1035cc0037000000550000003800000056000000d5
:1035dc0039000000570000003a00000058000000bd
:1035ec003b000000590000003c0000005a000000a5
:1035fc003d0000005b0000003e0000005c0000008d
:10360c003f0000005d000000400000005e00000074
:10361c00410000005f00000042000000600000005c
:10362c004300000061000000440000006200000044
:10363c00450000006300000046000000640000002c
:10364c004700000065000000480000006600000014
:10365c0049000000670000004a00000068000000fc
:10366c004b000000690000004c0000006a000000e4
:10367c004d0000006b0000004e0000006c000000cc
:10368c004f0000006d000000500000006e000000b4
:10369c00510000006f00000052000000700000009c
:1036ac005300000071000000540000007200000084
:1036bc00550000007300000056000000740000006c
:1036cc005700000075000000580000007600000054
:1036dc0059000000770000005a000000780000003c
:1036ec005b000000790000005c0000007a00000024
:1036fc005d0000007b0000005e0000007c0000000c
:10370c005f0000007d000000600000007e000000f3
:10371c0061000000a700000062000000b000000083
:10372c0063000000b200000064000000b300000061
:10373c0065000000b400000066000000b500000049
:10374c0067000000c000000068000000c10000001d
:10375c0069000000c20000006a000000c400000004
:10376c006b000000c80000006c000000c9000000e5
:10377c006d000000ca0000006e000000cc000000cc
:10378c006f000000cd00000070000000ce000000b3
:10379c0071000000d200000072000000d300000095
:1037ac0073000000d400000074000000d60000007c
:1037bc0075000000d900000076000000da0000005f
:1037cc0077000000db00000078000000dc00000047
:1037dc0079000000dd0000007a000000df0000002e
:1037ec007b000000e00000007c000000e100000015
:1037fc007d000000e20000007e000000e4000000fc
:10380c007f000000e800000080000000e9000000dc
:10381c0081000000ea00000082000000ec000000c3
:10382c0083000000ed00000084000000ee000000aa
:10383c0085000000f200000086000000f30000008c
:10384c0087000000f400000088000000f600000073
:10385c0089000000f90000008a000000fa00000056
:10386c008b000000fb0000008c000000fc0000003e
:10387c008d000000fd0000008e0000009e1e000068
:10388c008f000000ac20000090000000fdff000045
:10389c000200000000290000484b00004f480000c7
:1038ac00550f00000346000052510000574800001d
:1038bc005b570000035000004850000052550000b8
:1038cc005c0300005259000048550000494f0000ad
:1038dc00525a000000360000271000002e44000051
:1038ec005557000048030000484c000051490000a7
:1038fc008d4a0000485100000158000050030000a0
:10390c0049520000555700005d5800004944000022
:10391c004b5500004851000000290000484b0000a6
:10392c004f480000550f0000013600002710000022
:10393c002e44000055570000480300004e44000080
:10394c0051510000035100004c4600004b57000041
:10395c00014a0000484f0000485600004851000042
:10396c00035a000048550000474800005100000071
:10397c003748000056570000003000004456000045
:10398c0057480000554e0000485c000003480000fa
:10399c004c5100004a48000045480000511d0000f1
:1039ac00003000004456000057480000554e0000ff
:1039bc00485c000003490000444f000056460000dc
:1039cc004b0400000031000048580000485500002e
:1039dc00032800004c51000057550000444a0000d9
:1039ec00003100004450000048030000484c000027
:1039fc00514a0000484500004851000000380000c2
:103a0c005648000055030000484c0000514a000085
:103a1c00484500004851000000380000554f000098
:103a2c00034800004c5100004a4800004548000083
:103a3c00510000002e4800005c030000484c0000c0
:103a4c00514a00004845000048510000002e00007b
:103a5c00485c000015030000484c0000514a00006f
:103a6c004845000048510000002c0000514900005e
:103a7c0052030000484c0000514a00004845000029
:103a8c004851000000310000445000004803000081
:103a9c00445100005d4800004c4a000048510000b1
:103aac000038000056480000550300004451000047
:103abc005d4800004c4a00004851000000380000ee
:103acc00554f000003440000515d0000484c0000bd
:103adc004a480000510000002e4800005c03000022
:103aec00445100005d4800004c4a00004851000061
:103afc00002e0000485c000015030000445100003b
:103b0c005d4800004c4a000048510000002c0000a9
:103b1c005149000052030000445100005d48000070
:103b2c004c4a000048510000003100004450000095
:103b3c00481d0000030000003856000048550000e6
:103b4c001d030000002e0000485c0000141d000046
:103b5c00030000002e4800005c1500001d0300004f
:103b6c0000380000554f00001d030000002c000021
:103b7c0051490000521d00000300000027480000be
:103b8c00574400004c4f000056000000284c000029
:103b9c0051570000554400004a5600004f4c00009d
:103bac00565700004800000032530000574c0000ec
:103bbc005251000048510000003300004c510000ed
:103bcc0003320000535700004c52000051480000d3
:103bdc00510000004458000056000000245800001a
:103bec00564a00004445000048500000524700006f
:103bfc005856000000340000584c0000464e00009f
:103c0c004e4800005c56000003240000585600008b
:103c1c0000340000584c0000464e00004e48000096
:103c2c005c5600000324000051000000284c0000ea
:103c3c0051570000554400004a0100008d4500001a
:103c4c0048550000564600004b550000484c0000fb
:103c5c00454800005122000000370000524e000081
:103c6c0048510000034f000089560000464b0000ed
:103c7c004851000022000000244600004b57000071
:103c8c00585100004a0f0000032800004c5100005e
:103c9c0057550000444a0000034f000089560000ad
:103cac00464b00004851000022000000324b00003f
:103cbc0051480000033600004c4600004b48000001
:103ccc0055510000014400004545000055480000d6
:103cdc00464b00004851000022000000284c000018
:103cec0051570000554400004a03000044510000a5
:103cfc004f4800004a48000051000000284c0000ca
:103d0c0051570000554400004a0300004f89000041
:103d1c00564600004b4800005100000027480000a8
:103d2c00594c000046480000033200005357000075
:103d3c004c52000051560000003300004c51000062
:103d4c0003320000535700004c5200005156000043
:103d5c000037000048570000554c0000560000008a
:103d6c005d580000558d0000464e000000370000e5
:103d7c00524e00004851000003450000484400002a
:103d8c0055450000484c0000574800005100000009
:103d9c00375200004e480000510300004f890000cc
:103dac00564600004b480000510000003836000019
:103dbc002510000033580000564b0000003800005e
:103dcc003625000003240000585600004a44000029
:103ddc0045480000111100001100000010100000f7
:103dec00104f000044470000481000001010000065
:103dfc00002f000048590000484f0000001500003b
:103e0c001800000036570000485300005600000010
:103e1c002f4c0000594800005600000031520000a1
:103e2c00033600005748000053560000034f0000b3
:103e3c0048490000570000000e0000002851000007
:103e4c005748000055010000334c000051000000a1
:103e5c0039480000554c0000495c0000013300005b
:103e6c004c510000003300004c51000014030000c2
:103e7c005851000047030000334c0000511500005e
:103e8c0001580000514a00004f4800004c46000009
:103e9c004b010000254c0000575700004803000060
:103eac0051520000464b0000504400004f010000ee
:103ebc00484c0000514a00004845000048510000a1
:103ecc00003300004c510000037f000051470000fc
:103edc0048550000510000003948000055560000bc
:103eec00584600004b4800001d030000002f000046
:103efc007f5100004a4800001d030000002f000005
:103f0c007f5100004a480000035a00004c55000045
:103f1c0047030000485500005657000003450000b9
:103f2c00484c0000016b0000514700004855000050
:103f3c00585100004a0300005a4c0000554e000036
:103f4c005644000050040000002a000044500000b9
:103f5c0048000000325900004855000004000000e1
:103f6c00275500008d4600004e4800000324000039
:103f7c00005d00005850000003360000574400005c
:103f8c005557000048510000040000003646000060
:103f9c0052550000480000002f4c00005148000012
:103fac00560000002f5900004f00000000140000c4
:103fbc00101c000000240000103d00000044000014
:103fcc00105d000000300000485100005800000057
:103fdc007d10000088000000041000008d0000001f
:103fec00691000007400000035510000470b000000
:103ffc001b0c00001d030000441000003d000000dd
:10400c004445000046470000484900004a4b000068
:10401c004c4d00004e4f0000505100005253000018
:10402c005455000056570000585900005a5b0000c8
:10403c005c5d0000242500002627000028290000d4
:10404c002a2b00002c2d00002e2f000030310000f8
:10405c0032330000343500003637000038390000a8
:10406c003a3b00003c3d0000003500005147000089
:10407c000b1b00000c1d000003440000101c000072
:10408c00004400004546000047480000494a000033
:10409c004b4c00004d4e00004f50000051520000a0
:1040ac00535400005556000057580000595a000050
:1040bc005b5c00005d240000252600002728000022
:1040cc00292a00002b2c00002d2e00002f30000080
:1040dc003132000033340000353600003738000030
:1040ec00393a00003b3c00003d1300001415000061
:1040fc0016170000181900001a1b00001c00000005
:10410c0035510000470b00001b0c00001d03000084
:10411c00441000008d0400000044000045460000df
:10412c0047480000494a00004b4c00004d4e00002f
:10413c004f500000515200005354000055560000df
:10414c0057580000595a00005b5c00005d89000064
:10415c007f8d000024250000262700002829000060
:10416c002a2b00002c2d00002e2f000030310000d7
:10417c003233000034350000363700003839000087
:10418c003a3b00003c3d00001314000015160000e3
:10419c0017180000191a00001b1c0000756b00009a
:1041ac0079040000220800000906000010420000fb
:1041bc0000350000514700000b1b00000c1d0000d7
:1041cc00034b0000485b00000013000014150000b6
:1041dc0016170000181900001a1b00001c440000e0
:1041ec004546000047480000490000000000000060
:1041fc000100000021000000430000006e000000e0
:10420c00730000008700000099000000a700000068
:10421c00b5000000c3000000d0000000dd0000006d
:10422c00eb000000f9000000070100001501000080
:10423c00220100002f0100003d0100004b01000095
:10424c0052010000590100006001000067010000ec
:10425c006d010000740100007c0100008a01000067
:10426c0093010000a0010000a4010000b1010000b6
:10427c00bf010000cc010000e3010000f2010000ce
:10428c000c02000024020000340200004402000072
:10429c00530200005f020000660200006d02000085
:1042ac007e0200008c02000095020000a4020000b7
:1042bc00af020000b5020000b8020000be02000010
:1042cc00c4020000d2020000d4020000de02000092
:1042dc00e902000017030000220300002d03000078
:1042ec00350300005b030000600300006603000060
:1042fc006f0300007c0300008203000088030000b1
:10430c008c0300008d030000910300009503000056
:10431c00990300009e030000a2030000a603000006
:10432c00aa030000b6030000eb030000f703000033
:10433c0036040000430400008f0400009b040000be
:10434c00aa030000b603000008000000eb03000005
:10435c00f7030000080000003604000043040000ce
:10436c00080000008f0400009b04000008000000ff
:10437c00000000008c030000ffff000000000000a4
:10438c00010000008d030000ffff00000000000092
:10439c00000000008c030000ffff00000000000084
:1043ac000100000091030000ffff00002800000046
:1043bc000100000095030000ffff0000500000000a
:1043cc0001000000990300000000000078000000cc
:1043dc00010000009e030000ffff0000a000000091
:1043ec0001000000a2030000ffff0000c800000055
:1043fc0001000000a6030000ffff0000f000000019
:10440c000114000000000000011500000000000075
:10441c000116000000000000011700000000000061
:10442c00011800000000000001190000000000004d
:10443c00011a000000000000011b00000000000039
:10444c00011c00000000000001130000000000002f
:10445c00010e000000000000011000000000000030
:10446c00010d00000000000001120000000000001f
:10447c00011f0000000000000121000000000000ee
:10448c00010b000000000000010c00000000000007
:10449c00013e000000000000014000000000000090
:1044ac000120000000000000015e00000000000080
:1044bc000160000000000000000000000600000089
:1044cc0000000000050100000000000004020000d4
:1044dc0000000000030300000000000002040000c4
:1044ec0000000000010500000000000000060000b4
:1044fc0003000000010000000300000000010000a8
:10450c000200000005000000020000000401000091
:10451c000200000003020000020000000203000081
:10452c000200000001040000020000000005000071
:10453c000400000001000000040000000001000065
:10454c000134000000000000013a000000000000ef
:10455c0001280000000000000135000000000000f0
:10456c000137000000000000013d000000000000c9
:10457c000138000000000000012c000000000000c9
:10458c0001320000000000000133000000000000b8
:10459c0001240000000000000136000000000000b3
:1045ac0001270000000000000129000000000000ad
:1045bc00012a000000000000012b00000000000098
:1045cc00012d000000000000012e00000000000082
:1045dc00012f000000000000017500000000000029
:1045ec00013c000000000000013b00000000000046
:1045fc00012600000000000001390000000000004e
:10460c000125000000000000013100000000000046
:10461c000130000000000000016b000000000000f1
:10462c000179000000000000017b00000000000088
:10463c000111000000000000030000000100000058
:10464c000300000000010000020000000400000054
:10465c000200000003010000020000000202000042
:10466c000200000001030000020000000004000032
:10467c000400000001000000040000000001000024
:10468c000154000000000000015a0000000000006e
:10469c00014800000000000001550000000000006f
:1046ac000157000000000000015d00000000000048
:1046bc000158000000000000014c00000000000048
:1046cc000152000000000000015300000000000037
:1046dc000144000000000000015600000000000032
:1046ec00014700000000000001490000000000002c
:1046fc00014a000000000000014b00000000000017
:10470c00014d000000000000014e00000000000000
:10471c00014f0000000000000189000000000000b3
:10472c00015c000000000000015b000000000000c4
:10473c0001460000000000000159000000000000cc
:10474c0001450000000000000151000000000000c5
:10475c000150000000000000017f0000000000007c
:10476c00018d000000000000017b00000000000033
:10477c000111000000000000030000000100000017
:10478c000300000000010000020000000400000013
:10479c000200000003010000020000000202000001
:1047ac0002000000010300000200000000040000f1
:1047bc0004000000010000000400000000010000e3
:1047cc0005000000010000000500000000010000d1
:1047dc0006000000010000000600000000010000bf
:1047ec0007000000050000000700000004010000a5
:1047fc000700000003020000070000000203000095
:10480c000700000001040000070000000005000084
:10481c000200000001000000020000000001000086
:10482c000300000001000000030000000001000074
:10483c000701000005000000070100000401000052
:10484c000701000003020000070100000203000042
:10485c000701000001040000070100000005000032
:10486c000000000003000000000000000201000036
:10487c000000000001020000000000000003000026
:10488c000702000005000000070200000401000000
:10489c0007020000030200000702000002030000f0
:1048ac0007020000010400000702000000050000e0
:1048bc0000000000030000000000000002010000e6
:1048cc0000000000010200000000000000030000d6
:1048dc0007030000050000000703000004010000ae
:1048ec00070300000302000007030000020300009e
:1048fc00070300000104000007030000000500008e
:10490c00017d00000000000001810000000000009b
:10491c00018b00000000000001840000000000007a
:10492c000187000000000000018e00000000000064
:10493c000000000003000000000000000201000065
:10494c000000000001020000000000000003000055
:10495c00017c00000000000001800000000000004d
:10496c00018a00000000000001830000000000002c
:10497c0001860000000000000000000004000000a0
:10498c000000000003010000000000000202000013
:10499c000000000001030000000000000004000003
:1049ac00017e0000000000000182000000000000f9
:1049bc00018c0000000000000185000000000000d8
:1049cc00018800000000000000000000040000004e
:1049dc0000000000030100000000000002020000c3
:1049ec0000000000010300000000000000040000b3
:1049fc0003000000010000000300000000010000a3
:104a0c00020000000500000002000000040100008c
:104a1c00020000000302000002000000020300007c
:104a2c00020000000104000002000000000500006c
:104a3c000400000001000000040000000001000060
:104a4c00010400000000000001050000000000004f
:104a5c0001620000000000000107000000000000df
:104a6c000108000000000000010900000000000027
:104a7c0001120000000000000122000000000000f4
:104a8c000141000000000000016100000000000076
:104a9c00016400000000000001650000000000003f
:104aac00013f000000000000016300000000000056
:104abc00010a0000000000000106000000000000d8
:104acc000110000000000000014200000000000086
:104adc00014300000000000001660000000000001f
:104aec00010f000000000000011e0000000000008b
:104afc000111000000000000011d0000000000007a
:104b0c00015f000000000000012300000000000015
:104b1c000167000000000000019000000000000090
:104b2c00018f0000000000000000000000000000e9
:104b3c000300000001000000030000000001000061
:104b4c00020000000500000002000000040100004b
:104b5c00020000000302000002000000020300003b
:104b6c00020000000104000002000000000500002b
:104b7c00040000000100000004000000000100001f
:104b8c000169000000000000016d00000000000041
:104b9c000177000000000000017000000000000020
:104bac000173000000000000017a0000000000000a
:104bbc0000000000030000000000000002010000e3
:104bcc0000000000010200000000000000030000d3
:104bdc000168000000000000016c000000000000f3
:104bec000176000000000000016f000000000000d2
:104bfc000172000000000000000000000400000032
:104c0c000000000003010000000000000202000090
:104c1c000000000001030000000000000004000080
:104c2c00016a000000000000016e0000000000009e
:104c3c00017800000000000001710000000000007d
:104c4c0001740000000000000000000004000000df
:104c5c000000000003010000000000000202000040
:104c6c000000000001030000000000000004000030
:104c7c000300000001000000030000000001000020
:104c8c00020000000500000002000000040100000a
:104c9c0002000000030200000200000002030000fa
:104cac0002000000010400000200000000050000ea
:104cbc0004000000010000000400000000010000de
:104ccc00131400001516000017180000191a000024
:104cdc001b1c0000444500004647000048490000ea
:104cec00564500005249000046590000004b000098
:104cfc005300000004020000030300000303000043
:104d0c000300000000000000000100000101000091
:104d1c000100000000000000000000000000000086
:104d2c000001000001000000000100000100000073
:104d3c000000000000000000000000000000000067
:104d4c000000000001000000000100000101000053
:104d5c000000000000000000000000000000000047
:104d6c000000000000010000000100000101000033
:104d7c000000000000000000000000000000000027
:104d8c000001000000000000000100000101000013
:104d9c000000000000000000000000000000000007
:104dac0000010000010000000000000001010000f3
:104dbc0000000000000000000000000000000000e7
:104dcc0000000000010100000001000001000000d3
:104ddc0000000000000000000000000000000000c7
:104dec000000000000f80000e00700001f000000b9
:104dfc00ff0700001ff80000e0ff000000fc0000af
:104e0c000000000007070000000000000100000087
:104e1c00080e00001400000002000000090f000042
:104e2c0015000000030000000b110000160000002c
:104e3c00040000000c120000170000000500000028
:104e4c000a10000018000000060000000d130000fe
:104e5c001900000007000000000000000000000026
:104e6c000404000004010000090500000505000011
:104e7c000402000004010000010500000507000009
:104e8c0004040000040100000105000005050000f9
:104e9c0001040000010400000101000005030000f2
:104eac0001040000040100000101000005050000e0
:104ebc0006010000040100000101000001050000d2
:104ecc0001050000010100000101000005050000c2
:104edc00010100000101000001050000050a0000ad
:104eec0000010000000000000000000000000000b5
:104efc000000000073000000000000002e04000001
:104f0c003c06000050010000aa0100001204000041
:104f1c001a0400003e0400004e00000018000000bf
:104f2c001c00000004000000982f00008a420000c2
:104f3c009144000037710000cffb0000c0b50000a9
:104f4c00a5db0000b5e900005bc20000563900008b
:104f5c00f1110000f1590000a48200003f92000002
:104f6c00d55e00001cab000098aa000007d800001a
:104f7c00015b000083120000be850000312400009c
:104f8c00c37d00000c550000745d0000be72000073
:104f9c00feb10000de800000a7060000dc9b0000d4
:104fac0074f100009bc10000c16900009be400008b
:104fbc0086470000beef0000c69d0000c10f000038
:104fcc00cca100000c2400006f2c0000e92d000087
:104fdc00aa840000744a0000dca90000b05c000048
:104fec00da880000f9760000525100003e9800006b
:104ffc006dc6000031a80000c827000003b00000f7
:10500c00c77f000059bf0000f30b0000e0c6000092
:10501c0047910000a7d5000051630000ca060000ac
:10502c006729000029140000850a0000b72700003a
:10503c00382100001b2e0000fc6d00002c4d0000e0
:10504c00130d000038530000547300000a65000073
:10505c00bb0a00006a7600002ec90000c281000065
:10506c00852c000072920000a1e80000bfa2000095
:10507c004b6600001aa80000708b00004bc20000a9
:10508c00a35100006cc7000019e8000092d1000089
:10509c002406000099d60000853500000ef40000af
:1050ac0070a000006a10000016c10000a4190000d6
:1050bc00086c0000371e00004c77000048270000e9
:1050cc00b5bc0000b0340000b30c00001c3900006b
:1050dc004aaa0000d84e00004fca00009c5b00009a
:1050ec00f36f00002e680000ee8200008f74000049
:1050fc006f630000a578000014780000c8840000dd
:10510c0008020000c78c0000faff0000be900000ef
:10511c00eb6c000050a40000f7a30000f9be0000e7
:10512c00f278000071c6000012010000803200000d
:10513c0011800000ff3a0000810500000ab1000058
:10514c0083000000060300000a360000010800007e
:10515c00b602000015020000b401000000c00000ff
:10516c0082020000700a0000c101000005c20000ac
:10517c000201000002c50000823c0000380a000059
:10518c00fc02000011150000e010000009160000e0
:10519c0009200000211b0000131900001715000046
:1051ac001e2b000004050000020e0000e190000020
:1051bc000b140000081e0000221d0000181e000029
:1051cc001b1a0000242b000006060000020f000032
