:020000040000fa
:080000000002040000000000f2
:020000040000fa
:04000800b60300003b
:020000040000fa
:04000c0008030000e5
:020000040000fa
:040010004a0300009f
:020000040000fa
:0400140028030000bd
:020000040000fa
:040018006a03000077
:020000040000fa
:04001c00b603000027
:020000040000fa
:04002000b603000023
:020000040000fa
:04002400b60300001f
:020000040000fa
:04002800b60300001b
:020000040000fa
:04002c00b603000017
:020000040000fa
:04003000b603000013
:020000040000fa
:04003400b60300000f
:020000040000fa
:04003800b60300000b
:020000040000fa
:04003c00b603000007
:020000040000fa
:04004000b603000003
:020000040000fa
:04004400b6030000ff
:020000040000fa
:04004800b6030000fb
:020000040000fa
:04004c00b6030000f7
:020000040000fa
:04005000b6030000f3
:020000040000fa
:04005400b6030000ef
:020000040000fa
:04005800b6030000eb
:020000040000fa
:04005c00b6030000e7
:020000040000fa
:04006000b6030000e3
:020000040000fa
:04006400b6030000df
:020000040000fa
:04006800b6030000db
:020000040000fa
:04006c00b6030000d7
:020000040000fa
:04007000b6030000d3
:020000040000fa
:04007400b6030000cf
:020000040000fa
:04007800b6030000cb
:020000040000fa
:04007c00b6030000c7
:020000040000fa
:04008000b6030000c3
:020000040000fa
:04008400b6030000bf
:020000040000fa
:04008800b6030000bb
:020000040000fa
:04008c00b6030000b7
:020000040000fa
:04009000b6030000b3
:020000040000fa
:04009400b6030000af
:020000040000fa
:04009800b6030000ab
:020000040000fa
:04009c00b6030000a7
:020000040000fa
:0400a000b6030000a3
:020000040000fa
:0400a400b60300009f
:020000040000fa
:0400a800b60300009b
:020000040000fa
:0400ac00b603000097
:020000040000fa
:0400b000b603000093
:020000040000fa
:0400b400b60300008f
:020000040000fa
:0400b800b60300008b
:020000040000fa
:0400bc00b603000087
:020000040000fa
:0400c000b603000083
:020000040000fa
:0400c400b60300007f
:020000040000fa
:0400c800b60300007b
:020000040000fa
:0400cc00b603000077
:020000040000fa
:0400d000b603000073
:020000040000fa
:0400d400b60300006f
:020000040000fa
:0400d800b60300006b
:020000040000fa
:0400dc00b603000067
:020000040000fa
:0400e000b603000063
:020000040000fa
:0400e400b60300005f
:020000040000fa
:0400e800b60300005b
:020000040000fa
:0400ec00b603000057
:020000040000fa
:0400f000b603000053
:020000040000fa
:0400f400b60300004f
:020000040000fa
:0400f800b60300004b
:020000040000fa
:0400fc00b603000047
:020000040000fa
:04010000b603000042
:020000040000fa
:04010400b60300003e
:020000040000fa
:04010800b60300003a
:020000040000fa
:04010c00b603000036
:020000040000fa
:04011000b603000032
:020000040000fa
:04011400b60300002e
:020000040000fa
:04011800b60300002a
:020000040000fa
:04011c00b603000026
:020000040000fa
:04012000b603000022
:020000040000fa
:04012400b60300001e
:020000040000fa
:04012800b60300001a
:020000040000fa
:04012c00b603000016
:020000040000fa
:04013000b603000012
:020000040000fa
:04013400b60300000e
:020000040000fa
:04013800b60300000a
:020000040000fa
:04013c00b603000006
:020000040000fa
:04014000b603000002
:020000040000fa
:04014400b6030000fe
:020000040000fa
:04014800b6030000fa
:020000040000fa
:04014c00b6030000f6
:020000040000fa
:04015000b6030000f2
:020000040000fa
:04015400b6030000ee
:020000040000fa
:04015800b6030000ea
:020000040000fa
:04015c00b6030000e6
:020000040000fa
:04016000b6030000e2
:020000040000fa
:04016400b6030000de
:020000040000fa
:04016800b6030000da
:020000040000fa
:04016c00b6030000d6
:020000040000fa
:04017000b6030000d2
:020000040000fa
:04017400b6030000ce
:020000040000fa
:04017800b6030000ca
:020000040000fa
:04017c00b6030000c6
:020000040000fa
:040180008a030000ee
:020000040000fa
:04018400b6030000be
:020000040000fa
:04018800b6030000ba
:020000040000fa
:04018c00b6030000b6
:020000040000fa
:04019000b6030000b2
:020000040000fa
:04019400b6030000ae
:020000040000fa
:04019800b6030000aa
:020000040000fa
:04019c00b6030000a6
:020000040000fa
:0401a000b6030000a2
:020000040000fa
:0401a400b60300009e
:020000040000fa
:0401a800b60300009a
:020000040000fa
:0401ac00b603000096
:020000040000fa
:0401b000b603000092
:020000040000fa
:0401b400b60300008e
:020000040000fa
:0401b800b60300008a
:020000040000fa
:0401bc00b603000086
:020000040000fa
:0401c000b603000082
:020000040000fa
:0401c400b60300007e
:020000040000fa
:0401c800b60300007a
:020000040000fa
:0401cc00b603000076
:020000040000fa
:0401d000b603000072
:020000040000fa
:0401d400b60300006e
:020000040000fa
:0401d800b60300006a
:020000040000fa
:0401dc00b603000066
:020000040000fa
:0401e000b603000062
:020000040000fa
:0401e400b60300005e
:020000040000fa
:0401e800b60300005a
:020000040000fa
:0401ec00b603000056
:020000040000fa
:0401f000b603000052
:020000040000fa
:0401f400b60300004e
:020000040000fa
:0401f800b60300004a
:020000040000fa
:0401fc00b603000046
:020000040000fa
:04020800b603000039
:020000040000fa
:04020c0008030000e3
:020000040000fa
:040210004a0300009d
:020000040000fa
:0402140028030000bb
:020000040000fa
:040218006a03000075
:020000040000fa
:04021c00b603000025
:020000040000fa
:04022000b603000021
:020000040000fa
:04022400b60300001d
:020000040000fa
:04022800b603000019
:020000040000fa
:04022c00b603000015
:020000040000fa
:04023000b603000011
:020000040000fa
:04023400b60300000d
:020000040000fa
:04023800b603000009
:020000040000fa
:04023c00b603000005
:020000040000fa
:04024000b603000001
:020000040000fa
:04024400b6030000fd
:020000040000fa
:04024800b6030000f9
:020000040000fa
:04024c00b6030000f5
:020000040000fa
:04025000b6030000f1
:020000040000fa
:04025400b6030000ed
:020000040000fa
:04025800b6030000e9
:020000040000fa
:04025c00b6030000e5
:020000040000fa
:04026000b6030000e1
:020000040000fa
:04026400b6030000dd
:020000040000fa
:04026800b6030000d9
:020000040000fa
:04026c00b6030000d5
:020000040000fa
:04027000b6030000d1
:020000040000fa
:04027400b6030000cd
:020000040000fa
:04027800b6030000c9
:020000040000fa
:04027c00b6030000c5
:020000040000fa
:04028000b6030000c1
:020000040000fa
:04028400b6030000bd
:020000040000fa
:04028800b6030000b9
:020000040000fa
:04028c00b6030000b5
:020000040000fa
:04029000b6030000b1
:020000040000fa
:04029400b6030000ad
:020000040000fa
:04029800b6030000a9
:020000040000fa
:04029c00b6030000a5
:020000040000fa
:0402a000b6030000a1
:020000040000fa
:0402a400b60300009d
:020000040000fa
:0402a800b603000099
:020000040000fa
:0402ac00b603000095
:020000040000fa
:0402b000b603000091
:020000040000fa
:0402b400b60300008d
:020000040000fa
:0402b800b603000089
:020000040000fa
:0402bc00b603000085
:020000040000fa
:0402c000b603000081
:020000040000fa
:0402c400b60300007d
:020000040000fa
:0402c800b603000079
:020000040000fa
:0402cc00b603000075
:020000040000fa
:0402d000b603000071
:020000040000fa
:0402d400b60300006d
:020000040000fa
:0402d800b603000069
:020000040000fa
:0402dc00b603000065
:020000040000fa
:0402e000b603000061
:020000040000fa
:0402e400b60300005d
:020000040000fa
:0402e800b603000059
:020000040000fa
:0402ec00b603000055
:020000040000fa
:0402f000b603000051
:020000040000fa
:0402f400b60300004d
:020000040000fa
:0402f800b603000049
:020000040000fa
:0402fc00b603000045
:020000040000fa
:04030000b603000040
:020000040000fa
:04030400b60300003c
:020000040000fa
:04030800b603000038
:020000040000fa
:04030c00b603000034
:020000040000fa
:04031000b603000030
:020000040000fa
:04031400b60300002c
:020000040000fa
:04031800b603000028
:020000040000fa
:04031c00b603000024
:020000040000fa
:04032000b603000020
:020000040000fa
:04032400b60300001c
:020000040000fa
:04032800b603000018
:020000040000fa
:04032c00b603000014
:020000040000fa
:04033000b603000010
:020000040000fa
:04033400b60300000c
:020000040000fa
:04033800b603000008
:020000040000fa
:04033c00b603000004
:020000040000fa
:04034000b603000000
:020000040000fa
:04034400b6030000fc
:020000040000fa
:04034800b6030000f8
:020000040000fa
:04034c00b6030000f4
:020000040000fa
:04035000b6030000f0
:020000040000fa
:04035400b6030000ec
:020000040000fa
:04035800b6030000e8
:020000040000fa
:04035c00b6030000e4
:020000040000fa
:04036000b6030000e0
:020000040000fa
:04036400b6030000dc
:020000040000fa
:04036800b6030000d8
:020000040000fa
:04036c00b6030000d4
:020000040000fa
:04037000b6030000d0
:020000040000fa
:04037400b6030000cc
:020000040000fa
:04037800b6030000c8
:020000040000fa
:04037c00b6030000c4
:020000040000fa
:040380008a030000ec
:020000040000fa
:04038400b6030000bc
:020000040000fa
:04038800b6030000b8
:020000040000fa
:04038c00b6030000b4
:020000040000fa
:04039000b6030000b0
:020000040000fa
:04039400b6030000ac
:020000040000fa
:04039800b6030000a8
:020000040000fa
:04039c00b6030000a4
:020000040000fa
:0403a000b6030000a0
:020000040000fa
:0403a400b60300009c
:020000040000fa
:0403a800b603000098
:020000040000fa
:0403ac00b603000094
:020000040000fa
:0403b000b603000090
:020000040000fa
:0403b400b60300008c
:020000040000fa
:0403b800b603000088
:020000040000fa
:0403bc00b603000084
:020000040000fa
:0403c000b603000080
:020000040000fa
:0403c400b60300007c
:020000040000fa
:0403c800b603000078
:020000040000fa
:0403cc00b603000074
:020000040000fa
:0403d000b603000070
:020000040000fa
:0403d400b60300006c
:020000040000fa
:0403d800b603000068
:020000040000fa
:0403dc00b603000064
:020000040000fa
:0403e000b603000060
:020000040000fa
:0403e400b60300005c
:020000040000fa
:0403e800b603000058
:020000040000fa
:0403ec00b603000054
:020000040000fa
:0403f000b603000050
:020000040000fa
:0403f400b60300004c
:020000040000fa
:0403f800b603000048
:020000040000fa
:0403fc00b603000044
:020000040000fa
:100400000fa220000e7f22000e01880000000000d5
:10041000000020000000e000020032000001200087
:100420002002880014000700d20007000000e0004e
:1004300003003a0060ce23000100200002003700d4
:100440000000200001002000810f70000100320038
:1004500014000700000020000000e000020032004d
:1004600000000200000000000a3b02000000000043
:100470000040da000000fe004440a900403c21009a
:100480000000e000030032000020200090018800fe
:100490004440a800000006008a1f78008b1f7800e7
:1004a00000000600a1028800800478000000eb0034
:1004b0001f003700e284440054a0b4009905ba003c
:1004c000e284440054a0b4009906ba00e2844400d7
:1004d00054a0b4000006eb00476fde00fd07b20039
:1004e000ae018800636ce10003003a00eaff0700f8
:1004f0000000eb000e003700606ce10008003a00dd
:10050000004deb000a05e800020039003420ec0041
:100510000af0a0008b05e900f9ff3e000400370057
:100520006168e100010032000086eb000b0007006b
:1005300019c7ba001905ba000e04e00003003a001a
:100540000a00e000dbff3a0000000600fe07b200f0
:10055000ae0288008a047800f5ff37000cd0a300b3
:10056000e20f4d001c00390089027800354dba00b9
:100570000a05e800020039003420ec000af0a0006f
:100580008b05e9000f003200254dba000a05e8008e
:10059000020039003420ec000af0a0008b05e900cd
:1005a000080032000c00e0000600320015cdba0051
:1005b0000a05e800020039003420ec000af0a0002f
:1005c0008b05e9008984e80054a0b4000b00e0002a
:1005d000e2ff3a00000006009902ba00055d7800cb
:1005e0008b05e900f7ff3200c82ade00055d7800c0
:1005f0008b05e900f3ff32000c00e000f1ff320050
:1006000019ddba00eeff37009c3504000000000041
:100610003600f800809fbe00829fbe00849fbe000f
:10062000869fbe000000fa008020a9000000eb00b9
:10063000381d07000080fa004f03be004f02be00c5
:100640004f01be004f00be003600f900004006001a
:100650003600f800809fbe00829fbe00849fbe00cf
:10066000869fbe000000fa002f1d07008040a900f1
:1006700010002000271d07000080fa004f03be0075
:100680004f02be004f01be004f00be003600f90011
:10069000004006003600f800809fbe00829fbe002a
:1006a000849fbe00869fbe000000fa008060a90003
:1006b00020002000171d07000080fa004f03be0035
:1006c0004f02be004f01be004f00be003600f900d1
:1006d000004006003600f800809fbe00829fbe00ea
:1006e000849fbe00869fbe000000fa008080a900a3
:1006f00030002000071d07000080fa004f03be00f5
:100700004f02be004f01be004f00be003600f90090
:10071000004006003600f800809fbe00829fbe00a9
:10072000849fbe00869fbe003200f8003400f800af
:1007300010002000a0018800002020009001880007
:100740000000fa002f0c07000080fa003400f900c6
:100750003200f9004f03be004f02be004f01be0041
:100760004f00be003600f900004006000040da00ed
:100770000000fe0000000500889fbe008a9fbe00aa
:1007800030044200b0844a0030054b0090854b0095
:100790006000b1000898be000a90be000440e1006d
:1007a00005c8e10006d0e10007d8e10002003100f1
:1007b000680040001008e8004f05be004f04be006e
:1007c00000000600889fbe008a9fbe003004be0065
:1007d0002005be000418540005985c0006185d0052
:1007e00007985d00110020000440e10005c8e10009
:1007f00006d0e10007d8e100010039008000eb00dd
:10080000108810004f05be004f04be000000060017
:10081000f4874700889fbe008a9fbe008c9fbe0061
:100820008e1f7800d0b79f00e1b79f00f2b79f00fe
:1008300083bf9f000605be000404be00cfae970034
:100840000000eb00c0b79f00b0b79f00a0b79f00ab
:1008500090b79f0080b79f00000678004fb09700c8
:10086000000140000000e00006003d003c000700e1
:100870000f074700450007000f004000beff0700bc
:1008800005003700360007000f0747003f0007004c
:100890000f004000cbff07004fb797000e00e000ad
:1008a0000c0035005fb29700efb297007fb397005e
:1008b0008fbb970010002000010020006011b800dd
:1008c000000272008182720002037300838373004e
:1008d0001c0007000c06e80001042000810f5600f0
:1008e000deff3a000e00e00005003d000802be00f9
:1008f0000a03be0000fe2f000f0040009eff07000d
:100900000d00e00005003a000fb297009fb297007b
:100910002fb39700bfb397000a0007005fb097009e
:10092000efb097007fb197008fb997004f0778001d
:100930004f06be004f05be004f04be004f01b10080
:1009400000000600010007000000060094b79f00a9
:10095000a5b79f00b6b79f00c7b79f00000006006d
:100960009fb097004f08de0002017000a2b79f0001
:100970000fb097004f01de008180400081007100c0
:1009800091b79f000efe2f0000000600de007800e9
:100990004f09de00000040000000710080b79f009a
:1009a0006fa897004f01de0081804000010f7100a9
:1009b0000e0007004f3ade00000040000400700007
:1009c000e0af9f00090007000402420085824a0050
:1009d00006034b0087834b00dcff07000802be00c4
:1009e0000a03be0000fe2f00000006001fb29700a1
:1009f000afb297003fb39700cfb397000000060057
:100a0000881f780018002000881f780080ff0700ea
:100a10008f87e9004f04780000000600801feb007c
:100a20007bff07008f87e90000000600889fbe005b
:100a30008a9fbe00e00f5000e08f5800e00f590081
:100a4000e08f59000c003d006044b8006055b800cc
:100a50000000540081805c0002015d0083815d0024
:100a6000180020001500070008003d0018000700ce
:100a70000004eb00050037000004eb000f00070046
:100a800002003d001200070018002000dcff0700f4
:100a90000800e000060032006022b8006033b800b1
:100aa0000000520081805a0002015b0083815b00dc
:100ab0004f05be004f04be0000000600e00f5200cc
:100ac000e08f5a00e00f5b00e08f5b000000060043
:100ad0006044b8006055b8000402540085825c0090
:100ae00006035d0087835d0000000600889fbe004e
:100af0008a9fbe008c1f7800e00f5000e08f5800e6
:100b0000e00f5900e08f59000d003d006044b8002f
:100b10006055b8000000540081805c0002015d0057
:100b200083815d001c0020000820e10009a8e1008d
:100b30000ab0e1000bb8e1000d003d0008003700ed
:100b40000006eb00e00f5200e08f5a00e00f5b0060
:100b5000e08f5b0006003d006044b8006055b800bf
:100b60000402540085825c0006035d0087835d00fb
:100b7000aaff07000c00e000060032006022b80067
:100b80006033b8000000520081805a0002015b000f
:100b900083815b004f0678004f05be004f04be0006
:100ba00000000600889fbe008a9fbe008c1f780050
:100bb0000006eb00e00f5000e08f5800e00f5900f6
:100bc000e08f590007003d006044b8006055b80050
:100bd0000000540081805c0002015d0083815d00a3
:100be0001c002000e00f5200e08f5a00e00f5b0075
:100bf000e08f5b0007003d006044b8006055b8001e
:100c00000402540085825c0006035d0087835d005a
:100c10000c00a2000c0007000c00e00006003200ef
:100c20006022b8006033b8000000520081805a0092
:100c300002015b0083815b004f0678004f05be0018
:100c40004f04be0000000600889fbe008a9fbe00c1
:100c50008c9fbe000404b8000506b8008904460055
:100c600060854e000606b8000a054600e0854e0085
:100c70000706b8008b054600040eb800890446003c
:100c80000a854e00e0854d00050eb8000a054600b5
:100c90008b854e00060eb8008b0546000416b80082
:100ca0000a0546008b854e000516b8008b054600e8
:100cb000041eb8008b0546000800be000a01be00f5
:100cc0004f06be004f05be004f04be0000000600e8
:100cd0008001780002003700b15978000201e90074
:100ce0000200e000fcff3a0000000600889fbe0002
:100cf0008a9fbe00800478000200e0005a003200a3
:100d000001407800814c780082814400f1f99f0015
:100d1000e20f51005400360091449800a14498001d
:100d2000e1f99f00d1f99f00e60f51004e00360017
:100d3000b1449800c1f99f00e80f51004a00360005
:100d40000905ea00630565000a8444000a055100ac
:100d5000c1ff2f00010565000080fb008000eb0053
:100d6000121020001310200043000700008cbe006a
:100d70000a01440060b99f0071b99f00e80f550057
:100d8000390036002004980031049800400498008f
:100d90005104980020b99f0031b99f0040b99f00cd
:100da00051b99f00f80f55002f00360060049800dd
:100db00071049800000c9800110c9800200c980009
:100dc000310c9800400c9800510c980020b19f0005
:100dd00031b19f0040b19f0051b19f0060b19f00b1
:100de00071b19f0000b99f0011b99f0064016400b8
:100df0007801410002044400020555006011b8006a
:100e00000203be000002be000403be006022b80060
:100e10000000720081807200020173008381730000
:100e20000f00370008027800009abe00029abe0048
:100e3000009abe000292be00000c9800110c9800af
:100e4000220c9800330c9800400c9800510c98002c
:100e5000620c9800730c98000a02b1000802b000fe
:100e6000ff0f5500efff3e00090078004f05be0060
:100e70004f04be0000000600020ab900001bb900c2
:100e80000200b8008100420081004300000006001b
:020000040000fa
:100e90000000000000000000000000001fa0000093
:100ea0003800000000000000380000000080000052
:100eb00004e00000078000001ce000000780000044
:100ec0001c80000004000000062000000920000033
:100ed0003ff800000920000008c000000c000000de
:100ee00012000000120000000c60000001800000f1
:100ef0000600000018c000000120000001200000d2
:100f000000c000000dc000001220000012200000f0
:100f10000d20000000c00000034000000020000081
:100f20003800000007c00000183000002008000052
:100f3000200800001830000007c000001400000066
:100f4000080000003e00000008000000140000003f
:100f50000100000001000000010000000fe000009f
:100f60000100000001000000010000000008000076
:100f700000700000010000000100000001000000fe
:100f8000006000000038000007c0000038000000ca
:100f90000fc00000102000001020000010200000f2
:100fa0000fc00000082000001fe00000002000002b
:100fb0000860000010a000001120000012200000b6
:100fc0000c2000000840000010200000122000004b
:100fd000122000000dc0000003000000050000000a
:100fe000090000001fe00000010000001e4000009a
:100ff00012200000122000001220000011c000008a
:1010000007c000000a20000012200000122000008b
:1010100001c00000100000001060000011800000fe
:1010200016000000180000000dc000001220000093
:1010300012200000122000000dc000000e00000071
:101040001120000011200000114000000f8000005e
:1010500006600000000800000670000001000000ab
:1010600002800000028000000440000004400000f4
:1010700008200000028000000280000002800000c2
:101080000280000002800000028000000280000058
:10109000082000000440000004400000028000001e
:1010a00002800000010000001000000011a00000fc
:1010b000120000000c00000007c000000820000023
:1010c00013900000145000001450000017d00000ce
:1010d00010400000084000000780000000e0000011
:1010e00007800000188000001880000007800000c2
:1010f00000e000001fe000001220000012200000ad
:10110000122000000dc00000078000000840000011
:10111000102000001020000010200000102000000f
:101120001fe0000010200000102000001020000030
:1011300008400000078000001fe0000012200000af
:101140001220000012200000102000001fe000000c
:101150001200000012000000120000001200000047
:10116000078000000840000010200000112000004f
:101170001120000011e000001fe00000020000004c
:101180000200000002000000020000001fe000005a
:10119000102000001fe000001020000000200000d0
:1011a00010200000102000001fc000001fe0000001
:1011b0000300000004800000084000001020000030
:1011c0001fe00000002000000020000000200000c0
:1011d0001fe0000018000000060000000180000071
:1011e00006000000180000001fe000001fe00000e3
:1011f00018000000060000000180000000600000f0
:101200001fe00000078000000840000010200000e0
:10121000102000001020000008400000078000009f
:101220001fe000001100000011000000110000008c
:101230000e000000078000000840000010200000a1
:10124000102000001030000008480000078800004f
:101250001fe00000110000001100000011800000dc
:101260000e400000002000000c20000012200000b2
:10127000122000001220000011c000001000000029
:10128000100000001fe0000010000000100000002f
:101290001fc000000020000000200000002000000f
:1012a000002000001fc000001c00000003800000a0
:1012b00000600000038000001c0000001c00000013
:1012c0000380000000600000038000001c0000009c
:1012d0000380000000600000038000001c0000008c
:1012e000186000000480000003000000048000007b
:1012f00018600000180000000600000001e0000077
:1013000006000000180000001060000010a000009f
:101310001320000014200000182000003ff80000f7
:1013200020080000200800003800000007c000006e
:101330000038000020080000200800003ff80000ee
:10134000020000000400000008000000100000007f
:101350000800000004000000020000000008000077
:10136000000800000008000000080000000800005d
:1013700000080000200000001000000000c0000075
:1013800005200000052000000520000003e000000b
:101390003fe00000042000000420000004200000c2
:1013a00003c0000003c0000004200000042000006f
:1013b0000420000003c000000420000004200000fe
:1013c000042000003fe0000003c0000005200000f2
:1013d0000520000005200000034000001fe0000081
:1013e000240000002400000003c0000004280000c6
:1013f000042800000428000007f000003fe000007f
:1014000004000000040000000400000003e00000ed
:1014100017e000000408000017f000003fe00000a3
:1014200001000000028000000440000000200000d5
:101430003fe0000007e0000004000000040000009e
:1014400003e00000040000000400000003e00000ce
:1014500007e0000004000000040000000400000099
:1014600003e0000003c0000004200000042000008e
:101470000420000003c0000007f800000420000062
:10148000042000000420000003c0000003c000008e
:1014900004200000042000000420000007f80000e1
:1014a00007e000000200000004000000032000002c
:1014b0000520000004a0000004c000001fc00000c0
:1014c000042000000420000007c0000000200000ed
:1014d000002000000020000007e0000006000000df
:1014e0000180000000600000018000000600000094
:1014f000078000000060000001800000060000007e
:10150000018000000060000007800000042000004f
:1015100002400000018000000240000004200000a2
:10152000060000000198000000600000018000003b
:10153000060000000460000004a000000520000078
:101540000620000001000000010000001ef0000065
:10155000200800003ff80000200800001ef00000f6
:1015600001000000010000000180000002000000f6
:101570000200000001000000008000000080000068
:1015800003000000050000000f800000154000006f
:1015900015200000152000001520000001000000ab
:1015a0000380000007c000000fe0000017f00000fb
:1015b0003658000016f0000009e0000007c00000e7
:1015c0000380000001000000001000000060000027
:1015d0000010000000100000026000000f800000fa
:1015e0001200000010000000001000000060000069
:1015f000001000000060000000200000000000005b
:1016000000000000002000000000000000000000ba
:101610000020000008000000080000003fc000009b
:101620000800000008000000090000000900000098
:101630003fc0000009000000090000001000000089
:101640002000000020000000100000000c0000003e
:1016500012000000120000000c6000000180000079
:101660000600000018c0000001200000012000005a
:1016700000c000000000000000c0000001200000c9
:101680000120000000c000000c200000922000009b
:10169000522000005220000091c000000100000014
:1016a00002800000044000000780000008400000a5
:1016b0001020000010200000102000001fe000009b
:1016c0001220000012200000122000001220000052
:1016d000010000000380000007c000000fe00000d0
:1016e00017f000003658000016f0000009e0000076
:1016f00007c000000380000001000000106000002f
:1017000090a000005320000054200000982000000a
:10171000010000000380000007c000000fe000008f
:1017200017f000003658000016f0000009e0000035
:1017300007c000000380000001000000010000005d
:101740000380000007c000000fe0000017f0000059
:101750003658000016f0000009e0000007c0000045
:1017600003800000010000003000000008000000bd
:1017700008000000300000003000000008000000f9
:1017800030000000080000000800000030000000e9
:1017900008000000300000000180000003c00000cd
:1017a00003c00000018000000100000001000000f3
:1017b0000100000001000000010000000100000025
:1017c0000100000001000000010000000100000015
:1017d0000100000001000000010000000100000005
:1017e00001000000010000003000000020000000a7
:1017f0001000000030000000100000001e0000007b
:1018000010000000000000001e00000008000000a2
:1018100004000000080000001e000000232000005b
:101820001520000014a0000024c0000004400000a7
:10183000028000000100000003c00000042000003e
:10184000042000000420000003c000000520000068
:10185000052000000520000003200000010000001a
:101860000380000007c000000fe0000017f0000038
:101870003658000016f0000009e0000007c0000024
:1018800003800000010000002460000014a000009c
:10189000152000002620000018000000460000006f
:1018a00001e00000460000001800000000000000f9
:1018b000000000000000000017e0000003c000006e
:1018c000042000001ff80000042000000420000095
:1018d000012000000fe00000112000001120000096
:1018e000102000000440000003800000028000007f
:1018f0000380000004400000108000000c80000005
:1019000003e000000c800000108000003cf80000a4
:101910000d88000012480000124800001248000024
:1019200011b00000100000000000000010000000d6
:1019300007c00000082000001390000014500000b1
:101940001450000014500000101000000820000087
:1019500007c0000012000000150000001500000084
:101960000f000000010000000280000005400000a0
:10197000028000000440000001000000010000009f
:1019800001000000010000000100000001e0000073
:1019900001000000010000000100000007c000007d
:1019a000082000001010000017d0000015100000e3
:1019b00015900000125000000820000007c0000031
:1019c0004000000040000000400000004000000017
:1019d00040000000400000000c0000001200000069
:1019e000120000000c000000024000000240000055
:1019f000024000001fc00000024000000240000042
:101a00000240000011000000130000000d00000063
:101a100011000000150000000a0000001000000086
:101a20002000000007f80000002000000020000057
:101a30000040000007e000000e0000001f00000052
:101a40001ff80000100000001ff800000600000052
:101a5000000800000008000000100000090000005d
:101a60001f000000010000000e0000001100000037
:101a7000110000000e000000044000000280000081
:101a80000540000002800000010000000800000086
:101a90001f0000000020000000c000000300000044
:101aa0000cc000001140000003e0000000400000f6
:101ab000080000001f0000000020000000c000001f
:101ac000030000000c000000122000000260000073
:101ad00001a000001100000015000000152000000a
:101ae0000ac00000030000000cc00000114000000c
:101af00003e000000040000000c0000001200000e2
:101b0000162000000020000000e000000780000018
:101b100098800000588000000780000000e000006e
:101b200000e000000780000058800000988000005e
:101b30000780000000e0000000e000004780000097
:101b400098800000988000004780000000e00000be
:101b500000e00000c780000098800000588000006e
:101b6000c780000000e0000000e0000047800000a7
:101b700018800000188000004780000000e000008e
:101b800000e000006780000098800000988000005e
:101b90006780000000e0000000e000000700000097
:101ba00019000000110000001fe0000012200000da
:101bb000122000001220000010200000078000000a
:101bc000084000001028000010280000103000001d
:101bd000102000001fe000001220000092200000f2
:101be00052200000102000001fe000001220000022
:101bf0005220000092200000102000001fe0000092
:101c0000522000009220000092200000502000008e
:101c10001fe00000522000001220000052200000af
:101c200010200000902000005fe000001020000065
:101c3000102000005fe00000902000005020000015
:101c40009fe00000902000004000000050200000b5
:101c50001fe0000050200000020000001fe0000014
:101c60001220000012200000102000000840000098
:101c7000078000001fe00000d80000008600000080
:101c800041800000c06000001fe0000007800000ed
:101c900008400000902000005020000010200000ac
:101ca0000840000007800000078000000840000096
:101cb000102000005020000090200000084000008c
:101cc000078000000780000008400000502000004e
:101cd0009020000090200000484000000780000095
:101ce0000780000008400000d02000009020000085
:101cf00050200000c840000007800000078000005e
:101d0000084000005020000010200000502000007b
:101d1000084000000780000004400000028000002e
:101d200001000000028000000440000007a0000045
:101d30000840000010a00000132000001420000044
:101d400008400000178000001fc0000000200000b5
:101d50008020000040200000002000001fc0000084
:101d60001fc0000000200000402000008020000074
:101d7000002000001fc000001fc000004020000025
:101d80008020000080200000402000001fc00000d4
:101d90001fc00000402000000020000000200000c4
:101da000402000001fc000001800000006000000d6
:101db00041e0000086000000180000001fe0000065
:101dc0000480000004800000048000000300000084
:101dd0001fe000002000000024200000242000005c
:101de0001bc0000000c000000520000025200000ee
:101df0001520000003e0000000c0000005200000e6
:101e0000152000002520000003e0000000c00000b5
:101e100015200000252000002520000013e0000010
:101e200000c0000035200000252000001520000023
:101e300033e0000000c00000152000000520000075
:101e40001520000003e0000000c000003520000065
:101e50004d2000004d20000033e0000000c00000d5
:101e600005200000052000000520000003c0000040
:101e70000540000005200000052000000340000090
:101e800003c8000004280000043000000420000003
:101e900003c00000252000001520000005200000e0
:101ea0000340000003c000000520000015200000d2
:101eb000252000000340000003c0000015200000a2
:101ec00025200000252000001340000003c0000072
:101ed0001520000005200000152000000340000030
:101ee0002000000017e0000017e0000020000000c4
:101ef0001000000027e000001000000010000000ab
:101f000007e000001000000001c000000a200000ef
:101f1000122000001a20000007c0000007e00000a7
:101f200034000000240000001400000033e0000032
:101f300003c0000024200000142000000420000042
:101f400003c0000003c000000420000014200000b3
:101f50002420000003c0000003c000001420000083
:101f6000242000002420000013c0000003c0000053
:101f700034200000242000001420000033c00000a2
:101f800003c0000014200000042000001420000002
:101f900003c000000100000001000000010000007b
:101fa0000d600000010000000100000001000000c1
:101fb00003d000000460000005a00000062000001f
:101fc0000bc0000007c0000020200000102000000f
:101fd0000020000007e0000007c000000020000013
:101fe000102000002020000007e0000007c00000d3
:101ff00010200000202000002020000017e000003a
:1020000007c0000010200000002000001020000089
:1020100007e00000060000000198000010600000ca
:1020200021800000060000003ff8000004200000ae
:10203000042000000420000003c00000060000008f
:1020400011980000006000001180000006000000f0
:102050000000000000000000000000000000000080
:102060000000000000000000000000000000000070
:102070000000000000000000000000000000000060
:102080000000000000000000000000000000000050
:102090000000000000000000000000000000000040
:1020a0000000000000000000000000000000000030
:1020b0000000000000000000000000000000000020
:1020c0000000000000000000000000000000000010
:1020d0000000000000000000000000000000000000
:1020e00000000000000000000000000000000000f0
:1020f00000000000000000000000000000000000e0
:1021000000000000000000000000000000000000cf
:1021100000000000000000000000000000000000bf
:1021200000000000000000000000000000000000af
:10213000000000000000000000000000000000009f
:10214000000000000000000000000000000000008f
:10215000000000000000000000000000000000007f
:10216000000000000000000000000000000000006f
:10217000000000000000000000000000000000005f
:10218000000000000000000000000000000000004f
:10219000000000000000000000000000000000003f
:1021a000000000000000000000000000000000002f
:1021b000000000000000000000000000000000001f
:1021c000000000000000000000000000000000000f
:1021d00003010000000300000000000001080000ef
:1021e00001040000060000000303000000040000da
:1021f0000800000007080000000800000e000000b2
:10220000050b0000000600001c0000000a0800008a
:10221000000b000026000000070800000007000077
:102220003a00000001030000000200004800000026
:10223000030b0000000400004a000000030b000034
:10224000000400005000000005050000000600002a
:1022500056000000070700000008000060000000b2
:1022600002040000000400006e00000003010000f2
:1022700000040000720000000102000001040000e0
:1022800078000000030b0000000400007a0000004a
:1022900005080000000600008000000003080000a0
:1022a000010600008a00000005080000000600008a
:1022b0009000000005080000000600009a000000e1
:1022c0000508000000060000a4000000050800004a
:1022d00000060000ae000000050800000006000037
:1022e000b80000000508000000060000c200000061
:1022f0000508000000060000cc00000005080000f2
:1023000000060000d60000000106000001040000e5
:10231000e00000000208000000040000e2000000ed
:102320000607000001080000e600000007030000a7
:1023300000080000f200000006070000010800008d
:102340000001000004080000000500000c0100006e
:1023500009090000000a000014010000060800003e
:10236000000700002601000005080000000600002c
:102370003201000006080000000700003c010000d8
:1023800006080000000700004801000005080000e2
:1023900000060000540100000508000000060000cf
:1023a0005e01000006080000000700006801000050
:1023b0000608000000070000740100000308000088
:1023c0000004000080010000040800000005000077
:1023d0008601000005080000000600008e010000d4
:1023e0000408000000050000980100000708000034
:1023f00000080000a001000006080000000700001f
:10240000ae0100000708000000080000ba0100004b
:102410000508000000060000c8010000070a0000cf
:1024200000080000d20100000608000000070000bc
:10243000e00100000508000000060000ec010000bb
:102440000508000000060000f60100000608000074
:102450000007000000020000050800000006000060
:102460000c02000009080000000a0000160200002b
:102470000508000000060000280200000508000012
:1024800000060000320200000508000000060000ff
:102490003c020000030b00000004000046020000a4
:1024a000030b0000000400004c020000030b0000be
:1024b00000040000520200000704000000080000b1
:1024c000580200000601000000060000660200003d
:1024d0000202000001060000720200000506000072
:1024e000000600007602000005090000000600005a
:1024f0008002000004060000000500008a020000bf
:102500000509000000060000920200000506000018
:10251000000600009c020000030900000004000007
:10252000a60200000508000000060000ac02000042
:102530000509000000060000b602000001080000c6
:1025400000020000c0020000020a000000030000b8
:10255000c20200000509000000050000c6020000dc
:102560000109000000020000d00200000706000080
:1025700000080000d202000005060000000600006e
:10258000e00200000506000000060000ea0200006c
:102590000508000000060000f40200000508000025
:1025a00000060000fe020000030600000004000018
:1025b0000803000004060000000500000e030000f0
:1025c00003080000000400001603000005060000d8
:1025d000000600001c0300000506000000060000c5
:1025e000260300000706000000080000300300007a
:1025f00005060000000600003e030000050800007c
:10260000000600004803000004060000000500006a
:1026100052030000040b0000000500005a030000f4
:10262000010b00000104000062030000040b000025
:10263000000500006403000007030000000800001c
:102640006c03000000000000000000007a0300009e
:1026500006080000000600007a0300000b0b0000d3
:10266000000b0000860300000203000000020000cf
:102670009c0300000609000000060000a003000003
:102680000403000000040000ac0300000701000088
:1026900001090000b4030000050800000006000066
:1026a000c20300000508000000060000cc03000083
:1026b0000402000001060000d60300000f0800001d
:1026c000000f0000de030000050b00000006000004
:1026d000fc030000030500000004000006040000e5
:1026e0000a080000000b00000c0400000b0b0000a7
:1026f000000b000020040000050b00000006000095
:10270000360400000b0b0000000b0000400400002a
:102710000b0b0000000b0000560400000203000039
:10272000000200006c040000020300000002000030
:1027300070040000040300000004000074040000a2
:1027400004030000000400007c04000004040000f6
:1027500000050000840400000601000000060000df
:102760008c0400000a010000000a00009804000028
:102770000402000001060000ac040000090400008f
:10278000000a0000b4040000040900000005000075
:10279000c60400000305000000040000ce04000091
:1027a00009060000000a0000d40400000b0b000022
:1027b000000b0000e6040000040900000005000012
:1027c000fc040000050a00000006000004050000eb
:1027d00003010000000300000e05000001080000d6
:1027e0000104000014050000050a000000060000b6
:1027f0001605000005080000000600002005000086
:1028000005050000000600002a050000050800007c
:102810000006000034050000010b00000104000068
:102820003e050000050a000000060000400500000b
:1028300003010000010600004a050000090900002c
:10284000000a00005005000004050000000500001b
:102850006205000005050000000600006a05000092
:1028600006040000010800007405000003010000d8
:10287000000400008005000009090000000a0000b3
:102880008605000006010000000600009805000013
:102890000404000000050000a40500000707000074
:1028a00000080000ac050000030500000105000061
:1028b000ba0500000305000001050000c005000086
:1028c0000202000002060000c60500000508000024
:1028d00000060000ca050000050a0000000600000e
:1028e000d40500000102000001040000de05000024
:1028f0000302000002060000e005000003050000de
:1029000001050000e60500000405000000050000c8
:10291000ec0500000505000000060000f4050000bd
:1029200009080000010b0000fe0500000908000076
:10293000010b00001006000009080000010b000058
:102940002206000004080000000500003406000014
:10295000060b0000000700003c060000060b00000c
:102960000007000048060000060b000000070000fa
:1029700054060000060b000000070000600600007f
:10298000060a0000000700006c060000060b0000ad
:10299000000700007806000009080000000a000097
:1029a00084060000060a00000007000096060000ea
:1029b000050b000000060000a2060000050b000049
:1029c00000060000ac060000050b00000006000039
:1029d000b6060000050a000000060000c006000060
:1029e000030b000000040000ca060000030b0000f7
:1029f00000040000d0060000040b000000040000ea
:102a0000d6060000030a000000040000de060000f5
:102a10000708000000080000e4060000060b0000a4
:102a200000070000f2060000070b0000000800008d
:102a3000fe060000070b0000000800000c07000065
:102a4000070b0000000800001a070000070b000039
:102a50000008000028070000070a00000008000026
:102a600036070000050500000208000044070000ca
:102a700007080000000800004e070000060b0000d9
:102a8000000700005c070000060b000000070000c4
:102a900068070000060b0000000700007407000034
:102aa000060a00000007000080070000050b000078
:102ab000000600008c07000005080000000600006a
:102ac000960700000509000000060000a0070000ae
:102ad0000509000000060000aa0700000509000023
:102ae00000060000b4070000050900000006000011
:102af000be0700000509000000060000c80700002e
:102b00000508000000060000d2070000050a0000ca
:102b100000060000dc07000009060000000a0000b3
:102b2000e60700000408000000050000f8070000a8
:102b3000050900000006000000080000050900006b
:102b4000000600000a080000050900000006000059
:102b50001408000005080000000600001e08000020
:102b6000020900000002000028080000020900001d
:102b7000000200002c080000030900000003000010
:102b800030080000030800000003000036080000c1
:102b900005080000000600003c08000005090000d0
:102ba00000060000460800000509000000060000bd
:102bb0005008000005090000000600005a08000047
:102bc0000509000000060000640800000509000077
:102bd000000600006e080000050800000006000066
:102be00078080000070700000008000082080000c5
:102bf000050800000006000090080000050900001c
:102c0000000600009a080000050900000006000008
:102c1000a40800000509000000060000ae0800003e
:102c20000508000000060000b8080000050b0000c1
:102c300000060000c2080000050b000000060000ae
:102c4000cc080000050a000000060000d6080000bd
:102c50000600000000000000020000000700000065
:102c60000f8000001ac000003de000000a80000054
:102c70000f8000000f800000000000000000000036
:102c80001f800000060000000f0000001f800000f1
:102c9000060000000600000006000000060000001c
:102ca0000000000000000000060000000600000018
:102cb00006000000060000001f8000000f0000005a
:102cc000060000001f80000000000000001c000043
:102cd0000c0c000014100000100900000600000099
:102ce00000000000000000000000000006000000de
:102cf000060000000f0000000f0000001f80000011
:102d00001f80000006000000060000000600000012
:102d100006000000060000001e0000001e0000006b
:102d200000000000000000000000000000000000a3
:102d3000001c00000c0c0000141000001009000022
:102d400006000000fff0000000000000000000008e
:102d50001fe00000122000001220000012200000de
:102d60000dc000000000000006c0000000000000d0
:102d700000000000000000001fe000000300000051
:102d80000480000008400000102000000000000047
:102d900006c00000000000000040000008400000e5
:102da00014400000144000002240000022400000b7
:102db000324000003a400000794000007d400000b1
:102dc0006d400000694000003a40000032400000c1
:102dd0002240000022400000144000001440000087
:102de0000840000000400000ffc00000ffc00000dd
:102df00000400000004000000040000000400000d3
:102e00007040000051400000554000005f4000004d
:102e100050400000704000000040000008400000ea
:102e2000084000003e40000008400000084000004c
:102e3000004000000040000000400000ffc0000013
:102e4000ffc00000004000001840000024400000c7
:102e500042400000424000004240000000400000ac
:102e60007e40000050400000504000004040000004
:102e7000004000003c400000424000004a4000008a
:102e80004a4000002c4000000040000000400000cc
:102e9000ffc00000fe02000022720000fafa0000eb
:102ea000727200007272000002fe0000fe0200005a
:102eb0007272000072720000fafa000072220000c2
:102ec00002fe0000fff00000801000008c100000e7
:102ed0009fd00000bfd000009fd000008c100000e9
:102ee000fff000008010000083100000bf90000081
:102ef000bfd00000bf90000083100000fe02000061
:102f000042aa0000aaaa000012020000faaa0000c9
:102f1000aa020000fa0a00000a020000fefe0000f9
:102f20000202000002020000028a00009aba0000b9
:102f30009a6a00000202000002020000fe7c00000b
:102f4000447c0000004400007c04000000240000d9
:102f50004c34000000540000547c000000180000b5
:102f6000285c00000074000054480000007c000051
:102f7000141c0000004000004c700000007c0000a9
:102f8000547c000000740000547c0000003c0000f1
:102f9000503c0000007c0000542800000038000075
:102fa00044440000007c000044380000007c000025
:102fb00054540000007c0000504000000004000059
:102fc0000810000020400000000000000a0d000072
:102fd00000000000000000000a0d000000000000da
:102fe000140000000a0d000000000000280000008e
:102ff0000a080000000000003c000000140d000062
:1030000000000000460000000a0800000000000068
:103010006e000000010c00000000000078000000bd
:103020000a0c0000000000007a0000000a0c0000fa
:10303000000000008e000000150a000000000000e3
:10304000a2000000150a000000000000cc000000f3
:10305000150a000000000000f60000000c07000048
:1030600000000000200100000c070000000000002c
:103070002c010000070c00000000000038010000d7
:10308000070c0000000000004601000011070000ce
:1030900000000000540100001007000000000000c4
:1030a0006501000004070000000000007501000039
:1030b0000407000000000000790100000407000080
:1030c000000000007d010000040700000000000077
:1030d00081010000040700000000000085010000dd
:1030e0000407000000000000890100000407000040
:1030f000000000008d010000040700000000000037
:10310000910100000407000000000000950100008c
:1031100004070000000000009901000004070000ff
:10312000000000009d0100000407000000000000f6
:10313000a10100000407000000000000a50100003c
:103140000407000000000000a901000004070000bf
:1031500000000000ad0100000407000000000000b6
:10316000b10100000607000000000000b5010000ea
:10317000000000000800000054000000549000000f
:103180003cb0000000d000000090000000000000f3
:103190000000000000000000000000003c000000f3
:1031a00050000000511000003d30000001500000b0
:1031b000019000000110000000000000000000006d
:1031c000000000003f400000000000000000000080
:1031d00000000000104000003fc000000040000060
:1031e00000000000000000000000000024000000bb
:1031f0007d00000006000000059000000a3000007d
:1032000012500000219000000000000000000000ab
:103210000a0d000000000000000000000a0d000080
:1032200000000000140000000a0d00000000000073
:10323000280000000a0d0000000000003c00000013
:103240004887000028900000000100002a96000036
:10325000e69700001c000000b898000008990000e4
:103260000400000012010000803200001180000004
:10327000ff3a0000810500000ab100008300000051
:10328000060300000a36000001080000b602000034
:1032900015020000b401000000c00000820200001e
:1032a000700a0000c101000005c200000201000018
:1032b00002c50000823c0000380a0000fc02000049
:1032c00011150000e01000000916000009200000a0
:1032d000211b000013190000171500001e2b000011
:1032e00004050000020e0000e19000000b14000035
:1032f000081e0000221d0000181e00001b1a0000fe
:10330000242b000006060000020f00000a2a00001d
:103310000400000002000000812b000004000000f7
:103320000200000081130000800a000029800000d4
:10333000ff0f0000018000009611000080ff0000d8
:10334000b1030000012c00002db2000003010000b9
:103350002c2d0000b3060000012c00002d01000000
:103360002c2d0000b401000007c0000003a20000e3
:1033700002840000c1010000c5c20000020a000072
:1033800000c30000028a00002ac40000028a000074
:10339000eec50000010e0000200000003601000014
:1033a000c83a000001050000022a000004000000e5
:1033b00002000000812b000004000000010000005a
:1033c000a00200002a04000000000000007f0000ae
:1033d0002b04000000000000009f0000022a0000f3
:1033e00004000000000000007f2b0000040000002b
:1033f000000000007f0200002a040000000000001e
:10340000004f00002b04000000000000009f00009f
:1034100004e00000100200001c070000123700004a
:10342000322900002d290000252b00003900000062
:103430000103000010e10000100300001d07000060
:10344000062e00002c2900002d2e00002e37000033
:103450003f0000000002000010130000800a00007e
:10346000298000006400000012010000000200003a
:103470000000000000080000d80400005500000013
:10348000010000000102000000010000090200002c
:10349000290000000101000000c000003209000006
:1034a0000400000000020000030100000100000011
:1034b000092100001101000000010000223f00006e
:1034c0000007000005810000030800000001000063
:1034d00007050000010300000800000001000000d3
:1034e0000403000009040000340300004d00000044
:1034f0006900000063000000720000006f0000001f
:103500006300000068000000690000007000000017
:10351000200000005400000065000000630000006f
:10352000680000006e0000006f0000006c000000ea
:103530006f0000006700000079000000200000001c
:10354000490000006e000000630000002e00000033
:103550001c0300004b000000650000007900000023
:10356000620000006f0000006100000072000000b7
:10357000640000002000000044000000650000001e
:103580006d0000006f000000469a0000709a000075
:10359000749a0000a89a00000501000009060000c6
:1035a000a10100000507000019e0000029e7000064
:1035b00015000000250100007501000095080000bd
:1035c00081020000950100007508000081030000e1
:1035d00095050000750100000508000019010000b4
:1035e000290500009102000095010000750300000c
:1035f000910300009506000075080000150000000a
:10360000256500000507000019000000296500007d
:0836100081000000c000000071
:020000040000fa
:103618000200fa009ec0a9008ac1a8000080eb0041
:10362800702088000080eb00502088002a24ef00da
:10363800220020008000eb00c0422000a9f507000e
:1036480020002000302188002824ef000644a9002b
:10365800f009200080208800f00920006020880000
:1036680002c4a8000804a80000a020004800de004a
:10367800c02088000040eb00004f780007003700aa
:103688001e80fb00c200dd0000a020000081400079
:103698006000b8000089be001e4fe8001e40780098
:1036a800e74f5000f6ff36001424a8001624ef0058
:1036b80014a4a9001424a900800020005020880028
:1036c800408420008040eb0001487800a08420005e
:1036d8008040eb0001487800b084200090407800da
:1036e800e0c0600001487800c08420009040780065
:1036f800e0c0600001487800502080006800600049
:103708000000e000ecff3a0010c0b3001be8b7006f
:1037180010c0b3001ce8b7001d68ef001e68ef007a
:103728001568ef000040eb00004f780017003700e5
:103738001e80fb0080004000c08020000080400008
:103748008000eb00010878001e80fb00800040002c
:1037580080802000008040008000eb000108780095
:103768001e80fb00f28420008040eb000000410036
:10377800014878001e80fb00128520008040eb0085
:1037880000004100014878001e4fe8001e40780004
:10379800e14f5000e6ff360080a02000604088001e
:1037a800d00020005021880030852000105088006b
:1037b80000a0200081c0b3000148780010a02000bc
:1037c80041c0b3000148780010a0200010407800e4
:1037d800804078000174a00010a020000148780003
:1037e8000268ef002028ef002228ef002468ef008d
:1037f8000028ef000080fa00000006000200fa002e
:1038080000408000e10f50000b003a00a12080002a
:1038180000042000008060000000e00006003a007c
:103828000080eb00502088000c04a8000c84a8003d
:103838002000200000408800002080007000600008
:103848000000e000070032001020800070006000d7
:103858000000e00003003200000120000020880082
:103868003f05070040208000620060000000e00083
:10387800020032008ec0a900a1003700502080004d
:10388800610060000000e0000a0032006020800053
:10389800610060000000e000060032005cff0700e5
:1038a8009ec0a800400020000040880010002000b2
:1038b8005020880050208000700060000000e00068
:1038c8000500320060208000700060000000e00009
:1038d80001003200150507000120800000042000c7
:1038e800008060000000e0000300320000042000b7
:1038f80000208800a40707005020800064006000b2
:103908000000e000140032006020800064006000c5
:103918000000e00004003200120020008000eb00ec
:1039280030072000c50f0700400020005020880005
:1039380019c8bf000004e0000300320019c8bf0026
:103948000040e90019e8b70019c8bf000004e0000a
:1039580001003a00da010700512080000008200029
:10396800008060000000e000060032006120800056
:1039780000082000008060000000e0000100320024
:10398800c804070050208000620060000000e000ca
:103998000c00320060208000620060000000e0003f
:1039a80008003200120020008000eb00f0ff270022
:1039b800a20f07000080eb00702088002000200084
:1039c8005020880000408000e30f500002003e00b5
:1039d8008ec0a9004a00370060208000680060009f
:1039e8000000e000450032000040eb00004f780086
:1039f8003d00370050208000680060000000e000b3
:103a08003d003200902080000040780016e8b700a2
:103a180016c8bf000080fb004400de0000407800ac
:103a280017e8b700800020005020880016c8bf00a3
:103a3800684060000004e00011003a0017c8bf00a9
:103a48000081fb008080fb00108520000080400082
:103a58009040780061c060000004a200e14060006e
:103a68001085200000004100e1c06000104178008e
:103a78000204a1008140710001487800100037005d
:103a880017c8bf000081fb008080fb00f084200085
:103a9800008040009040780061c060000004a200ef
:103aa800e1406000f084200000004100e1c06000b7
:103ab800104178000204a10081407100014878009b
:103ac80017c8bf000004e00002003a00b004070075
:103ad800040037000001eb0061812000200720006e
:103ae800560f07001e4fe8001e407800e34f5000b5
:103af800c0ff360001003700000000008ec0a9009a
:103b08000080fa00000006000400fa000e81e800b8
:103b180000497800630047000148780063004700c7
:103b2800104078000080fb00680060000000e000a2
:103b3800040032008040eb000e80e800104078005e
:103b4800e201070063004700104078000080fb0096
:103b5800640060000000e0000400320011c0b300ff
:103b68000e80e80010407800d8010700a14220002c
:103b78000e80e800104078000080fb000000400044
:103b8800008f40009e00780063004700904878004e
:103b98000080fa00000006000800fa000e82e80023
:103ba800004a780063004700014878006400470035
:103bb8000208780066004700034878006300470061
:103bc800104078000004e000080032000e80e80091
:103bd800104078000080fb0080004000c08020007a
:103be80000804000100f7800070037000e80e800c2
:103bf800104078000080fb0080004000808020009a
:103c080000804000100f78001e0078000000e000df
:103c180002003a000000eb0046003700640047004d
:103c2800900078001e0078000080e8000108780005
:103c38009e00780066004700904878001e007800d3
:103c48000000e8001040780002c4b3008240600021
:103c58001e0078000000e800014878001e00780087
:103c68000000e80010407800804078000134a0008f
:103c78001e0078000000e800014878001e00780067
:103c88000000e80010407800804078000174a0002f
:103c98001e0078000000e800014878006300470033
:103ca800104078000004e000110032000e80e800a7
:103cb800104078000080fb008e80e800914078007a
:103cc8008180fb0001814000c1802000810041000b
:103cd800910078000120a2000101780080004000d6
:103ce800c0802000008040000208780010003700e3
:103cf8000e80e800104078000080fb008e80e8000d
:103d0800914078008180fb00018140008180200083
:103d180081004100910078000120a2000101780093
:103d28008000400080802000008040000208780069
:103d38001e0078000080fa00000006000400fa0067
:103d48000e81e800004978006300470001487800c8
:103d58000e80e800104078000004e00020003a00df
:103d68003140800080c0b300804878003040800037
:103d7800318520000080e80001087800304080008c
:103d8800c1c0b3000000e80001487800324080005c
:103d9800304080000000e800104078008040780043
:103da8000174a0000200e80001487800604080002b
:103db80041c0b3000000e80001487800624080007c
:103dc800604080000000e8001040780080407800e3
:103dd8000174a0000200e800014878003a003700aa
:103de8000e80e800104078000080fb0000004000d2
:103df8008000780063004700104078000080fb00d6
:103e0800008040004300dd008000780000a0200012
:103e1800008f40001e0078000000e8001040780085
:103e2800804078000124a0001e0078000000e8000f
:103e3800014878001e0078000000e8001040780073
:103e4800804078000174a0001e0078000000e8009f
:103e5800014878000e80e800104078000080fb00e0
:103e680000004000800078006300470010407800a0
:103e78000080fb00008040004300dd00e4004000bb
:103e880000a02000008f40001e0078000000e8001d
:103e980010407800804078000124a0001e007800bf
:103ea8000000e800014878001e0078000000e800e3
:103eb80010407800804078000174a0001e0078004f
:103ec8000000e800014878000080fa0000000600c1
:103ed8000200fa00004f7800a120800000022000b4
:103ee800008060000000e000530032001e80fb00ec
:103ef80080004000c08020000080400090037800cf
:103f08001e80fb0080004000c08020000080400030
:103f1800100078001002be000004200001002000fc
:103f28000403780005027800800278008100780098
:103f380005006300810062008101780000017800bb
:103f48000200be00808bbe001e80fb008000400087
:103f5800c080200000804000100278001e80fb0016
:103f680080004000c08020000080400010007800e1
:103f78001001be00000420000100200000006900bc
:103f880081806900008abe001e80fb009e80fb00c5
:103f980001814000c180200081004100910078002b
:103fa8000120a2000101780080004000c0802000ac
:103fb80000804000020878001e80fb00800040005e
:103fc800c080200000804000100178001e80fb00a7
:103fd80080004000c0802000008040001000780071
:103fe8000000e8001040780003c4b300834060007c
:103ff8000200e800014878001e80fb0080004000b5
:10400800c080200000804000100178001e80fb0066
:1040180080004000c0802000008040001000780030
:104028000000e8009040780000c4b30080c0680039
:104038000200e800014878000080fa00000006004d
:104048000000fa001424ef000c24ef000028ef0011
:104058000080fa00000006000000fa00004080001e
:104068000000e00014003a001424ef000c24ef00d4
:1040780020002000302188002824ef000644a900f1
:10408800f009200080208800f009200060208800c6
:1040980002c4a8009ec0a800010037001404a800ac
:1040a800a0208000610060000000e000fbff3200fb
:1040b80010002000004088000080fa000000060080
:1040c8000000fa001bc8bf000004a2000004e000c2
:1040d8003f00320010c0b3001be8b7001cc8bf0087
:1040e8000004a2000004e0003900320010c0b30050
:1040f8001ce8b70011c8bf00e24f500010003a009a
:10410800614080000040eb008048780060408000fb
:1041180081c4b3000000e8000148780062408000d4
:10412800604080000000e80010407800804078007f
:104138000174a0000200e80001487800240037005c
:1041480011c8bf00e14f500021003a001868ef0085
:104158002140800080c0b300804878002040800063
:10416800318520000080e8000108780020408000a8
:1041780041c0b3000000e8000148780022408000f8
:10418800204080000000e80010407800804078005f
:104198000174a0000200e8000148780010c0b300d4
:1041a80018e8b7003140800080c0b300804878002c
:1041b80030408000318520000080e8000108780048
:1041c8003040800001c8b3000000e80001487800d2
:1041d8000080fa00000006000000fa001d68ef00e9
:1041e8001e68ef0011c8bf00e24f500014003a00eb
:1041f8003140800080c0b3008048780030408000a3
:10420800b18520000080e800010878003040800077
:1042180081c4b3000000e800014878003240800003
:10422800304080000000e8001040780080407800ae
:104238000174a0000200e80001487800210037005e
:10424800908520001080fb00a18520009180fb0054
:10425800c808dd000100700031428000810f500065
:1042680007003100908520001080fb00a185200008
:104278009180fb00c808dd00010070003042880012
:10428800b000070060408000b18520000080e80091
:10429800010878006040800081c4b3000000e80095
:1042a8000148780062408000604080000000e8001b
:1042b80010407800804078000174a0000200e800f7
:1042c800014878000080fa00000006000400fa00a7
:1042d8000e81e80000497800630047000148780033
:1042e80000a02000000f78000e80e8001040780041
:1042f8000080fb0000004000800078006300470059
:10430800104078000080fb00008040004300dd0082
:104318001e0f40001e0078009000780001f0a100f8
:104328000108780063004700104078000004e000ae
:1043380008003a000e80e800104078000080fb007a
:104348008000400080802000008040001e08780027
:10435800070037000e80e800104078000080fb005e
:1043680080004000c0802000008040001e087800c7
:104378001e0078009000780001e0a1000108780094
:104388009e007800648040009000780001e0a00062
:10439800010878000080fa00000006000000fa001a
:1043a80014a4a900214280000008200000806000b9
:1043b8000000e00030003a00a0842000904078001f
:1043c80000c8b30000c060000004e0000a0032002a
:1043d80020c0b30011e8b7001ec8bf000004a20047
:1043e8000004e000010032007bff07001c68ef00ba
:1043f8001b68ef00510037003140800080c0b300d7
:104408008048780030408000318520000080e80036
:104418000108780030408000c1c0b3000000e80007
:104428000148780032408000304080000000e800f9
:1044380010407800804078000174a0000200e80075
:10444800014878006040800041c0b3000000e800e7
:104458000148780062408000604080000000e80069
:1044680010407800804078000174a0000200e80045
:1044780001487800310037003085200090407800ee
:1044880000c8b30000c060000004e0000f00320064
:1044980010c0b30011e8b7001dc8bf000004a20097
:1044a8000004e000010032004bff07001c68ef0029
:1044b8001b68ef001ac8bf000004a2000004e00057
:1044c8001e003200fefe07001c00370020c0b300ab
:1044d80011e8b7003140800080c0b3008048780000
:1044e80030408000318520000080e8000108780015
:1044f8003040800041c0b3000000e8000148780067
:1045080032408000304080000000e8001040780011
:10451800804078000174a0000200e800014878009b
:104528001c68ef001b68ef001ac8bf000004a20057
:104538000004e00001003200e1fe07000080fa00fc
:10454800000006000200fa0080c0b300004f7800a7
:1045580030428000e70f50000d003e0030428000de
:10456800004f780010c8bf000004e00003003a00c4
:1045780010c0b30010e8b7000500370010c8bf002e
:10458800e14f500002003a0020c0b30010e8b70025
:10459800314280001e80fb000080500030428800bd
:1045a800604080001e487800b08520009040880058
:1045b80020428000610060000000e00017003a001f
:1045c80009003700914080001042800010417800b7
:1045d800824878008100e800914088000000e800e7
:1045e800104288001e4fe9001e4078000004e000d9
:1045f800f4ff3a000c003700914080001042800020
:1046080010417800824878008100e80091408800d5
:104618000000e800104288001e4fe9001e407800a4
:104628000004e000f4ff3a000080fa0000000600f1
:104638000200fa0020408000104f78009e80fb00a6
:10464800b08420001080fb00c28420001281fb008f
:104658004811dd0002007000808f5000070036000e
:10466800b08420001080fb00c18420009180fb00f2
:10467800c808dd0001007000004f7800b0842000f9
:104688001080fb00c18420009180fb00c808dd0079
:1046980001007000800078001e80fb000080500040
:1046a800f10f200001016000b184200091417800e1
:1046b800e0c1610002c1710082487800c800de00d4
:1046c800c084200010417800604161008140710081
:1046d800014878008040eb000e00e80001487800af
:1046e80020003700808420001080fb009184200087
:1046f8009180fb00c808dd00010070008e00e80012
:10470800914078008180fb00b28520008100410043
:1047180091407800014878000000e800f10f20007f
:10472800010160008184200091417800e0c16100ae
:1047380002c1710082487800c800de009084200021
:1047480010417800604161008140710001487800a3
:104758000e00e800104078008040e8000e00e800f5
:10476800014878000e00e800104078009e4f500085
:10477800dcff3900b08420001080fb00c1842000d9
:104788009180fb00c808dd00010070000000e00017
:10479800270032003140800080c0b3008048780094
:1047a80030408000b18520000080e80001087800d2
:1047b8002040800090007800000024000080600005
:1047c8000000e0000d003a003040800081c4b300d2
:1047d8000000e80001487800324080003040800046
:1047e8000000e80010407800804078000174a000c4
:1047f8000200e800014878003800370030408000a7
:1048080081c0b3000000e800014878003240800011
:10481800304080000000e8001040780080407800b8
:104828000174a0000200e800014878002b0037005e
:104838003140800080c0b30080487800304080005c
:10484800318520000080e8000108780030408000b1
:1048580041c0b3000000e800014878003240800001
:10486800304080000000e800104078008040780068
:104878000174a0000200e80001487800d0842000fc
:104888001080fb00e18420009180fb00c808dd0057
:10489800010070000000e00007003200d084200012
:1048a8001080fb00e18420009180fb00c808dd0037
:1048b8000100700000000100a084200090407800f2
:1048c8000174a100014878001ac8bf000004a200c2
:1048d8000004e00001003200f9fd07000080fa0042
:1048e800000006000200fa00204280000070a000cc
:1048f80020428800220020008000eb00c0422000f7
:10490800f8f00700020220008000eb0000a0200061
:10491800f4f007001424a8000040eb00004f7800d2
:104928000b0037001e80fb00f28420008040eb0063
:1049380000004100014878001e80fb00128520001d
:104948008040eb0000004100014878001e4fe8005d
:104958001e407800e14f5000f2ff360012002000a0
:104968008000eb0030802000def007001424a9004e
:1049780080a020006040880000a02000204088001f
:10498800204080003040880050852000104078008a
:1049980002e8b70002c8bf000004e00003003a00c4
:1049a80000012000004088000600370012002000a7
:1049b8002180200010002000a00b0700000220002a
:1049c800004088000080fa00000006000000fa009d
:1049d800308520009040780000c8b30080cf500098
:1049e80047003a004084200001ccb3000148780019
:1049f80060852000104078000080fb00e20f500026
:104a080009003200e30f500023003200e10f50008c
:104a180037003a0040a329001042880020012000f6
:104a2800304288003600370050852000104078005a
:104a38000004e00014003a0050852000104078007f
:104a48000080fb00000040008000780040ac290096
:104a5800008040001000780010428800104280005a
:104a68000080e800904078006084200001487800c9
:104a7800104280006300400090407800708420005d
:104a8800014878001e003700408420008040eb0079
:104a9800014878001a00370050852000104078003f
:104aa800e24f50000e003e00508520001040780074
:104ab8000080fb00000040008000780060ac290006
:104ac80000804000100078001042880010428000ea
:104ad800104078000080fb00304288000800370052
:104ae800408420008040eb00014878000400370033
:104af800408420008040eb0001487800000000005e
:104b08000080fa00000006000200fa00b0852000cc
:104b18008040eb0001487800c08520008040eb0011
:104b28000148780030852000904078007fc0600000
:104b38000080fb00e10f500011003200e20f50002e
:104b4800130032000000e00047003a0020428000d5
:104b58000070a0002042880014c8bf000004e000d4
:104b68003a003200b085200010407800804078007c
:104b78000114a000b0852000014878003a003700f1
:104b8800204280000070a0002042880036003700d4
:104b9800204280000070a00020428800708520001c
:104ba800104078006f4060000004e00029003200e7
:104bb800708520009040780000c8b30000c06000f5
:104bc8000004e00009003a00708520009040780059
:104bd8006fc060000080fb008000400080802000e3
:104be80000804000100f7800080037007085200012
:104bf800904078006fc060000080fb00800040009b
:104c0800c080200000804000100f78001e0078004f
:104c18009000780000002800008060000000e0009c
:104c28000e0032001e00780090007800004020003e
:104c3800008060000000e0000a003200b08520001b
:104c480011c0b300014878000700370000000000d9
:104c580005003700000000000300370000000000d6
:104c680001003700000000002142800000082000f9
:104c7800008060000000e00008003200b0852000dd
:104c880010428800204280000000a00020428800d6
:104c98006084200021c0b300014878000080fa0039
:104ca800000006000000fa00502180006200600049
:104cb8000000e00019003200204080000000e800f9
:104cc8009040780000c8b30080cf500012003a002e
:104cd800604080000000e8009040780040c8b300c1
:104ce80080cf50000c003a0020408000c1c0b300c3
:104cf8000000e80001487800224080002040800041
:104d08000000e80010407800804078000174a0009e
:104d18000200e800014878002a24a90000082000c1
:104d2800502088000080fa00000006000000fa0009
:104d38000284a800000120005020880010c0b300a1
:104d480015e8b7002468ef000001eb008000eb00d5
:104d580050072000b90a07000080fa00000006008a
:104d68000000fa001568ef000001eb008000eb007e
:104d780040072000b10a07000284a90000012000b2
:104d8800002088002468ef000080fa000000060078
:104d98000000fa00d0c2b30019e8b70016c8bf0077
:104da8000080fb000020a1000000e00020003a0085
:104db80016c8bf000080fb004200de0000407800fb
:104dc8000080fb00c200dd0000a020000080400041
:104dd800204088002040800030408800304080001b
:104de8000020a20030408800204080009000780019
:104df80000c023008080600000402300808f5000a6
:104e080009003a00204080000080e8001000780087
:104e1800820020008000780030852000aaef07007b
:104e28000b0007000800370046000700060037009f
:104e380016c8bf000080fb000020a100e80f50004a
:104e480001003a00610007000080fa000000060037
:104e58000000fa001068ef001a68ef001d68ef0004
:104e68001e68ef001868ef001168ef0062408000cc
:104e7800604080000000e800104078008040780022
:104e88000174a1000200e800014878006040800039
:104e98000020a200604088006240800060408000de
:104ea8000000e80010407800804078000174a100fc
:104eb8000200e80001487800604080000020a2005d
:104ec8006040880032408000304080000000e800e8
:104ed80010407800804078000174a1000200e800ca
:104ee80001487800408420008040eb0001487800a9
:104ef8000000eb0030428800a08420008040eb00d6
:104f080001487800b084200090407800e0c060003c
:104f180001487800c084200090407800e0c060001c
:104f280001487800940007000001eb008000eb00c6
:104f380030002000410a070018fd07000080fa0031
:104f4800000006000000fa0011c8bf00e24f500040
:104f580002003a00b6fd07001a0037001168ef009a
:104f680018c8bf000004a2000004e00014003200ca
:104f78003140800080c0b300804878003040800015
:104f8800318520000080e80001087800304080006a
:104f9800c1c0b3000000e80001487800324080003a
:104fa800304080000000e800104078008040780021
:104fb8000174a0000200e8000148780001003700f1
:104fc8001868ef000080fa00000006000200fa00ee
:104fd80060408000100078004e00de0061406000f4
:104fe800004f7800604080000020a20060408800e8
:104ff80000408000e80f50000e003a005085200065
:10500800104078008080fb00f007200000806000de
:10501800b0208800b02080000000e00003003200cb
:1050280000012000004088000200370040002000f6
:105038000040880011c8bf00e14f500032003a001c
:1050480060408000b18520000080e80001087800f9
:105058003cfd070010c8bf00e24f50000d003a00a9
:105068006040800041c0b3000000e80001487800bb
:1050780062408000604080000000e8001040780036
:10508800804078000174a0000200e8000148780020
:10509800370037001e4078000004e0000d003a0099
:1050a8006040800081c4b3000000e8000148780037
:1050b80062408000604080000000e80010407800f6
:1050c800804078000174a0000200e80001487800e0
:1050d800270037006040800081c0b3000000e8006e
:1050e8000148780062408000604080000000e800cd
:1050f80010407800804078000174a0000200e800a9
:10510800014878001a003700a084200090407800f9
:1051180000c8b30000c060000004e00013003200c3
:10512800d08420001080fb00e18420009180fb00e7
:10513800c808dd00010070000000e0000700320030
:10514800d08420001080fb00e18420009180fb00c7
:10515800c808dd000100700000000100a0842000e4
:10516800904078000174a100014878001168ef00b0
:105178000080fa00000006000000fa0030852000d8
:10518800104078000046b2000004e00051003a00e8
:1051980040852000104078000080fb00cf80de00b2
:1051a800b200200003002000820f5000838f5800b7
:1051b8004a003e000060010021003700220037004d
:1051c8004800370020003700460037000600370047
