:020000040000fa
:080000000002040000000000f2
:020000040000fa
:04000800b60300003b
:020000040000fa
:04000c0008030000e5
:020000040000fa
:040010004a0300009f
:020000040000fa
:0400140028030000bd
:020000040000fa
:040018006a03000077
:020000040000fa
:04001c00b603000027
:020000040000fa
:04002000b603000023
:020000040000fa
:04002400b60300001f
:020000040000fa
:04002800b60300001b
:020000040000fa
:04002c00b603000017
:020000040000fa
:04003000b603000013
:020000040000fa
:04003400b60300000f
:020000040000fa
:04003800b60300000b
:020000040000fa
:04003c00b603000007
:020000040000fa
:04004000b603000003
:020000040000fa
:04004400b6030000ff
:020000040000fa
:04004800b6030000fb
:020000040000fa
:04004c00b6030000f7
:020000040000fa
:04005000b6030000f3
:020000040000fa
:04005400b6030000ef
:020000040000fa
:04005800b6030000eb
:020000040000fa
:04005c00b6030000e7
:020000040000fa
:04006000b6030000e3
:020000040000fa
:04006400b6030000df
:020000040000fa
:04006800b6030000db
:020000040000fa
:04006c00b6030000d7
:020000040000fa
:04007000b6030000d3
:020000040000fa
:04007400b6030000cf
:020000040000fa
:04007800b6030000cb
:020000040000fa
:04007c00b6030000c7
:020000040000fa
:04008000b6030000c3
:020000040000fa
:04008400b6030000bf
:020000040000fa
:04008800b6030000bb
:020000040000fa
:04008c00b6030000b7
:020000040000fa
:04009000b6030000b3
:020000040000fa
:04009400b6030000af
:020000040000fa
:04009800b6030000ab
:020000040000fa
:04009c00b6030000a7
:020000040000fa
:0400a000b6030000a3
:020000040000fa
:0400a400b60300009f
:020000040000fa
:0400a800b60300009b
:020000040000fa
:0400ac00b603000097
:020000040000fa
:0400b000b603000093
:020000040000fa
:0400b400b60300008f
:020000040000fa
:0400b800b60300008b
:020000040000fa
:0400bc00b603000087
:020000040000fa
:0400c000b603000083
:020000040000fa
:0400c400b60300007f
:020000040000fa
:0400c800b60300007b
:020000040000fa
:0400cc00b603000077
:020000040000fa
:0400d000b603000073
:020000040000fa
:0400d400b60300006f
:020000040000fa
:0400d800b60300006b
:020000040000fa
:0400dc00b603000067
:020000040000fa
:0400e000b603000063
:020000040000fa
:0400e400b60300005f
:020000040000fa
:0400e800b60300005b
:020000040000fa
:0400ec00b603000057
:020000040000fa
:0400f000b603000053
:020000040000fa
:0400f400b60300004f
:020000040000fa
:0400f800b60300004b
:020000040000fa
:0400fc00b603000047
:020000040000fa
:04010000b603000042
:020000040000fa
:04010400b60300003e
:020000040000fa
:04010800b60300003a
:020000040000fa
:04010c00b603000036
:020000040000fa
:04011000b603000032
:020000040000fa
:04011400b60300002e
:020000040000fa
:04011800b60300002a
:020000040000fa
:04011c00b603000026
:020000040000fa
:04012000b603000022
:020000040000fa
:04012400b60300001e
:020000040000fa
:04012800b60300001a
:020000040000fa
:04012c00b603000016
:020000040000fa
:04013000b603000012
:020000040000fa
:04013400b60300000e
:020000040000fa
:04013800b60300000a
:020000040000fa
:04013c00b603000006
:020000040000fa
:04014000b603000002
:020000040000fa
:04014400b6030000fe
:020000040000fa
:04014800b6030000fa
:020000040000fa
:04014c00b6030000f6
:020000040000fa
:04015000b6030000f2
:020000040000fa
:04015400b6030000ee
:020000040000fa
:04015800b6030000ea
:020000040000fa
:04015c00b6030000e6
:020000040000fa
:04016000b6030000e2
:020000040000fa
:04016400b6030000de
:020000040000fa
:04016800b6030000da
:020000040000fa
:04016c00b6030000d6
:020000040000fa
:04017000b6030000d2
:020000040000fa
:04017400b6030000ce
:020000040000fa
:04017800b6030000ca
:020000040000fa
:04017c00b6030000c6
:020000040000fa
:040180008a030000ee
:020000040000fa
:04018400b6030000be
:020000040000fa
:04018800b6030000ba
:020000040000fa
:04018c00b6030000b6
:020000040000fa
:04019000b6030000b2
:020000040000fa
:04019400b6030000ae
:020000040000fa
:04019800b6030000aa
:020000040000fa
:04019c00b6030000a6
:020000040000fa
:0401a000b6030000a2
:020000040000fa
:0401a400b60300009e
:020000040000fa
:0401a800b60300009a
:020000040000fa
:0401ac00b603000096
:020000040000fa
:0401b000b603000092
:020000040000fa
:0401b400b60300008e
:020000040000fa
:0401b800b60300008a
:020000040000fa
:0401bc00b603000086
:020000040000fa
:0401c000b603000082
:020000040000fa
:0401c400b60300007e
:020000040000fa
:0401c800b60300007a
:020000040000fa
:0401cc00b603000076
:020000040000fa
:0401d000b603000072
:020000040000fa
:0401d400b60300006e
:020000040000fa
:0401d800b60300006a
:020000040000fa
:0401dc00b603000066
:020000040000fa
:0401e000b603000062
:020000040000fa
:0401e400b60300005e
:020000040000fa
:0401e800b60300005a
:020000040000fa
:0401ec00b603000056
:020000040000fa
:0401f000b603000052
:020000040000fa
:0401f400b60300004e
:020000040000fa
:0401f800b60300004a
:020000040000fa
:0401fc00b603000046
:020000040000fa
:04020800b603000039
:020000040000fa
:04020c0008030000e3
:020000040000fa
:040210004a0300009d
:020000040000fa
:0402140028030000bb
:020000040000fa
:040218006a03000075
:020000040000fa
:04021c00b603000025
:020000040000fa
:04022000b603000021
:020000040000fa
:04022400b60300001d
:020000040000fa
:04022800b603000019
:020000040000fa
:04022c00b603000015
:020000040000fa
:04023000b603000011
:020000040000fa
:04023400b60300000d
:020000040000fa
:04023800b603000009
:020000040000fa
:04023c00b603000005
:020000040000fa
:04024000b603000001
:020000040000fa
:04024400b6030000fd
:020000040000fa
:04024800b6030000f9
:020000040000fa
:04024c00b6030000f5
:020000040000fa
:04025000b6030000f1
:020000040000fa
:04025400b6030000ed
:020000040000fa
:04025800b6030000e9
:020000040000fa
:04025c00b6030000e5
:020000040000fa
:04026000b6030000e1
:020000040000fa
:04026400b6030000dd
:020000040000fa
:04026800b6030000d9
:020000040000fa
:04026c00b6030000d5
:020000040000fa
:04027000b6030000d1
:020000040000fa
:04027400b6030000cd
:020000040000fa
:04027800b6030000c9
:020000040000fa
:04027c00b6030000c5
:020000040000fa
:04028000b6030000c1
:020000040000fa
:04028400b6030000bd
:020000040000fa
:04028800b6030000b9
:020000040000fa
:04028c00b6030000b5
:020000040000fa
:04029000b6030000b1
:020000040000fa
:04029400b6030000ad
:020000040000fa
:04029800b6030000a9
:020000040000fa
:04029c00b6030000a5
:020000040000fa
:0402a000b6030000a1
:020000040000fa
:0402a400b60300009d
:020000040000fa
:0402a800b603000099
:020000040000fa
:0402ac00b603000095
:020000040000fa
:0402b000b603000091
:020000040000fa
:0402b400b60300008d
:020000040000fa
:0402b800b603000089
:020000040000fa
:0402bc00b603000085
:020000040000fa
:0402c000b603000081
:020000040000fa
:0402c400b60300007d
:020000040000fa
:0402c800b603000079
:020000040000fa
:0402cc00b603000075
:020000040000fa
:0402d000b603000071
:020000040000fa
:0402d400b60300006d
:020000040000fa
:0402d800b603000069
:020000040000fa
:0402dc00b603000065
:020000040000fa
:0402e000b603000061
:020000040000fa
:0402e400b60300005d
:020000040000fa
:0402e800b603000059
:020000040000fa
:0402ec00b603000055
:020000040000fa
:0402f000b603000051
:020000040000fa
:0402f400b60300004d
:020000040000fa
:0402f800b603000049
:020000040000fa
:0402fc00b603000045
:020000040000fa
:04030000b603000040
:020000040000fa
:04030400b60300003c
:020000040000fa
:04030800b603000038
:020000040000fa
:04030c00b603000034
:020000040000fa
:04031000b603000030
:020000040000fa
:04031400b60300002c
:020000040000fa
:04031800b603000028
:020000040000fa
:04031c00b603000024
:020000040000fa
:04032000b603000020
:020000040000fa
:04032400b60300001c
:020000040000fa
:04032800b603000018
:020000040000fa
:04032c00b603000014
:020000040000fa
:04033000b603000010
:020000040000fa
:04033400b60300000c
:020000040000fa
:04033800b603000008
:020000040000fa
:04033c00b603000004
:020000040000fa
:04034000b603000000
:020000040000fa
:04034400b6030000fc
:020000040000fa
:04034800b6030000f8
:020000040000fa
:04034c00b6030000f4
:020000040000fa
:04035000b6030000f0
:020000040000fa
:04035400b6030000ec
:020000040000fa
:04035800b6030000e8
:020000040000fa
:04035c00b6030000e4
:020000040000fa
:04036000b6030000e0
:020000040000fa
:04036400b6030000dc
:020000040000fa
:04036800b6030000d8
:020000040000fa
:04036c00b6030000d4
:020000040000fa
:04037000b6030000d0
:020000040000fa
:04037400b6030000cc
:020000040000fa
:04037800b6030000c8
:020000040000fa
:04037c00b6030000c4
:020000040000fa
:040380008a030000ec
:020000040000fa
:04038400b6030000bc
:020000040000fa
:04038800b6030000b8
:020000040000fa
:04038c00b6030000b4
:020000040000fa
:04039000b6030000b0
:020000040000fa
:04039400b6030000ac
:020000040000fa
:04039800b6030000a8
:020000040000fa
:04039c00b6030000a4
:020000040000fa
:0403a000b6030000a0
:020000040000fa
:0403a400b60300009c
:020000040000fa
:0403a800b603000098
:020000040000fa
:0403ac00b603000094
:020000040000fa
:0403b000b603000090
:020000040000fa
:0403b400b60300008c
:020000040000fa
:0403b800b603000088
:020000040000fa
:0403bc00b603000084
:020000040000fa
:0403c000b603000080
:020000040000fa
:0403c400b60300007c
:020000040000fa
:0403c800b603000078
:020000040000fa
:0403cc00b603000074
:020000040000fa
:0403d000b603000070
:020000040000fa
:0403d400b60300006c
:020000040000fa
:0403d800b603000068
:020000040000fa
:0403dc00b603000064
:020000040000fa
:0403e000b603000060
:020000040000fa
:0403e400b60300005c
:020000040000fa
:0403e800b603000058
:020000040000fa
:0403ec00b603000054
:020000040000fa
:0403f000b603000050
:020000040000fa
:0403f400b60300004c
:020000040000fa
:0403f800b603000048
:020000040000fa
:0403fc00b603000044
:020000040000fa
:100400000fa220000e7f22000e01880000000000d5
:10041000000020000000e000020032000001200087
:100420002002880014000700d20007000000e0004e
:1004300003003a0040c02100010020000200370004
:100440000000200001002000810f70000100320038
:1004500014000700000020000000e000020032004d
:100460000000020000000000981c020000000000d4
:100470000040da000000fe004440a900800d20008a
:100480000000e000030032000020200090018800fe
:100490004440a800000006008a1f78008b1f7800e7
:1004a00000000600a1028800800478000000eb0034
:1004b0001f003700e284440054a0b4009905ba003c
:1004c000e284440054a0b4009906ba00e2844400d7
:1004d00054a0b4000006eb00476fde00fd07b20039
:1004e000ae018800636ce10003003a00eaff0700f8
:1004f0000000eb000e003700606ce10008003a00dd
:10050000004deb000a05e800020039003420ec0041
:100510000af0a0008b05e900f9ff3e000400370057
:100520006168e100010032000086eb000b0007006b
:1005300019c7ba001905ba000e04e00003003a001a
:100540000a00e000dbff3a0000000600fe07b200f0
:10055000ae0288008a047800f5ff37000cd0a300b3
:10056000e20f4d001c00390089027800354dba00b9
:100570000a05e800020039003420ec000af0a0006f
:100580008b05e9000f003200254dba000a05e8008e
:10059000020039003420ec000af0a0008b05e900cd
:1005a000080032000c00e0000600320015cdba0051
:1005b0000a05e800020039003420ec000af0a0002f
:1005c0008b05e9008984e80054a0b4000b00e0002a
:1005d000e2ff3a00000006009902ba00055d7800cb
:1005e0008b05e900f7ff3200c82ade00055d7800c0
:1005f0008b05e900f3ff32000c00e000f1ff320050
:1006000019ddba00eeff3700ce190400000000002b
:100610003600f800809fbe00829fbe00849fbe000f
:10062000869fbe000000fa008020a9000000eb00b9
:10063000b30c07000080fa004f03be004f02be005b
:100640004f01be004f00be003600f900004006001a
:100650003600f800809fbe00829fbe00849fbe00cf
:10066000869fbe000000fa00aa0c07008040a90087
:1006700010002000a20c07000080fa004f03be000b
:100680004f02be004f01be004f00be003600f90011
:10069000004006003600f800809fbe00829fbe002a
:1006a000849fbe00869fbe000000fa008060a90003
:1006b00020002000920c07000080fa004f03be00cb
:1006c0004f02be004f01be004f00be003600f900d1
:1006d000004006003600f800809fbe00829fbe00ea
:1006e000849fbe00869fbe000000fa008080a900a3
:1006f00030002000820c07000080fa004f03be008b
:100700004f02be004f01be004f00be003600f90090
:10071000004006003600f800809fbe00829fbe00a9
:10072000849fbe00869fbe003200f8003400f800af
:1007300010002000a0018800002020009001880007
:100740000000fa00630107000080fa003400f9009d
:100750003200f9004f03be004f02be004f01be0041
:100760004f00be003600f900004006000040da00ed
:100770000000fe0000000500800178000200370044
:10078000b15978000201e9000200e000fcff3a00e4
:1007900000000600889fbe008a9fbe00800478008b
:1007a0000200e0005a00320001407800814c7800dd
:1007b00082814400f1f99f00e20f5100540036009d
:1007c00091449800a1449800e1f99f00d1f99f005d
:1007d000e60f51004e003600b1449800c1f99f0069
:1007e000e80f51004a0036000905ea00630565007c
:1007f0000a8444000a055100c1ff2f00010565006d
:100800000080fb008000eb0012102000131020007d
:1008100043000700008cbe000a01440060b99f003d
:1008200071b99f00e80f5500390036002004980088
:1008300031049800400498005104980020b99f00aa
:1008400031b99f0040b99f0051b99f00f80f550082
:100850002f0036006004980071049800000c980086
:10086000110c9800200c9800310c9800400c980056
:10087000510c980020b19f0031b19f0040b19f0002
:1008800051b19f0060b19f0071b19f0000b99f00fe
:1008900011b99f0064016400780141000204440022
:1008a000020555006011b8000203be000002be0040
:1008b0000403be006022b800000072008180720054
:1008c00002017300838173000f0037000802780073
:1008d000009abe00029abe00009abe000292be00bc
:1008e000000c9800110c9800220c9800330c980012
:1008f000400c9800510c9800620c9800730c980002
:100900000a02b1000802b000ff0f5500efff3e00e1
:10091000090078004f05be004f04be00000006002d
:10092000020ab900001bb9000200b80081004200b1
:080930008100430000000600f5
:020000040000fa
:100938001201000000020000000000000008000092
:10094800d80400005500000001000000010200006a
:100958000001000009020000290000000101000058
:1009680000c000003209000004000000000200007e
:10097800030100000100000009210000110100002e
:1009880000010000223f0000000700000581000070
:100998000308000000010000070500000103000033
:1009a8000800000001000000040300000904000022
:1009b800340300004d0000006900000063000000df
:1009c800720000006f000000630000006800000073
:1009d80069000000700000002000000054000000c2
:1009e8006500000063000000680000006e00000061
:1009f8006f0000006c0000006f000000670000003e
:100a08007900000020000000490000006e0000008e
:100a1800630000002e0000001c0300004b000000d3
:100a28006500000079000000620000006f0000000f
:100a38006100000072000000640000002000000057
:100a480044000000650000006d0000006f00000019
:100a5800ae840000d8840000dc840000108500000b
:100a68000501000009060000a101000005070000bb
:100a780019e0000029e7000015000000250100002a
:100a88007501000095080000810200009501000032
:100a9800750800008103000095050000750100003d
:100aa8000508000019010000290500009102000056
:100ab80095010000750300009103000095060000f1
:100ac80075080000150000002565000005070000f6
:100ad800190000002965000081000000c000000026
:020000040000fa
:100ae8000200fa009ec0a9008ac1a8000080eb009d
:100af800702088000080eb00502088002a24ef0036
:100b0800220020008000eb00c04220001fff0700e9
:100b180020002000302188002824ef000644a90086
:100b2800f009200080208800f0092000602088005b
:100b380002c4a8000804a80000a020004800de00a5
:100b4800c02088000040eb00004f78000700370005
:100b58001e80fb00c200dd0000a0200000814000d4
:100b68006000b8000089be001e4fe8001e407800f3
:100b7800e74f5000f6ff36001424a8001624ef00b3
:100b880014a4a9001424a900800020005020880083
:100b9800e08320008040eb0001487800408420007a
:100ba8008040eb0001487800508420009040780095
:100bb800e0c0600001487800608420009040780020
:100bc800e0c06000014878005020800068006000a4
:100bd8000000e000ecff3a0010c0b3001be8b700cb
:100be80010c0b3001ce8b7001d68ef001e68ef00d6
:100bf8001568ef000040eb00004f78001700370041
:100c08001e80fb0080004000c08020000080400063
:100c18008000eb00010878001e80fb008000400087
:100c280080802000008040008000eb0001087800f0
:100c38001e80fb00928420008040eb0000004100f1
:100c4800014878001e80fb00b28420008040eb0041
:100c580000004100014878001e4fe8001e4078005f
:100c6800e14f5000e6ff360080a020006040880079
:100c7800d000200050218800d08420001050880027
:100c880000a0200081c0b3000148780010a0200017
:100c980041c0b3000148780010a02000104078003f
:100ca800804078000174a00010a02000014878005e
:100cb8000268ef002028ef002228ef002468ef00e8
:100cc8000028ef000080fa00000006000200fa0089
:100cd80000408000e10f50000b003a00a120800086
:100ce80000042000008060000000e00006003a00d8
:100cf8000080eb00502088000c04a8000c84a80099
:100d08002000200000408800002080007000600063
:100d18000000e00007003200102080007000600032
:100d28000000e000030032000001200000208800dd
:100d38003f05070040208000620060000000e000de
:100d4800020032008ec0a900a100370050208000a8
:100d5800610060000000e0000a00320060208000ae
:100d6800610060000000e000060032005cff070040
:100d78009ec0a8004000200000408800100020000d
:100d88005020880050208000700060000000e000c3
:100d98000500320060208000700060000000e00064
:100da8000100320015050700012080000004200022
:100db800008060000000e000030032000004200012
:100dc80000208800a407070050208000640060000d
:100dd8000000e00014003200602080006400600021
:100de8000000e00004003200120020008000eb0048
:100df80030072000200a070040002000502088000b
:100e080019c8bf000004e0000300320019c8bf0081
:100e18000040e90019e8b70019c8bf000004e00065
:100e280001003a00da010700512080000008200084
:100e3800008060000000e0000600320061208000b1
:100e480000082000008060000000e000010032007f
:100e5800c804070050208000620060000000e00025
:100e68000c00320060208000620060000000e0009a
:100e780008003200120020008000eb00f0ff27007d
:100e8800fd0907000080eb0070208800200020008a
:100e98005020880000408000e30f500002003e0010
:100ea8008ec0a9004a0037006020800068006000fa
:100eb8000000e000450032000040eb00004f7800e1
:100ec8003d00370050208000680060000000e0000e
:100ed8003d003200902080000040780016e8b700fe
:100ee80016c8bf000080fb004400de000040780008
:100ef80017e8b700800020005020880016c8bf00ff
:100f0800684060000004e00011003a0017c8bf0004
:100f18000081fb008080fb00b0842000008040003e
:100f28009040780061c060000004a200e1406000c9
:100f3800b084200000004100e1c06000104178004a
:100f48000204a100814071000148780010003700b8
:100f580017c8bf000081fb008080fb009084200040
:100f6800008040009040780061c060000004a2004a
:100f7800e14060009084200000004100e1c0600072
:100f8800104178000204a1008140710001487800f6
:100f980017c8bf000004e00002003a00b0040700d0
:100fa800040037000001eb006181200020072000c9
:100fb800b10907001e4fe8001e407800e34f5000bb
:100fc800c0ff360001003700000000008ec0a900f5
:100fd8000080fa00000006000400fa000e81e80014
:100fe8000049780063004700014878006300470023
:100ff800104078000080fb00680060000000e000fe
:10100800040032008040eb000e80e80010407800b9
:10101800e201070063004700104078000080fb00f1
:10102800640060000000e0000400320011c0b3005a
:101038000e80e80010407800d8010700a142200087
:101048000e80e800104078000080fb00000040009f
:10105800008f40009e0078006300470090487800a9
:101068000080fa00000006000800fa000e82e8007e
:10107800004a780063004700014878006400470090
:1010880002087800660047000348780063004700bc
:10109800104078000004e000080032000e80e800ec
:1010a800104078000080fb0080004000c0802000d5
:1010b80000804000100f7800070037000e80e8001d
:1010c800104078000080fb008000400080802000f5
:1010d80000804000100f78001e0078000000e0003b
:1010e80002003a000000eb004600370064004700a9
:1010f800900078001e0078000080e8000108780061
:101108009e00780066004700904878001e0078002e
:101118000000e8001040780002c4b300824060007c
:101128001e0078000000e800014878001e007800e2
:101138000000e80010407800804078000134a000ea
:101148001e0078000000e800014878001e007800c2
:101158000000e80010407800804078000174a0008a
:101168001e0078000000e80001487800630047008e
:10117800104078000004e000110032000e80e80002
:10118800104078000080fb008e80e80091407800d5
:101198008180fb0001814000c18020008100410066
:1011a800910078000120a200010178008000400031
:1011b800c08020000080400002087800100037003e
:1011c8000e80e800104078000080fb008e80e80068
:1011d800914078008180fb000181400081802000df
:1011e80081004100910078000120a20001017800ef
:1011f80080004000808020000080400002087800c5
:101208001e0078000080fa00000006000400fa00c2
:101218000e81e80000497800630047000148780023
:101228000e80e800104078000004e00020003a003a
:101238003140800080c0b300804878003040800092
:10124800d18420000080e800010878003040800048
:10125800c1c0b3000000e8000148780032408000b7
:10126800304080000000e80010407800804078009e
:101278000174a0000200e800014878006040800086
:1012880041c0b3000000e8000148780062408000d7
:10129800604080000000e80010407800804078003e
:1012a8000174a0000200e800014878003a00370005
:1012b8000e80e800104078000080fb00000040002d
:1012c8008000780063004700104078000080fb0031
:1012d800008040004300dd008000780000a020006e
:1012e800008f40001e0078000000e80010407800e1
:1012f800804078000124a0001e0078000000e8006b
:10130800014878001e0078000000e80010407800ce
:10131800804078000174a0001e0078000000e800fa
:10132800014878000e80e800104078000080fb003b
:1013380000004000800078006300470010407800fb
:101348000080fb00008040004300dd00e400400016
:1013580000a02000008f40001e0078000000e80078
:1013680010407800804078000124a0001e0078001a
:101378000000e800014878001e0078000000e8003e
:1013880010407800804078000174a0001e007800aa
:101398000000e800014878000080fa00000006001c
:1013a8000200fa00004f7800a1208000000220000f
:1013b800008060000000e000530032001e80fb0047
:1013c80080004000c080200000804000900378002a
:1013d8001e80fb0080004000c0802000008040008c
:1013e800100078001002be00000420000100200058
:1013f80004037800050278008002780081007800f4
:101408000500630081006200810178000001780016
:101418000200be00808bbe001e80fb0080004000e2
:10142800c080200000804000100278001e80fb0071
:1014380080004000c080200000804000100078003c
:101448001001be0000042000010020000000690017
:1014580081806900008abe001e80fb009e80fb0020
:1014680001814000c1802000810041009100780086
:101478000120a2000101780080004000c080200007
:1014880000804000020878001e80fb0080004000b9
:10149800c080200000804000100178001e80fb0002
:1014a80080004000c08020000080400010007800cc
:1014b8000000e8001040780003c4b30083406000d7
:1014c8000200e800014878001e80fb008000400010
:1014d800c080200000804000100178001e80fb00c2
:1014e80080004000c080200000804000100078008c
:1014f8000000e8009040780000c4b30080c0680095
:101508000200e800014878000080fa0000000600a8
:101518000000fa001424ef000c24ef000028ef006c
:101528000080fa00000006000000fa000040800079
:101538000000e00014003a001424ef000c24ef002f
:1015480020002000302188002824ef000644a9004c
:10155800f009200080208800f00920006020880021
:1015680002c4a8009ec0a800010037001404a80007
:10157800a0208000610060000000e000fbff320056
:1015880010002000004088000080fa0000000600db
:101598000000fa001bc8bf000004a2000004e0001d
:1015a8003f00320010c0b3001be8b7001cc8bf00e2
:1015b8000004a2000004e0003900320010c0b300ab
:1015c8001ce8b70011c8bf00e24f500010003a00f5
:1015d800614080000040eb00804878006040800057
:1015e80081c4b3000000e800014878006240800030
:1015f800604080000000e8001040780080407800db
:101608000174a0000200e8000148780024003700b7
:1016180011c8bf00e14f500021003a001868ef00e0
:101628002140800080c0b3008048780020408000be
:10163800d18420000080e800010878002040800064
:1016480041c0b3000000e800014878002240800053
:10165800204080000000e8001040780080407800ba
:101668000174a0000200e8000148780010c0b3002f
:1016780018e8b7003140800080c0b3008048780087
:1016880030408000d18420000080e8000108780004
:101698003040800001c8b3000000e800014878002d
:1016a8000080fa00000006000000fa001d68ef0044
:1016b8001e68ef0011c8bf00e24f500014003a0046
:1016c8003140800080c0b3008048780030408000fe
:1016d800518520000080e800010878003040800033
:1016e80081c4b3000000e80001487800324080005f
:1016f800304080000000e80010407800804078000a
:101708000174a0000200e8000148780021003700b9
:10171800308520001080fb00418520009180fb006f
:10172800c808dd000100700001428000810f5000f0
:1017380007003100308520001080fb004185200023
:101748009180fb00c808dd0001007000004288009d
:10175800b000070060408000518520000080e8004c
:10176800010878006040800081c4b3000000e800f0
:101778000148780062408000604080000000e80076
:1017880010407800804078000174a0000200e80052
:10179800014878000080fa00000006000400fa0002
:1017a8000e81e8000049780063004700014878008e
:1017b80000a02000000f78000e80e800104078009c
:1017c8000080fb00000040008000780063004700b4
:1017d800104078000080fb00008040004300dd00de
:1017e8001e0f40001e0078009000780001f0a10054
:1017f8000108780063004700104078000004e0000a
:1018080008003a000e80e800104078000080fb00d5
:101818008000400080802000008040001e08780082
:10182800070037000e80e800104078000080fb00b9
:1018380080004000c0802000008040001e08780022
:101848001e0078009000780001e0a10001087800ef
:101858009e007800648040009000780001e0a000bd
:10186800010878000080fa00000006000000fa0075
:1018780014a4a900f1418000000820000080600045
:101888000000e00030003a004084200090407800da
:1018980000c8b30000c060000004e0000a00320085
:1018a80020c0b30011e8b7001ec8bf000004a200a2
:1018b8000004e000010032007bff07001c68ef0015
:1018c8001b68ef00510037003140800080c0b30032
:1018d8008048780030408000d18420000080e800f3
:1018e8000108780030408000c1c0b3000000e80063
:1018f8000148780032408000304080000000e80055
:1019080010407800804078000174a0000200e800d0
:10191800014878006040800041c0b3000000e80042
:101928000148780062408000604080000000e800c4
:1019380010407800804078000174a0000200e800a0
:101948000148780031003700d084200090407800aa
:1019580000c8b30000c060000004e0000f003200bf
:1019680010c0b30011e8b7001dc8bf000004a200f2
:101978000004e000010032004bff07001c68ef0084
:101988001b68ef001ac8bf000004a2000004e000b2
:101998001e003200fefe07001c00370020c0b30006
:1019a80011e8b7003140800080c0b300804878005b
:1019b80030408000d18420000080e80001087800d1
:1019c8003040800041c0b3000000e80001487800c2
:1019d80032408000304080000000e800104078006d
:1019e800804078000174a0000200e80001487800f7
:1019f8001c68ef001b68ef001ac8bf000004a200b3
:101a08000004e00001003200e1fe07000080fa0057
:101a1800000006000200fa0080c0b300004f780002
:101a280000428000e70f50000d003e000042800099
:101a3800004f780010c8bf000004e00003003a001f
:101a480010c0b30010e8b7000500370010c8bf0089
:101a5800e14f500002003a0020c0b30010e8b70080
:101a6800014280001e80fb00008050000042880078
:101a7800604080001e487800508520009040880013
:101a8800f0418000610060000000e00017003a00ab
:101a98000900370091408000e04180001041780043
:101aa800824878008100e800914088000000e80042
:101ab800e04188001e4fe9001e4078000004e00065
:101ac800f4ff3a000c00370091408000e0418000ac
:101ad80010417800824878008100e8009140880031
:101ae8000000e800e04188001e4fe9001e40780031
:101af8000004e000f4ff3a000080fa00000006004d
:101b08000200fa0020408000104f78009e80fb0001
:101b1800508420001080fb00628420001281fb00aa
:101b28004811dd0002007000808f50000700360069
:101b3800508420001080fb00618420009180fb000d
:101b4800c808dd0001007000004f780050842000b4
:101b58001080fb00618420009180fb00c808dd0034
:101b680001007000800078001e80fb00008050009b
:101b7800f10f20000101600051842000914178009c
:101b8800e0c1610002c1710082487800c800de002f
:101b9800608420001041780060416100814071003c
:101ba800014878008040eb000e00e800014878000a
:101bb80020003700208420001080fb0031842000a2
:101bc8009180fb00c808dd00010070008e00e8006d
:101bd800914078008180fb005285200081004100ff
:101be80091407800014878000000e800f10f2000db
:101bf800010160002184200091417800e0c161006a
:101c080002c1710082487800c800de0030842000dc
:101c180010417800604161008140710001487800fe
:101c28000e00e800104078008040e8000e00e80050
:101c3800014878000e00e800104078009e4f5000e0
:101c4800dcff3900508420001080fb0061842000f4
:101c58009180fb00c808dd00010070000000e00072
:101c6800270032003140800080c0b30080487800ef
:101c780030408000518520000080e800010878008d
:101c88002040800090007800000024000080600060
:101c98000000e0000d003a003040800081c4b3002d
:101ca8000000e800014878003240800030408000a1
:101cb8000000e80010407800804078000174a0001f
:101cc8000200e80001487800380037003040800002
:101cd80081c0b3000000e80001487800324080006d
:101ce800304080000000e800104078008040780014
:101cf8000174a0000200e800014878002b003700ba
:101d08003140800080c0b3008048780030408000b7
:101d1800d18420000080e80001087800304080006d
:101d280041c0b3000000e80001487800324080005c
:101d3800304080000000e8001040780080407800c3
:101d48000174a0000200e8000148780070842000b7
:101d58001080fb00818420009180fb00c808dd0012
:101d6800010070000000e0000700320070842000cd
:101d78001080fb00818420009180fb00c808dd00f2
:101d880001007000000001004084200090407800ad
:101d98000174a100014878001ac8bf000004a2001d
:101da8000004e00001003200f9fd07000080fa009d
:101db800000006000200fa00f04180000070a00058
:101dc800f0418800220020008000eb00c042200083
:101dd8006efa0700020220008000eb0000a020003d
:101de8006afa07001424a8000040eb00004f7800ae
:101df8000b0037001e80fb00928420008040eb001f
:101e080000004100014878001e80fb00b2842000d9
:101e18008040eb0000004100014878001e4fe800b8
:101e28001e407800e14f5000f2ff360012002000fb
:101e38008000eb003080200054fa07001424a90029
:101e480080a020006040880000a02000204088007a
:101e58002040800030408800f08420001040780046
:101e680002e8b70002c8bf000004e00003003a001f
:101e78000001200000408800060037001200200002
:101e88002180200010002000fb0507000002200030
:101e9800004088000080fa00000006000000fa00f8
:101ea800d08420009040780000c8b30080cf500054
:101eb80047003a00e083200001ccb30001487800d5
:101ec80000852000104078000080fb00e20f5000e1
:101ed80009003200e30f500023003200e10f5000e8
:101ee80037003a00c0492800e0418800200120005e
:101ef8000042880036003700f08420001040780047
:101f08000004e00014003a00f0842000104078003b
:101f18000080fb000000400080007800c0522800cc
:101f28000080400010007800e0418800e041800017
:101f38000080e80090407800008420000148780084
:101f4800e041800063004000904078001084200049
:101f5800014878001e003700e08320008040eb0035
:101f6800014878001a003700f084200010407800fb
:101f7800e24f50000e003e00f08420001040780030
:101f88000080fb000000400080007800e05228003c
:101f98000080400010007800e0418800e0418000a7
:101fa800104078000080fb000042880008003700dd
:101fb800e08320008040eb000148780004003700ef
:101fc800e08320008040eb0001487800000000001a
:101fd8000080fa00000006000200fa005085200088
:101fe8008040eb0001487800608520008040eb00cd
:101ff80001487800d0842000904078007fc06000bd
:102008000080fb00e10f500011003200e20f500089
:10201800130032000000e00047003a00f041800061
:102028000070a000f041880014c8bf000004e00060
:102038003a00320050852000104078008040780037
:102048000114a00050852000014878003a003700ac
:10205800f04180000070a000f04188003600370091
:10206800f04180000070a000f04188001085200039
:10207800104078006f4060000004e0002900320042
:10208800108520009040780000c8b30000c06000b0
:102098000004e00009003a00108520009040780014
:1020a8006fc060000080fb0080004000808020003e
:1020b80000804000100f78000800370010852000cd
:1020c800904078006fc060000080fb0080004000f6
:1020d800c080200000804000100f78001e007800ab
:1020e8009000780000002800008060000000e000f8
:1020f8000e0032001e00780090007800004020009a
:10210800008060000000e0000a00320050852000d6
:1021180011c0b30001487800070037000000000034
:102128000500370000000000030037000000000031
:102138000100370000000000f14180000008200085
:10214800008060000000e000080032005085200098
:10215800e0418800f04180000000a000f0418800c4
:102168000084200021c0b300014878000080fa00f4
:10217800000006000000fa005021800062006000a4
:102188000000e00019003200204080000000e80054
:102198009040780000c8b30080cf500012003a0089
:1021a800604080000000e8009040780040c8b3001c
:1021b80080cf50000c003a0020408000c1c0b3001e
:1021c8000000e8000148780022408000204080009c
:1021d8000000e80010407800804078000174a000fa
:1021e8000200e800014878002a24a900000820001d
:1021f800502088000080fa00000006000000fa0065
:102208000284a800000120005020880010c0b300fc
:1022180015e8b7002468ef000001eb008000eb0030
:1022280050072000140507000080fa00000006008f
:102238000000fa001568ef000001eb008000eb00d9
:10224800400720000c0507000284a90000012000b7
:10225800002088002468ef000080fa0000000600d3
:102268000000fa00d0c2b30019e8b70016c8bf00d2
:102278000080fb000020a1000000e00020003a00e0
:1022880016c8bf000080fb004200de000040780056
:102298000080fb00c200dd0000a02000008040009c
:1022a8002040880020408000304088003040800076
:1022b8000020a20030408800204080009000780074
:1022c80000c023008080600000402300808f500001
:1022d80009003a00204080000080e80010007800e3
:1022e8008200200080007800d084200020f90700b8
:1022f8000b000700080037004600070006003700fb
:1023080016c8bf000080fb000020a100e80f5000a5
:1023180001003a00610007000080fa000000060092
:102328000000fa001068ef001a68ef001d68ef005f
:102338001e68ef001868ef001168ef006240800027
:10234800604080000000e80010407800804078007d
:102358000174a1000200e800014878006040800094
:102368000020a20060408800624080006040800039
:102378000000e80010407800804078000174a10057
:102388000200e80001487800604080000020a200b8
:102398006040880032408000304080000000e80043
:1023a80010407800804078000174a1000200e80025
:1023b80001487800e08320008040eb000148780065
:1023c8000000eb0000428800408420008040eb00c1
:1023d800014878005084200090407800e0c06000f8
:1023e800014878006084200090407800e0c06000d8
:1023f80001487800940007000001eb008000eb0022
:10240800300020009c04070018fd07000080fa0037
:10241800000006000000fa0011c8bf00e24f50009b
:1024280002003a00b6fd07001a0037001168ef00f5
:1024380018c8bf000004a2000004e0001400320025
:102448003140800080c0b300804878003040800070
:10245800d18420000080e800010878003040800026
:10246800c1c0b3000000e800014878003240800095
:10247800304080000000e80010407800804078007c
:102488000174a0000200e80001487800010037004c
:102498001868ef000080fa00000006000200fa0049
:1024a80060408000100078004e00de00614060004f
:1024b800004f7800604080000020a2006040880043
:1024c80000408000e80f50000e003a00f084200021
:1024d800104078008080fb00f0072000008060003a
:1024e800b0208800b02080000000e0000300320027
:1024f8000001200000408800020037004000200052
:102508000040880011c8bf00e14f500032003a0077
:1025180060408000518520000080e80001087800b4
:102528003cfd070010c8bf00e24f50000d003a0004
:102538006040800041c0b3000000e8000148780016
:1025480062408000604080000000e8001040780091
:10255800804078000174a0000200e800014878007b
:10256800370037001e4078000004e0000d003a00f4
:102578006040800081c4b3000000e8000148780092
:1025880062408000604080000000e8001040780051
:10259800804078000174a0000200e800014878003b
:1025a800270037006040800081c0b3000000e800c9
:1025b8000148780062408000604080000000e80028
:1025c80010407800804078000174a0000200e80004
:1025d800014878001a0037004084200090407800b5
:1025e80000c8b30000c060000004e000130032001f
:1025f800708420001080fb00818420009180fb0003
:10260800c808dd00010070000000e000070032008b
:10261800708420001080fb00818420009180fb00e2
:10262800c808dd000100700000000100408420009f
:10263800904078000174a100014878001168ef000b
:102648000080fa00000006000000fa00d084200094
:10265800104078000046b2000004e00051003a0043
:10266800e0842000104078000080fb00cf80de006e
:10267800b200200003002000820f5000838f580012
:102688004a003e00006001002100370022003700a8
:1026980048003700200037004600370006003700a2
:1026a8000b0037003a0037000d0037000a003700ea
:1026b8001b0037002a003700f04180000070a0009e
:1026c800f041880080002000004088003a00370070
:1026d800f2fd070038003700b6fd07003600370066
:1026e80020802000e0418800f04180000000a00028
:1026f800f04188000084200011c0b3000148780030
:10270800f04180000070a000f04188002a003700e6
:1027180031fe07002800370029000700260037008f
:1027280010852000104078008080fb003080200059
:1027380000804000e0418800f04180000000a000d7
:10274800f04188000084200011c0b30001487800df
:10275800f04180000070a000f041880016003700aa
:10276800f04180000070a000f04188001085200032
:10277800104078000081fb00f08420009040780031
:102788003080200000004100014878000a0037002e
:102798000001eb008000eb0020002000b6030700da
:1027a80005003700000000000300370000000000ab
:1027b80001003700000000000080fa000000060059
:1027c8000600fa00f084200010407800e14f500025
:1027d80010003a00d0842000104078007f4060004c
:1027e8000004e0000b003a00f04180000070a000f7
:1027f800f0418800e084200010407800e34f50004a
:1028080003003a0010c0b30014e8b7000100370015
:102818001468ef00f0842000104078000004e00005
:102828000b013a00d0842000104078007f406000ff
:10283800e24f500006013a00108520001040780051
:102848006f4060000004e0000101320010852000a4
:10285800904078006fc060000080fb00e10f5000de
:10286800fb003c000140800000022000808f5000e7
:10287800f7003a00f04180000070a000f0418800a5
:10288800108520009040780000c8b30000c06000a8
:102898000004e00012003a00108520001041780082
:1028a8006f4061000080fb008000400080802000b5
:1028b80000804000100f78001085200090407800bc
:1028c8006fc060000080fb00b184200000804000e1
:1028d80090407800640047000148780011003700f4
:1028e80010852000104178006f4061000080fb00d7
:1028f80080004000c080200000804000100f780059
:1029080010852000904078006fc060000080fb00b8
:1029180091842000008040009040780064004700c7
:10292800014878006400470010407800614060006a
:102938000004e00004003a001e0078000020a10016
:10294800000f7800030037001e0078000020a00068
:10295800000f7800108520009040780000c8b30070
:1029680000c060000004e0000a003a001085200062
:10297800104178006f4061000080fb001e01780064
:10298800800040008080200000804000020878001d
:102998000900370010852000904078006fc0600063
:1029a8000080fb001e01780080004000c0802000ed
:1029b8000080400002087800e08420001040780081
:1029c800e34f500030003a001e0078009000780075
:1029d80000002800008060000000e00019003200bc
:1029e800108520009040780000c8b30000c0600047
:1029f8000004e0000a003a00108520001041780029
:102a08006f4061008080fb00b0842000008040009f
:102a1800904078000114a0000148780009003700b0
:102a280010852000904078006fc060008080fb0017
:102a38009084200000804000904078000114a0009d
:102a4800014878001e0078000000e8001040780077
:102a5800804078000124a0001e0078000000e800f3
:102a6800014878001e0078000000e8001040780057
:102a7800804078000174a0001e0078000000e80083
:102a880001487800720037001e0078000020a2007c
:102a9800000f78001e0078009000780000002800e1
:102aa800008060000000e000150032001e00780081
:102ab8000000e80010407800804078000174a10010
:102ac8001e0078000000e800014878001e00780029
:102ad8000000e80010407800804078000164a00001
:102ae8001e0078000000e80001487800220020005d
:102af8009e00780050002000df0207000800370021
:102b08001e0078000000e80010407800804078003f
:102b18000164a0001e0078000000e8000148780069
:102b28001e0078000020a200000f78006400470013
:102b380010407800624060000004e00006003a009f
:102b48001e007800900078000000280000806000d7
:102b58000000e00026003200108520009040780038
:102b680000c8b30000c060000004e0000a003a009a
:102b780010852000104178006f4061008080fb00c4
:102b8800b084200000804000904078000114a1002b
:102b9800014878000900370010852000904078002f
:102ba8006fc060008080fb0090842000008040009f
:102bb800904078000114a100014878001e007800b8
:102bc8000000e80010407800b2c3b3008240600003
:102bd8001e0078000000e80001487800220020006c
:102be8009e00780050002000a3020700080037006c
:102bf8001e0078000000e80010407800b2c3b3005f
:102c0800824060001e0078000000e800014878005b
:102c1800a142200010852000104178006f4061001b
:102c28000080fb0000004000808040000e80e8002b
:102c3800010878000e80e800100078001040780045
:102c48000014a1008e80e800910078008048780088
:102c58000080fa00000006000000fa000041800031
:102c68001141800061004000e08048000041880078
:102c78001141880015c8bf000004a2000004e0004c
:102c88000800320024c8bf000040e80024e8b7006c
:102c980024c8bf000004e00002003a0000c0eb00b6
:102ca80024e8b7000080fa00000006000400fa00db
:102cb8000241800013418000028fbe000041800065
:102cc800114180001e01be00800f5100818f590004
:102cd800f7ff3a001e00be000080fa000000060060
:102ce8000000fa00ab00070014c8bf000004e000b1
:102cf8000100320015c8bf000040fe0051208000ce
:102d080000022000008060000000e00002003a009d
:102d180010c0b30041000700dc00070010c0b3007a
:102d28000080fa00000006000000fa0014c8bf0086
:102d38000004e0003600320015c8bf000004e000bf
:102d48003300320040208000620060000000e00094
:102d5800010032000824a9007a00070000042000be
:102d680000208800000000000120800000042000ee
:102d7800008060000000e000fbff3200000420003b
:102d880000208800000000000120800000042000ce
:102d9800008060000000e000fbff3200000420001b
:102da80000208800000000000120800000042000ae
:102db800008060000000e000fbff32001444a8001f
:102dc800000420000020880000000000012080008e
:102dd80000042000008060000000e000fbff3200db
:102de800000420000020880000000000012080006e
:102df80000042000008060000000e000fbff3200bb
:102e08001444a9005c00070010c0b300010037009b
:102e18000040eb000080fa00000006000400fa0001
:102e28008e80e800804878004020800061006000c3
:102e38000000e0000b0032004020800062006000cb
:102e48000000e00007003a0024c8bf00e34f50002c
:102e580004003600202080004300de00614060004e
:102e6800360037000e80e800104078000004e000cb
:102e7800200032000824a9000804a8003100070037
:102e88000040eb00004f78000900370000042000e4
:102e980000208800000000000120800000042000bd
:102ea800008060000000e000fbff32001e4fe800d9
:102eb8001e407800e44f5000f4ff36008040eb00dd
:102ec8000e00e800014878002020800068006000bb
:102ed8000000e0000300320011c0b3000e00e8005b
:102ee80001487800240007000e00e8001040780030
:102ef8001200370040208000610060000000e00000
:102f080002003a0000c0eb000c00370040208000af
:102f1800620060000000e00002003a00e0cfb30069
:102f28000600370024c8bf00e34f500002003e00ef
:102f3800d0cfb30001003700c0cfb3000080fa0043
:102f4800000006000000fa002e68ef001000fc00e8
:102f5800f104800000042000008060000000e00010
:102f68000200320010c0b3002ee8b7009ec0a900ce
:102f78000080fa00000006000000fa002ec8bf001a
:102f88000004e000010032009ec0a8000080fa00a2
:102f9800000006000400fa001e00fc001102800078
:102fa800000e20000080600030418800110280007f
:102fb800000e200001007000100288004109200066
:102fc8000e80e800010878000000eb00000f780090
:102fd800120037000e80e800100078001001780019
:102fe8001e007800800040006089200000804000ba
:102ff800020878000e80e800100078008000eb00de
:10300800010878000e80e800100078008080e80051
:103018000e80e800010878001e0fe8001e00780006
:10302800e70f5000ebff3600602080004041880029
:103038000c24ef0010208000504188000224ef008b
:10304800700680004800de00674060000080fb00da
:103058006041880000012000002088000002200054
:10306800502088008ec0a9000284a8007106800044
:10307800f08f2f000080600000a0a000700688007c
:103088009ec0a8000080fa00000006000400fa00b4
:10309800410920000e80e800010878000000eb00dc
:1030a800000f78000e0037001e00780080004000f6
:1030b8006089200000804000900078000e80e800c1
:1030c80010007800010878000e80e80010007800f1
:1030d8008080e8000e80e800010878001e0fe800f4
:1030e8001e007800e70f5000efff360040418000d7
:1030f80060208800504180001020880060418000d6
:1031080000407800674060000080fb0067006000b6
:103118004800dd0072068000f18f2f0081006100f9
:10312800010070007006880011028000f0f12f0085
:1031380000806000314180000080700030418800cc
:1031480030418000100288000080fa00000006006c
:103158000000fa000000eb00f043880020882000ff
:1031680041c0b30001487800308820008040eb005f
:103178000148780000fa20008041880002003700ea
:10318800d0418000a0418800a1418000d04180004a
:10319800808f5000faff3a00d1c1b30010c0b300cd
:1031a8008df7070023c0b300c28820008040eb00e1
:1031b80010c0b300acf70700004488000080fa0094
:1031c800000006000400fa0000408000ff0f5000d5
:1031d8005f00360040208000620060000000e000d0
:1031e800040032005d003700d04180009041880023
:1031f800010037000000000091418000d0418000ac
:10320800808f5000f8ff3a0091418000a041800073
:10321800008f50001e0078000000e00005003d000f
:10322800a1418000f0ff270001005000914180007b
:10323800010f4000803821009e007800808f5000e8
:10324800040034009141800080c72e0000804000b7
:10325800a0418800f04380000000e0000600320032
:10326800f043800090007800000028000080600093
:103278000000e00025003a00820020008000eb00fa
:103288004088200041f507006088200041c0b30055
:1032980001487800804180000000e000070032000b
:1032a800804180009e007800808f50000300350028
:1032b80011c0b3000e80e800014878000e80e800d5
:1032c800104078000004e000100032002244800022
:1032d800334480007244880083448800424480005c
:1032e8005344800092448800a344880083c0b300fc
:1032f8004288200011c0b30010c0b3005af707007d
:10330800f043880090418000a0418800004480007c
:103318000000e000060032000044800090007800c1
:1033280000002800008060000000e0000a003a0069
:103338001300070023c0b300c28820008040eb00c0
:1033480010c0b30048f707000044880003003700a6
:103358000000000001003700000000000080fa00b3
:10336800000006000000fa005dfe07000080fa0079
:10337800000006000000fa000080fa0000000600c5
:103388000000fa00c0882000104078000080fa0091
:10339800000006000000fa005085200090407800e8
:1033a800c088200001487800f5ff07000080fa0077
:1033b800000006000000fa0050852000f10f2000f0
:1033c800010160002184200091417800e0c1610082
:1033d80002c1710082487800c800de0030842000f5
:1033e8001041780060416100814071000148780017
:1033f8005084200090407800e0c060000134a000b4
:10340800014878006084200090407800e0c06000a7
:1034180001487800e09c2100f10f200001016000c4
:103428007184200091417800e0c1610002c17100ff
:1034380082487800c800de008084200010417800af
:10344800604161008140710001487800408420009b
:10345800904078000174a000014878000080fa00cc
:10346800000006000200fa00004f78000e00e80095
:10347800014878001e4078000004e00004003a008b
:103488000e00e800104078000080fb0080418800b2
:103498000080fa00000006000000fa00d084200036
:1034a800104078007f406000e14f500069003a000a
:1034b80010852000104078000004e00067003a0002
:1034c800e084200010407800e64f500022003a00c7
:1034d80000852000104078000080fb0021022000b9
:1034e800810f50001100320031022000810f50007e
:1034f8001600320011022000810f500016003a0019
:1035080002c8bf00e14f500012003a00004c2800ea
:10351800e04188009000200000428800e0832000fd
:1035280001ccb300014878000b0037004053280055
:10353800e0418800f003200000428800e08320007a
:1035480001ccb300014878000300370000000000f8
:103558000100370000000000d084200010407800ef
:1035680002c6b3008240600000c2b30080cf5000a2
:103578003c003a00e0842000104078000080fb0006
:10358800e30f500023003200e30f500005003c0019
:10359800e10f500035003200e20f50000900320000
:1035a80033003700ea0f50000e003200eb0f5000d6
:1035b80020003200e90f50002d003a007dff07007f
:1035c8002b00370080832000e04188001000200095
:1035d80000428800e083200011ccb3000148780045
:1035e80023003700e083200001c8b30001487800b9
:1035f800008520001040780038e8b700818320005b
:1036080091407800f08420001040780095ff070072
:103618001700370090832000e04188001000200048
:1036280000428800e083200011c8b30001487800f8
:103638000f003700e083200001c8b300014878007c
:10364800f08420001040780039e8b700000000003e
:1036580007003700000000000500370000000000e8
:1036680003003700000000000100370000000000e0
:103678000080fa00000006000600fa00000f78003b
:103688000e80e8000108780064004700020878000e
:103698001e00780021072000810f50002900320009
:1036a80021072000810f50000a003c00e20f500063
:1036b80026003200e20f500003003c00e10f5000ea
:1036c8001c00320022003700e30f50001b003200bc
:1036d8001f00370041072000810f500013003200ff
:1036e80041072000810f50000400350051072000d9
:1036f800810f50000b00320015003700d1418000c7
:10370800f0ff2700808f500004003200d041800075
:103718000000e800d04188000d0037003a28ef008b
:103728000b0037000fff07000900370011ff0700e3
:103738000700370086fe07000500370056ff070020
:1037480003003700000000000100370000000000ff
:1037580010c0b3000080fa00000006000000fa0064
:1037680000042300100888000621ef006821ef00fc
:103778006a21ef006e21ef007021ef007221ef0047
:103788007421ef007621ef007a21ef007c21ef0011
:103798007e21ef001200200080072000a1092000f0
:1037a8001310200080497800814978008249780008
:1037b8001200200060042000710520000310200082
:1037c800804978008149780082497800000000002b
:1037d80000088000610060000000e000fcff3a0083
:1037e8000000000001088000000220000080600046
:1037f8000000e000fbff32000080fa000000060035
:020000040000fa
:103808005e0800002000000080000000360800006c
:103818000200000082000000ffff00003c080000da
:1038280022000000800000000008000026000000c0
:1038380080000000000a0000200000008000000056
:103848003808000002000000800000003a0800006c
:103858000200000080000000960800001000000030
:1038680080000000260800000a0000008000000018
:103878007e080000180000008000000030080000ea
:0c388800060000008000000000000000ae
:020000040000fa
:103894000000fa008421ef008e21ef009821ef0050
:1038a40070792000000c8800f0ff2e00500c880076
:1038b400f03f2000a00c88005620ef005820ef00b5
:1038c4005a20ef006e20ef007020ef007220ef000e
:1038d4008621ef009021ef009a21ef007000200074
:1038e400400c8800c0242e00900c8800700020003a
:1038f400e00c88000080fa00000006000200fa00d4
:10390400000f78009e007800b1418800ffff370067
:103914000000fa00e085200080077800608720001e
:10392400000188000080fa00000006000000fa0090
:10393400050007008ac1a8006af40700fbf6070027
:1039440021fe0700feff37000000fa00d0ff070049
:103954000300070082ff07000080fa000000060051
:0c3964000000fa000080fa0000000600dd
:020000040000fa
:020000040002f8
:04aff000ffc7000097
:020000040000fa
:020000040002f8
:04aff400fff6000064
:020000040000fa
:020000040002f8
:04aff8005f380000be
:020000040000fa
:020000040002f8
:04affc003f3f0000d3
:00000001FF
