:020000040000fa
:080000000002040000000000f2
:020000040000fa
:04000800d803000019
:020000040000fa
:04000c0038030000b5
:020000040000fa
:040010007a0300006f
:020000040000fa
:04001400580300008d
:020000040000fa
:040018009a03000047
:020000040000fa
:04001c00d803000005
:020000040000fa
:04002000d803000001
:020000040000fa
:04002400d8030000fd
:020000040000fa
:04002800ba03000017
:020000040000fa
:04002c00d8030000f5
:020000040000fa
:04003000d8030000f1
:020000040000fa
:04003400d8030000ed
:020000040000fa
:04003800d8030000e9
:020000040000fa
:04003c00d8030000e5
:020000040000fa
:04004000d8030000e1
:020000040000fa
:04004400d8030000dd
:020000040000fa
:04004800d8030000d9
:020000040000fa
:04004c00d8030000d5
:020000040000fa
:04005000d8030000d1
:020000040000fa
:04005400d8030000cd
:020000040000fa
:04005800d8030000c9
:020000040000fa
:04005c00d8030000c5
:020000040000fa
:04006000d8030000c1
:020000040000fa
:04006400d8030000bd
:020000040000fa
:04006800d8030000b9
:020000040000fa
:04006c00d8030000b5
:020000040000fa
:04007000d8030000b1
:020000040000fa
:04007400d8030000ad
:020000040000fa
:04007800d8030000a9
:020000040000fa
:04007c00d8030000a5
:020000040000fa
:04008000d8030000a1
:020000040000fa
:04008400d80300009d
:020000040000fa
:04008800d803000099
:020000040000fa
:04008c00d803000095
:020000040000fa
:04009000d803000091
:020000040000fa
:04009400d80300008d
:020000040000fa
:04009800d803000089
:020000040000fa
:04009c00d803000085
:020000040000fa
:0400a000d803000081
:020000040000fa
:0400a400d80300007d
:020000040000fa
:0400a800d803000079
:020000040000fa
:0400ac00d803000075
:020000040000fa
:0400b000d803000071
:020000040000fa
:0400b400d80300006d
:020000040000fa
:0400b800d803000069
:020000040000fa
:0400bc00d803000065
:020000040000fa
:0400c000d803000061
:020000040000fa
:0400c400d80300005d
:020000040000fa
:0400c800d803000059
:020000040000fa
:0400cc00d803000055
:020000040000fa
:0400d000d803000051
:020000040000fa
:0400d400d80300004d
:020000040000fa
:0400d800d803000049
:020000040000fa
:0400dc00d803000045
:020000040000fa
:0400e000d803000041
:020000040000fa
:0400e400d80300003d
:020000040000fa
:0400e800d803000039
:020000040000fa
:0400ec00d803000035
:020000040000fa
:0400f000d803000031
:020000040000fa
:0400f400d80300002d
:020000040000fa
:0400f800d803000029
:020000040000fa
:0400fc00d803000025
:020000040000fa
:04010000d803000020
:020000040000fa
:04010400d80300001c
:020000040000fa
:04010800d803000018
:020000040000fa
:04010c00d803000014
:020000040000fa
:04011000d803000010
:020000040000fa
:04011400d80300000c
:020000040000fa
:04011800d803000008
:020000040000fa
:04011c00d803000004
:020000040000fa
:04012000d803000000
:020000040000fa
:04012400d8030000fc
:020000040000fa
:04012800d8030000f8
:020000040000fa
:04012c00d8030000f4
:020000040000fa
:04013000d8030000f0
:020000040000fa
:04013400d8030000ec
:020000040000fa
:04013800d8030000e8
:020000040000fa
:04013c00d8030000e4
:020000040000fa
:04014000d8030000e0
:020000040000fa
:04014400d8030000dc
:020000040000fa
:04014800d8030000d8
:020000040000fa
:04014c00d8030000d4
:020000040000fa
:04015000d8030000d0
:020000040000fa
:04015400d8030000cc
:020000040000fa
:04015800d8030000c8
:020000040000fa
:04015c00d8030000c4
:020000040000fa
:04016000d8030000c0
:020000040000fa
:04016400d8030000bc
:020000040000fa
:04016800d8030000b8
:020000040000fa
:04016c00d8030000b4
:020000040000fa
:04017000d8030000b0
:020000040000fa
:04017400d8030000ac
:020000040000fa
:04017800d8030000a8
:020000040000fa
:04017c00d8030000a4
:020000040000fa
:04018000d8030000a0
:020000040000fa
:04018400d80300009c
:020000040000fa
:04018800d803000098
:020000040000fa
:04018c00d803000094
:020000040000fa
:04019000d803000090
:020000040000fa
:04019400d80300008c
:020000040000fa
:04019800d803000088
:020000040000fa
:04019c00d803000084
:020000040000fa
:0401a000d803000080
:020000040000fa
:0401a400d80300007c
:020000040000fa
:0401a800d803000078
:020000040000fa
:0401ac00d803000074
:020000040000fa
:0401b000d803000070
:020000040000fa
:0401b400d80300006c
:020000040000fa
:0401b800d803000068
:020000040000fa
:0401bc00d803000064
:020000040000fa
:0401c000d803000060
:020000040000fa
:0401c400d80300005c
:020000040000fa
:0401c800d803000058
:020000040000fa
:0401cc00d803000054
:020000040000fa
:0401d000d803000050
:020000040000fa
:0401d400d80300004c
:020000040000fa
:0401d800d803000048
:020000040000fa
:0401dc00d803000044
:020000040000fa
:0401e000d803000040
:020000040000fa
:0401e400d80300003c
:020000040000fa
:0401e800d803000038
:020000040000fa
:0401ec00d803000034
:020000040000fa
:0401f000d803000030
:020000040000fa
:0401f400d80300002c
:020000040000fa
:0401f800d803000028
:020000040000fa
:0401fc00d803000024
:020000040000fa
:04020800d803000017
:020000040000fa
:04020c0038030000b3
:020000040000fa
:040210007a0300006d
:020000040000fa
:04021400580300008b
:020000040000fa
:040218009a03000045
:020000040000fa
:04021c00d803000003
:020000040000fa
:04022000d8030000ff
:020000040000fa
:04022400d8030000fb
:020000040000fa
:04022800ba03000015
:020000040000fa
:04022c00d8030000f3
:020000040000fa
:04023000d8030000ef
:020000040000fa
:04023400d8030000eb
:020000040000fa
:04023800d8030000e7
:020000040000fa
:04023c00d8030000e3
:020000040000fa
:04024000d8030000df
:020000040000fa
:04024400d8030000db
:020000040000fa
:04024800d8030000d7
:020000040000fa
:04024c00d8030000d3
:020000040000fa
:04025000d8030000cf
:020000040000fa
:04025400d8030000cb
:020000040000fa
:04025800d8030000c7
:020000040000fa
:04025c00d8030000c3
:020000040000fa
:04026000d8030000bf
:020000040000fa
:04026400d8030000bb
:020000040000fa
:04026800d8030000b7
:020000040000fa
:04026c00d8030000b3
:020000040000fa
:04027000d8030000af
:020000040000fa
:04027400d8030000ab
:020000040000fa
:04027800d8030000a7
:020000040000fa
:04027c00d8030000a3
:020000040000fa
:04028000d80300009f
:020000040000fa
:04028400d80300009b
:020000040000fa
:04028800d803000097
:020000040000fa
:04028c00d803000093
:020000040000fa
:04029000d80300008f
:020000040000fa
:04029400d80300008b
:020000040000fa
:04029800d803000087
:020000040000fa
:04029c00d803000083
:020000040000fa
:0402a000d80300007f
:020000040000fa
:0402a400d80300007b
:020000040000fa
:0402a800d803000077
:020000040000fa
:0402ac00d803000073
:020000040000fa
:0402b000d80300006f
:020000040000fa
:0402b400d80300006b
:020000040000fa
:0402b800d803000067
:020000040000fa
:0402bc00d803000063
:020000040000fa
:0402c000d80300005f
:020000040000fa
:0402c400d80300005b
:020000040000fa
:0402c800d803000057
:020000040000fa
:0402cc00d803000053
:020000040000fa
:0402d000d80300004f
:020000040000fa
:0402d400d80300004b
:020000040000fa
:0402d800d803000047
:020000040000fa
:0402dc00d803000043
:020000040000fa
:0402e000d80300003f
:020000040000fa
:0402e400d80300003b
:020000040000fa
:0402e800d803000037
:020000040000fa
:0402ec00d803000033
:020000040000fa
:0402f000d80300002f
:020000040000fa
:0402f400d80300002b
:020000040000fa
:0402f800d803000027
:020000040000fa
:0402fc00d803000023
:020000040000fa
:04030000d80300001e
:020000040000fa
:04030400d80300001a
:020000040000fa
:04030800d803000016
:020000040000fa
:04030c00d803000012
:020000040000fa
:04031000d80300000e
:020000040000fa
:04031400d80300000a
:020000040000fa
:04031800d803000006
:020000040000fa
:04031c00d803000002
:020000040000fa
:04032000d8030000fe
:020000040000fa
:04032400d8030000fa
:020000040000fa
:04032800d8030000f6
:020000040000fa
:04032c00d8030000f2
:020000040000fa
:04033000d8030000ee
:020000040000fa
:04033400d8030000ea
:020000040000fa
:04033800d8030000e6
:020000040000fa
:04033c00d8030000e2
:020000040000fa
:04034000d8030000de
:020000040000fa
:04034400d8030000da
:020000040000fa
:04034800d8030000d6
:020000040000fa
:04034c00d8030000d2
:020000040000fa
:04035000d8030000ce
:020000040000fa
:04035400d8030000ca
:020000040000fa
:04035800d8030000c6
:020000040000fa
:04035c00d8030000c2
:020000040000fa
:04036000d8030000be
:020000040000fa
:04036400d8030000ba
:020000040000fa
:04036800d8030000b6
:020000040000fa
:04036c00d8030000b2
:020000040000fa
:04037000d8030000ae
:020000040000fa
:04037400d8030000aa
:020000040000fa
:04037800d8030000a6
:020000040000fa
:04037c00d8030000a2
:020000040000fa
:04038000d80300009e
:020000040000fa
:04038400d80300009a
:020000040000fa
:04038800d803000096
:020000040000fa
:04038c00d803000092
:020000040000fa
:04039000d80300008e
:020000040000fa
:04039400d80300008a
:020000040000fa
:04039800d803000086
:020000040000fa
:04039c00d803000082
:020000040000fa
:0403a000d80300007e
:020000040000fa
:0403a400d80300007a
:020000040000fa
:0403a800d803000076
:020000040000fa
:0403ac00d803000072
:020000040000fa
:0403b000d80300006e
:020000040000fa
:0403b400d80300006a
:020000040000fa
:0403b800d803000066
:020000040000fa
:0403bc00d803000062
:020000040000fa
:0403c000d80300005e
:020000040000fa
:0403c400d80300005a
:020000040000fa
:0403c800d803000056
:020000040000fa
:0403cc00d803000052
:020000040000fa
:0403d000d80300004e
:020000040000fa
:0403d400d80300004a
:020000040000fa
:0403d800d803000046
:020000040000fa
:0403dc00d803000042
:020000040000fa
:0403e000d80300003e
:020000040000fa
:0403e400d80300003a
:020000040000fa
:0403e800d803000036
:020000040000fa
:0403ec00d803000032
:020000040000fa
:0403f000d80300002e
:020000040000fa
:0403f400d80300002a
:020000040000fa
:0403f800d803000026
:020000040000fa
:0403fc00d803000022
:020000040000fa
:100400000fce20000e7f22000e01880000000000a9
:10041000000020000000e000020032000001200087
:100420002002880014000700e30007000000e0003d
:1004300003003a0000aa2d0001002000020037004e
:100440000000200001002000810f70000100320038
:1004500014000700000020000000e000020032004d
:10046000000002000000000042dc0200000000006a
:100470000040da000000fe004440a90020152700db
:100480000000e000030032000020200090018800fe
:100490004440a800000006008a1f78008b1f7800e7
:1004a00000000600a1028800800478000000eb0034
:1004b0001f003700e284440054a0b4009905ba003c
:1004c000e284440054a0b4009906ba00e2844400d7
:1004d00054a0b4000006eb00476fde00fd07b20039
:1004e000ae018800636ce10003003a00eaff0700f8
:1004f0000000eb000e003700606ce10008003a00dd
:10050000004deb000a05e800020039003420ec0041
:100510000af0a0008b05e900f9ff3e000400370057
:100520006168e100010032000086eb000b0007006b
:1005300019c7ba001905ba000e04e00003003a001a
:100540000a00e000dbff3a0000000600fe07b200f0
:10055000ae0288008a047800f5ff37000cd0a300b3
:10056000e20f4d001c00390089027800354dba00b9
:100570000a05e800020039003420ec000af0a0006f
:100580008b05e9000f003200254dba000a05e8008e
:10059000020039003420ec000af0a0008b05e900cd
:1005a000080032000c00e0000600320015cdba0051
:1005b0000a05e800020039003420ec000af0a0002f
:1005c0008b05e9008984e80054a0b4000b00e0002a
:1005d000e2ff3a00000006009902ba00055d7800cb
:1005e0008b05e900f7ff3200c82ade00055d7800c0
:1005f0008b05e900f3ff32000c00e000f1ff320050
:1006000019ddba00eeff3700b6d404000000000088
:10061000fedb04000000000014d504000000000010
:100620002ed50400000000006ad504000000000080
:10063000a2d5040000000000dcd50400000000008a
:10064000e8d50400000000000ed604000000000001
:10065000f2d504000000000008dc040000000000e7
:1006600012dc0400000000008ed90400000000002d
:100670003600f800809fbe00829fbe00849fbe00af
:10068000869fbe000000fa008020a9000000eb0059
:100690009d6c07000080fa004f03be004f02be00b1
:1006a0004f01be004f00be003600f90000400600ba
:1006b0003600f800809fbe00829fbe00849fbe006f
:1006c000869fbe000000fa00946c07008040a900dd
:1006d000100020008c6c07000080fa004f03be0061
:1006e0004f02be004f01be004f00be003600f900b1
:1006f000004006003600f800809fbe00829fbe00ca
:10070000849fbe00869fbe000000fa008060a900a2
:10071000200020007c6c07000080fa004f03be0020
:100720004f02be004f01be004f00be003600f90070
:10073000004006003600f800809fbe00829fbe0089
:10074000849fbe00869fbe000000fa008080a90042
:10075000300020006c6c07000080fa004f03be00e0
:100760004f02be004f01be004f00be003600f90030
:10077000004006003600f800809fbe00829fbe0049
:10078000849fbe00869fbe000000fa00746c0700c4
:100790008400a9000080fa004f03be004f02be0093
:1007a0004f01be004f00be003600f90000400600b9
:1007b0000040da000000fe00000005006022b800e2
:1007c000060220000000d0008180d2000482d20006
:1007d0008582d2000000a0000202520083825a00eb
:1007e000030031000202420083824a000000a1009f
:1007f0000603e900f3ff3a0000000600889fbe00f0
:100800008a9fbe0030044200b0844a0030054b008d
:1008100090854b006000b1000898be000a90be00b1
:100820000440e10005c8e10006d0e10007d8e1007e
:1008300002003100680040001008e8004f05be00cb
:100840004f04be0000000600889fbe008a9fbe00c5
:100850003004be002005be000418540005985c005a
:1008600006185d0007985d00110020000440e100bb
:1008700005c8e10006d0e10007d8e1000100390019
:100880008000eb00108810004f05be004f04be0032
:1008900000000600f4874700889fbe008a9fbe00c4
:1008a0008c9fbe008e1f7800d0b79f00e1b79f00dd
:1008b000f2b79f0083bf9f000605be000404be0080
:1008c000cfae97000000eb00c0b79f00b0b79f000d
:1008d000a0b79f0090b79f0080b79f0000067800e8
:1008e0004fb09700000140000000e00006003d000e
:1008f0003c0007000f074700450007000f004000bd
:10090000beff070005003700360007000f0747004d
:100910003f0007000f004000cbff07004fb79700d4
:100920000e00e0000c0035005fb29700efb29700b8
:100930007fb397008fbb97001000200001002000bc
:100940006011b8000002720081827200020373001d
:10095000838373001c0007000c06e80001042000dc
:10096000810f5600deff3a000e00e00005003d005a
:100970000802be000a03be0000fe2f000f00400068
:100980009eff07000d00e00005003a000fb297003f
:100990009fb297002fb39700bfb397000a000700dc
:1009a0005fb09700efb097007fb197008fb99700c5
:1009b0004f0778004f06be004f05be004f04be0033
:1009c0004f01b10000000600010007000000060012
:1009d00094b79f00a5b79f00b6b79f00c7b79f0009
:1009e000000006009fb097004f08de000201700073
:1009f000a2b79f000fb097004f01de00818040003a
:100a00008100710091b79f000efe2f0000000600cc
:100a1000de0078004f09de00000040000000710099
:100a200080b79f006fa897004f01de0081804000d3
:100a3000010f71000e0007004f3ade000000400079
:100a400004007000e0af9f000900070004024200ac
:100a500085824a0006034b0087834b00dcff0700ba
:100a60000802be000a03be0000fe2f0000000600c0
:100a70001fb29700afb297003fb39700cfb3970074
:100a800000000600881f780018002000881f7800ea
:100a900080ff07008f87e9004f0478000000060000
:100aa000801feb007bff07008f87e9000000060036
:100ab000889fbe008a9fbe00e00f5000e08f580064
:100ac000e00f5900e08f59000c003d006044b80071
:100ad0006055b8000000540081805c0002015d0098
:100ae00083815d00180020001500070008003d000c
:100af000180007000004eb00050037000004eb00bd
:100b00000f00070002003d0012000700180020003f
:100b1000dcff07000800e000060032006022b80099
:100b20006033b8000000520081805a0002015b006f
:100b300083815b004f05be004f04be00000006002d
:100b4000e00f5200e08f5a00e00f5b00e08f5b0087
:100b5000000006006044b8006055b800040254006c
:100b600085825c0006035d0087835d00000006004f
:100b7000889fbe008a9fbe008c1f7800e00f500047
:100b8000e08f5800e00f5900e08f59000d003d0044
:100b90006044b8006055b8000000540081805c00db
:100ba00002015d0083815d001c0020000820e1003f
:100bb00009a8e1000ab0e1000bb8e1000d003d001a
:100bc000080037000006eb00e00f5200e08f5a00eb
:100bd000e00f5b00e08f5b0006003d006044b80062
:100be0006055b8000402540085825c0006035d0075
:100bf00087835d00aaff07000c00e00006003200ba
:100c00006022b8006033b8000000520081805a00b2
:100c100002015b0083815b004f0678004f05be0038
:100c20004f04be0000000600889fbe008a9fbe00e1
:100c30008c1f78000006eb00e00f5000e08f58009a
:100c4000e00f5900e08f590007003d006044b800f4
:100c50006055b8000000540081805c0002015d0016
:100c600083815d001c002000e00f5200e08f5a00dd
:100c7000e00f5b00e08f5b0007003d006044b800c0
:100c80006055b8000402540085825c0006035d00d4
:100c900087835d000c00a2000c0007000c00e00040
:100ca000060032006022b8006033b8000000520035
:100cb00081805a0002015b0083815b004f0678004f
:100cc0004f05be004f04be0000000600889fbe0016
:100cd0008a9fbe008c9fbe000404b8000506b800c1
:100ce0008904460060854e000606b8000a054600e5
:100cf000e0854e000706b8008b054600040eb800dc
:100d0000890446000a854e00e0854d00050eb800b6
:100d10000a0546008b854e00060eb8008b0546007e
:100d20000416b8000a0546008b854e000516b8006b
:100d30008b054600041eb8008b0546000800be0067
:100d40000a01be004f06be004f05be004f04be00a4
:100d500000000600010037000201e9000200e00087
:100d60000500320030427800b1417800834f5200d4
:100d7000f9ff320001003700000005000480fb008d
:100d80008381fb0003005000000006008001780012
:100d900002003700b15978000201e9000200e000ca
:100da000fcff3a0000000600889fbe008a9fbe003c
:100db000800478000200e0005a0032000140780010
:100dc000814c780082814400f1f99f00e20f5100cc
:100dd0005400360091449800a1449800e1f99f0026
:100de000d1f99f00e60f51004e003600b144980043
:100df000c1f99f00e80f51004a0036000905ea00da
:100e0000630565000a8444000a055100c1ff2f00f4
:100e1000010565000080fb008000eb00121020003f
:100e2000131020005b000700008cbe000a01440084
:100e300060b99f0071b99f00e80f55003900360076
:100e40002004980031049800400498005104980050
:100e500020b99f0031b99f0040b99f0051b99f0050
:100e6000f80f55002f0036006004980071049800b8
:100e7000000c9800110c9800200c9800310c980080
:100e8000400c9800510c980020b19f0031b19f0098
:100e900040b19f0051b19f0060b19f0071b19f00b0
:100ea00000b99f0011b99f006401640078014100fe
:100eb00002044400020555006011b8000203be00a0
:100ec0000002be000403be006022b80000007200f1
:100ed0008180720002017300838173000f0037006c
:100ee00008027800009abe00029abe00009abe0076
:100ef0000292be00000c9800110c9800220c980081
:100f0000330c9800400c9800510c9800620c98002b
:100f1000730c98000a02b1000802b000ff0f5500e0
:100f2000efff3e00090078004f05be004f04be00f1
:100f30000000060080007800040037003104e00063
:100f400002003a0000005100000006000101780094
:100f50000108a300f9ff3a0081017800310178000f
:100f6000f4ef2f00020242000281ea000201620057
:100f70000408280004016100f7ff320083007800b4
:100f8000010178003104e000fdff3a00000051004b
:100f900000000600020ab900001bb9000200b800f8
:0c0fa000810042008100430000000600b8
:020000040000fa
:100fac000000000000000000000000000000000035
:100fbc000000000000000000000000000000000025
:100fcc000000000000000000000000000000000015
:100fdc000000000000000000000000000000000005
:100fec0000000000000000000000000000000000f5
:100ffc0000000000000000000000000000000000e5
:10100c0000000000000000000000000000000000d4
:10101c0000000000000000000000000000000000c4
:10102c0000000000000000000000000000000000b4
:10103c0000000000000000000000000000000000a4
:10104c000000000000000000000000000000000094
:10105c000000000000000000000000000000000084
:10106c000000000000000000000000000000000074
:10107c000000000000000000000000000000000064
:10108c000000000000000000000000000000000054
:10109c00084200003ce70000084200000842000043
:1010ac003ce7000008420000084200003ce700005a
:1010bc0008420000084200003ce700000842000023
:1010cc0004210000dbde00000842000004210000c7
:1010dc0079ce000004210000000000000000000098
:1010ec0000000000084200003ce70000084200003d
:1010fc00084200003ce7000008420000000000002d
:10110c0000000000000000000000000000000000d3
:10111c0000000000000000000000000000000000c3
:10112c0000000000000000000000000000000000b3
:10113c0000000000000000000000000000000000a3
:10114c000000000000000000000000000000000093
:10115c00000000000000000000000000eb5a00003e
:10116c003ce70000284200003ce70000eb5a00007e
:10117c0008420000dbde000028420000dbde00003d
:10118c00084200000842000018c60000242100009c
:10119c0018c600000842000004210000b6b500008b
:1011ac002421000018c600000842000000000000c6
:1011bc000000000000000000000000000000000023
:1011cc000000000000000000000000000000000013
:1011dc000000000000000000000000000000000003
:1011ec0000000000000000000000000000000000f3
:1011fc0000000000000000000000000000000000e3
:10120c0000000000000000000000000000000000d2
:10121c0000000000000000000000000000000000c2
:10122c0000000000000000000000000000000000b2
:10123c0000000000000000000000000000000000a2
:10124c000000000000000000000000000000000092
:10125c000000000000000000000000000000000082
:10126c000000000000000000000000000000000072
:10127c000000000000000000000000000000000062
:10128c000000000000000000000000000000000052
:10129c000000000000000000000000000000000042
:1012ac000000000000000000000000000000000032
:1012bc000000000000000000000000000000000022
:1012cc000000000000000000000000000000000012
:1012dc000000000000000000000000000000000002
:1012ec0000000000000000000000000000000000f2
:1012fc000000000000000000000000008210000050
:10130c00b6b50000a6310000b6b5000004210000ff
:10131c0000000000000000000000000000000000c1
:10132c000842000034a500000842000034a500006b
:10133c00000000000000000000000000eb5a00005c
:10134c00ffff0000ffff0000ffff0000ffff000099
:10135c00ffff00009ef700000842000000000000a4
:10136c00000000000000000034a50000084200004e
:10137c0034a500000842000000000000000000003e
:10138c00000000000000000004210000b6b50000c1
:10139c0024210000f39c00008210000000000000db
:1013ac0000000000042100003ce70000ffff0000eb
:1013bc00ffff0000ffff0000ffff0000ffff000029
:1013cc00eb5a0000000000000000000000000000cc
:1013dc00718c0000eb5a0000718c0000eb5a00007d
:1013ec0000000000000000000000000000000000f1
:1013fc000000000034a500000842000034a50000e5
:10140c000842000000000000000000000000000086
:10141c000000000004210000b6b50000a631000059
:10142c00b6b50000821000000000000000000000b3
:10143c0000000000000000000000000000000000a0
:10144c000000000000000000000000000000000090
:10145c000000000000000000000000000000000080
:10146c000000000000000000000000000000000070
:10147c000000000000000000000000000000000060
:10148c000000000000000000000000000000000050
:10149c000000000000000000000000000000000040
:1014ac000000000000000000000000000000000030
:1014bc000000000000000000000000000000000020
:1014cc000000000000000000000000000000000010
:1014dc000000000000000000000000000000000000
:1014ec0000000000000000000000000000000000f0
:1014fc0000000000000000000000000000000000e0
:10150c00d39c00000421000000000000000000003b
:10151c00000000000000000000000000d39c000050
:10152c00042100000000000000000000000000008a
:10153c00084200009ef70000ffff0000ffff0000c4
:10154c003ce7000004210000084200003ce70000da
:10155c0008420000d39c00000421000034a50000c8
:10156c0008420000eb5a00003ce700000421000098
:10157c00d39c0000042100000000000000000000cb
:10158c008210000079ce0000ffff00003ce7000055
:10159c00042100000000000000000000000000001a
:1015ac00000000000000000096b50000ffff0000e6
:1015bc009ef7000008420000000000000000000040
:1015cc0000000000d39c00000421000096b5000030
:1015dc00718c0000eb5a0000718c000000000000c0
:1015ec00d39c0000a631000079ce0000eb5a00001d
:1015fc00084200009ef70000ffff0000ffff000004
:10160c00ffff0000eb5a000000000000000000008b
:10161c000000000000000000d39c0000042100002a
:10162c0000000000000000000000000000000000ae
:10163c0000000000d39c000004210000000000000a
:10164c00000000000000000000000000000000008e
:10165c00000000000000000000000000000000007e
:10166c00000000000000000000000000000000006e
:10167c00000000000000000000000000000000005e
:10168c00000000000000000000000000000000004e
:10169c00000000000000000000000000000000003e
:1016ac00000000000000000000000000000000002e
:1016bc00000000000000000000000000000000001e
:1016cc00000000000000000000000000000000000e
:1016dc0000000000000000000000000000000000fe
:1016ec0000000000000000000000000000000000ee
:1016fc0000000000000000000000000000000000de
:10170c0000000000000000000000000000000000cd
:10171c0000000000000000000000000000000000bd
:10172c008210000079ce0000ffff00009ef7000041
:10173c00084200000000000000000000eb5a00000e
:10174c0096b5000000000000000000000000000042
:10175c00eb5a000079ce000082100000eb5a00001a
:10176c0079ce0000821000008210000018c6000024
:10177c000842000000000000000000000000000013
:10178c00718c000096b500000000000008420000bb
:10179c0018c6000082100000eb5a0000718c00008b
:1017ac00000000000000000000000000000000002d
:1017bc00eb5a000079ce000082100000eb5a0000ba
:1017cc0079ce0000a631000079ce00000421000083
:1017dc0000000000000000000000000000000000fd
:1017ec008210000079ce0000ffff00009ef7000081
:1017fc0008420000718c0000718c0000084200004f
:10180c009ef70000ffff000079ce00008210000060
:10181c0000000000000000000000000000000000bc
:10182c000421000079ce0000a631000079ce000022
:10183c00eb5a00008210000079ce0000eb5a000039
:10184c00000000000000000000000000000000008c
:10185c00718c0000718c00008210000018c6000012
:10186c00084200000000000096b50000718c0000da
:10187c000000000000000000000000000421000037
:10188c0079ce0000042100008210000079ce000007
:10189c00eb5a00008210000079ce0000eb5a0000d9
:1018ac0000000000000000000000000096b50000e1
:1018bc00718c0000000000000000000008420000d5
:1018cc009ef70000ffff000096b50000000000002e
:1018dc0000000000000000000000000000000000fc
:1018ec0000000000000000000000000000000000ec
:1018fc0000000000000000000000000000000000dc
:10190c0000000000000000000000000000000000cb
:10191c0000000000000000000000000000000000bb
:10192c0000000000000000000000000000000000ab
:10193c00000000000000000000000000000000009b
:10194c00000000000000000000000000000000008b
:10195c00000000000000000000000000000000007b
:10196c00000000000000000000000000000000006b
:10197c00000000000000000000000000000000005b
:10198c00000000000000000000000000000000004b
:10199c00000000000000000000000000000000003b
:1019ac00000000000000000000000000000000002b
:1019bc00000000000000000000000000000000001b
:1019cc00000000000000000000000000000000000b
:1019dc0000000000000000000000000000000000fb
:1019ec0000000000000000000000000000000000eb
:1019fc0000000000000000000000000000000000db
:101a0c0000000000084200009ef70000ffff0000ed
:101a1c00ffff0000eb5a0000000000000000000077
:101a2c000000000000000000042100003ce7000062
:101a3c00eb5a000000000000718c00003ce7000035
:101a4c000421000000000000000000000000000065
:101a5c00042100003ce70000eb5a000000000000ed
:101a6c00eb5a000079ce000082100000000000004c
:101a7c00000000000000000000000000eb5a000015
:101a8c00ffff0000f39c00003ce700000842000050
:101a9c00000000000000000000000000000000003a
:101aac0000000000718c0000d39c000079ce000077
:101abc0096b5000000000000718c000079ce00008b
:101acc008210000000000000eb5a000079ce0000ec
:101adc00821000008210000079ce000096b5000044
:101aec00718c000096b500000000000000000000a2
:101afc00718c000079ce0000821000000000000004
:101b0c008210000079ce0000ffff0000eb5a0000ad
:101b1c000000000000000000eb5a0000ffff000076
:101b2c00eb5a00000000000000000000718c000067
:101b3c00ffff000079ce00008210000000000000c2
:101b4c0000000000eb5a0000ffff0000ffff000048
:101b5c00ffff0000718c00008210000079ce0000a5
:101b6c00ffff0000eb5a0000000000000000000026
:101b7c000000000000000000000000000000000059
:101b8c000000000000000000000000000000000049
:101b9c000000000000000000000000000000000039
:101bac000000000000000000000000000000000029
:101bbc000000000000000000000000000000000019
:101bcc000000000000000000000000000000000009
:101bdc0000000000000000000000000000000000f9
:101bec0000000000000000000000000000000000e9
:101bfc0000000000000000000000000000000000d9
:101c0c0000000000084200003ce700000842000011
:101c1c0004210000dbde000008420000042100006b
:101c2c0079ce0000042100000421000079ce0000d0
:101c3c000421000000000000000000000000000073
:101c4c000000000000000000000000000000000088
:101c5c000000000000000000000000000000000078
:101c6c000000000000000000000000000000000068
:101c7c000000000000000000000000000000000058
:101c8c000000000000000000000000000000000048
:101c9c000000000000000000000000000000000038
:101cac000000000000000000000000000000000028
:101cbc000000000000000000000000000000000018
:101ccc000000000000000000000000000000000008
:101cdc0000000000000000000000000000000000f8
:101cec0000000000eb5a0000ffff0000eb5a000060
:101cfc000000000004210000dbde000008420000b0
:101d0c000000000000000000718c000096b500007f
:101d1c0000000000000000008210000018c6000047
:101d2c000842000000000000000000000842000013
:101d3c00dbde0000042100000000000000000000b9
:101d4c00eb5a000096b500000000000000000000f7
:101d5c0000000000eb5a000096b5000000000000e7
:101d6c000000000000000000eb5a000096b50000d7
:101d7c00000000000000000000000000084200000d
:101d8c0018c60000821000000000000000000000d7
:101d9c008210000018c6000008420000000000007d
:101dac000000000000000000718c000096b50000df
:101dbc0000000000000000000000000004210000f2
:101dcc00dbde000008420000000000000000000004
:101ddc0000000000eb5a0000ffff0000eb5a00006f
:101dec0000000000000000000000000000000000e7
:101dfc0000000000000000000000000000000000d7
:101e0c0000000000000000000000000000000000c6
:101e1c00000000000000000000000000eb5a000071
:101e2c00ffff0000eb5a0000000000000000000063
:101e3c000000000008420000dbde0000042100006e
:101e4c0000000000000000000000000096b500003b
:101e5c00718c000000000000000000000000000079
:101e6c000842000018c600008210000000000000ac
:101e7c00000000008210000018c60000084200009c
:101e8c0000000000000000000000000096b50000fb
:101e9c00eb5a0000000000000000000000000000f1
:101eac0096b50000eb5a0000000000000000000096
:101ebc000000000096b50000eb5a00000000000086
:101ecc00000000008210000018c60000084200004c
:101edc0000000000000000000842000018c60000ce
:101eec0082100000000000000000000096b5000009
:101efc00718c00000000000000000000084200008f
:101f0c00dbde00000421000000000000eb5a0000a2
:101f1c00ffff0000eb5a0000000000000000000072
:101f2c0000000000000000000000000000000000a5
:101f3c000000000000000000000000000000000095
:101f4c000000000000000000000000000000000085
:101f5c000000000000000000000000000000000075
:101f6c000000000000000000000000000000000065
:101f7c000000000000000000000000000000000055
:101f8c00000000000000000000000000eb5a000000
:101f9c00718c000000000000000000000000000038
:101fac008210000079ce00003ce700001084000095
:101fbc0055ad00003ce7000079ce00008210000017
:101fcc000000000000000000042100003ce70000bd
:101fdc003ce70000042100000000000000000000ad
:101fec008210000079ce00003ce700001084000055
:101ffc0055ad00003ce7000079ce000082100000d7
:10200c00000000000000000000000000eb5a00007f
:10201c00718c0000000000000000000000000000b7
:10202c0000000000000000000000000000000000a4
:10203c000000000000000000000000000000000094
:10204c000000000000000000000000000000000084
:10205c000000000000000000000000000000000074
:10206c000000000000000000000000000000000064
:10207c000000000000000000000000000000000054
:10208c000000000000000000000000000000000044
:10209c000000000000000000000000000000000034
:1020ac000000000000000000000000000000000024
:1020bc000000000000000000000000000000000014
:1020cc000000000000000000000000000000000004
:1020dc0000000000000000000000000000000000f4
:1020ec0000000000000000000000000000000000e4
:1020fc0000000000000000000000000000000000d4
:10210c0000000000000000000000000000000000c3
:10211c0000000000000000000000000000000000b3
:10212c0000000000000000000000000000000000a3
:10213c000000000000000000000000000000000093
:10214c000000000000000000000000000000000083
:10215c000000000000000000000000000000000073
:10216c000000000000000000000000000000000063
:10217c000000000000000000000000000000000053
:10218c000000000000000000000000000000000043
:10219c000000000000000000000000000000000033
:1021ac000000000000000000000000000000000023
:1021bc000000000000000000000000000000000013
:1021cc000000000000000000000000000000000003
:1021dc0000000000000000000000000000000000f3
:1021ec000842000018c60000821000000000000029
:1021fc0000000000000000000000000000000000d3
:10220c00000000000842000018c600008210000008
:10221c0000000000000000000000000000000000b2
:10222c0000000000000000000842000018c600007a
:10223c008210000000000000000000000000000000
:10224c00084200009ef70000ffff0000ffff0000a7
:10225c00ffff0000ffff0000ffff00003ce7000055
:10226c00042100000000000000000000000000003d
:10227c000842000018c60000821000000000000098
:10228c000000000000000000000000000000000042
:10229c00000000000842000018c600008210000078
:1022ac000000000000000000000000000000000022
:1022bc0000000000000000000842000018c60000ea
:1022cc008210000000000000000000000000000070
:1022dc0000000000000000000000000000000000f2
:1022ec0000000000000000000000000000000000e2
:1022fc0000000000000000000000000000000000d2
:10230c0000000000000000000000000000000000c1
:10231c0000000000000000000000000000000000b1
:10232c0000000000000000000000000000000000a1
:10233c000000000000000000000000000000000091
:10234c000000000000000000000000000000000081
:10235c000000000000000000000000000000000071
:10236c000000000000000000000000000000000061
:10237c000000000000000000000000000000000051
:10238c000000000000000000000000000000000041
:10239c000000000000000000000000000000000031
:1023ac000000000000000000000000000000000021
:1023bc000000000000000000000000000000000011
:1023cc000000000000000000000000000000000001
:1023dc0000000000000000000000000000000000f1
:1023ec0000000000000000000000000000000000e1
:1023fc0000000000000000000000000000000000d1
:10240c0000000000000000000000000000000000c0
:10241c0000000000718c00003ce70000042100006b
:10242c008210000079ce0000718c000000000000ca
:10243c00084200003ce700000842000000000000d9
:10244c00eb5a000096b500000000000000000000f0
:10245c000000000000000000000000000000000070
:10246c000000000000000000000000000000000060
:10247c000000000000000000000000000000000050
:10248c000000000000000000000000000000000040
:10249c000000000000000000000000000000000030
:1024ac000000000000000000000000000000000020
:1024bc000000000000000000000000000000000010
:1024cc000000000000000000000000000000000000
:1024dc0000000000000000000000000000000000f0
:1024ec0000000000000000000000000000000000e0
:1024fc0000000000000000000000000000000000d0
:10250c00718c0000ffff0000ffff00009ef7000031
:10251c000842000000000000000000000000000065
:10252c00000000000000000000000000000000009f
:10253c00000000000000000000000000000000008f
:10254c00000000000000000000000000000000007f
:10255c00000000000000000000000000000000006f
:10256c00000000000000000000000000000000005f
:10257c00000000000000000000000000000000004f
:10258c00000000000000000000000000000000003f
:10259c00000000000000000000000000000000002f
:1025ac00000000000000000000000000000000001f
:1025bc00000000000000000000000000000000000f
:1025cc0000000000000000000000000000000000ff
:1025dc0000000000000000000000000000000000ef
:1025ec0000000000000000000000000000000000df
:1025fc0000000000000000000000000000000000cf
:10260c0000000000000000000000000000000000be
:10261c0000000000000000000000000000000000ae
:10262c00000000008210000079ce000096b500007a
:10263c008210000079ce000096b50000000000006a
:10264c00000000000000000000000000000000007e
:10265c00000000000000000000000000000000006e
:10266c00000000000000000000000000000000005e
:10267c00000000000000000000000000000000004e
:10268c00000000000000000000000000000000003e
:10269c00000000000000000000000000000000002e
:1026ac00000000000000000000000000000000001e
:1026bc000000000000000000718c0000718c000014
:1026cc00000000000000000000000000821000006c
:1026dc0018c60000084200000000000000000000c6
:1026ec00000000000842000018c600008210000024
:1026fc00000000000000000000000000718c0000d1
:10270c00718c0000000000000000000000000000c0
:10271c008210000018c600000842000000000000f3
:10272c0000000000000000000842000018c6000075
:10273c0082100000000000000000000000000000fb
:10274c00718c0000718c0000000000000000000083
:10275c00000000008210000018c6000008420000b3
:10276c000000000000000000000000000421000038
:10277c0079ce0000042100000000000000000000e1
:10278c0000000000eb5a000096b5000000000000ad
:10279c0000000000000000000000000096b50000e2
:1027ac00eb5a0000000000000000000000000000d8
:1027bc000421000079ce000004210000000000007c
:1027cc0000000000000000000000000000000000fd
:1027dc0000000000000000000000000000000000ed
:1027ec0000000000000000000000000000000000dd
:1027fc0000000000000000000000000000000000cd
:10280c0000000000000000000000000000000000bc
:10281c0000000000000000000000000000000000ac
:10282c00000000000000000000000000000000009c
:10283c00000000000000000000000000000000008c
:10284c00000000000000000000000000000000007c
:10285c0000000000084200009ef70000ffff00008f
:10286c003ce7000004210000000000008210000082
:10287c0079ce0000eb5a000000000000eb5a00007b
:10288c0079ce000082100000084200003ce70000f6
:10289c00084200000000000008420000dbde0000df
:1028ac000421000008420000dbde000004210000cf
:1028bc0000000000084200003ce700000842000055
:1028cc00eb5a00003ce7000004210000000000006f
:1028dc0004210000dbde000008420000084200007a
:1028ec00dbde0000042100000000000008420000b4
:1028fc003ce7000008420000084200003ce70000f2
:10290c00084200000000000008420000dbde00006e
:10291c00042100008210000079ce0000eb5a000068
:10292c0000000000eb5a000079ce0000821000007d
:10293c0000000000042100003ce70000ffff000045
:10294c003ce7000004210000000000000000000033
:10295c00000000000000000000000000000000006b
:10296c00000000000000000000000000000000005b
:10297c00000000000000000000000000000000004b
:10298c00000000000000000000000000000000003b
:10299c00000000000000000000000000000000002b
:1029ac00000000000000000000000000000000001b
:1029bc00000000000000000000000000000000000b
:1029cc0000000000000000000000000000000000fb
:1029dc0000000000000000000000000000000000eb
:1029ec0000000000000000000000000000000000db
:1029fc0000000000000000000000000000000000cb
:102a0c000000000004210000dbde00000842000092
:102a1c00000000000000000096b50000ffff000061
:102a2c009ef70000084200000000000000000000bb
:102a3c000000000004210000dbde00000842000062
:102a4c000000000000000000000000000421000055
:102a5c00dbde000008420000000000000000000067
:102a6c000000000004210000dbde00000842000032
:102a7c000000000000000000000000000421000025
:102a8c00dbde000008420000000000000000000037
:102a9c000000000004210000dbde00000842000002
:102aac0000000000000000000000000004210000f5
:102abc00dbde000008420000000000000000000007
:102acc0096b50000ffff0000ffff0000ffff0000b5
:102adc0079ce000082100000000000000000000011
:102aec0000000000000000000000000000000000da
:102afc0000000000000000000000000000000000ca
:102b0c0000000000000000000000000000000000b9
:102b1c0000000000000000000000000000000000a9
:102b2c000000000000000000000000000000000099
:102b3c000000000000000000000000000000000089
:102b4c000000000000000000000000000000000079
:102b5c000000000000000000000000000000000069
:102b6c000000000000000000000000000000000059
:102b7c000000000000000000000000000000000049
:102b8c000000000000000000000000000000000039
:102b9c00042100003ce70000ffff0000ffff0000e5
:102bac009ef70000084200000000000008420000f0
:102bbc0034a500000000000000000000718c000033
:102bcc0079ce000082100000000000000000000020
:102bdc000000000000000000eb5a00003ce7000081
:102bec0004210000000000000000000000000000b4
:102bfc0000000000718c000079ce000082100000f3
:102c0c00000000000000000000000000084200006e
:102c1c009ef70000eb5a00000000000000000000ce
:102c2c0000000000042100003ce70000718c000053
:102c3c000000000000000000000000000421000063
:102c4c003ce70000718c0000000000000000000058
:102c5c0000000000042100003ce70000718c000023
:102c6c000000000000000000000000000000000058
:102c7c00eb5a0000ffff0000ffff0000ffff000009
:102c8c00ffff0000ffff0000718c0000000000003f
:102c9c000000000000000000000000000000000028
:102cac000000000000000000000000000000000018
:102cbc000000000000000000000000000000000008
:102ccc0000000000000000000000000000000000f8
:102cdc0000000000000000000000000000000000e8
:102cec0000000000000000000000000000000000d8
:102cfc0000000000000000000000000000000000c8
:102d0c0000000000000000000000000000000000b7
:102d1c0000000000000000000000000000000000a7
:102d2c000000000000000000000000000000000097
:102d3c000000000000000000000000000000000087
:102d4c000000000000000000000000000000000077
:102d5c008210000079ce0000ffff0000ffff000092
:102d6c009ef700000842000000000000084200002e
:102d7c0034a500000000000000000000718c000071
:102d8c0079ce00008210000000000000000000005e
:102d9c00000000000000000008420000dbde000024
:102dac0004210000000000000000000000000000f2
:102dbc000000000096b50000718c000000000000bf
:102dcc000000000000000000718c0000ffff0000fc
:102ddc009ef7000008420000000000000000000008
:102dec00000000000000000000000000eb5a000092
:102dfc003ce700000421000000000000000000007f
:102e0c000000000000000000084200003ce7000049
:102e1c0008420000eb5a0000eb5a000000000000d2
:102e2c0000000000718c000079ce000082100000c0
:102e3c00084200009ef70000ffff0000ffff0000ab
:102e4c003ce700000421000000000000000000002e
:102e5c000000000000000000000000000000000066
:102e6c000000000000000000000000000000000056
:102e7c000000000000000000000000000000000046
:102e8c000000000000000000000000000000000036
:102e9c000000000000000000000000000000000026
:102eac000000000000000000000000000000000016
:102ebc000000000000000000000000000000000006
:102ecc0000000000000000000000000000000000f6
:102edc0000000000000000000000000000000000e6
:102eec0000000000000000000000000000000000d6
:102efc0000000000000000000000000000000000c6
:102f0c0000000000000000000000000000000000b5
:102f1c0000000000000000000000000000000000a5
:102f2c000000000000000000000000000000000095
:102f3c00eb5a00009ef70000084200000000000061
:102f4c00000000000000000000000000084200002b
:102f5c009ef700009ef700000842000000000000f1
:102f6c00000000000000000004210000dbde000077
:102f7c002c630000dbde00000842000000000000b3
:102f8c00000000008210000079ce0000eb5a000017
:102f9c0004210000dbde00000842000000000000fd
:102fac000000000096b5000096b50000000000007f
:102fbc0004210000dbde00000842000000000000dd
:102fcc008210000079ce0000ffff0000ffff000020
:102fdc00ffff0000ffff0000ffff0000eb5a0000a6
:102fec0000000000000000000000000000000000d5
:102ffc0004210000dbde000008420000000000009d
:10300c0000000000000000000000000000000000b4
:10301c0004210000dbde000008420000000000007c
:10302c000000000000000000000000000000000094
:10303c0004210000dbde000008420000000000005c
:10304c000000000000000000000000000000000074
:10305c000000000000000000000000000000000064
:10306c000000000000000000000000000000000054
:10307c000000000000000000000000000000000044
:10308c000000000000000000000000000000000034
:10309c000000000000000000000000000000000024
:1030ac000000000000000000000000000000000014
:1030bc000000000000000000000000000000000004
:1030cc0000000000000000000000000000000000f4
:1030dc0000000000000000000000000000000000e4
:1030ec0000000000000000000000000000000000d4
:1030fc0000000000000000000000000000000000c4
:10310c0000000000000000000000000000000000b3
:10311c008210000079ce0000ffff0000ffff0000ce
:10312c00ffff0000ffff0000eb5a000082100000c0
:10313c0079ce0000eb5a00000000000000000000f7
:10314c0000000000000000008210000079ce00009a
:10315c00eb5a00000000000000000000000000001e
:10316c00000000008210000079ce0000ffff00007c
:10317c00ffff0000ffff0000eb5a00000000000002
:10318c000000000000000000000000000000000033
:10319c00718c00009ef70000084200000000000047
:1031ac0000000000000000000000000004210000ee
:1031bc003ce70000eb5a000000000000000000009b
:1031cc000000000000000000042100003ce70000ab
:1031dc00eb5a00000842000034a50000000000007b
:1031ec0000000000718c00003ce70000042100008e
:1031fc00042100003ce70000ffff0000ffff00007f
:10320c003ce700000421000000000000000000006a
:10321c0000000000000000000000000000000000a2
:10322c000000000000000000000000000000000092
:10323c000000000000000000000000000000000082
:10324c000000000000000000000000000000000072
:10325c000000000000000000000000000000000062
:10326c000000000000000000000000000000000052
:10327c000000000000000000000000000000000042
:10328c000000000000000000000000000000000032
:10329c000000000000000000000000000000000022
:1032ac000000000000000000000000000000000012
:1032bc000000000000000000000000000000000002
:1032cc0000000000000000000000000000000000f2
:1032dc000000000000000000eb5a0000ffff00009f
:1032ec00ffff000079ce00008210000000000000fb
:1032fc00eb5a00003ce70000042100000000000035
:10330c0000000000000000008210000079ce0000d8
:10331c00eb5a00000000000000000000000000005c
:10332c0000000000084200003ce700003ce7000001
:10333c00ffff0000ffff0000eb5a00000000000040
:10334c00eb5a00009ef7000008420000000000004d
:10335c00eb5a00003ce7000004210000eb5a00008f
:10336c003ce70000042100000000000004210000e4
:10337c003ce70000eb5a0000084200003ce700006c
:10338c00084200000000000004210000dbde000009
:10339c00084200008210000079ce0000718c000001
:1033ac0000000000718c00003ce7000004210000cc
:1033bc0000000000042100003ce70000ffff0000bb
:1033cc009ef7000008420000000000000000000012
:1033dc0000000000000000000000000000000000e1
:1033ec0000000000000000000000000000000000d1
:1033fc0000000000000000000000000000000000c1
:10340c0000000000000000000000000000000000b0
:10341c0000000000000000000000000000000000a0
:10342c000000000000000000000000000000000090
:10343c000000000000000000000000000000000080
:10344c000000000000000000000000000000000070
:10345c000000000000000000000000000000000060
:10346c000000000000000000000000000000000050
:10347c000000000000000000000000000000000040
:10348c000000000000000000000000000000000030
:10349c00eb5a0000ffff0000ffff0000ffff0000e1
:1034ac00ffff0000ffff000096b5000000000000c9
:1034bc00000000000000000000000000821000006e
:1034cc0079ce0000718c00000000000000000000ac
:1034dc000000000000000000eb5a00003ce7000078
:1034ec0004210000000000000000000000000000ab
:1034fc008210000079ce0000718c000000000000ea
:10350c00000000000000000000000000eb5a00006a
:10351c003ce7000004210000000000000000000057
:10352c0000000000042100003ce70000eb5a000002
:10353c00000000000000000000000000000000007f
:10354c00718c000079ce0000821000000000000099
:10355c000000000000000000042100003ce7000017
:10356c00eb5a00000000000000000000000000000a
:10357c000000000096b5000079ce0000821000001b
:10358c00000000000000000000000000000000002f
:10359c00000000000000000000000000000000001f
:1035ac00000000000000000000000000000000000f
:1035bc0000000000000000000000000000000000ff
:1035cc0000000000000000000000000000000000ef
:1035dc0000000000000000000000000000000000df
:1035ec0000000000000000000000000000000000cf
:1035fc0000000000000000000000000000000000bf
:10360c0000000000000000000000000000000000ae
:10361c00000000000000000000000000000000009e
:10362c00000000000000000000000000000000008e
:10363c00000000000000000000000000000000007e
:10364c00000000000000000000000000000000006e
:10365c0000000000084200009ef70000ffff000081
:10366c009ef700000842000000000000042100004a
:10367c003ce70000eb5a000000000000718c0000d9
:10368c003ce700000421000004210000dbde000008
:10369c00084200000000000008420000dbde0000d1
:1036ac00042100000000000096b500003ce700007b
:1036bc0004210000718c000096b500000000000091
:1036cc0000000000eb5a000079ce00003ce700003f
:1036dc00ffff0000eb5a0000000000000842000051
:1036ec003ce700000842000000000000eb5a00001c
:1036fc009ef7000008420000eb5a00003ce7000077
:10370c000421000000000000042100003ce7000040
:10371c00eb5a0000084200009ef70000eb5a000034
:10372c0000000000eb5a00003ce700000421000000
:10373c0000000000eb5a0000ffff0000ffff00003c
:10374c009ef700000842000000000000000000008e
:10375c00000000000000000000000000000000005d
:10376c00000000000000000000000000000000004d
:10377c00000000000000000000000000000000003d
:10378c00000000000000000000000000000000002d
:10379c00000000000000000000000000000000001d
:1037ac00000000000000000000000000000000000d
:1037bc0000000000000000000000000000000000fd
:1037cc0000000000000000000000000000000000ed
:1037dc0000000000000000000000000000000000dd
:1037ec0000000000000000000000000000000000cd
:1037fc0000000000000000000000000000000000bd
:10380c0000000000000000000000000000000000ac
:10381c0000000000084200009ef70000ffff0000bf
:10382c003ce700000421000000000000042100001f
:10383c003ce70000eb5a00000000000096b50000c9
:10384c0079ce000082100000eb5a00003ce700002b
:10385c000421000000000000084200003ce70000ca
:10386c0008420000eb5a00003ce700000421000075
:10387c0000000000084200003ce700000842000085
:10388c00084200009ef70000eb5a00000000000008
:10389c00084200003ce70000084200000000000065
:1038ac00eb5a0000ffff0000ffff0000ffff0000cd
:1038bc009ef700000842000000000000000000001d
:1038cc000000000000000000eb5a000079ce000060
:1038dc00821000000000000000000000000000004a
:1038ec00084200009ef70000eb5a000000000000a8
:1038fc00042100003ce70000ffff00009ef70000e1
:10390c000842000000000000000000000000000061
:10391c00000000000000000000000000000000009b
:10392c00000000000000000000000000000000008b
:10393c00000000000000000000000000000000007b
:10394c00000000000000000000000000000000006b
:10395c00000000000000000000000000000000005b
:10396c00000000000000000000000000000000004b
:10397c00000000000000000000000000000000003b
:10398c00000000000000000000000000000000002b
:10399c00000000000000000000000000000000001b
:1039ac000000000000000000084200009ef700002c
:1039bc00eb5a0000084200009ef70000eb5a000092
:1039cc0000000000000000000000000000000000eb
:1039dc0000000000000000000000000000000000db
:1039ec0000000000084200009ef70000eb5a0000a7
:1039fc00084200009ef70000eb5a00000000000097
:103a0c0000000000000000000000000000000000aa
:103a1c00000000000000000000000000000000009a
:103a2c00000000000000000000000000000000008a
:103a3c00000000000000000000000000000000007a
:103a4c00000000000000000000000000000000006a
:103a5c00000000000000000000000000000000005a
:103a6c00000000000000000000000000000000004a
:103a7c00000000000000000000000000000000003a
:103a8c0000000000084200009ef70000eb5a000006
:103a9c0000000000084200009ef70000eb5a0000f6
:103aac00000000000000000000000000000000000a
:103abc0000000000000000000000000000000000fa
:103acc0000000000000000000000000000000000ea
:103adc0000000000042100003ce70000718c000095
:103aec0000000000eb5a00003ce70000042100003d
:103afc0000000000718c000096b500000000000072
:103b0c008210000018c600000842000000000000ef
:103b1c000000000000000000000000000000000099
:103b2c000000000000000000000000000000000089
:103b3c000000000000000000000000000000000079
:103b4c000000000000000000000000000000000069
:103b5c000000000000000000000000000000000059
:103b6c000000000000000000000000000000000049
:103b7c000000000000000000000000000000000039
:103b8c000000000000000000000000000000000029
:103b9c000000000000000000000000000000000019
:103bac000000000000000000000000000000000009
:103bbc0000000000000000000000000000000000f9
:103bcc00eb5a000096b50000000000000000000059
:103bdc0000000000084200009ef7000096b50000af
:103bec000000000000000000084200009ef70000ea
:103bfc0079ce0000821000000000000000000000e0
:103c0c0096b5000079ce0000821000000000000084
:103c1c000000000000000000000000000000000098
:103c2c00eb5a0000ffff000096b5000000000000fa
:103c3c000000000000000000000000000000000078
:103c4c0000000000eb5a0000ffff000096b50000da
:103c5c000000000000000000000000000000000058
:103c6c000000000000000000eb5a000096b50000b8
:103c7c000000000000000000000000000000000038
:103c8c000000000000000000000000000000000028
:103c9c000000000000000000000000000000000018
:103cac000000000000000000000000000000000008
:103cbc0000000000000000000000000000000000f8
:103ccc0000000000000000000000000000000000e8
:103cdc0000000000000000000000000000000000d8
:103cec0000000000000000000000000000000000c8
:103cfc0000000000000000000000000000000000b8
:103d0c0000000000000000000000000000000000a7
:103d1c000000000000000000000000000000000097
:103d2c000000000000000000000000000000000087
:103d3c000000000000000000000000000000000077
:103d4c000000000000000000000000000000000067
:103d5c000000000000000000000000000000000057
:103d6c000000000000000000000000000000000047
:103d7c000000000000000000000000000000000037
:103d8c000000000000000000000000000000000027
:103d9c000000000000000000000000000000000017
:103dac000000000000000000000000000000000007
:103dbc0000000000000000000000000000000000f7
:103dcc0000000000000000000000000000000000e7
:103ddc000000000000000000000000008210000045
:103dec0079ce0000ffff0000ffff0000ffff000086
:103dfc00ffff0000ffff0000ffff0000eb5a000078
:103e0c0000000000000000000000000000000000a6
:103e1c000000000000000000000000000000000096
:103e2c000000000000000000000000000000000086
:103e3c000000000000000000000000000000000076
:103e4c0000000000000000008210000079ce00008d
:103e5c00ffff0000ffff0000ffff0000ffff00005e
:103e6c00ffff0000ffff0000eb5a00000000000005
:103e7c000000000000000000000000000000000036
:103e8c000000000000000000000000000000000026
:103e9c000000000000000000000000000000000016
:103eac000000000000000000000000000000000006
:103ebc0000000000000000000000000000000000f6
:103ecc0000000000000000000000000000000000e6
:103edc0000000000000000000000000000000000d6
:103eec0000000000000000000000000000000000c6
:103efc0000000000000000000000000000000000b6
:103f0c0000000000000000000000000000000000a5
:103f1c000000000000000000000000000000000095
:103f2c000000000000000000000000000000000085
:103f3c000000000000000000000000000000000075
:103f4c000000000000000000000000000000000065
:103f5c000000000000000000000000000000000055
:103f6c000000000000000000000000000000000045
:103f7c000000000000000000000000000000000035
:103f8c000000000000000000000000000000000025
:103f9c000000000000000000000000000000000015
:103fac000000000000000000000000000000000005
:103fbc0000000000000000000000000000000000f5
:103fcc0096b50000eb5a0000000000000000000055
:103fdc0000000000000000000000000000000000d5
:103fec000000000096b50000ffff0000eb5a000037
:103ffc0000000000000000000000000000000000b5
:10400c0000000000000000000000000096b5000059
:10401c00ffff0000eb5a0000000000000000000051
:10402c000000000000000000000000000000000084
:10403c000000000096b5000079ce00008210000050
:10404c0000000000000000000000000096b5000019
:10405c00ffff0000eb5a0000000000000000000011
:10406c000000000096b50000ffff0000eb5a0000b6
:10407c000000000000000000000000000000000034
:10408c0096b50000eb5a0000000000000000000094
:10409c000000000000000000000000000000000014
:1040ac000000000000000000000000000000000004
:1040bc0000000000000000000000000000000000f4
:1040cc0000000000000000000000000000000000e4
:1040dc0000000000000000000000000000000000d4
:1040ec0000000000000000000000000000000000c4
:1040fc0000000000000000000000000000000000b4
:10410c0000000000000000000000000000000000a3
:10411c000000000000000000000000000000000093
:10412c000000000000000000000000000000000083
:10413c000000000000000000000000000000000073
:10414c000000000000000000000000000000000063
:10415c000000000000000000000000000000000053
:10416c000000000000000000000000000000000043
:10417c000000000000000000000000000000000033
:10418c00eb5a0000ffff0000ffff0000ffff0000e4
:10419c00eb5a000000000000eb5a0000eb5a000044
:1041ac0000000000eb5a00003ce700000421000076
:1041bc0000000000000000000000000008420000a9
:1041cc003ce7000008420000000000000000000076
:1041dc0000000000eb5a00003ce700000421000046
:1041ec000000000000000000eb5a0000ffff000080
:1041fc00eb5a000000000000000000000842000024
:10420c003ce7000008420000000000000000000035
:10421c000000000008420000dbde0000042100006a
:10422c000000000000000000000000000000000082
:10423c000000000000000000000000000000000072
:10424c0000000000084200003ce7000008420000ab
:10425c000000000000000000000000000000000052
:10426c000000000000000000000000000000000042
:10427c000000000000000000000000000000000032
:10428c000000000000000000000000000000000022
:10429c000000000000000000000000000000000012
:1042ac000000000000000000000000000000000002
:1042bc0000000000000000000000000000000000f2
:1042cc0000000000000000000000000000000000e2
:1042dc0000000000000000000000000000000000d2
:1042ec0000000000000000000000000000000000c2
:1042fc0000000000000000000000000000000000b2
:10430c0000000000000000000000000000000000a1
:10431c000000000000000000000000000000000091
:10432c000000000000000000000000000000000081
:10433c000000000000000000000000000000000071
:10434c000000000000000000000000000000000061
:10435c000000000000000000000000000000000051
:10436c0000000000000000000000000008420000f7
:10437c009ef70000ffff0000ffff0000ffff0000a2
:10438c0096b50000000000000000000000000000d6
:10439c00000000000000000096b500003ce70000a3
:1043ac0004210000000000000000000000000000dc
:1043bc00718c00003ce700000421000000000000ac
:1043cc0000000000718c000096b500000000000099
:1043dc00718c0000ffff0000ffff0000ffff0000da
:1043ec00eb5a0000eb5a000096b5000000000000ec
:1043fc008210000018c6000008420000eb5a0000b2
:10440c0079ce0000821000000000000096b500007c
:10441c00eb5a000082100000b6b500000421000029
:10442c000842000018c6000082100000718c0000c9
:10443c00718c0000000000000000000096b5000028
:10444c00eb5a00000000000034a5000008420000f8
:10445c000842000018c6000082100000718c000099
:10446c00718c0000000000000000000096b50000f8
:10447c00eb5a00000000000034a5000008420000c8
:10448c008210000018c6000008420000eb5a000021
:10449c0079ce0000821000008210000079ce00005e
:1044ac00eb5a00000421000079ce0000042100002a
:1044bc0000000000718c000096b5000000000000a8
:1044cc0096b50000ffff00009ef7000018c6000024
:1044dc00ffff0000ffff000096b500000000000089
:1044ec00000000000000000096b5000079ce00002e
:1044fc00821000000000000000000000000000001e
:10450c00000000000000000000000000000000009f
:10451c00000000000000000000000000eb5a00004a
:10452c00ffff0000ffff0000ffff0000ffff000087
:10453c00eb5a00000000000000000000000000002a
:10454c00000000000000000000000000000000005f
:10455c00000000000000000000000000000000004f
:10456c00000000000000000000000000000000003f
:10457c00000000000000000000000000000000002f
:10458c00000000000000000000000000000000001f
:10459c00000000000000000000000000000000000f
:1045ac0000000000000000000000000000000000ff
:1045bc0000000000000000000000000000000000ef
:1045cc0000000000000000000000000000000000df
:1045dc0000000000000000000000000000000000cf
:1045ec0000000000000000000000000000000000bf
:1045fc0000000000000000000000000000000000af
:10460c00000000000000000000000000000000009e
:10461c00000000000000000000000000000000008e
:10462c00000000000000000000000000000000007e
:10463c00000000000000000000000000000000006e
:10464c0000000000000000000000000082100000cc
:10465c0079ce000079ce000082100000000000002e
:10466c00000000000000000000000000000000003e
:10467c000000000008420000dbde00003ce7000008
:10468c0008420000000000000000000000000000d4
:10469c00000000000000000000000000718c000011
:1046ac00718c0000718c0000718c00000000000007
:1046bc0000000000000000000000000000000000ee
:1046cc008210000018c600000842000008420000da
:1046dc0018c600008210000000000000000000005e
:1046ec000000000000000000eb5a000096b500002e
:1046fc00000000008210000079ce0000eb5a000090
:10470c00000000000000000000000000000000009d
:10471c0096b50000ffff0000ffff0000ffff000048
:10472c00ffff000096b50000000000000000000034
:10473c00000000000421000079ce000004210000dc
:10474c0000000000000000000421000079ce0000f1
:10475c00042100000000000000000000eb5a0000e3
:10476c0096b50000000000000000000000000000f2
:10477c008210000079ce0000eb5a0000000000000f
:10478c008210000079ce0000718c00000000000047
:10479c00000000000000000000000000718c000010
:1047ac0079ce000082100000000000000000000024
:1047bc0000000000000000000000000000000000ed
:1047cc0000000000000000000000000000000000dd
:1047dc0000000000000000000000000000000000cd
:1047ec0000000000000000000000000000000000bd
:1047fc0000000000000000000000000000000000ad
:10480c00000000000000000000000000000000009c
:10481c00000000000000000000000000000000008c
:10482c00000000000000000000000000000000007c
:10483c00000000000000000000000000000000006c
:10484c00000000000000000000000000000000005c
:10485c00000000000000000000000000000000004c
:10486c00000000000000000000000000000000003c
:10487c00000000000000000000000000000000002c
:10488c00000000000000000000000000000000001c
:10489c00042100003ce70000ffff0000ffff0000c8
:1048ac00ffff0000eb5a0000000000000421000094
:1048bc00dbde00000842000000000000eb5a0000a4
:1048cc003ce700000421000004210000dbde0000b6
:1048dc00084200000000000008420000dbde00007f
:1048ec000421000004210000dbde0000084200006f
:1048fc0000000000eb5a000079ce0000821000008e
:10490c00042100003ce70000ffff0000ffff000057
:10491c00ffff0000eb5a0000000000000421000023
:10492c00dbde00000842000000000000084200002e
:10493c003ce700000842000004210000dbde000020
:10494c000842000000000000042100003ce70000c9
:10495c00eb5a000004210000dbde000008420000de
:10496c0000000000eb5a00009ef700000842000017
:10497c00042100003ce70000ffff0000ffff0000e7
:10498c00ffff0000eb5a00000000000000000000d8
:10499c00000000000000000000000000000000000b
:1049ac0000000000000000000000000000000000fb
:1049bc0000000000000000000000000000000000eb
:1049cc0000000000000000000000000000000000db
:1049dc0000000000000000000000000000000000cb
:1049ec0000000000000000000000000000000000bb
:1049fc0000000000000000000000000000000000ab
:104a0c00000000000000000000000000000000009a
:104a1c00000000000000000000000000000000008a
:104a2c00000000000000000000000000000000007a
:104a3c00000000000000000000000000000000006a
:104a4c00000000000000000000000000000000005a
:104a5c00000000000000000000000000000000004a
:104a6c00000000000000000000000000000000003a
:104a7c000000000000000000084200009ef700004b
:104a8c00ffff0000ffff0000ffff0000eb5a0000db
:104a9c000000000000000000eb5a0000ffff0000c7
:104aac00eb5a000000000000000000000421000090
:104abc00b6b50000821000008210000079ce000014
:104acc00718c0000000000000000000000000000dd
:104adc000000000000000000000000000842000080
:104aec003ce700000842000000000000000000004d
:104afc0000000000000000000000000000000000aa
:104b0c0008420000dbde0000042100000000000071
:104b1c000000000000000000000000000000000089
:104b2c0000000000084200003ce7000008420000c2
:104b3c000000000000000000000000000000000069
:104b4c0000000000000000008210000079ce000080
:104b5c00718c00000000000000000000000000004c
:104b6c000000000000000000000000000000000039
:104b7c00eb5a0000ffff0000eb5a000000000000a1
:104b8c000000000004210000b6b5000082100000f7
:104b9c000000000000000000084200009ef700002a
:104bac00ffff0000ffff0000ffff0000eb5a0000ba
:104bbc0000000000000000000000000000000000e9
:104bcc0000000000000000000000000000000000d9
:104bdc0000000000000000000000000000000000c9
:104bec0000000000000000000000000000000000b9
:104bfc0000000000000000000000000000000000a9
:104c0c000000000000000000000000000000000098
:104c1c000000000000000000000000000000000088
:104c2c000000000000000000000000000000000078
:104c3c000000000000000000000000000000000068
:104c4c000000000000000000000000000000000058
:104c5c000000000000000000000000000000000048
:104c6c000000000000000000000000000000000038
:104c7c000000000000000000000000000000000028
:104c8c000000000000000000000000000000000018
:104c9c000000000000000000000000000000000008
:104cac00042100003ce70000ffff0000ffff0000b4
:104cbc00ffff0000eb5a00000000000000000000a5
:104ccc0004210000dbde00000842000000000000b0
:104cdc00084200009ef70000718c000000000000ec
:104cec0004210000dbde0000084200000000000090
:104cfc0000000000eb5a00003ce70000042100001b
:104d0c0004210000dbde000008420000000000006f
:104d1c0000000000042100003ce70000eb5a0000fa
:104d2c0004210000dbde000008420000000000004f
:104d3c0000000000042100003ce70000eb5a0000da
:104d4c0004210000dbde000008420000000000002f
:104d5c0000000000042100003ce70000eb5a0000ba
:104d6c0004210000dbde000008420000000000000f
:104d7c0000000000eb5a00003ce70000042100009a
:104d8c0004210000dbde00000842000000000000ef
:104d9c00084200009ef70000718c0000000000002b
:104dac00042100003ce70000ffff0000ffff0000b3
:104dbc00ffff0000eb5a00000000000000000000a4
:104dcc0000000000000000000000000000000000d7
:104ddc0000000000000000000000000000000000c7
:104dec0000000000000000000000000000000000b7
:104dfc0000000000000000000000000000000000a7
:104e0c000000000000000000000000000000000096
:104e1c000000000000000000000000000000000086
:104e2c000000000000000000000000000000000076
:104e3c000000000000000000000000000000000066
:104e4c000000000000000000000000000000000056
:104e5c000000000000000000000000000000000046
:104e6c000000000000000000000000000000000036
:104e7c000000000000000000000000000000000026
:104e8c000000000000000000000000000000000016
:104e9c00042100003ce70000ffff0000ffff0000c2
:104eac00ffff0000ffff0000718c000004210000d8
:104ebc00dbde0000084200000000000000000000e3
:104ecc00000000000000000004210000dbde0000f8
:104edc00084200000000000000000000000000007c
:104eec000000000004210000dbde0000084200008e
:104efc0000000000000000000000000000000000a6
:104f0c00042100003ce70000ffff0000ffff000051
:104f1c00ffff0000ffff0000eb5a0000042100001f
:104f2c00dbde000008420000000000000000000072
:104f3c00000000000000000004210000dbde000087
:104f4c00084200000000000000000000000000000b
:104f5c000000000004210000dbde0000084200001d
:104f6c000000000000000000000000000000000035
:104f7c00042100003ce70000ffff0000ffff0000e1
:104f8c00ffff0000ffff0000718c0000000000001c
:104f9c000000000000000000000000000000000005
:104fac0000000000000000000000000000000000f5
:104fbc0000000000000000000000000000000000e5
:104fcc0000000000000000000000000000000000d5
:104fdc0000000000000000000000000000000000c5
:104fec0000000000000000000000000000000000b5
:104ffc0000000000000000000000000000000000a5
:10500c000000000000000000000000000000000094
:10501c000000000000000000000000000000000084
:10502c000000000000000000000000000000000074
:10503c000000000000000000000000000000000064
:10504c000000000000000000000000000000000054
:10505c000000000000000000000000000000000044
:10506c00042100003ce70000ffff0000ffff0000f0
:10507c00ffff0000ffff000079ce0000821000004f
:10508c0004210000dbde00000842000000000000ec
:10509c000000000000000000000000000000000004
:1050ac0004210000dbde00000842000000000000cc
:1050bc0000000000000000000000000000000000e4
:1050cc0004210000dbde00000842000000000000ac
:1050dc0000000000000000000000000000000000c4
:1050ec00042100003ce70000ffff0000ffff000070
:1050fc00ffff0000ffff000096b50000000000005d
:10510c0004210000dbde000008420000000000006b
:10511c000000000000000000000000000000000083
:10512c0004210000dbde000008420000000000004b
:10513c000000000000000000000000000000000063
:10514c0004210000dbde000008420000000000002b
:10515c000000000000000000000000000000000043
:10516c0004210000dbde000008420000000000000b
:10517c000000000000000000000000000000000023
:10518c000000000000000000000000000000000013
:10519c000000000000000000000000000000000003
:1051ac0000000000000000000000000000000000f3
:1051bc0000000000000000000000000000000000e3
:1051cc0000000000000000000000000000000000d3
