:020000040000fa
:080000000002040000000000f2
:020000040000fa
:04000800b20300003f
:020000040000fa
:04000c0030030000bd
:020000040000fa
:040010007203000077
:020000040000fa
:040014005003000095
:020000040000fa
:04001800920300004f
:020000040000fa
:04001c00b20300002b
:020000040000fa
:04002000b203000027
:020000040000fa
:04002400b203000023
:020000040000fa
:04002800b20300001f
:020000040000fa
:04002c00b20300001b
:020000040000fa
:04003000b203000017
:020000040000fa
:04003400b203000013
:020000040000fa
:04003800b20300000f
:020000040000fa
:04003c00b20300000b
:020000040000fa
:04004000b203000007
:020000040000fa
:04004400b203000003
:020000040000fa
:04004800b2030000ff
:020000040000fa
:04004c00b2030000fb
:020000040000fa
:04005000b2030000f7
:020000040000fa
:04005400b2030000f3
:020000040000fa
:04005800b2030000ef
:020000040000fa
:04005c00b2030000eb
:020000040000fa
:04006000b2030000e7
:020000040000fa
:04006400b2030000e3
:020000040000fa
:04006800b2030000df
:020000040000fa
:04006c00b2030000db
:020000040000fa
:04007000b2030000d7
:020000040000fa
:04007400b2030000d3
:020000040000fa
:04007800b2030000cf
:020000040000fa
:04007c00b2030000cb
:020000040000fa
:04008000b2030000c7
:020000040000fa
:04008400b2030000c3
:020000040000fa
:04008800b2030000bf
:020000040000fa
:04008c00b2030000bb
:020000040000fa
:04009000b2030000b7
:020000040000fa
:04009400b2030000b3
:020000040000fa
:04009800b2030000af
:020000040000fa
:04009c00b2030000ab
:020000040000fa
:0400a000b2030000a7
:020000040000fa
:0400a400b2030000a3
:020000040000fa
:0400a800b20300009f
:020000040000fa
:0400ac00b20300009b
:020000040000fa
:0400b000b203000097
:020000040000fa
:0400b400b203000093
:020000040000fa
:0400b800b20300008f
:020000040000fa
:0400bc00b20300008b
:020000040000fa
:0400c000b203000087
:020000040000fa
:0400c400b203000083
:020000040000fa
:0400c800b20300007f
:020000040000fa
:0400cc00b20300007b
:020000040000fa
:0400d000b203000077
:020000040000fa
:0400d400b203000073
:020000040000fa
:0400d800b20300006f
:020000040000fa
:0400dc00b20300006b
:020000040000fa
:0400e000b203000067
:020000040000fa
:0400e400b203000063
:020000040000fa
:0400e800b20300005f
:020000040000fa
:0400ec00b20300005b
:020000040000fa
:0400f000b203000057
:020000040000fa
:0400f400b203000053
:020000040000fa
:0400f800b20300004f
:020000040000fa
:0400fc00b20300004b
:020000040000fa
:04010000b203000046
:020000040000fa
:04010400b203000042
:020000040000fa
:04010800b20300003e
:020000040000fa
:04010c00b20300003a
:020000040000fa
:04011000b203000036
:020000040000fa
:04011400b203000032
:020000040000fa
:04011800b20300002e
:020000040000fa
:04011c00b20300002a
:020000040000fa
:04012000b203000026
:020000040000fa
:04012400b203000022
:020000040000fa
:04012800b20300001e
:020000040000fa
:04012c00b20300001a
:020000040000fa
:04013000b203000016
:020000040000fa
:04013400b203000012
:020000040000fa
:04013800b20300000e
:020000040000fa
:04013c00b20300000a
:020000040000fa
:04014000b203000006
:020000040000fa
:04014400b203000002
:020000040000fa
:04014800b2030000fe
:020000040000fa
:04014c00b2030000fa
:020000040000fa
:04015000b2030000f6
:020000040000fa
:04015400b2030000f2
:020000040000fa
:04015800b2030000ee
:020000040000fa
:04015c00b2030000ea
:020000040000fa
:04016000b2030000e6
:020000040000fa
:04016400b2030000e2
:020000040000fa
:04016800b2030000de
:020000040000fa
:04016c00b2030000da
:020000040000fa
:04017000b2030000d6
:020000040000fa
:04017400b2030000d2
:020000040000fa
:04017800b2030000ce
:020000040000fa
:04017c00b2030000ca
:020000040000fa
:040180000403000074
:020000040000fa
:04018400b2030000c2
:020000040000fa
:04018800b2030000be
:020000040000fa
:04018c00b2030000ba
:020000040000fa
:04019000b2030000b6
:020000040000fa
:04019400b2030000b2
:020000040000fa
:04019800b2030000ae
:020000040000fa
:04019c00b2030000aa
:020000040000fa
:0401a000b2030000a6
:020000040000fa
:0401a400b2030000a2
:020000040000fa
:0401a800b20300009e
:020000040000fa
:0401ac00b20300009a
:020000040000fa
:0401b000b203000096
:020000040000fa
:0401b400b203000092
:020000040000fa
:0401b800b20300008e
:020000040000fa
:0401bc00b20300008a
:020000040000fa
:0401c000b203000086
:020000040000fa
:0401c400b203000082
:020000040000fa
:0401c800b20300007e
:020000040000fa
:0401cc00b20300007a
:020000040000fa
:0401d000b203000076
:020000040000fa
:0401d400b203000072
:020000040000fa
:0401d800b20300006e
:020000040000fa
:0401dc00b20300006a
:020000040000fa
:0401e000b203000066
:020000040000fa
:0401e400b203000062
:020000040000fa
:0401e800b20300005e
:020000040000fa
:0401ec00b20300005a
:020000040000fa
:0401f000b203000056
:020000040000fa
:0401f400b203000052
:020000040000fa
:0401f800b20300004e
:020000040000fa
:0401fc00b20300004a
:020000040000fa
:04020800b20300003d
:020000040000fa
:04020c0030030000bb
:020000040000fa
:040210007203000075
:020000040000fa
:040214005003000093
:020000040000fa
:04021800920300004d
:020000040000fa
:04021c00b203000029
:020000040000fa
:04022000b203000025
:020000040000fa
:04022400b203000021
:020000040000fa
:04022800b20300001d
:020000040000fa
:04022c00b203000019
:020000040000fa
:04023000b203000015
:020000040000fa
:04023400b203000011
:020000040000fa
:04023800b20300000d
:020000040000fa
:04023c00b203000009
:020000040000fa
:04024000b203000005
:020000040000fa
:04024400b203000001
:020000040000fa
:04024800b2030000fd
:020000040000fa
:04024c00b2030000f9
:020000040000fa
:04025000b2030000f5
:020000040000fa
:04025400b2030000f1
:020000040000fa
:04025800b2030000ed
:020000040000fa
:04025c00b2030000e9
:020000040000fa
:04026000b2030000e5
:020000040000fa
:04026400b2030000e1
:020000040000fa
:04026800b2030000dd
:020000040000fa
:04026c00b2030000d9
:020000040000fa
:04027000b2030000d5
:020000040000fa
:04027400b2030000d1
:020000040000fa
:04027800b2030000cd
:020000040000fa
:04027c00b2030000c9
:020000040000fa
:04028000b2030000c5
:020000040000fa
:04028400b2030000c1
:020000040000fa
:04028800b2030000bd
:020000040000fa
:04028c00b2030000b9
:020000040000fa
:04029000b2030000b5
:020000040000fa
:04029400b2030000b1
:020000040000fa
:04029800b2030000ad
:020000040000fa
:04029c00b2030000a9
:020000040000fa
:0402a000b2030000a5
:020000040000fa
:0402a400b2030000a1
:020000040000fa
:0402a800b20300009d
:020000040000fa
:0402ac00b203000099
:020000040000fa
:0402b000b203000095
:020000040000fa
:0402b400b203000091
:020000040000fa
:0402b800b20300008d
:020000040000fa
:0402bc00b203000089
:020000040000fa
:0402c000b203000085
:020000040000fa
:0402c400b203000081
:020000040000fa
:0402c800b20300007d
:020000040000fa
:0402cc00b203000079
:020000040000fa
:0402d000b203000075
:020000040000fa
:0402d400b203000071
:020000040000fa
:0402d800b20300006d
:020000040000fa
:0402dc00b203000069
:020000040000fa
:0402e000b203000065
:020000040000fa
:0402e400b203000061
:020000040000fa
:0402e800b20300005d
:020000040000fa
:0402ec00b203000059
:020000040000fa
:0402f000b203000055
:020000040000fa
:0402f400b203000051
:020000040000fa
:0402f800b20300004d
:020000040000fa
:0402fc00b203000049
:020000040000fa
:04030000b203000044
:020000040000fa
:04030400b203000040
:020000040000fa
:04030800b20300003c
:020000040000fa
:04030c00b203000038
:020000040000fa
:04031000b203000034
:020000040000fa
:04031400b203000030
:020000040000fa
:04031800b20300002c
:020000040000fa
:04031c00b203000028
:020000040000fa
:04032000b203000024
:020000040000fa
:04032400b203000020
:020000040000fa
:04032800b20300001c
:020000040000fa
:04032c00b203000018
:020000040000fa
:04033000b203000014
:020000040000fa
:04033400b203000010
:020000040000fa
:04033800b20300000c
:020000040000fa
:04033c00b203000008
:020000040000fa
:04034000b203000004
:020000040000fa
:04034400b203000000
:020000040000fa
:04034800b2030000fc
:020000040000fa
:04034c00b2030000f8
:020000040000fa
:04035000b2030000f4
:020000040000fa
:04035400b2030000f0
:020000040000fa
:04035800b2030000ec
:020000040000fa
:04035c00b2030000e8
:020000040000fa
:04036000b2030000e4
:020000040000fa
:04036400b2030000e0
:020000040000fa
:04036800b2030000dc
:020000040000fa
:04036c00b2030000d8
:020000040000fa
:04037000b2030000d4
:020000040000fa
:04037400b2030000d0
:020000040000fa
:04037800b2030000cc
:020000040000fa
:04037c00b2030000c8
:020000040000fa
:040380000403000072
:020000040000fa
:04038400b2030000c0
:020000040000fa
:04038800b2030000bc
:020000040000fa
:04038c00b2030000b8
:020000040000fa
:04039000b2030000b4
:020000040000fa
:04039400b2030000b0
:020000040000fa
:04039800b2030000ac
:020000040000fa
:04039c00b2030000a8
:020000040000fa
:0403a000b2030000a4
:020000040000fa
:0403a400b2030000a0
:020000040000fa
:0403a800b20300009c
:020000040000fa
:0403ac00b203000098
:020000040000fa
:0403b000b203000094
:020000040000fa
:0403b400b203000090
:020000040000fa
:0403b800b20300008c
:020000040000fa
:0403bc00b203000088
:020000040000fa
:0403c000b203000084
:020000040000fa
:0403c400b203000080
:020000040000fa
:0403c800b20300007c
:020000040000fa
:0403cc00b203000078
:020000040000fa
:0403d000b203000074
:020000040000fa
:0403d400b203000070
:020000040000fa
:0403d800b20300006c
:020000040000fa
:0403dc00b203000068
:020000040000fa
:0403e000b203000064
:020000040000fa
:0403e400b203000060
:020000040000fa
:0403e800b20300005c
:020000040000fa
:0403ec00b203000058
:020000040000fa
:0403f000b203000054
:020000040000fa
:0403f400b203000050
:020000040000fa
:0403f800b20300004c
:020000040000fa
:0403fc00b203000048
:020000040000fa
:100400000fa320000e7f22000e01880000000000d4
:10041000000020000000e000020032000001200087
:100420002002880014000700d00007000000e00050
:1004300003003a0020ce2100010020000200370016
:100440000000200001002000810f70000100320038
:1004500014000700000020000000e000020032004d
:1004600000000200000000008a1d020000000000e1
:100470000040da000000fe004440a900200b2000ec
:100480000000e000030032000020200090018800fe
:100490004440a800000006008a1f78008b1f7800e7
:1004a00000000600a1028800800478000000eb0034
:1004b0001f003700e284440054a0b4009905ba003c
:1004c000e284440054a0b4009906ba00e2844400d7
:1004d00054a0b4000006eb00476fde00fd07b20039
:1004e000ae018800636ce10003003a00eaff0700f8
:1004f0000000eb000e003700606ce10008003a00dd
:10050000004deb000a05e800020039003420ec0041
:100510000af0a0008b05e900f9ff3e000400370057
:100520006168e100010032000086eb000b0007006b
:1005300019c7ba001905ba000e04e00003003a001a
:100540000a00e000dbff3a0000000600fe07b200f0
:10055000ae0288008a047800f5ff37000cd0a300b3
:10056000e20f4d001c00390089027800354dba00b9
:100570000a05e800020039003420ec000af0a0006f
:100580008b05e9000f003200254dba000a05e8008e
:10059000020039003420ec000af0a0008b05e900cd
:1005a000080032000c00e0000600320015cdba0051
:1005b0000a05e800020039003420ec000af0a0002f
:1005c0008b05e9008984e80054a0b4000b00e0002a
:1005d000e2ff3a00000006009902ba00055d7800cb
:1005e0008b05e900f7ff3200c82ade00055d7800c0
:1005f0008b05e900f3ff32000c00e000f1ff320050
:1006000019ddba00eeff37003600f800809fbe000b
:10061000829fbe00849fbe00869fbe003200f8000d
:100620003400f80010002000a00188000020200005
:10063000900188000000fa00900107000080fa0095
:100640003400f9003200f9004f03be004f02be0033
:100650004f01be004f00be003600f900004006000a
:100660003600f800809fbe00829fbe00849fbe00bf
:10067000869fbe000000fa008020a9000000eb0069
:10068000080d07000080fa004f03be004f02be00b5
:100690004f01be004f00be003600f90000400600ca
:1006a0003600f800809fbe00829fbe00849fbe007f
:1006b000869fbe000000fa00ff0c07008040a900e2
:1006c00010002000f70c07000080fa004f03be0066
:1006d0004f02be004f01be004f00be003600f900c1
:1006e000004006003600f800809fbe00829fbe00da
:1006f000849fbe00869fbe000000fa008060a900b3
:1007000020002000e70c07000080fa004f03be0025
:100710004f02be004f01be004f00be003600f90080
:10072000004006003600f800809fbe00829fbe0099
:10073000849fbe00869fbe000000fa008080a90052
:1007400030002000d70c07000080fa004f03be00e5
:100750004f02be004f01be004f00be003600f90040
:10076000004006000040da000000fe000000050026
:100770008001780002003700b15978000201e900d9
:100780000200e000fcff3a0000000600889fbe0067
:100790008a9fbe00800478000200e0005a00320008
:1007a00001407800814c780082814400f1f99f007b
:1007b000e20f51005400360091449800a144980083
:1007c000e1f99f00d1f99f00e60f51004e0036007d
:1007d000b1449800c1f99f00e80f51004a0036006b
:1007e0000905ea00630565000a8444000a05510012
:1007f000c1ff2f00010565000080fb008000eb00b9
:10080000121020001310200043000700008cbe00cf
:100810000a01440060b99f0071b99f00e80f5500bc
:1008200039003600200498003104980040049800f4
:100830005104980020b99f0031b99f0040b99f0032
:1008400051b99f00f80f55002f0036006004980042
:1008500071049800000c9800110c9800200c98006e
:10086000310c9800400c9800510c980020b19f006a
:1008700031b19f0040b19f0051b19f0060b19f0016
:1008800071b19f0000b99f0011b99f00640164001d
:100890007801410002044400020555006011b800cf
:1008a0000203be000002be000403be006022b800c6
:1008b0000000720081807200020173008381730066
:1008c0000f00370008027800009abe00029abe00ae
:1008d000009abe000292be00000c9800110c980015
:1008e000220c9800330c9800400c9800510c980092
:1008f000620c9800730c98000a02b1000802b00064
:10090000ff0f5500efff3e00090078004f05be00c5
:100910004f04be0000000600020ab900001bb90027
:100920000200b80081004200810043000000060080
:020000040000fa
:100930001201000000020000020000000008000098
:10094000d80400000a0000000001000001020000bd
:100950000001000009020000430000000201000045
:1009600000c0000032090000040000000001000087
:100970000202000001000000052400000010000039
:10098000010400002402000002050000240600000b
:100990000001000005240000010000000107000024
:1009a00005810000030a00000002000009040000a5
:1009b00001000000020a0000000000000007000023
:1009c00005020000024000000000000007050000d2
:1009d000820200004000000000000000040300004c
:1009e00009040000340300004d000000690000000d
:1009f00063000000720000006f0000006300000050
:100a00006800000069000000700000002000000085
:100a10005400000065000000630000006800000052
:100a20006e0000006f0000006c0000006f0000000e
:100a3000670000007900000020000000490000006d
:100a40006e000000630000002e0000001c03000088
:100a50004b0000006500000079000000620000000b
:100a60006f000000610000007200000064000000e0
:100a7000200000005400000065000000730000002a
:100a800074000000aa840000ee840000f2840000dc
:040a900026850000b7
:020000040000fa
:100a94000200fa009ec0a9000080eb0070208800cc
:100aa4000080eb00502088002a24ef004200200040
:100ab4008000eb00c042200033ff0700200020002c
:100ac400302188002824ef000644a900f009200002
:100ad40080208800f00920006020880002c4a8005b
:100ae4000804a80000a020004800de00c020880000
:100af4000040eb00004f7800070037001e80fb0029
:100b0400c200dd0000a02000008140006000b800a9
:100b14000089be001e4fe8001e407800eb4f5000d5
:100b2400f6ff36001424a8001624ef0014a4a9002c
:100b34001424a9008000200050208800608e20002a
:100b44008040eb0001487800c08e20008040eb001c
:100b540001487800d08e200090407800e0c060000a
:100b640001487800e08e200090407800e0c06000ea
:100b74000148780050208000680060000000e00018
:100b8400ecff3a0010c0b30013e8b70010c0b30084
:100b940014e8b7001568ef001668ef000d68ef0061
:100ba4000040eb00004f7800170037001e80fb0068
:100bb40080004000e08d2000008040008000eb00b9
:100bc400010878001e80fb0080004000808d20001a
:100bd400008040008000eb00010878001e80fb00cc
:100be400128f20008040eb00000041000148780093
:100bf4001e80fb00428f20008040eb00000041007b
:100c0400014878001e4fe8001e407800e24f500073
:100c1400e6ff360080a02000f0468800d0002000c7
:100c240050218800708f20001050880000a0200000
:100c340081c0b3000148780010a0200041c0b30077
:100c44000148780010a0200010407800804078000f
:100c54000174a00010a02000014878000268ef0091
:100c64001828ef001a28ef001c68ef000028ef0096
:100c74000080fa00000006000200fa000040800034
:100c8400e10f50000b003a00a12080000004200076
:100c9400008060000000e00006003a000080eb00e5
:100ca400502088000c04a8000c84a8002000200018
:100cb4000040880000208000700060000000e00018
:100cc4000700320010208000700060000000e00087
:100cd40003003200000120000020880038050700ce
:100ce40040208000620060000000e000020032004a
:100cf4008ec0a900a1003700502080006100600070
:100d04000000e0000a003200602080006100600002
:100d14000000e000060032005dff07009ec0a8004e
:100d2400400020000040880010002000502088006f
:100d340050208000700060000000e00005003200d8
:100d440060208000700060000000e00001003200bc
:100d54000e050700012080000004200000806000d0
:100d64000000e0000300320000042000002088009e
:100d74009d07070050208000640060000000e00030
:100d84001400320060208000640060000000e00075
:100d940004003200120020008000eb003007200025
:100da400b20a0700400020005020880011c8bf008c
:100db4000004e0000300320011c8bf000040e90055
:100dc40011e8b70011c8bf000004e00001003a00b8
:100dd400da01070051208000000820000080600034
:100de4000000e000060032006120800000082000be
:100df400008060000000e00001003200c104070030
:100e040050208000620060000000e0000c0032000e
:100e140060208000620060000000e00008003200f2
:100e2400120020008000eb00f0ff27008f0a07006b
:100e34000080eb00702088002000200050208800f3
:100e440000408000e30f500002003e008ec0a90065
:100e54004a00370060208000680060000000e00065
:100e6400450032000040eb00004f78003d003700a1
:100e740050208000680060000000e0003d00320067
:100e840090208000004078000ee8b7000ec8bf0034
:100e94000080fb004400de00004078000fe8b7004b
:100ea40080002000502088000ec8bf006840600009
:100eb4000004e00011003a000fc8bf000081fb00ed
:100ec4008080fb00408f200000804000904078002c
:100ed40061c060000004a200e1406000408f200077
:100ee40000004100e1c06000104178000204a1004c
:100ef4008140710001487800100037000fc8bf001e
:100f04000081fb008080fb00108f200000804000e7
:100f14009040780061c060000004a200e1406000dd
:100f2400108f200000004100e1c0600010417800f3
:100f34000204a10081407100014878000fc8bf007d
:100f44000004e00002003a00a9040700040037008e
:100f54000001eb00e180200020072000430a070085
:100f64001e4fe8001e407800e34f5000c0ff3600db
:100f740001003700000000008ec0a9000080fa00c4
:100f8400000006000400fa000e81e8000049780021
:100f94006300470001487800630047001040780070
:100fa4000080fb00680060000000e00004003200e4
:100fb4008040eb000e80e80010407800e20107005a
:100fc40063004700104078000080fb00640060006c
:100fd4000000e0000400320011c0b3000e80e800fd
:100fe40010407800d8010700a14220000e80e800dc
:100ff400104078000080fb0000004000008f40009b
:101004009e00780063004700904878000080fa0052
:10101400000006000800fa000e82e800004a78008a
:101024006300470001487800640047000208780024
:1010340066004700034878006300470010407800ca
:101044000004e000080032000e80e8001040780040
:101054000080fb0080004000e08d20000080400004
:10106400100f7800070037000e80e8001040780069
:101074000080fb0080004000808d20000080400044
:10108400100f78001e0078000000e00002003a0013
:101094000000eb0046003700640047009000780031
:1010a4001e0078000080e800010878009e007800a7
:1010b40066004700904878001e0078000000e800b1
:1010c4001040780002c4b300824060001e00780023
:1010d4000000e800014878001e0078000000e800e5
:1010e40010407800804078000134a0001e00780091
:1010f4000000e800014878001e0078000000e800c5
:1011040010407800804078000174a0001e00780030
:101114000000e800014878006300470010407800b0
:101124000004e000110032000e80e8001040780056
:101134000080fb008e80e800914078008180fb00f5
:1011440001814000e18d2000810041009100780080
:101154000120a2000101780080004000e08d200001
:101164000080400002087800100037000e80e8007c
:10117400104078000080fb008e80e80091407800e9
:101184008180fb0001814000818d200081004100ad
:10119400910078000120a200010178008000400045
:1011a400808d200000804000020878001e00780036
:1011b4000080fa00000006000400fa000e81e80036
:1011c4000049780063004700014878000e80e80079
:1011d400104078000004e00020003a003140800014
:1011e40080c0b3008048780030408000718f2000b8
:1011f4000080e8000108780030408000c1c0b300de
:101204000000e8000148780032408000304080004f
:101214000000e80010407800804078000174a000cd
:101224000200e80001487800f046800041c0b300a5
:101234000000e80001487800f2468000f046800093
:101244000000e80010407800804078000174a0009d
:101254000200e800014878003a0037000e80e800f8
:10126400104078000080fb000000400080007800ff
:1012740063004700104078000080fb0000804000bd
:101284004300dd008000780000a02000008f4000b3
:101294001e0078000000e8001040780080407800cc
:1012a4000124a0001e0078000000e8000148780036
:1012b4001e0078000000e8001040780080407800ac
:1012c4000174a0001e0078000000e80001487800c6
:1012d4000e80e800104078000080fb000000400011
:1012e4008000780063004700104078000080fb0015
:1012f400008040004300dd00e400400000a0200026
:10130400008f40001e0078000000e80010407800c4
:10131400804078000124a0001e0078000000e8004e
:10132400014878001e0078000000e80010407800b2
:10133400804078000174a0001e0078000000e800de
:10134400014878000080fa00000006000200fa005c
:10135400004f7800a120800000022000008060007f
:101364000000e000530032001e80fb0080004000bb
:10137400e08d200000804000900378001e80fb0078
:1013840080004000e08d20000080400010007800c4
:101394001002be00000420000100200004037800b5
:1013a400050278008002780081007800050063005f
:1013b4008100620081017800000178000200be0013
:1013c400808bbe001e80fb0080004000e08d20006a
:1013d40000804000100278001e80fb008000400066
:1013e400e08d200000804000100078001001be0055
:1013f40000042000010020000000690081806900d1
:10140400008abe001e80fb009e80fb00018140001c
:10141400e18d200081004100910078000120a200ac
:101424000101780080004000e08d20000080400031
:10143400020878001e80fb0080004000e08d200040
:1014440000804000100178001e80fb0080004000f6
:10145400e08d200000804000100078000000e800cb
:101464001040780003c4b300834060000200e80029
:10147400014878001e80fb0080004000e08d2000c1
:1014840000804000100178001e80fb0080004000b6
:10149400e08d200000804000100078000000e8008b
:1014a4009040780000c4b30080c068000200e800e7
:1014b400014878000080fa00000006000000fa00ed
:1014c4001424ef000c24ef000028ef000080fa0041
:1014d400000006000000fa00004080000000e00068
:1014e40014003a001424ef000c24ef002000200024
:1014f400302188002824ef000644a900f0092000c8
:1015040080208800f00920006020880002c4a80020
:101514009ec0a800010037001404a800a020800089
:10152400610060000000e000fbff320010002000ba
:10153400004088000080fa00000006000000fa0065
:1015440013c8bf000004a2000004e0003f00320002
:1015540010c0b30013e8b70014c8bf000004a20011
:101564000004e0003900320010c0b30014e8b700f2
:1015740009c8bf00e24f500010003a00f146800055
:101584000040eb0080487800f046800081c4b3003e
:101594000000e80001487800f2468000f046800030
:1015a4000000e80010407800804078000174a0003a
:1015b4000200e800014878002400370009c8bf0091
:1015c400e14f500021003a001068ef0021408000f4
:1015d40080c0b3008048780020408000718f2000d4
:1015e4000080e800010878002040800041c0b3007a
:1015f4000000e8000148780022408000204080007c
:101604000000e80010407800804078000174a000d9
:101614000200e8000148780010c0b30010e8b700e9
:101624003140800080c0b3008048780030408000a2
:10163400718f20000080e8000108780030408000ad
:1016440001c8b3000000e800014878000080fa00f7
:10165400000006000000fa001568ef001668ef00ad
:1016640009c8bf00e24f500014003a003140800026
:1016740080c0b3008048780030408000f18f2000a3
:101684000080e800010878003040800081c4b30085
:101694000000e800014878003240800030408000bb
:1016a4000000e80010407800804078000174a00039
:1016b4000200e8000148780021003700d08f2000a4
:1016c4001080fb00e18f20009180fb00c808dd0042
:1016d4000100700041478000810f50000700310075
:1016e400d08f20001080fb00e18f20009180fb0050
:1016f400c808dd000100700040478800b000070002
:10170400f0468000f18f20000080e8000108780096
:10171400f046800081c4b3000000e800014878006e
:10172400f2468000f04680000000e8001040780097
:10173400804078000174a0000200e80001487800ad
:101744000080fa00000006000400fa000e81e800a0
:1017540000497800630047000148780000a0200099
:10176400000f78000e80e800104078000080fb0035
:1017740000004000800078006300470010407800bb
:101784000080fb00008040004300dd001e0f40008d
:101794001e0078009000780001f0a1000108780094
:1017a40063004700104078000004e00008003a009d
:1017b4000e80e800104078000080fb0080004000ac
:1017c400808d2000008040001e087800070037004c
:1017d4000e80e800104078000080fb00800040008c
:1017e400e08d2000008040001e0878001e00780074
:1017f4009000780001e0a100010878009e007800c4
:10180400648040009000780001e0a00001087800a6
:101814000080fa00000006000000fa0014a4a900e9
:101824003147800000082000008060000000e000d4
:1018340030003a00c08e20009040780000c8b30009
:1018440000c060000004e0000a00320020c0b300c1
:1018540009e8b70016c8bf000004a2000004e000b5
:10186400010032007bff07001468ef001368ef00eb
:10187400510037003140800080c0b30080487800b8
:1018840030408000718f20000080e800010878005b
:1018940030408000c1c0b3000000e8000148780077
:1018a40032408000304080000000e80010407800a2
:1018b400804078000174a0000200e800014878002c
:1018c400f046800041c0b3000000e8000148780001
:1018d400f2468000f04680000000e80010407800e6
:1018e400804078000174a0000200e80001487800fc
:1018f40031003700708f20009040780000c8b3009a
:1019040000c060000004e0000f00320010c0b3000b
:1019140009e8b70015c8bf000004a2000004e000f5
:10192400010032004bff07001468ef001368ef005a
:1019340012c8bf000004a2000004e0001e00320030
:10194400fefe07001c00370020c0b30009e8b70002
:101954003140800080c0b30080487800304080006f
:10196400718f20000080e80001087800304080007a
:1019740041c0b3000000e800014878003240800014
:10198400304080000000e80010407800804078007b
:101994000174a0000200e800014878001468ef0018
:1019a4001368ef0012c8bf000004a2000004e000a6
:1019b40001003200e1fe07000080fa00000006008a
:1019c4000200fa0080c0b300004f78004047800056
:1019d400e70f50000d003e0040478000004f7800a4
:1019e40008c8bf000004e00003003a0010c0b300c0
:1019f40008e8b7000500370008c8bf00e14f5000f1
:101a040002003a0020c0b30008e8b7004147800054
:101a14001e80fb000080500040478800f046800094
:101a24001e487800f08f2000504088003047800026
:101a3400610060000000e00017003a000900370070
:101a4400514080002047800010417800824878008f
:101a54008100e800514088000000e8002047880029
:101a64001e4fe9001e4078000004e000f4ff3a0035
:101a74000c0037005140800020478000104178005e
:101a8400824878008100e800514088000000e800a6
:101a9400204788001e4fe9001e4078000004e00043
:101aa400f4ff3a000080fa00000006000200fa0089
:101ab40020408000104f78009e80fb00d08e2000d4
:101ac4001080fb00e28e20001281fb004811dd0033
:101ad40002007000808f500007003600d08e200076
:101ae4001080fb00e18e20009180fb00c808dd001f
:101af40001007000004f7800d08e20001080fb00a1
:101b0400e18e20009180fb00c808dd000100700018
:101b1400800078001e80fb0000805000f10f200040
:101b240001016000d18e200091417800e0c1610084
:101b340002c1710082487800c800de00e08e2000f7
:101b440010417800604161008140710001487800d3
:101b54008040eb000e00e8000148780020003700c8
:101b6400a08e20001080fb00b18e20009180fb002d
:101b7400c808dd00010070008e00e8009140780084
:101b84008180fb00f28f20008100410091407800a9
:101b9400014878000000e800f10f20000101600016
:101ba400a18e200091417800e0c1610002c1710062
:101bb40082487800c800de00b08e20001041780012
:101bc4006041610081407100014878000e00e80026
:101bd400104078008040e8000e00e80001487800da
:101be4000e00e800104078009e4f5000dcff3900e2
:101bf400d08e20001080fb00e18e20009180fb003d
:101c0400c808dd00010070000000e0002700320079
:101c14003140800080c0b3008048780030408000ac
:101c2400f18f20000080e800010878002040800047
:101c34009000780000002400008060000000e000b4
:101c44000d003a003040800081c4b3000000e80079
:101c54000148780032408000304080000000e800f5
:101c640010407800804078000174a0000200e80071
:101c740001487800380037003040800081c0b3004c
:101c84000000e800014878003240800030408000c5
:101c94000000e80010407800804078000174a00043
:101ca4000200e800014878002b0037003140800032
:101cb40080c0b3008048780030408000718f2000dd
:101cc4000080e800010878003040800041c0b30083
:101cd4000000e80001487800324080003040800075
:101ce4000000e80010407800804078000174a000f3
:101cf4000200e80001487800f08e20001080fb000c
:101d0400018f20009180fb00c808dd0001007000f5
:101d14000000e00007003200f08e20001080fb007d
:101d2400018f20009180fb00c808dd0001007000d5
:101d340000000100c08e2000904078000174a100d2
:101d44000148780012c8bf000004a2000004e000ab
:101d540001003200f9fd07000080fa0000000600cf
:101d64000200fa00304780000070a000304788006d
:101d7400420020008000eb00c042200082fa0700ed
:101d8400020320008000eb0000a020007efa070080
:101d94001424a8000040eb00004f78000b0037002b
:101da4001e80fb00128f20008040eb0000004100e9
:101db400014878001e80fb00428f20008040eb0029
:101dc40000004100014878001e4fe8001e407800e2
:101dd400e24f5000f2ff3600220020008000eb00aa
:101de400608d200068fa07001424a90080a0200058
:101df400f046880000a02000204088002040800099
:101e040030408800908f20001040780002e8b7002e
:101e140002c8bf000004e00003003a0000012000f3
:101e240000408800060037001200200021802000b6
:101e3400100020008d0607000002200000408800ea
:101e44000080fa00000006000000fa00708f2000f5
:101e54009040780000c8b30080cf500047003a009b
:101e6400608e200001ccb30001487800a08f2000d0
:101e7400104078000080fb00e20f5000090032009f
:101e8400e30f500023003200e10f500037003a0006
:101e9400804928002047880020012000404788000e
:101ea40036003700908f2000104078000004e000d6
:101eb40014003a00908f2000104078000080fb004e
:101ec400000040008000780020542800008040007a
:101ed4001000780020478800204780000080e80038
:101ee40090407800808e20000148780020478000d0
:101ef4006300400090407800908e200001487800f4
:101f04001e003700608e20008040eb0001487800fe
:101f14001a003700908f200010407800e24f5000e4
:101f24000e003e00908f2000104078000080fb00df
:101f340000004000800078004054280000804000e9
:101f44001000780020478800204780001040780067
:101f54000080fb004047880008003700608e2000a6
:101f64008040eb000148780004003700608e2000b8
:101f74008040eb0001487800000000000080fa0077
:101f8400000006000200fa00f08f20008040eb0001
:101f940001487800009020008040eb000148780060
:101fa400708f2000904078007fc060000080fb00ac
:101fb400e10f500011003200e20f50001300320014
:101fc4000000e00040003a00304780000070a000ac
:101fd400304788000cc8bf000004e0003500320020
:101fe400f08f200010407800804078000114a00099
:101ff400f08f20000148780033003700304780001c
:102004000070a000304788002f0037003047800060
:102014000070a00030478800b08f20009040780006
:1020240000c8b30000c060000004e00009003a00ea
:10203400b08f2000904078006fc060000080fb00eb
:1020440080004000808d200000804000100f780048
:1020540008003700b08f2000904078006fc0600007
:102064000080fb0080004000e08d200000804000e4
:10207400100f78001e0078009000780000002800ff
:10208400008060000000e0000c0032001e007800b8
:102094009000780000402000008060000000e00014
:1020a40008003200f08f200011c0b300014878000e
:1020b40005003700000000000300370000000000a6
:1020c40001003700000000003147800000082000b4
:1020d400008060000000e00008003200f08f200063
:1020e40020478800304780000000a0003047880067
:1020f400808e200021c0b300014878000080fa00df
:10210400000006000000fa00502180006200600018
:102114000000e00019003200204080000000e800c8
:102124009040780000c8b30080cf500012003a00fd
:10213400f04680000000e8009040780040c8b300fa
:1021440080cf50000c003a0020408000c1c0b30092
:102154000000e80001487800224080002040800010
:102164000000e80010407800804078000174a0006e
:102174000200e800014878002a24a9000008200091
:10218400502088000080fa00000006000000fa00d9
:102194000284a800000120005020880010c0b30071
:1021a4000de8b7001c68ef000001eb008000eb00b5
:1021b40050072000ad0507000080fa00000006006b
:1021c4000000fa000d68ef000001eb008000eb0056
:1021d40040072000a50507000284a9000001200093
:1021e400002088001c68ef000080fa000000060050
:1021f4000000fa00d0c2b30011e8b7000ec8bf0057
:102204000080fb000020a1000000e00020003a0054
:102214000ec8bf000080fb004200de0000407800d2
:102224000080fb00c200dd0000a020000080400010
:1022340020408800204080003040880030408000ea
:102244000020a200304088002040800090007800e8
:1022540000c023008080600000402300808f500075
:1022640009003a00204080000080e8001000780057
:102274008200200080007800708f20003bf9070066
:102284000b0007000800370046000700060037006f
:102294000ec8bf000080fb000020a100e80f500022
:1022a40001003a00610007000080fa000000060007
:1022b4000000fa000868ef001268ef001568ef00ec
:1022c4001668ef001068ef000968ef00f24680001e
:1022d400f04680000000e80010407800804078005c
:1022e4000174a1000200e80001487800f046800073
:1022f4000020a200f0468800f2468000f0468000ec
:102304000000e80010407800804078000174a100cb
:102314000200e80001487800f04680000020a20096
:10232400f046880032408000304080000000e80021
:1023340010407800804078000174a1000200e80099
:1023440001487800608e20008040eb00014878004e
:102354000000eb0040478800c08e20008040eb0066
:1023640001487800d08e200090407800e0c06000e2
:1023740001487800e08e200090407800e0c06000c2
:1023840001487800940007000001eb008000eb0096
:1023940030002000350507001ffd07000080fa000b
:1023a400000006000000fa0009c8bf00e24f500018
:1023b40002003a00bdfd07001a0037000968ef006b
:1023c40010c8bf000004a2000004e00014003200a2
:1023d4003140800080c0b3008048780030408000e5
:1023e400718f20000080e8000108780030408000f0
:1023f400c1c0b3000000e80001487800324080000a
:10240400304080000000e8001040780080407800f0
:102414000174a0000200e8000148780001003700c0
:102424001068ef000080fa00000006000200fa00c5
:10243400f0468000100078004e00de00614060002d
:10244400004f7800f04680000020a200f04688008b
:1024540000408000e80f50000e003a00908f2000ea
:10246400104078008080fb00f007200000806000ae
:10247400b0208800b02080000000e000030032009b
:1024840000012000004088000200370040002000c6
:102494000040880009c8bf00e14f500032003a00f4
:1024a400f0468000f18f20000080e80001087800e9
:1024b40043fd070008c8bf00e24f50000d003a007a
:1024c400f046800041c0b3000000e80001487800f5
:1024d400f2468000f04680000000e80010407800da
:1024e400804078000174a0000200e80001487800f0
:1024f400370037001e4078000004e0000d003a0069
:10250400f046800081c4b3000000e8000148780070
:10251400f2468000f04680000000e8001040780099
:10252400804078000174a0000200e80001487800af
:1025340027003700f046800081c0b3000000e800a7
:1025440001487800f2468000f04680000000e80070
:1025540010407800804078000174a0000200e80078
:10256400014878001a003700c08e2000904078009f
:1025740000c8b30000c060000004e0001300320093
:10258400f08e20001080fb00018f20009180fb0062
:10259400c808dd00010070000000e0000700320000
:1025a400f08e20001080fb00018f20009180fb0042
:1025b400c808dd000100700000000100c08e20008a
:1025c400904078000174a100014878000968ef0088
:1025d4000080fa00000006000000fa00708f20005e
:1025e400104078000046b2000004e00051003a00b8
:1025f400808f2000104078000080fb00cf80de0038
:10260400b200200003002000820f5000838f580086
:102614004a003e000060010021003700220037001c
:102624004800370020003700460037000600370016
:102634000b0037003a0037000d0037000a0037005e
:102644001b0037002a003700304780000070a000cc
:102654003047880080002000004088003a0037009e
:10266400f9fd070038003700bdfd070036003700cc
:102674002080200020478800304780000000a00010
:1026840030478800808e200011c0b30001487800d4
:10269400304780000070a000304788002a003700cf
:1026a40038fe0700280037002900070026003700fd
:1026b400b08f2000104078008080fb00608d2000e7
:1026c4000080400020478800304780000000a000c0
:1026d40030478800808e200011c0b3000148780084
:1026e400304780000070a000304788001600370093
:1026f400304780000070a00030478800b08f200071
:10270400104078000080fb00918f200091407800f9
:10271400628d200000004100014878000a00370063
:102724000001eb008000eb00200020004f040700b4
:10273400050037000000000003003700000000001f
:1027440001003700000000000080fa0000000600cd
:102754000600fa00908f200010407800e14f5000ee
:1027640010003a00708f2000104078007f40600015
:102774000004e0000b003a00304780000070a00025
:1027840030478800808f200010407800e34f5000cd
:1027940003003a0010c0b3000ce8b7000100370092
:1027a4000c68ef00908f2000104078000004e000d7
:1027b4000b013a00708f2000104078007f406000c9
:1027c400e24f500006013a00b08f2000104078001c
:1027d4006f4060000004e00001013200b08f20006f
:1027e400904078006fc060000080fb00e20f500052
:1027f400fb003c000140800000022000808f50005c
:10280400f7003a00304780000070a000304788008d
:10281400b08f20009040780000c8b30000c0600072
:102824000004e00012003a00b08f2000104178004c
:102834006f4061000080fb0080004000808d20001c
:1028440000804000100f7800b08f20009040780086
:102854006fc060000080fb00418f200000804000ba
:102864009040780064004700014878001100370068
:10287400b08f2000104178006f4061000080fb00a1
:1028840080004000e08d200000804000100f7800a0
:10289400b08f2000904078006fc060000080fb0083
:1028a400118f2000008040009040780064004700b1
:1028b40001487800640047001040780061406000df
:1028c4000004e00004003a001e0078000020a1008b
:1028d400000f7800030037001e0078000020a000dd
:1028e400000f7800b08f20009040780000c8b3003b
:1028f40000c060000004e0000a003a00b08f20002d
:10290400104178006f4061000080fb001e017800d8
:1029140080004000808d2000008040000208780084
:1029240009003700b08f2000904078006fc060002d
:102934000080fb001e01780080004000e08d200034
:102944000080400002087800808f2000104078004a
:10295400e34f500030003a001e00780090007800e9
:1029640000002800008060000000e0001900320030
:10297400b08f20009040780000c8b30000c0600011
:102984000004e0000a003a00b08f200010417800f3
:102994006f4061008080fb00408f20000080400079
:1029a400904078000114a000014878000900370025
:1029b400b08f2000904078006fc060008080fb00e2
:1029c400108f200000804000904078000114a00087
:1029d400014878001e0078000000e80010407800ec
:1029e400804078000124a0001e0078000000e80068
:1029f400014878001e0078000000e80010407800cc
:102a0400804078000174a0001e0078000000e800f7
:102a140001487800720037001e0078000020a200f0
:102a2400000f78001e007800900078000000280055
:102a3400008060000000e000150032001e007800f5
:102a44000000e80010407800804078000174a10084
:102a54001e0078000000e800014878001e0078009d
:102a64000000e80010407800804078000164a00075
:102a74001e0078000000e8000148780022002000d1
:102a84009e007800500020007803070008003700fb
:102a94001e0078000000e8001040780080407800b4
:102aa4000164a0001e0078000000e80001487800de
:102ab4001e0078000020a200000f78006400470088
:102ac40010407800624060000004e00006003a0014
:102ad4001e0078009000780000002800008060004c
:102ae4000000e00026003200b08f20009040780003
:102af40000c8b30000c060000004e0000a003a000f
:102b0400b08f2000104178006f4061008080fb008e
:102b1400408f200000804000904078000114a10004
:102b24000148780009003700b08f200090407800f9
:102b34006fc060008080fb00108f20000080400088
:102b4400904078000114a100014878001e0078002c
:102b54000000e80010407800b2c3b3008240600077
:102b64001e0078000000e8000148780022002000e0
:102b74009e007800500020003c0307000800370046
:102b84001e0078000000e80010407800b2c3b300d3
:102b9400824060001e0078000000e80001487800d0
:102ba400a1422000b08f2000104178006f406100e6
:102bb4000080fb0000004000808040000e80e800a0
:102bc400010878000e80e8001000780010407800ba
:102bd4000014a1008e80e8009100780080487800fd
:102be4000080fa00000006000000fa00c0408000e7
:102bf400d140800061004000e0804800c04088006f
:102c0400d14088000dc8bf000004a2000004e00009
:102c1400080032001cc8bf000040e8001ce8b700f0
:102c24001cc8bf000004e00002003a0000c0eb0032
:102c34001ce8b7000080fa00000006000400fa0057
:102c4400c2408000d3408000028fbe00c04080009c
:102c5400d14080001e01be00800f5100818f5900b9
:102c6400f7ff3a001e00be000080fa0000000600d4
:102c74000000fa00708f2000104078007f40600050
:102c8400e14f500078003a00708f20001040780027
:102c940002c6b3008240600000c2b30080cf50007f
:102ca40073003a00b08f2000104078000004e00068
:102cb40004003200b08f200010407800e14f500033
:102cc4006d003a00808f2000104078000080fb00e7
:102cd40001022000810f5000200032000102200078
:102ce400810f500005003c000000e0000a003200a3
:102cf400e10f500013003200600037001102200081
:102d0400810f50004300320021022000810f500047
:102d14004800320059003700e08c2000204788002a
:102d24008000200040478800304780000000a00059
:102d340030478800304780000070a000304788008a
:102d44004e003700e08c2000204788003047800088
:102d54000070a0003047880048003700d08f200062
:102d64001080fb00e18f20009180fb00c808dd008b
:102d740001007000f10f200001016000d18e2000dd
:102d840091417800e0c1610002c17100824878007d
:102d9400c800de00e08e2000104178006041610030
:102da4008140710001487800c08b2000f10f2000a1
:102db40001016000a18e200091417800e0c1610012
:102dc40002c1710082487800c800de00b08e200085
:102dd4001041780060416100814071000148780031
:102de400f08e200090407800e0c060000148780038
:102df400008f200090407800e0c060000148780017
:102e0400c08e2000904078000174a0000148780032
:102e14001a003700c08b2000204788007000200073
:102e240040478800608e200011ccb3000148780030
:102e340012003700908f20001080fb00a18f20002b
:102e44009180fb00c808dd0001007000004078009c
:102e54002ae8b700304780000070a000304788009f
:102e640000000000050037000000000003003700e8
:102e74000000000001003700000000000080fa009c
:102e8400000006000000fa0000b024000100200049
:102e9400e0458800f1458800008c20008040eb006c
:102ea40001487800108c20008040eb000148780035
:102eb400208c200081c0b300014878001e68ef0018
:102ec40051c1b30010c0b3002ef80700d1c1b30044
:102ed40020c0b3002bf8070003c4b300c28720004e
:102ee4008040eb0020c0b3004af80700304188005e
:102ef4002828ef001f68ef000080fa000000060099
:102f04000600fa00000f78000e80e800010878003f
:102f140064004700020878001e007800e50f5000a6
:102f240014003a00314180000e80e800100078005f
:102f3400810f500006003a0003c4b300c28720008a
:102f44008040eb0020c0b30032f807003041880015
:102f5400414180000e80e80010007800810f50008d
:102f640002003a001f68ef002468ef0010c0b300ad
:102f7400010037000040eb000080fa00000006006a
:102f84000400fa00000f78000e80e8000148780081
:102f94001e68ef00304180000000e00006003200af
:102fa400304180009000780000002800008060001c
:102fb4000000e00025003a00304180009040780095
:102fc4000e80e8001040780080cf500004003100eb
:102fd40030418000800078000e80e80011487800bd
:102fe4001e68ef000d0037001ec8bf000080fb0004
:102ff4001e004000e1812000914078008180fb00a8
:10300400c287200081004100914078000148780087
:103014001ec8bf000040e8001ee8b700e1812000a0
:10302400914078000e80e8001040780080cf500076
:10303400edff390003c4b300c28720008040eb00d9
:1030440020c0b300f3f70700304188001ec8bf005a
:103054000080fa00000006000400fa00000f780067
:103064000e80e800014878009ec0a9001fc8bf0078
:103074000004e0000a003a009e0078000141880044
:103084000e80e800904078004282200001497800d8
:1030940010c0b30025e8b70010c0b3001fe8b700a4
:1030a4009ec0a8000080fa00000006000600fa0096
:1030b400e4004700800878009ec0a9001fc8bf0034
:1030c4000004e000020032009ec0a8002400370083
:1030d4000040eb00004f78000e80e800e400470059
:1030e400110878001e4fe8001e407800e14f4000b0
:1030f4000f0032000e80e8001000780010407800c5
:103104000080fb000000ea004f00de000040780071
:103114008e80e800910078000101e8008e80e800cc
:10312400820878000004e000eeff3a000100370056
:10313400000000006400470010007800004188008f
:103144001e417800418220008248780010c0b300fc
:1031540025e8b70010c0b3001fe8b7009ec0a80060
:103164000080fa00000006000600fa00e4004700b0
:10317400800878009ec0a9001fc8bf000004e000ba
:10318400020032009ec0a800230037000040eb007c
:10319400004f78000e80e800e40047001108780032
:1031a4001e4fe8001e407800e14f40000f0032003f
:1031b4000e80e80010007800104078000080fb00ca
:1031c4000000ea004f00de00004078008e80e80036
:1031d400910078000101e8008e80e8008208780000
:1031e4000004e000eeff3a00010037000000000098
:1031f4006400470010007800004188001e417800f8
:1032040041822000824878002568ef0010c0b30096
:103214001fe8b7009ec0a8000080fa000000060066
:103224000200fa009ec0a900404180000000e000b6
:10323400080032004041800090007800000028001f
:10324400008060000000e000020032009ec0a80080
:10325400680037001fc8bf00e34f500001003a0068
:103264001f68ef001fc8bf000004e00002003a001e
:103274009ec0a8005f0037001fc8bf00e24f500087
:1032840009003a008041eb000001eb0011c0b300db
:1032940020c0b3005ff707004041880030c0b3008e
:1032a4001fe8b700520037001fc8bf00e14f5000ad
:1032b4004f003a00418220009140780000c4b300de
:1032c40080cf50000300360000c4b300004f7800e4
:1032d400030037004182200091407800014f7800bc
:1032e40024c8bf001e40500024e8b700c08320005b
:1032f400104188000e00e8001e48780025c8bf0071
:103304000004e00024003a000f003700114180005f
:10331400004180001040780080487800104180000f
:103324000000e80010418800004180000000e8002f
:10333400004188000e00e800104078008040e90059
:103344000e00e800014878000e00e8001040780004
:103354000004e000edff3a00130037001141800043
:1033640000418000104078008048780010418000bf
:103374000000e80010418800004180000000e800df
:10338400004188000e00e800104078008040e90009
:103394000e00e800014878000e00e80010407800b4
:1033a4000004e000edff3a0024c8bf000004e00080
:1033b40009003a0000c4b3009e40780080cf50005a
:1033c40003003a0020c0b3001fe8b7000200370032
:1033d40030c0b3001fe8b7009e417800c2832000cc
:1033e40011c0b30020c0b3000af7070040418800b1
:1033f4009ec0a8000080fa00000006000000fa0049
:10340400ab0007000cc8bf000004e000010032005c
:103414000dc8bf000040fe005120800000022000c3
:10342400008060000000e00002003a0010c0b30019
:1034340041000700dc00070010c0b3000080fa0060
:10344400000006000000fa000cc8bf000004e00001
:10345400360032000dc8bf000004e0003300320023
:1034640040208000620060000000e00001003200a3
:103474000824a9007a000700000420000020880026
:103484000000000001208000000420000080600093
:103494000000e000fbff3200000420000020880050
:1034a4000000000001208000000420000080600073
:1034b4000000e000fbff3200000420000020880030
:1034c4000000000001208000000420000080600053
:1034d4000000e000fbff32001444a80000042000b8
:1034e400002088000000000001208000000420006b
:1034f400008060000000e000fbff320000042000b8
:10350400002088000000000001208000000420004a
:10351400008060000000e000fbff32001444a900ba
:103524005c00070010c0b300010037000040eb004e
:103534000080fa00000006000400fa008e80e80013
:103544008048780040208000610060000000e000b6
:103554000b00320040208000620060000000e000a8
:1035640007003a001cc8bf00e34f500004003600b7
:10357400202080004300de006140600036003700f8
:103584000e80e800104078000004e00020003200c3
:103594000824a9000804a800310007000040eb003b
:1035a400004f780009003700000420000020880044
:1035b4000000000001208000000420000080600062
:1035c4000000e000fbff32001e4fe8001e407800c0
:1035d400e44f5000f4ff36008040eb000e00e8009a
:1035e4000148780020208000680060000000e000ae
:1035f4000300320011c0b3000e00e8000148780057
:10360400240007000e00e800104078001200370084
:1036140040208000610060000000e00002003a00e9
:1036240000c0eb000c003700402080006200600006
:103634000000e00002003a00e0cfb30006003700cb
:103644001cc8bf00e34f500002003e00d0cfb300bf
:1036540001003700c0cfb3000080fa00000006006c
:103664000000fa003868ef001000fc00f10480004c
:1036740000042000008060000000e000020032002e
:1036840010c0b30038e8b7009ec0a9000080fa005b
:10369400000006000000fa0038c8bf000004e00083
:1036a400010032009ec0a8000080fa00000006005d
:1036b4000400fa001e00fc0011028000000e20002d
:1036c400008060008041880011028000000e20000c
:1036d4000100700010028800410920000e80e800fb
:1036e400010878000000eb00000f7800120037009a
:1036f4000e80e80010007800100178001e007800a9
:103704008000400080922000008040000208780081
:103714000e80e800100078008000eb0001087800bb
:103724000e80e800100078008080e8000e80e80039
:10373400010878001e0fe8001e007800e60f500014
:10374400ebff360060208000904188000c24ef00dd
:1037540010208000a04188000224ef007006800041
:103764004800de00674060000080fb00b041880034
:103774000001200000208800000220005020880062
:103784008ec0a9000284a80071068000f08f2f006b
:103794000080600000a0a000700688009ec0a80001
:1037a4000080fa00000006000400fa00410920002d
:1037b4000e80e800010878000000eb00000f78009c
:1037c4000e0037001e007800800040008092200028
:1037d40000804000900078000e80e800100078001f
:1037e400010878000e80e800100078008080e8006e
:1037f4000e80e800010878001e0fe8001e00780023
:10380400e60f5000efff36009041800060208800f2
:10381400a041800010208800b04180000040780062
:10382400674060000080fb00670060004800dd0026
:1038340072068000f18f2f0081006100010070008a
:103844007006880011028000f0f12f0000806000f3
:1038540081418000008070008041880080418000a8
:10386400100288000080fa00000006000600fa003a
:10387400000f78000e80e80001087800640047001b
:10388400020878001e00780021072000810f5000f4
:103894001800320021072000810f50000a003c006c
:1038a400e20f500015003200e20f500003003c000c
:1038b400e10f50000b00320015003700e30f5000f9
:1038c4000a0032001200370041072000810f500027
:1038d4000c00320041072000810f50000b0035001e
:1038e4000b00370067fd070009003700e0fc070004
:1038f400070037000000000005003700000000004a
:103904000300370000000000010037000000000041
:1039140010c0b3000080fa00000006000000fa00a6
:1039240000042300100888000621ef006821ef003e
:103934006a21ef006e21ef007021ef007221ef0089
:103944007421ef007621ef007a21ef007c21ef0053
:103954007e21ef001200200080072000a109200032
:10396400131020008049780081497800824978004a
:1039740012002000600420007105200003102000c4
:10398400804978008149780082497800000000006d
:1039940000088000610060000000e000fcff3a00c5
:1039a4000000000001088000000220000080600088
:1039b4000000e000fbff32000080fa000000060077
:020000040000fa
:1039c4003c0800009a000000800000001e0800006f
:1039d4001200000080000000d60800003200000041
:1039e40080000000000800001e00000080000000ad
:1039f400000a0000300000008000000028090000d8
:103a04000e00000080000000300800000a000000e2
:103a14008000000008090000200000008000000071
:103a24003a0800000200000082000000ffff0000ce
:043a3400000000008e
:020000040000fa
:103a38000000fa008421ef008e21ef009821ef00aa
:103a480070792000000c8800f0ff2e00500c8800d0
:103a5800f03f2000a00c88005620ef005820ef000f
:103a68005a20ef006e20ef007020ef007220ef0068
:103a78008621ef009021ef009a21ef0070002000ce
:103a8800400c8800c0242e00900c88007000200094
:103a9800e00c88000080fa00000006000200fa002e
:103aa800000f78009e007800d1418800ffff3700a2
:103ab8000000fa0080902000800778000092200023
:103ac800000188000080fa00000006000000fa00eb
:103ad80071068000f08f2f00008060000080a00039
:103ae800700688000080fa00000006000000fa0056
:103af800cfff070088ff0700f4ff0700e3f3070084
:103b080073f607000080fa00000006000000fa00c3
:083b1800f6ff0700ffff370074
:020000040000fa
:020000040002f8
:04aff000ffc7000097
:020000040000fa
:020000040002f8
:04aff400fff6000064
:020000040000fa
:020000040002f8
:04aff8005f380000be
:020000040000fa
:020000040002f8
:04affc003f3f0000d3
:00000001FF
