:020000040000fa
:080000000002040000000000f2
:020000040000fa
:04000800ea03000007
:020000040000fa
:04000c003c030000b1
:020000040000fa
:040010007e0300006b
:020000040000fa
:040014005c03000089
:020000040000fa
:040018009e03000043
:020000040000fa
:04001c00ea030000f3
:020000040000fa
:04002000ea030000ef
:020000040000fa
:04002400ea030000eb
:020000040000fa
:04002800ea030000e7
:020000040000fa
:04002c00ea030000e3
:020000040000fa
:04003000ea030000df
:020000040000fa
:04003400ea030000db
:020000040000fa
:04003800ea030000d7
:020000040000fa
:04003c00ea030000d3
:020000040000fa
:04004000ea030000cf
:020000040000fa
:04004400ea030000cb
:020000040000fa
:04004800ea030000c7
:020000040000fa
:04004c00ea030000c3
:020000040000fa
:04005000ea030000bf
:020000040000fa
:04005400ea030000bb
:020000040000fa
:04005800ea030000b7
:020000040000fa
:04005c00ea030000b3
:020000040000fa
:04006000ea030000af
:020000040000fa
:04006400ea030000ab
:020000040000fa
:04006800ea030000a7
:020000040000fa
:04006c00ea030000a3
:020000040000fa
:04007000ea0300009f
:020000040000fa
:04007400ea0300009b
:020000040000fa
:04007800ea03000097
:020000040000fa
:04007c00ea03000093
:020000040000fa
:04008000ea0300008f
:020000040000fa
:04008400ea0300008b
:020000040000fa
:04008800ea03000087
:020000040000fa
:04008c00ea03000083
:020000040000fa
:04009000ea0300007f
:020000040000fa
:04009400ea0300007b
:020000040000fa
:04009800ea03000077
:020000040000fa
:04009c00ea03000073
:020000040000fa
:0400a000ea0300006f
:020000040000fa
:0400a400ea0300006b
:020000040000fa
:0400a800ea03000067
:020000040000fa
:0400ac00ea03000063
:020000040000fa
:0400b000ea0300005f
:020000040000fa
:0400b400ea0300005b
:020000040000fa
:0400b800ea03000057
:020000040000fa
:0400bc00ea03000053
:020000040000fa
:0400c000ea0300004f
:020000040000fa
:0400c400ea0300004b
:020000040000fa
:0400c800ea03000047
:020000040000fa
:0400cc00ea03000043
:020000040000fa
:0400d000ea0300003f
:020000040000fa
:0400d400ea0300003b
:020000040000fa
:0400d800ea03000037
:020000040000fa
:0400dc00ea03000033
:020000040000fa
:0400e000ea0300002f
:020000040000fa
:0400e400ea0300002b
:020000040000fa
:0400e800ea03000027
:020000040000fa
:0400ec00ea03000023
:020000040000fa
:0400f000ea0300001f
:020000040000fa
:0400f400ea0300001b
:020000040000fa
:0400f800ea03000017
:020000040000fa
:0400fc00ea03000013
:020000040000fa
:04010000ea0300000e
:020000040000fa
:04010400ea0300000a
:020000040000fa
:04010800ea03000006
:020000040000fa
:04010c00ea03000002
:020000040000fa
:04011000ea030000fe
:020000040000fa
:04011400ea030000fa
:020000040000fa
:04011800ea030000f6
:020000040000fa
:04011c00ea030000f2
:020000040000fa
:04012000ea030000ee
:020000040000fa
:04012400ea030000ea
:020000040000fa
:04012800ea030000e6
:020000040000fa
:04012c00ea030000e2
:020000040000fa
:04013000ea030000de
:020000040000fa
:04013400ea030000da
:020000040000fa
:04013800ea030000d6
:020000040000fa
:04013c00ea030000d2
:020000040000fa
:04014000ea030000ce
:020000040000fa
:04014400ea030000ca
:020000040000fa
:04014800ea030000c6
:020000040000fa
:04014c00ea030000c2
:020000040000fa
:04015000ea030000be
:020000040000fa
:04015400ea030000ba
:020000040000fa
:04015800ea030000b6
:020000040000fa
:04015c00ea030000b2
:020000040000fa
:04016000ea030000ae
:020000040000fa
:04016400ea030000aa
:020000040000fa
:04016800ea030000a6
:020000040000fa
:04016c00ea030000a2
:020000040000fa
:04017000ea0300009e
:020000040000fa
:04017400ea0300009a
:020000040000fa
:04017800ea03000096
:020000040000fa
:04017c00ea03000092
:020000040000fa
:04018000be030000ba
:020000040000fa
:04018400ea0300008a
:020000040000fa
:04018800ea03000086
:020000040000fa
:04018c00ea03000082
:020000040000fa
:04019000ea0300007e
:020000040000fa
:04019400ea0300007a
:020000040000fa
:04019800ea03000076
:020000040000fa
:04019c00ea03000072
:020000040000fa
:0401a000ea0300006e
:020000040000fa
:0401a400ea0300006a
:020000040000fa
:0401a800ea03000066
:020000040000fa
:0401ac00ea03000062
:020000040000fa
:0401b000ea0300005e
:020000040000fa
:0401b400ea0300005a
:020000040000fa
:0401b800ea03000056
:020000040000fa
:0401bc00ea03000052
:020000040000fa
:0401c000ea0300004e
:020000040000fa
:0401c400ea0300004a
:020000040000fa
:0401c800ea03000046
:020000040000fa
:0401cc00ea03000042
:020000040000fa
:0401d000ea0300003e
:020000040000fa
:0401d400ea0300003a
:020000040000fa
:0401d800ea03000036
:020000040000fa
:0401dc00ea03000032
:020000040000fa
:0401e000ea0300002e
:020000040000fa
:0401e400ea0300002a
:020000040000fa
:0401e800ea03000026
:020000040000fa
:0401ec00ea03000022
:020000040000fa
:0401f000ea0300001e
:020000040000fa
:0401f400ea0300001a
:020000040000fa
:0401f800ea03000016
:020000040000fa
:0401fc00ea03000012
:020000040000fa
:04020800ea03000005
:020000040000fa
:04020c003c030000af
:020000040000fa
:040210007e03000069
:020000040000fa
:040214005c03000087
:020000040000fa
:040218009e03000041
:020000040000fa
:04021c00ea030000f1
:020000040000fa
:04022000ea030000ed
:020000040000fa
:04022400ea030000e9
:020000040000fa
:04022800ea030000e5
:020000040000fa
:04022c00ea030000e1
:020000040000fa
:04023000ea030000dd
:020000040000fa
:04023400ea030000d9
:020000040000fa
:04023800ea030000d5
:020000040000fa
:04023c00ea030000d1
:020000040000fa
:04024000ea030000cd
:020000040000fa
:04024400ea030000c9
:020000040000fa
:04024800ea030000c5
:020000040000fa
:04024c00ea030000c1
:020000040000fa
:04025000ea030000bd
:020000040000fa
:04025400ea030000b9
:020000040000fa
:04025800ea030000b5
:020000040000fa
:04025c00ea030000b1
:020000040000fa
:04026000ea030000ad
:020000040000fa
:04026400ea030000a9
:020000040000fa
:04026800ea030000a5
:020000040000fa
:04026c00ea030000a1
:020000040000fa
:04027000ea0300009d
:020000040000fa
:04027400ea03000099
:020000040000fa
:04027800ea03000095
:020000040000fa
:04027c00ea03000091
:020000040000fa
:04028000ea0300008d
:020000040000fa
:04028400ea03000089
:020000040000fa
:04028800ea03000085
:020000040000fa
:04028c00ea03000081
:020000040000fa
:04029000ea0300007d
:020000040000fa
:04029400ea03000079
:020000040000fa
:04029800ea03000075
:020000040000fa
:04029c00ea03000071
:020000040000fa
:0402a000ea0300006d
:020000040000fa
:0402a400ea03000069
:020000040000fa
:0402a800ea03000065
:020000040000fa
:0402ac00ea03000061
:020000040000fa
:0402b000ea0300005d
:020000040000fa
:0402b400ea03000059
:020000040000fa
:0402b800ea03000055
:020000040000fa
:0402bc00ea03000051
:020000040000fa
:0402c000ea0300004d
:020000040000fa
:0402c400ea03000049
:020000040000fa
:0402c800ea03000045
:020000040000fa
:0402cc00ea03000041
:020000040000fa
:0402d000ea0300003d
:020000040000fa
:0402d400ea03000039
:020000040000fa
:0402d800ea03000035
:020000040000fa
:0402dc00ea03000031
:020000040000fa
:0402e000ea0300002d
:020000040000fa
:0402e400ea03000029
:020000040000fa
:0402e800ea03000025
:020000040000fa
:0402ec00ea03000021
:020000040000fa
:0402f000ea0300001d
:020000040000fa
:0402f400ea03000019
:020000040000fa
:0402f800ea03000015
:020000040000fa
:0402fc00ea03000011
:020000040000fa
:04030000ea0300000c
:020000040000fa
:04030400ea03000008
:020000040000fa
:04030800ea03000004
:020000040000fa
:04030c00ea03000000
:020000040000fa
:04031000ea030000fc
:020000040000fa
:04031400ea030000f8
:020000040000fa
:04031800ea030000f4
:020000040000fa
:04031c00ea030000f0
:020000040000fa
:04032000ea030000ec
:020000040000fa
:04032400ea030000e8
:020000040000fa
:04032800ea030000e4
:020000040000fa
:04032c00ea030000e0
:020000040000fa
:04033000ea030000dc
:020000040000fa
:04033400ea030000d8
:020000040000fa
:04033800ea030000d4
:020000040000fa
:04033c00ea030000d0
:020000040000fa
:04034000ea030000cc
:020000040000fa
:04034400ea030000c8
:020000040000fa
:04034800ea030000c4
:020000040000fa
:04034c00ea030000c0
:020000040000fa
:04035000ea030000bc
:020000040000fa
:04035400ea030000b8
:020000040000fa
:04035800ea030000b4
:020000040000fa
:04035c00ea030000b0
:020000040000fa
:04036000ea030000ac
:020000040000fa
:04036400ea030000a8
:020000040000fa
:04036800ea030000a4
:020000040000fa
:04036c00ea030000a0
:020000040000fa
:04037000ea0300009c
:020000040000fa
:04037400ea03000098
:020000040000fa
:04037800ea03000094
:020000040000fa
:04037c00ea03000090
:020000040000fa
:04038000be030000b8
:020000040000fa
:04038400ea03000088
:020000040000fa
:04038800ea03000084
:020000040000fa
:04038c00ea03000080
:020000040000fa
:04039000ea0300007c
:020000040000fa
:04039400ea03000078
:020000040000fa
:04039800ea03000074
:020000040000fa
:04039c00ea03000070
:020000040000fa
:0403a000ea0300006c
:020000040000fa
:0403a400ea03000068
:020000040000fa
:0403a800ea03000064
:020000040000fa
:0403ac00ea03000060
:020000040000fa
:0403b000ea0300005c
:020000040000fa
:0403b400ea03000058
:020000040000fa
:0403b800ea03000054
:020000040000fa
:0403bc00ea03000050
:020000040000fa
:0403c000ea0300004c
:020000040000fa
:0403c400ea03000048
:020000040000fa
:0403c800ea03000044
:020000040000fa
:0403cc00ea03000040
:020000040000fa
:0403d000ea0300003c
:020000040000fa
:0403d400ea03000038
:020000040000fa
:0403d800ea03000034
:020000040000fa
:0403dc00ea03000030
:020000040000fa
:0403e000ea0300002c
:020000040000fa
:0403e400ea03000028
:020000040000fa
:0403e800ea03000024
:020000040000fa
:0403ec00ea03000020
:020000040000fa
:0403f000ea0300001c
:020000040000fa
:0403f400ea03000018
:020000040000fa
:0403f800ea03000014
:020000040000fa
:0403fc00ea03000010
:020000040000fa
:100400000fe220000e7f22000e0188000000000095
:10041000000020000000e000020032000001200087
:100420002002880014000700ec0007000000e00034
:1004300003003a00a0d0280001002000020037008d
:100440000000200001002000810f70000100320038
:1004500014000700000020000000e000020032004d
:1004600000000200000000000a7f020000000000ff
:100470000040da000000fe004440a900c056210000
:100480000000e000030032000020200090018800fe
:100490004440a800000006008a1f78008b1f7800e7
:1004a00000000600a1028800800478000000eb0034
:1004b0001f003700e284440054a0b4009905ba003c
:1004c000e284440054a0b4009906ba00e2844400d7
:1004d00054a0b4000006eb00476fde00fd07b20039
:1004e000ae018800636ce10003003a00eaff0700f8
:1004f0000000eb000e003700606ce10008003a00dd
:10050000004deb000a05e800020039003420ec0041
:100510000af0a0008b05e900f9ff3e000400370057
:100520006168e100010032000086eb000b0007006b
:1005300019c7ba001905ba000e04e00003003a001a
:100540000a00e000dbff3a0000000600fe07b200f0
:10055000ae0288008a047800f5ff37000cd0a300b3
:10056000e20f4d001c00390089027800354dba00b9
:100570000a05e800020039003420ec000af0a0006f
:100580008b05e9000f003200254dba000a05e8008e
:10059000020039003420ec000af0a0008b05e900cd
:1005a000080032000c00e0000600320015cdba0051
:1005b0000a05e800020039003420ec000af0a0002f
:1005c0008b05e9008984e80054a0b4000b00e0002a
:1005d000e2ff3a00000006009902ba00055d7800cb
:1005e0008b05e900f7ff3200c82ade00055d7800c0
:1005f0008b05e900f3ff32000c00e000f1ff320050
:1006000019ddba00eeff37002e850400000000005f
:100610009c8e0400000000008c8504000000000097
:10062000a685040000000000e28504000000000030
:100630001a86040000000000548604000000000038
:1006400060860400000000008686040000000000b0
:100650006a86040000000000a68e0400000000006e
:10066000b08e040000000000ac8404000000000014
:10067000f88b0400000000003600f800809fbe00e8
:10068000829fbe00849fbe00869fbe000000fa00cd
:100690008020a9000000eb00f24507000080fa006e
:1006a0004f03be004f02be004f01be004f00be0010
:1006b0003600f900004006003600f800809fbe00ba
:1006c000829fbe00849fbe00869fbe000000fa008d
:1006d000e94507008040a90010002000e14507001f
:1006e0000080fa004f03be004f02be004f01be0063
:1006f0004f00be003600f900004006003600f8004a
:10070000809fbe00829fbe00849fbe00869fbe0069
:100710000000fa008060a90020002000d1450700f9
:100720000080fa004f03be004f02be004f01be0022
:100730004f00be003600f900004006003600f80009
:10074000809fbe00829fbe00849fbe00869fbe0029
:100750000000fa008080a90030002000c145070099
:100760000080fa004f03be004f02be004f01be00e2
:100770004f00be003600f900004006003600f800c9
:10078000809fbe00829fbe00849fbe00869fbe00e9
:100790003200f8003400f80010002000a0018800aa
:1007a00000202000900188000000fa00632b070061
:1007b0000080fa003400f9003200f9004f03be0057
:1007c0004f02be004f01be004f00be003600f900d0
:1007d000004006000040da000000fe0000000500b6
:1007e0006022b800060220000000d0008180d20004
:1007f0000482d2008582d2000000a00002025200d2
:1008000083825a00030031000202420083824a00c0
:100810000000a1000603e900f3ff3a000000060013
:10082000889fbe008a9fbe0030044200b0844a0008
:1008300030054b0090854b006000b1000898be0069
:100840000a90be000440e10005c8e10006d0e100c6
:1008500007d8e10002003100680040001008e800fd
:100860004f05be004f04be0000000600889fbe007a
:100870008a9fbe003004be002005be00041854004c
:1008800005985c0006185d0007985d0011002000c7
:100890000440e10005c8e10006d0e10007d8e1000e
:1008a000010039008000eb00108810004f05be00e9
:1008b0004f04be0000000600f4874700889fbe007a
:1008c0008a9fbe008c9fbe008e1f7800d0b79f000d
:1008d000e1b79f00f2b79f0083bf9f000605be00ef
:1008e0000404be00cfae97000000eb00c0b79f002d
:1008f000b0b79f00a0b79f0090b79f0080b79f0040
:10090000000678004fb09700000140000000e000b2
:1009100006003d003c0007000f07470045000700a8
:100920000f004000beff070005003700360007003b
:100930000f0747003f0007000f004000cbff0700f4
:100940004fb797000e00e0000c0035005fb2970033
:10095000efb297007fb397008fbb97001000200085
:10096000010020006011b800000272008182720054
:1009700002037300838373001c0007000c06e80069
:1009800001042000810f5600deff3a000e00e00057
:1009900005003d000802be000a03be0000fe2f0055
:1009a0000f0040009eff07000d00e00005003a0028
:1009b0000fb297009fb297002fb39700bfb3970075
:1009c0000a0007005fb09700efb097007fb1970073
:1009d0008fb997004f0778004f06be004f05be0045
:1009e0004f04be004f01b1000000060001000700e7
:1009f0000000060094b79f00a5b79f00b6b79f0000
:100a0000c7b79f00000006009fb097004f08de00a8
:100a100002017000a2b79f000fb097004f01de00e7
:100a2000818040008100710091b79f000efe2f0071
:100a300000000600de0078004f09de0000004000e4
:100a40000000710080b79f006fa897004f01de0083
:100a500081804000010f71000e0007004f3ade0058
:100a60000000400004007000e0af9f000900070094
:100a70000402420085824a0006034b0087834b0034
:100a8000dcff07000802be000a03be0000fe2f00c4
:100a9000000006001fb29700afb297003fb3970067
:100aa000cfb3970000000600881f780018002000d0
:100ab000881f780080ff07008f87e9004f047800c7
:100ac00000000600801feb007bff07008f87e90016
:100ad00000000600889fbe008a9fbe00e00f500005
:100ae000e08f5800e00f5900e08f59000c003d00e6
:100af0006044b8006055b8000000540081805c007c
:100b000002015d0083815d001800200015000700d0
:100b100008003d00180007000004eb000500370046
:100b20000004eb000f00070002003d001200070068
:100b300018002000dcff07000800e000060032007b
:100b40006022b8006033b8000000520081805a0073
:100b500002015b0083815b004f05be004f04be00b5
:100b600000000600e00f5200e08f5a00e00f5b002b
:100b7000e08f5b00000006006044b8006055b800dc
:100b80000402540085825c0006035d0087835d00db
:100b900000000600889fbe008a9fbe008c1f780060
:100ba000e00f5000e08f5800e00f5900e08f59002f
:100bb0000d003d006044b8006055b80000005400ce
:100bc00081805c0002015d0083815d001c002000cb
:100bd0000820e10009a8e1000ab0e1000bb8e1003b
:100be0000d003d00080037000006eb00e00f52004a
:100bf000e08f5a00e00f5b00e08f5b0006003d00d5
:100c00006044b8006055b8000402540085825c005e
:100c100006035d0087835d00aaff07000c00e0006b
:100c2000060032006022b8006033b80000005200b5
:100c300081805a0002015b0083815b004f067800cf
:100c40004f05be004f04be0000000600889fbe0096
:100c50008a9fbe008c1f78000006eb00e00f50005a
:100c6000e08f5800e00f5900e08f590007003d0069
:100c70006044b8006055b8000000540081805c00fa
:100c800002015d0083815d001c002000e00f520026
:100c9000e08f5a00e00f5b00e08f5b0007003d0033
:100ca0006044b8006055b8000402540085825c00be
:100cb00006035d0087835d000c00a2000c000700a6
:100cc0000c00e000060032006022b8006033b8007b
:100cd0000000520081805a0002015b0083815b00aa
:100ce0004f0678004f05be004f04be00000006000e
:100cf000889fbe008a9fbe008c9fbe000404b8007f
:100d00000506b8008904460060854e000606b80056
:100d10000a054600e0854e000706b8008b05460030
:100d2000040eb800890446000a854e00e0854d0097
:100d3000050eb8000a0546008b854e00060eb80069
:100d40008b0546000416b8000a0546008b854e0048
:100d50000516b8008b054600041eb8008b0546003a
:100d60000800be000a01be004f06be004f05be00cf
:100d70004f04be000000060080017800020037002a
:100d8000b15978000201e9000200e000fcff3a00de
:100d900000000600889fbe008a9fbe008004780085
:100da0000200e0005a00320001407800814c7800d7
:100db00082814400f1f99f00e20f51005400360097
:100dc00091449800a1449800e1f99f00d1f99f0057
:100dd000e60f51004e003600b1449800c1f99f0063
:100de000e80f51004a0036000905ea006305650076
:100df0000a8444000a055100c1ff2f000105650067
:100e00000080fb008000eb00121020001310200077
:100e100043000700008cbe000a01440060b99f0037
:100e200071b99f00e80f5500390036002004980082
:100e300031049800400498005104980020b99f00a4
:100e400031b99f0040b99f0051b99f00f80f55007c
:100e50002f0036006004980071049800000c980080
:100e6000110c9800200c9800310c9800400c980050
:100e7000510c980020b19f0031b19f0040b19f00fc
:100e800051b19f0060b19f0071b19f0000b99f00f8
:100e900011b99f006401640078014100020444001c
:100ea000020555006011b8000203be000002be003a
:100eb0000403be006022b80000007200818072004e
:100ec00002017300838173000f003700080278006d
:100ed000009abe00029abe00009abe000292be00b6
:100ee000000c9800110c9800220c9800330c98000c
:100ef000400c9800510c9800620c9800730c9800fc
:100f00000a02b1000802b000ff0f5500efff3e00db
:100f1000090078004f05be004f04be000000060027
:100f2000020ab900001bb9000200b80081004200ab
:080f30008100430000000600ef
:020000040000fa
:100f38000000000000000000000000001fa00000ea
:100f480038000000000000003800000000800000a9
:100f580004e00000078000001ce00000078000009b
:100f68001c8000000400000006200000092000008a
:100f78003ff800000920000008c000000c00000035
:100f880012000000120000000c6000000180000048
:100f98000600000018c00000012000000120000029
:100fa80000c000000dc00000122000001220000048
:100fb8000d20000000c000000340000000200000d9
:100fc8003800000007c000001830000020080000aa
:100fd800200800001830000007c0000014000000be
:100fe800080000003e000000080000001400000097
:100ff8000100000001000000010000000fe00000f7
:1010080001000000010000000100000000080000cd
:101018000070000001000000010000000100000055
:10102800006000000038000007c000003800000021
:101038000fc0000010200000102000001020000049
:101048000fc00000082000001fe000000020000082
:101058000860000010a0000011200000122000000d
:101068000c200000084000001020000012200000a2
:10107800122000000dc00000030000000500000061
:10108800090000001fe00000010000001e400000f1
:1010980012200000122000001220000011c00000e1
:1010a80007c000000a2000001220000012200000e3
:1010b80001c0000010000000106000001180000056
:1010c80016000000180000000dc0000012200000eb
:1010d80012200000122000000dc000000e000000c9
:1010e8001120000011200000114000000f800000b6
:1010f8000660000000080000067000000100000003
:10110800028000000280000004400000044000004b
:101118000820000002800000028000000280000019
:1011280002800000028000000280000002800000af
:101138000820000004400000044000000280000075
:1011480002800000010000001000000011a0000053
:10115800120000000c00000007c00000082000007a
:1011680013900000145000001450000017d0000025
:1011780010400000084000000780000000e0000068
:101188000780000018800000188000000780000019
:1011980000e000001fe00000122000001220000004
:1011a800122000000dc00000078000000840000069
:1011b8001020000010200000102000001020000067
:1011c8001fe0000010200000102000001020000088
:1011d80008400000078000001fe000001220000007
:1011e8001220000012200000102000001fe0000064
:1011f800120000001200000012000000120000009f
:1012080007800000084000001020000011200000a6
:101218001120000011e000001fe0000002000000a3
:101228000200000002000000020000001fe00000b1
:10123800102000001fe00000102000000020000027
:1012480010200000102000001fc000001fe0000058
:101258000300000004800000084000001020000087
:101268001fe0000000200000002000000020000017
:101278001fe00000180000000600000001800000c8
:1012880006000000180000001fe000001fe000003a
:101298001800000006000000018000000060000047
:1012a8001fe0000007800000084000001020000038
:1012b80010200000102000000840000007800000f7
:1012c8001fe00000110000001100000011000000e4
:1012d8000e000000078000000840000010200000f9
:1012e80010200000103000000848000007880000a7
:1012f8001fe0000011000000110000001180000034
:101308000e400000002000000c2000001220000009
:10131800122000001220000011c000001000000080
:10132800100000001fe00000100000001000000086
:101338001fc0000000200000002000000020000066
:10134800002000001fc000001c00000003800000f7
:1013580000600000038000001c0000001c0000006a
:101368000380000000600000038000001c000000f3
:101378000380000000600000038000001c000000e3
:1013880018600000048000000300000004800000d2
:1013980018600000180000000600000001e00000ce
:1013a80006000000180000001060000010a00000f7
:1013b8001320000014200000182000003ff800004f
:1013c80020080000200800003800000007c00000c6
:1013d8000038000020080000200800003ff8000046
:1013e80002000000040000000800000010000000d7
:1013f80008000000040000000200000000080000cf
:1014080000080000000800000008000000080000b4
:1014180000080000200000001000000000c00000cc
:1014280005200000052000000520000003e0000062
:101438003fe0000004200000042000000420000019
:1014480003c0000003c000000420000004200000c6
:101458000420000003c00000042000000420000055
:10146800042000003fe0000003c000000520000049
:101478000520000005200000034000001fe00000d8
:10148800240000002400000003c00000042800001d
:10149800042800000428000007f000003fe00000d6
:1014a80004000000040000000400000003e0000045
:1014b80017e000000408000017f000003fe00000fb
:1014c800010000000280000004400000002000002d
:1014d8003fe0000007e000000400000004000000f6
:1014e80003e00000040000000400000003e0000026
:1014f80007e00000040000000400000004000000f1
:1015080003e0000003c000000420000004200000e5
:101518000420000003c0000007f8000004200000b9
:10152800042000000420000003c0000003c00000e5
:1015380004200000042000000420000007f8000038
:1015480007e0000002000000040000000320000083
:101558000520000004a0000004c000001fc0000017
:10156800042000000420000007c000000020000044
:10157800002000000020000007e000000600000036
:1015880001800000006000000180000006000000eb
:1015980007800000006000000180000006000000d5
:1015a80001800000006000000780000004200000a7
:1015b80002400000018000000240000004200000fa
:1015c8000600000001980000006000000180000093
:1015d800060000000460000004a0000005200000d0
:1015e8000620000001000000010000001ef00000bd
:1015f800200800003ff80000200800001ef000004e
:10160800010000000100000001800000020000004d
:1016180002000000010000000080000000800000bf
:1016280003000000050000000f80000015400000c6
:101638001520000015200000152000000100000002
:101648000380000007c000000fe0000017f0000052
:101658003658000016f0000009e0000007c000003e
:10166800038000000100000000100000006000007e
:101678000010000000100000026000000f80000051
:1016880012000000100000000010000000600000c0
:1016980000100000006000000020000000000000b2
:1016a8000000000000200000000000000000000012
:1016b8000020000008000000080000003fc00000f3
:1016c80008000000080000000900000009000000f0
:1016d8003fc00000090000000900000010000000e1
:1016e8002000000020000000100000000c00000096
:1016f80012000000120000000c60000001800000d1
:101708000600000018c000000120000001200000b1
:1017180000c000000000000000c000000120000020
:101728000120000000c000000c20000092200000f2
:10173800522000005220000091c00000010000006b
:1017480002800000044000000780000008400000fc
:101758001020000010200000102000001fe00000f2
:1017680012200000122000001220000012200000a9
:10177800010000000380000007c000000fe0000027
:1017880017f000003658000016f0000009e00000cd
:1017980007c0000003800000010000001060000086
:1017a80090a0000053200000542000009820000062
:1017b800010000000380000007c000000fe00000e7
:1017c80017f000003658000016f0000009e000008d
:1017d80007c00000038000000100000001000000b5
:1017e8000380000007c000000fe0000017f00000b1
:1017f8003658000016f0000009e0000007c000009d
:101808000380000001000000300000000800000014
:101818000800000030000000300000000800000050
:101828003000000008000000080000003000000040
:1018380008000000300000000180000003c0000024
:1018480003c000000180000001000000010000004a
:10185800010000000100000001000000010000007c
:10186800010000000100000001000000010000006c
:10187800010000000100000001000000010000005c
:1018880001000000010000003000000020000000fe
:101898001000000030000000100000001e000000d2
:1018a80010000000000000001e00000008000000fa
:1018b80004000000080000001e00000023200000b3
:1018c8001520000014a0000024c0000004400000ff
:1018d800028000000100000003c000000420000096
:1018e800042000000420000003c0000005200000c0
:1018f8000520000005200000032000000100000072
:101908000380000007c000000fe0000017f000008f
:101918003658000016f0000009e0000007c000007b
:1019280003800000010000002460000014a00000f3
:1019380015200000262000001800000046000000c6
:1019480001e0000046000000180000000000000050
:10195800000000000000000017e0000003c00000c5
:10196800042000001ff800000420000004200000ec
:10197800012000000fe000001120000011200000ed
:1019880010200000044000000380000002800000d6
:101998000380000004400000108000000c8000005c
:1019a80003e000000c800000108000003cf80000fc
:1019b8000d8800001248000012480000124800007c
:1019c80011b000001000000000000000100000002e
:1019d80007c0000008200000139000001450000009
:1019e80014500000145000001010000008200000df
:1019f80007c00000120000001500000015000000dc
:101a08000f000000010000000280000005400000f7
:101a180002800000044000000100000001000000f6
:101a280001000000010000000100000001e00000ca
:101a380001000000010000000100000007c00000d4
:101a4800082000001010000017d00000151000003a
:101a580015900000125000000820000007c0000088
:101a6800400000004000000040000000400000006e
:101a780040000000400000000c00000012000000c0
:101a8800120000000c0000000240000002400000ac
:101a9800024000001fc00000024000000240000099
:101aa8000240000011000000130000000d000000bb
:101ab80011000000150000000a00000010000000de
:101ac8002000000007f800000020000000200000af
:101ad8000040000007e000000e0000001f000000aa
:101ae8001ff80000100000001ff8000006000000aa
:101af80000080000000800000010000009000000b5
:101b08001f000000010000000e000000110000008e
:101b1800110000000e0000000440000002800000d8
:101b280005400000028000000100000008000000dd
:101b38001f0000000020000000c00000030000009b
:101b48000cc000001140000003e00000004000004d
:101b5800080000001f0000000020000000c0000076
:101b6800030000000c0000001220000002600000ca
:101b780001a0000011000000150000001520000061
:101b88000ac00000030000000cc000001140000063
:101b980003e000000040000000c000000120000039
:101ba800162000000020000000e000000780000070
:101bb80098800000588000000780000000e00000c6
:101bc80000e00000078000005880000098800000b6
:101bd8000780000000e0000000e0000047800000ef
:101be80098800000988000004780000000e0000016
:101bf80000e00000c78000009880000058800000c6
:101c0800c780000000e0000000e0000047800000fe
:101c180018800000188000004780000000e00000e5
:101c280000e00000678000009880000098800000b5
:101c38006780000000e0000000e0000007000000ee
:101c480019000000110000001fe000001220000031
:101c58001220000012200000102000000780000061
:101c68000840000010280000102800001030000074
:101c7800102000001fe00000122000009220000049
:101c880052200000102000001fe000001220000079
:101c98005220000092200000102000001fe00000e9
:101ca80052200000922000009220000050200000e6
:101cb8001fe0000052200000122000005220000007
:101cc80010200000902000005fe0000010200000bd
:101cd800102000005fe0000090200000502000006d
:101ce8009fe000009020000040000000502000000d
:101cf8001fe0000050200000020000001fe000006c
:101d080012200000122000001020000008400000ef
:101d1800078000001fe00000d800000086000000d7
:101d280041800000c06000001fe000000780000044
:101d38000840000090200000502000001020000003
:101d480008400000078000000780000008400000ed
:101d580010200000502000009020000008400000e3
:101d680007800000078000000840000050200000a5
:101d780090200000902000004840000007800000ec
:101d88000780000008400000d020000090200000dc
:101d980050200000c84000000780000007800000b5
:101da80008400000502000001020000050200000d3
:101db8000840000007800000044000000280000086
:101dc80001000000028000000440000007a000009d
:101dd8000840000010a0000013200000142000009c
:101de80008400000178000001fc00000002000000d
:101df8008020000040200000002000001fc00000dc
:101e08001fc00000002000004020000080200000cb
:101e1800002000001fc000001fc00000402000007c
:101e28008020000080200000402000001fc000002b
:101e38001fc000004020000000200000002000001b
:101e4800402000001fc0000018000000060000002d
:101e580041e0000086000000180000001fe00000bc
:101e680004800000048000000480000003000000db
:101e78001fe00000200000002420000024200000b3
:101e88001bc0000000c00000052000002520000045
:101e98001520000003e0000000c00000052000003d
:101ea800152000002520000003e0000000c000000d
:101eb80015200000252000002520000013e0000068
:101ec80000c000003520000025200000152000007b
:101ed80033e0000000c000001520000005200000cd
:101ee8001520000003e0000000c0000035200000bd
:101ef8004d2000004d20000033e0000000c000002d
:101f080005200000052000000520000003c0000097
:101f180005400000052000000520000003400000e7
:101f280003c800000428000004300000042000005a
:101f380003c0000025200000152000000520000037
:101f48000340000003c00000052000001520000029
:101f5800252000000340000003c0000015200000f9
:101f680025200000252000001340000003c00000c9
:101f78001520000005200000152000000340000087
:101f88002000000017e0000017e00000200000001b
:101f98001000000027e00000100000001000000002
:101fa80007e000001000000001c000000a20000047
:101fb800122000001a20000007c0000007e00000ff
:101fc80034000000240000001400000033e000008a
:101fd80003c000002420000014200000042000009a
:101fe80003c0000003c0000004200000142000000b
:101ff8002420000003c0000003c0000014200000db
:10200800242000002420000013c0000003c00000aa
:1020180034200000242000001420000033c00000f9
:1020280003c0000014200000042000001420000059
:1020380003c00000010000000100000001000000d2
:102048000d60000001000000010000000100000018
:1020580003d000000460000005a000000620000076
:102068000bc0000007c00000202000001020000066
:102078000020000007e0000007c00000002000006a
:10208800102000002020000007e0000007c000002a
:1020980010200000202000002020000017e0000091
:1020a80007c00000102000000020000010200000e1
:1020b80007e0000006000000019800001060000022
:1020c80021800000060000003ff800000420000006
:1020d800042000000420000003c0000006000000e7
:1020e8001198000000600000118000000600000048
:1020f80000000000000000000000000000000000d8
:1021080000000000000000000000000000000000c7
:1021180000000000000000000000000000000000b7
:1021280000000000000000000000000000000000a7
:102138000000000000000000000000000000000097
:102148000000000000000000000000000000000087
:102158000000000000000000000000000000000077
:102168000000000000000000000000000000000067
:102178000000000000000000000000000000000057
:102188000000000000000000000000000000000047
:102198000000000000000000000000000000000037
:1021a8000000000000000000000000000000000027
:1021b8000000000000000000000000000000000017
:1021c8000000000000000000000000000000000007
:1021d80000000000000000000000000000000000f7
:1021e80000000000000000000000000000000000e7
:1021f80000000000000000000000000000000000d7
:1022080000000000000000000000000000000000c6
:1022180000000000000000000000000000000000b6
:1022280000000000000000000000000000000000a6
:102238000000000000000000000000000000000096
:102248000000000000000000000000000000000086
:102258000000000000000000000000000000000076
:102268000000000000000000000000000000000066
:102278000301000000030000000000000108000046
:102288000104000006000000030300000004000031
:102298000800000007080000000800000e00000009
:1022a800050b0000000600001c0000000a080000e2
:1022b800000b0000260000000708000000070000cf
:1022c8003a0000000103000000020000480000007e
:1022d800030b0000000400004a000000030b00008c
:1022e8000004000050000000050500000006000082
:1022f800560000000707000000080000600000000a
:1023080002040000000400006e0000000301000049
:102318000004000072000000010200000104000037
:1023280078000000030b0000000400007a000000a1
:1023380005080000000600008000000003080000f7
:10234800010600008a0000000508000000060000e1
:102358009000000005080000000600009a00000038
:102368000508000000060000a400000005080000a1
:1023780000060000ae00000005080000000600008e
:10238800b80000000508000000060000c2000000b8
:102398000508000000060000cc0000000508000049
:1023a80000060000d600000001060000010400003d
:1023b800e00000000208000000040000e200000045
:1023c8000607000001080000e600000007030000ff
:1023d80000080000f20000000607000001080000e5
:1023e8000001000004080000000500000c010000c6
:1023f80009090000000a0000140100000608000096
:102408000007000026010000050800000006000083
:102418003201000006080000000700003c0100002f
:102428000608000000070000480100000508000039
:102438000006000054010000050800000006000026
:102448005e010000060800000007000068010000a7
:1024580006080000000700007401000003080000df
:1024680000040000800100000408000000050000ce
:102478008601000005080000000600008e0100002b
:10248800040800000005000098010000070800008b
:1024980000080000a0010000060800000007000076
:1024a800ae0100000708000000080000ba010000a3
:1024b8000508000000060000c8010000070a000027
:1024c80000080000d2010000060800000007000014
:1024d800e00100000508000000060000ec01000013
:1024e8000508000000060000f601000006080000cc
:1024f80000070000000200000508000000060000b8
:102508000c02000009080000000a00001602000082
:102518000508000000060000280200000508000069
:102528000006000032020000050800000006000056
:102538003c020000030b00000004000046020000fb
:10254800030b0000000400004c020000030b000015
:102558000004000052020000070400000008000008
:102568005802000006010000000600006602000094
:1025780002020000010600007202000005060000c9
:1025880000060000760200000509000000060000b1
:102598008002000004060000000500008a02000016
:1025a8000509000000060000920200000506000070
:1025b800000600009c02000003090000000400005f
:1025c800a60200000508000000060000ac0200009a
:1025d8000509000000060000b6020000010800001e
:1025e80000020000c0020000020a00000003000010
:1025f800c20200000509000000050000c602000034
:102608000109000000020000d002000007060000d7
:1026180000080000d20200000506000000060000c5
:10262800e00200000506000000060000ea020000c3
:102638000508000000060000f4020000050800007c
:1026480000060000fe02000003060000000400006f
:102658000803000004060000000500000e03000047
:10266800030800000004000016030000050600002f
:10267800000600001c03000005060000000600001c
:1026880026030000070600000008000030030000d1
:1026980005060000000600003e03000005080000d3
:1026a80000060000480300000406000000050000c2
:1026b80052030000040b0000000500005a0300004c
:1026c800010b00000104000062030000040b00007d
:1026d8000005000064030000070300000008000074
:1026e8006c03000000000000000000007a030000f6
:1026f80006080000000600007a0300000b0b00002b
:10270800000b000086030000020300000002000026
:102718009c0300000609000000060000a00300005a
:102728000403000000040000ac03000007010000df
:1027380001090000b40300000508000000060000bd
:10274800c20300000508000000060000cc030000da
:102758000402000001060000d60300000f08000074
:10276800000f0000de030000050b0000000600005b
:10277800fc0300000305000000040000060400003c
:102788000a080000000b00000c0400000b0b0000fe
:10279800000b000020040000050b000000060000ec
:1027a800360400000b0b0000000b00004004000082
:1027b8000b0b0000000b0000560400000203000091
:1027c800000200006c040000020300000002000088
:1027d80070040000040300000004000074040000fa
:1027e80004030000000400007c040000040400004e
:1027f8000005000084040000060100000006000037
:102808008c0400000a010000000a0000980400007f
:102818000402000001060000ac04000009040000e6
:10282800000a0000b40400000409000000050000cc
:10283800c60400000305000000040000ce040000e8
:1028480009060000000a0000d40400000b0b000079
:10285800000b0000e6040000040900000005000069
:10286800fc040000050a0000000600000405000042
:1028780003010000000300000e050000010800002d
:102888000104000014050000050a0000000600000d
:1028980016050000050800000006000020050000dd
:1028a80005050000000600002a05000005080000d4
:1028b8000006000034050000010b000001040000c0
:1028c8003e050000050a0000000600004005000063
:1028d80003010000010600004a0500000909000084
:1028e800000a000050050000040500000005000073
:1028f8006205000005050000000600006a050000ea
:10290800060400000108000074050000030100002f
:10291800000400008005000009090000000a00000a
:10292800860500000601000000060000980500006a
:102938000404000000050000a405000007070000cb
:1029480000080000ac0500000305000001050000b8
:10295800ba0500000305000001050000c0050000dd
:102968000202000002060000c6050000050800007b
:1029780000060000ca050000050a00000006000065
:10298800d40500000102000001040000de0500007b
:102998000302000002060000e00500000305000035
:1029a80001050000e6050000040500000005000020
:1029b800ec0500000505000000060000f405000015
:1029c80009080000010b0000fe05000009080000ce
:1029d800010b00001006000009080000010b0000b0
:1029e800220600000408000000050000340600006c
:1029f800060b0000000700003c060000060b000064
:102a08000007000048060000060b00000007000051
:102a180054060000060b00000007000060060000d6
:102a2800060a0000000700006c060000060b000004
:102a3800000700007806000009080000000a0000ee
:102a480084060000060a0000000700009606000041
:102a5800050b000000060000a2060000050b0000a0
:102a680000060000ac060000050b00000006000090
:102a7800b6060000050a000000060000c0060000b7
:102a8800030b000000040000ca060000030b00004e
:102a980000040000d0060000040b00000004000041
:102aa800d6060000030a000000040000de0600004d
:102ab8000708000000080000e4060000060b0000fc
:102ac80000070000f2060000070b000000080000e5
:102ad800fe060000070b0000000800000c070000bd
:102ae800070b0000000800001a070000070b000091
:102af8000008000028070000070a0000000800007e
:102b08003607000005050000020800004407000021
:102b180007080000000800004e070000060b000030
:102b2800000700005c070000060b0000000700001b
:102b380068070000060b000000070000740700008b
:102b4800060a00000007000080070000050b0000cf
:102b5800000600008c0700000508000000060000c1
:102b6800960700000509000000060000a007000005
:102b78000509000000060000aa070000050900007a
:102b880000060000b4070000050900000006000068
:102b9800be0700000509000000060000c807000085
:102ba8000508000000060000d2070000050a000022
:102bb80000060000dc07000009060000000a00000b
:102bc800e60700000408000000050000f807000000
:102bd80005090000000600000008000005090000c3
:102be800000600000a0800000509000000060000b1
:102bf8001408000005080000000600001e08000078
:102c08000209000000020000280800000209000074
:102c1800000200002c080000030900000003000067
:102c28003008000003080000000300003608000018
:102c380005080000000600003c0800000509000027
:102c48000006000046080000050900000006000014
:102c58005008000005090000000600005a0800009e
:102c680005090000000600006408000005090000ce
:102c7800000600006e0800000508000000060000bd
:102c8800780800000707000000080000820800001c
:102c98000508000000060000900800000509000073
:102ca800000600009a080000050900000006000060
:102cb800a40800000509000000060000ae08000096
:102cc8000508000000060000b8080000050b000019
:102cd80000060000c2080000050b00000006000006
:102ce800cc080000050a000000060000d608000015
:102cf80006000000000000000200000007000000bd
:102d08000f8000001ac000003de000000a800000ab
:102d18000f8000000f80000000000000000000008d
:102d28001f800000060000000f0000001f80000048
:102d38000600000006000000060000000600000073
:102d4800000000000000000006000000060000006f
:102d580006000000060000001f8000000f000000b1
:102d6800060000001f80000000000000001c00009a
:102d78000c0c0000141000001009000006000000f0
:102d88000000000000000000000000000600000035
:102d9800060000000f0000000f0000001f80000068
:102da8001f8000000600000006000000060000006a
:102db80006000000060000001e0000001e000000c3
:102dc80000000000000000000000000000000000fb
:102dd800001c00000c0c000014100000100900007a
:102de80006000000fff000000000000000000000e6
:102df8001fe0000012200000122000001220000036
:102e08000dc000000000000006c000000000000027
:102e180000000000000000001fe0000003000000a8
:102e2800048000000840000010200000000000009e
:102e380006c000000000000000400000084000003c
:102e4800144000001440000022400000224000000e
:102e5800324000003a400000794000007d40000008
:102e68006d400000694000003a4000003240000018
:102e780022400000224000001440000014400000de
:102e88000840000000400000ffc00000ffc0000034
:102e9800004000000040000000400000004000002a
:102ea8007040000051400000554000005f400000a5
:102eb8005040000070400000004000000840000042
:102ec800084000003e4000000840000008400000a4
:102ed800004000000040000000400000ffc000006b
:102ee800ffc000000040000018400000244000001f
:102ef8004240000042400000424000000040000004
:102f08007e4000005040000050400000404000005b
:102f1800004000003c400000424000004a400000e1
:102f28004a4000002c400000004000000040000023
:102f3800ffc00000fe02000022720000fafa000042
:102f4800727200007272000002fe0000fe020000b1
:102f58007272000072720000fafa00007222000019
:102f680002fe0000fff00000801000008c1000003e
:102f78009fd00000bfd000009fd000008c10000040
:102f8800fff000008010000083100000bf900000d8
:102f9800bfd00000bf90000083100000fe020000b8
:102fa80042aa0000aaaa000012020000faaa000021
:102fb800aa020000fa0a00000a020000fefe000051
:102fc8000202000002020000028a00009aba000011
:102fd8009a6a00000202000002020000fe7c000063
:102fe800447c0000004400007c0400000024000031
:102ff8004c34000000540000547c0000001800000d
:10300800285c00000074000054480000007c0000a8
:10301800141c0000004000004c700000007c000000
:10302800547c000000740000547c0000003c000048
:10303800503c0000007c00005428000000380000cc
:1030480044440000007c000044380000007c00007c
:1030580054540000007c00005040000000040000b0
:103068000810000020400000000000000a0d0000c9
:1030780000000000000000000a0d00000000000031
:10308800140000000a0d00000000000028000000e5
:103098000a080000000000003c000000140d0000b9
:1030a80000000000460000000a08000000000000c0
:1030b8006e000000010c0000000000007800000015
:1030c8000a0c0000000000007a0000000a0c000052
:1030d800000000008e000000150a0000000000003b
:1030e800a2000000150a000000000000cc0000004b
:1030f800150a000000000000f60000000c070000a0
:1031080000000000200100000c0700000000000083
:103118002c010000070c000000000000380100002e
:10312800070c000000000000460100001107000025
:10313800000000005401000010070000000000001b
:103148006501000004070000000000007501000090
:1031580004070000000000007901000004070000d7
:10316800000000007d0100000407000000000000ce
:103178008101000004070000000000008501000034
:103188000407000000000000890100000407000097
:10319800000000008d01000004070000000000008e
:1031a80091010000040700000000000095010000e4
:1031b8000407000000000000990100000407000057
:1031c800000000009d01000004070000000000004e
:1031d800a10100000407000000000000a501000094
:1031e8000407000000000000a90100000407000017
:1031f80000000000ad01000004070000000000000e
:10320800b10100000607000000000000b501000041
:103218000000000008000000540000005490000066
:103228003cb0000000d0000000900000000000004a
:103238000000000000000000000000003c0000004a
:1032480050000000511000003d3000000150000007
:1032580001900000011000000000000000000000c4
:10326800000000003f4000000000000000000000d7
:1032780000000000104000003fc0000000400000b7
:103288000000000000000000000000002400000012
:103298007d00000006000000059000000a300000d4
:1032a8001250000021900000000000000000000003
:1032b8000a0d000000000000000000000a0d0000d8
:1032c80000000000140000000a0d000000000000cb
:1032d800280000000a0d0000000000003c0000006b
:1032e8009c8700007c900000000100007e96000092
:1032f8003a9800001c0000000c9900005c9900003e
:10330800040000001201000080320000118000005b
:10331800ff3a0000810500000ab1000083000000a8
:10332800060300000a36000001080000b60200008b
:1033380015020000b401000000c000008202000075
:10334800700a0000c101000005c20000020100006f
:1033580002c50000823c0000380a0000fc020000a0
:1033680011150000e01000000916000009200000f7
:10337800211b000013190000171500001e2b000068
:1033880004050000020e0000e19000000b1400008c
:10339800081e0000221d0000181e00001b1a000055
:1033a800242b000006060000020f00000a2a000075
:1033b8000400000002000000812b0000040000004f
:1033c8000200000081130000800a0000298000002c
:1033d800ff0f0000018000009611000080ff000030
:1033e800b1030000012c00002db200000301000011
:1033f8002c2d0000b3060000012c00002d01000058
:103408002c2d0000b401000007c0000003a200003a
:1034180002840000c1010000c5c20000020a0000c9
:1034280000c30000028a00002ac40000028a0000cb
:10343800eec50000010e000020000000360100006b
:10344800c83a000001050000022a0000040000003c
:1034580002000000812b00000400000001000000b1
:10346800a00200002a04000000000000007f000005
:103478002b04000000000000009f0000022a00004a
:1034880004000000000000007f2b00000400000082
:10349800000000007f0200002a0400000000000075
:1034a800004f00002b04000000000000009f0000f7
:1034b80004e00000100200001c07000012370000a2
:1034c800322900002d290000252b000039000000ba
:1034d8000103000010e10000100300001d070000b8
:1034e800062e00002c2900002d2e00002e3700008b
:1034f8003f0000000002000010130000800a0000d6
:103508002980000064000000000000009500000011
:10351800000000000000000001000000f9000000a9
:103528000000000000000000080000008700000004
:10353800040000000000000009000000af000000c7
:1035480000000000010000000a0000001b0000004d
:1035580000000000010000000c000000c300000093
:1035680001000000000000000d000000af00000096
:10357800020000000000000010000000ff00000032
:10358800000000000000000011000000ff00000023
:10359800000000000100000012000000ff00000011
:1035a800000000000100000018000000ff000000fb
:1035b800000000000100000019000000ff000000ea
:1035c800000000000100000020000000ff000000d3
:1035d800000000000000000021000000ff000000c3
:1035e800000000000000000026000000df000000ce
:1035f8000100000000000000370000007300000018
:1036080000000000000000003a0000002500000053
:1036180004000000000000003b000000250000003e
:10362800000000000000000029000000ff0000006a
:10363800040000000000000017000000ff00000068
:103648000000000000000000435500004541000054
:103658004141000041430000454500004549000044
:10366800494900004141000045920000924f000086
:103678004f4f000055550000594f0000554f0000ae
:103688009c4f00009e9f0000414900004f550000dc
:10369800a5a50000a6a70000a8a90000aaab0000e5
:1036a800acad0000aeaf0000b0b10000b2b3000096
:1036b800b441000041410000b8b90000babb0000a5
:1036c800bcbd0000bebf0000c0c10000c2c30000f6
:1036d800c4c5000041410000c8c90000cacb0000b1
:1036e800cccd0000cecf0000d1d100004545000070
:1036f800454900004949000049d90000dadb0000cb
:10370800dcdd000049df00004fe100004f4f000002
:103718004f4f0000e6e80000e8550000555500004e
:1037280059590000eeef0000f0f10000f2f300003c
:10373800f4f50000f6f70000f8f90000fafb0000c5
:10374800fcfd0000feff0000222a00002b2c0000d8
:103758003a3b00003c3d00003e3f00005b5d00003e
:103768007c7f000000460000415400000046000035
:103778004154000033320000000000001201000034
:10378800000200000000000000080000d80400004b
:1037980055000000010000000102000000010000c7
:1037a80009020000290000000101000000c000001b
:1037b80032090000040000000002000003010000bc
:1037c80001000000092100001101000000010000b3
:1037d800223f0000000700000581000003080000e8
:1037e80000010000070500000103000008000000b8
:1037f8000100000004030000090400003403000075
:103808004d00000069000000630000007200000025
:103818006f000000630000006800000069000000fd
:103828007000000020000000540000006500000047
:1038380063000000680000006e0000006f000000d8
:103848006c0000006f0000006700000079000000b5
:1038580020000000490000006e0000006300000026
:103868002e0000001c0300004b0000006500000053
:1038780079000000620000006f0000006100000095
:1038880072000000640000002000000044000000f6
:10389800650000006d0000006f000000d49b000070
:1038a800fe9b0000029c0000369c00000501000001
:1038b80009060000a10100000507000019e000004a
:1038c80029e700001500000025010000750100002f
:1038d80095080000810200009501000075080000ad
:1038e800810300009505000075010000050800002f
:1038f800190100002905000091020000950100004f
:10390800750300009103000095060000750800008b
:1039180015000000256500000507000019000000db
:103928002965000081000000c00000002e8500000d
:103938009c8e00008c850000a6850000e2850000b2
:103948001a86000054860000608600008686000003
:103958006a8600002e850000a68e00008c85000077
:10396800a6850000e28500001a8600005486000043
:1039780060860000868600006a8600002e850000aa
:10398800b08e00008c850000a6850000e28500004e
:103998001a860000548600006086000086860000b3
:1039a8006a860000303a000000480000454c0000dc
:1039b8004c4f00002e5400005854000000480000ee
:1039c800656c00006c6f0000205700006f720000eb
:1039d8006c640000210000002001000000000000cd
:1039e800000000006000000000000000000000006f
:1039f800600000001300000000000000200100002b
:083a08003f0000000000000077
:020000040000fa
:103a10000400fa008e80e800800878000e80e8003c
:103a2000100078000000e800104078000080fb00e3
:103a3000000f78001e007800c800dd000e80e8004e
:103a400010007800104078000080fb00008f7000ac
:103a50001e0078000080fa00000006000600fa0050
:103a6000e4004700800878006400470010007800f8
:103a700063004000104078000080fb008000eb00f5
:103a8000008fbe001e00be004809dd00c801de0038
:103a9000830171004801dd006400470010007800d8
:103aa0000080e800104078000080fb008000eb0000
:103ab000001f7100019771001e00be004809dd0063
:103ac000c801de00830171004801dd006400470089
:103ad000100078000000e800104078000080fb0033
:103ae0008000eb00001f7100019771001e00be00f6
:103af0004809dd00c801de00830171004801dd00d6
:103b00006400470010007800104078000080fb003f
:103b10008000eb00001f7100019771001e00be00c5
:103b20000080fa00000006000400fa00000f780090
:103b30000e80e800010878000e80e8001000780090
:103b4000004078009e007800804878001e0fe80052
:103b50000e80e80010007800c800de000e80e8004b
:103b6000010878000e80e80010007800004078001e
:103b70009e007800804878001e0fe8000080fa0060
:103b8000000006000600fa00000f78000e80e80032
:103b90000288be000e80e800100078000040780027
:103ba0009e007800804878001e0fe8000e80e80034
:103bb0001000be004809dd004800de000000710072
:103bc000c808de000e81e8000089be000e80e80013
:103bd00010007800004078009e007800804878004f
:103be0001e0fe8000e80e8001000be004809dd004e
:103bf0004800de0000007100c808de000e81e80009
:103c00000089be000e80e8001000780000407800b7
:103c10009e007800804878001e0fe8000e80e800c3
:103c20001000be004809dd004800de000000710001
:103c3000c808de000e81e8000089be000e80e800a2
:103c400010007800004078009e00780080487800de
:103c50001e0fe8000080fa00000006000a00fa00cb
:103c6000e4014700800978006600470001087800f9
:103c7000680047000208780064004700100f7800d1
:103c80000e80e800e6004700110878006800470051
:103c9000100078000000e000140032000e80e80000
:103ca00010007800104078009e007800804878006e
:103cb0001e0fe8000e80e800100078008000e80089
:103cc0000e80e800010878006800470010007800c6
:103cd0008000e9006800470001087800680047009c
:103ce000100078000000e000ecff3a000080fa00cd
:103cf000000006000800fa008e81e80080097800c4
:103d00006400470001087800660047000208780058
:103d10000e80e800100f7800640047001000780063
:103d2000004078009e007800804878001e0fe80070
:103d300066004700100078008000e9006600470038
:103d40000108780066004700100078000000e000dd
:103d5000f1ff3a000080fa00000006000c00fa00b3
:103d6000e6014700800978006800470001087800f4
:103d70006a0047000208780066004700100f7800cc
:103d80000e80e800e8004700110878008000eb0092
:103d900064004700010878001e0078001040780099
:103da0008080fb000e80e800100078001040780052
:103db0000080fb008080500064004700010878000c
:103dc0001e0fe8000e80e800100078008000e80078
:103dd0000e80e800010878006a00470010007800b3
:103de0008000e9006a004700010878006a00470087
:103df000100078000000e00004003200640047007a
:103e0000100078000000e000e3ff3200640047008b
:103e1000100078000080fa00000006000400fa009c
:103e2000000f78000e80e8000108780001003700dc
:103e30001e0fe8001e007800104078000004e0002b
:103e4000070032001e007800104078000000fb00e0
:103e50008e80e80091007800810f5000f4ff3a0056
:103e60001e007800104078000000fb000080fa007f
:103e7000000006000200fa00004f78001e407800a3
:103e80000004e000020032000000eb0001003700f7
:103e90000000eb000080fa00000006000200fa00bb
:103ea000004f78001e4078000004e000020032005d
:103eb0000000eb00010037000000eb000080fa007a
:103ec000000006000400fa008e80e80080087800f8
:103ed0000000eb00000f78000e80e8001000780072
:103ee00063004000104078000004e0004900320008
:103ef0000e80e800100078000003b0001000be0043
:103f00000e81e800120178004603200002034300fe
:103f10000e81e800120178000201e8009242780068
:103f2000140020000001be008600780005407800e3
:103f3000093507000000e00034003a000e80e80078
:103f4000100078008040eb006300400001487800da
:103f50000e80e800100078000003b0001001be00e1
:103f60000e80e800100078004002b0001000be0093
:103f700000015100818159000e80e8001000780096
:103f80007c0040001000be00800f5100818f59005e
:103f9000200031000e80e800100078000080e8006a
:103fa00010407800e24f50001a003a000e80e800fe
:103fb000100078000003b0001001be000e80e80081
:103fc000100078007c0040001000be00020040009d
:103fd000838048000e81e80012017800460320002b
:103fe000020343000e81e800120178000201e8009c
:103ff00092427800140020000001be008600780084
:1040000005407800d434070002003700100020007b
:10401000000f78001e0078000080fa000000060003
:104020000800fa008e80e8008008780064004700ed
:104030000288be000000eb00000f78000e80e80050
:10404000100078000003b0001001be0064004700bb
:104050001000be00800f5100818f590021003200f6
:104060000e80e8001000780096ff0700000f78002f
:104070001e0078000000e0001a003a000e80e80000
:104080001000780041032000808040000e80e8008e
:10409000100078000000e8001040780014002000b4
:1040a000640147001201be00883407000000e000f0
:1040b000060032000080eb008080eb0064014700c6
:1040c0000089be0010002000000f78000e80e8007c
:1040d000100078000003b000e400470031187800b9
:1040e000211078001e0078000080fa000000060011
:1040f0000400fa008e80e800800878000e80e80056
:10410000100078006fff0700000f78001e00780095
:104110000000e00063003a000e80e8001000780024
:1041200010407800e34f500053003a000e80e80042
:10413000100078006400400010407800e14f50000b
:104140004d003a000e80e800100078004003b000f7
:10415000022020008000eb00e6fe07000e80e80051
:10416000100078002023b00051a52a006efe070041
:104170000e80e800100078004003b00022252500e2
:10418000131624007ffe07000e80e8001000780060
:104190008021b000222727001314260079fe070093
:1041a0000e80e80010007800700040001000be0093
:1041b0000e81e80012017800c421200002024200b2
:1041c0000001be00040078006efe07000e80e800cb
:1041d000100078006c0040001000be000e81e80066
:1041e0001201780004222000020242000001be00f9
:1041f0000400780063fe07000e80e80010007800dd
:104200000002b0001000be0061004000e0804800e5
:104210000e81e800120178000203b0000089be00a0
:104220000e80e800100078000003b0001000be000f
:104230000e81e800120178004603200002034300cb
:104240000e81e800120178000201e8009242780035
:10425000140020000001be008600780005407800b0
:104260003d3407000e80e800100078008040eb002d
:1042700064004000014878000e80e80010007800db
:104280000000e800104078000001eb008040eb00e7
:10429000543407000000e00002003200100020004b
:1042a000000f78001e0078000080fa000000060071
:1042b0000600fa00000f78000e80e8000288be00b9
:1042c0000e80e8001000be0062005000e080580040
:1042d0000e81e8000089be001e00780078004000d2
:1042e0001000be0062015000e08158000e80e8001e
:1042f0001000be00800f5100818f590002003e0067
:104300006000b800170037001e007800c002b0003f
:104310001002be001e0078006a0040001000780005
:104320008000eb000e81e800120178000191b900d5
:1043300002017800e401470093017800009bb90076
:1043400086017800030141008e81e8009301780026
:104350000018b8000101410082007800040040000c
:10436000858048000080fa00000006001000fa0076
:10437000889fbe008a9fbe00ea0047008008780040
:104380006c0047000288be006a0047009000780079
:1043900064004700110878006c0047001001be005f
:1043a0001000200001002000800f5100818f590073
:1043b00009003600640047001000780078004000d3
:1043c0001001be006c0047001000be00800f5100bd
:1043d000818f590004003e001000200001002000e1
:1043e000008fbe00ca0037000080eb008080eb0029
:1043f000008fbe0064004700100078001040780075
:104400000080fb00e20f50006b003200e30f500011
:104410008a003200e10f5000b2003a006600470007
:10442000ec00470011087800660047001000780093
:104430000000d100e6004700910078008080400035
:10444000660047000108780064004700100078000b
:104450004002b0001001be00660047001000780066
:104460004900de008000eb0002004000838048002d
:104470000001be006400470010007800e8fe07005d
:104480000000e0009b003a006600470090007800c2
:10449000f01f200000806000e400470091007800d9
:1044a0004003b00000804000104078008080fb0096
:1044b0006800470001087800660047001000780097
:1044c0008000e800660047000108780064004700ab
:1044d000100078004002b0001001be0066004700e6
:1044e000100078004900de008000eb000200400070
:1044f000838048000001be0064004700100078007f
:10450000c7fe07000000e0007c003a00660047009c
:1045100090007800f01f200000806000e400470059
:10452000910078004003b000008040001040780007
:104530000080fb004800dd00e800470091007800a3
:104540008100700068004700010878006c00470097
:104550001000780061006000004078000004e00076
:104560000500320068004700100078004400de00bb
:104570008000eb000e003700680047001000780054
:104580006101b800f0ff2000010020000202780065
:104590000301780080017800810078000300620048
:1045a0008100610081057800000578000a00be00e6
:1045b000008fbe00560037006400470010007800ee
:1045c0004002b0001001be006c0047001000be00a9
:1045d000480add004800de0000007200c808de0066
:1045e00002004000838048000001be0064004700d4
:1045f000100078008afe07000000e00041003a0049
:1046000064004700100078004103200080804000d3
:104610006c004700100078000000400000017800a6
:10462000f01f20000000610000804000f8fc07003f
:104630008000eb00008fbe003500370064004700ab
:10464000100078004002b0001001be006c0047006e
:104650001000be00490add004700de0000007200c5
:10466000c708de0002004000838048000001be0051
:10467000640047001000780069fe07000000e000b9
:1046800022003a0064004700100078004103200037
:10469000808040006c004700100078004201dd007f
:1046a000f01f20000000610000804000ebfc0700cc
:1046b0000001be00f0ff2f00f1ff20000202780091
:1046c0000301780080017800810078000300620017
:1046d000810061008104780000047800088fbe002a
:1046e0000b0037001000200001002000008fbe00ea
:1046f0000700370000000000050037000000000040
:104700000300370000000000010037000000000037
:104710001e00be004f05be004f04be000080fa0020
:10472000000006001000fa00889fbe008a9fbe00ad
:10473000e600470080087800680047000288be0055
:104740006c0047000488be0020002000000f7800a5
:10475000680047001001be0010002000010020008a
:10476000800f5100818f59001d01360066004700ff
:1047700010007800780040001001be00680047007b
:104780001000be00800f5100818f590014013600c7
:104790006600470010007800104078000080fb00a1
:1047a000e20f500091003200e30f5000b7003200da
:1047b000e10f50000a013a000e80e800e8004700cf
:1047c000110878000e80e800100078000000d10089
:1047d0008e80e80091007800808040000e80e80024
:1047e0000108780066004700100078004002b00021
:1047f0001001be000e80e800100078004900de00c5
:104800008000eb0002004000838048000001be00f1
:10481000660047001000780001fe0700000f7800d6
:104820001e0078000000e000e6003a006600470045
:104830001000780041032000808040000e80e800d6
:1048400010017800f01f200000006100808040000f
:1048500064004700010878000e80e800100078002e
:104860008000e8000e80e80001087800680047003a
:104870001000780061006000004078000004e00053
:104880000c003200640047001000780010407800ef
:10489000ef4060006c004700100078000040780096
:1048a0000080fb004400dd000040780000c0700084
:1048b000030037006c0047001000780000407800cb
:1048c000e4004700910078008048780066004700c7
:1048d0001000780011c0b300630040000148780068
:1048e00066004700100078004002b0001001be00d2
:1048f0000e80e800100078004900de008000eb0028
:1049000002004000838048000001be0066004700ae
:1049100010007800c2fd0700000f78001e0078002c
:104920000000e000a9003a0066004700100078008f
:1049300041032000808040000e80e80010017800d4
:10494000f01f2000000061008080400064004700ec
:1049500001087800680047001000780061006000de
:10496000004078000004e000080032006c004700be
:104970001000be004c09dd004400de0000007100a4
:10498000c408de00004078000f00370064004700d4
:1049900010007800104078008040780000cfb3000d
:1049a00000c160006c0047001000be00c809dd00b7
:1049b0004800de0000807100c808de00004078007a
:1049c0006f40600000407100e400470091007800f3
:1049d00080487800660047001000780011c0b300de
:1049e00063004000014878007d0037006600470002
:1049f000100078004002b0001001be0068004700bf
:104a00001000be00480add004800de000000720011
:104a1000c808de0002004000838048000001be009c
:104a200066004700100078007dfd0700000f780049
:104a30001e0078000000e00066003a006c004700ad
:104a400090007800660047001000780042032000c4
:104a5000000141006800470010007800000040009d
:104a600080017800f01f20000080610000004100fc
:104a70002dfc0700660047001000780011c0b3004d
:104a80006300400001487800550037006600470089
:104a9000100078004002b0001001be00680047001e
:104aa0001000be00490add004700de000000720071
:104ab000c708de0002004000838048000001be00fd
:104ac000660047001000780055fd0700000f7800d1
:104ad0001e0078000000e00040003a006c00470033
:104ae0001001be00f0ff2f00f1ff2000020278004d
:104af00003017800800178008100780003006200e3
:104b0000810061008105780000057800660047009b
:104b100010007800410320008080400068004700ba
:104b2000100078004201dd00f01f2000000061004d
:104b300000804000c9fb07000001be00000020000b
:104b400001002f0002027800030178008001780044
:104b50008100780003006200810061008104780018
:104b6000000478000800be00000075008180750018
:104b70006c0147000089be00660047001000780005
:104b8000410320008080400068004700100078004a
:104b90004201dd00f01f20000000610000804000a5
:104ba000ec0047001101be00f6fb0700660047005d
:104bb0001000780011c0b300630040000148780085
:104bc000070037000000000005003700000000006b
:104bd0000300370000000000010037000000000063
:104be0001e0078004f05be004f04be000080fa0092
:104bf000000006001200fa00e80047008008780074
:104c00006a0047000288be006e0047000488be00ac
:104c10000000eb00000f780068004700900078006b
:104c20000e80e800110878006a0047001001be00fd
:104c30001000200001002000800f5100818f5900da
:104c4000090036000e80e80010007800780040006f
:104c50001001be006a0047001000be00800f510026
:104c6000818f590002003e00200020006d003700b7
:104c70006e0047001000be00e00f5000e08f5800ab
:104c80000d0032000082eb008082eb006e004700d6
:104c90001001be000e80e80010007800a1fe0700a1
:104ca000000f78001e0078000000e00002003200d3
:104cb0001e0078005b0037006a0047001001be004c
:104cc0006800470010007800a8fd07006401470055
:104cd0000089be00640047001000be00e00f5000d5
:104ce000e08f58004d003200640047001001be0004
:104cf0001000200001002000800f5100818f59001a
:104d000002003a00200020004600370064004700ff
:104d10001001be000080eb008080eb00800f51008e
:104d2000818f590002003a00100020003d0037003a
:104d30006022b8006a0047001001be000e80e80043
:104d40001000780077fe0700000f78001e00780042
:104d50000000e000020032001e0078003100370041
:104d60000e80e80010007800700040001001be00c6
:104d70000e80e80010007800780040001000be00af
:104d800062005000e0805800800f5100818f590070
:104d9000140031000e80e800100078007000400020
:104da0001000be0061004000e08048000e81e80075
:104db00012017800700141000089be000e80e800f9
:104dc00010007800640040001040780080407800b7
:104dd0000104a0000e80e80010007800640040008c
:104de000014878006a004700e40047003118780065
:104df000211078000e80e800100078007800400054
:104e00001001be006a0047001000be00800f510074
:104e1000818f5900a8ff3e0001003700000000000c
:104e20000000eb000080fa00000006001600fa0007
:104e3000f000470080087800720047000288be003a
:104e400070004700900078006a0047001108780061
:104e5000720047001000be00e00f5000e08f5800c5
:104e600019003a006a00470090007800640047008b
:104e7000ec80400031187800211078006400470071
:104e80001000be00e00f5000e08f58000900320013
:104e90006a00470010007800780040001001be0052
:104ea000640047001000be00800f5100818f590040
:104eb00030003e0010002000010020006401470087
:104ec0000089be002b003700720047001001be00b1
:104ed000700047001000780024fd07006c014700b7
:104ee0000089be006c0047001001be0010002000c9
:104ef00001002000800f5100818f590003003e0007
:104f00001000200001002000090137006c0047005c
:104f10001001be000080eb008080eb00800f51008c
:104f2000818f590003003a006c0047001000be005a
:104f3000ff0037006a00470010007800780040004a
:104f40001001be006c0047001000be00800f510031
:104f5000818f5900030036006c0047001000be002e
:104f6000f300370064004700f20047003118780072
:104f7000211078006a00470010007800700040009f
:104f80001000be00e00f5000e08f580002003a0011
:104f90006000b800e60037006000b800008fbe0077
:104fa000640047001001be00720047001000be0000
:104fb000800f5100818f590048003a00640047007b
:104fc0001000be001200200003002000021f40005d
:104fd000039748006a0047001000780078004000fe
:104fe0001000be00be0f5000ae8f580003003e0000
:104ff0002000200001002000008fbe001e01be0026
:105000007000470010007800d8fc07006c014700d2
:105010000089be006c0047001001be001000200097
:1050200001002000800f5100818f590007003200dd
:105030006c0047001001be000080eb008080eb0098
:10504000800f5100818f590003003a006c00470027
:105050001000be00b60037006c0047001000be0014
:10506000e00f5000e08f58001c0032006a0047003b
:10507000900078006c004700ec8040003118780008
:10508000211078006c0047001001be0010002000c5
:1050900001002000800f5100818f59000d00360063
:1050a0006a00470010007800780040001001be0040
:1050b0006c0047001000be00800f5100818f590026
:1050c0000400360064004700ec0047003118780007
:1050d000211078006000b800008fbe001e00be00e6
:1050e000e00f5000e08f580040003a006400470095
:1050f000301f780020177800010037000000000002
:1051000012002000030020001e0f41005e9749009e
:105110006a00470010007800780040001000be00d0
:10512000be0f5000ae8f58000b003e002000200044
:1051300001002000008fbe00640047001000be0088
:105140001e01be00800f5100818f59000200360001
:105150006000b800760037001e01be0070004700f6
:105160001000780081fc07006c0147000089be0038
:105170006c0047001000be00e00f5000e08f5800a8
:10518000190032006c0047001001be001000200022
:1051900001002000800f5100818f5900070032006c
:1051a0006c0047001001be000080eb008080eb0027
:1051b000800f5100818f590003003a006c004700b6
:1051c0001000be005a003700640047001000be0007
:1051d0001e01be00800f5100818f5900c7ff3a00a9
