:020000040000fa
:080000000002040000000000f2
:020000040000fa
:040008002c040000c4
:020000040000fa
:04000c003c030000b1
:020000040000fa
:040010008003000069
:020000040000fa
:040014005a0300008b
:020000040000fa
:040018009e03000043
:020000040000fa
:04001c002c040000b0
:020000040000fa
:040020002c040000ac
:020000040000fa
:040024002c040000a8
:020000040000fa
:04002800e6030000eb
:020000040000fa
:04002c002c040000a0
:020000040000fa
:040030002c0400009c
:020000040000fa
:040034002c04000098
:020000040000fa
:040038002c04000094
:020000040000fa
:04003c002c04000090
:020000040000fa
:040040002c0400008c
:020000040000fa
:04004400bc030000f9
:020000040000fa
:040048002c04000084
:020000040000fa
:04004c002c04000080
:020000040000fa
:040050002c0400007c
:020000040000fa
:040054002c04000078
:020000040000fa
:040058002c04000074
:020000040000fa
:04005c002c04000070
:020000040000fa
:040060002c0400006c
:020000040000fa
:040064002c04000068
:020000040000fa
:040068002c04000064
:020000040000fa
:04006c002c04000060
:020000040000fa
:040070002c0400005c
:020000040000fa
:040074002c04000058
:020000040000fa
:040078002c04000054
:020000040000fa
:04007c002c04000050
:020000040000fa
:040080002c0400004c
:020000040000fa
:040084002c04000048
:020000040000fa
:040088002c04000044
:020000040000fa
:04008c002c04000040
:020000040000fa
:040090002c0400003c
:020000040000fa
:040094002c04000038
:020000040000fa
:040098002c04000034
:020000040000fa
:04009c002c04000030
:020000040000fa
:0400a0002c0400002c
:020000040000fa
:0400a4002c04000028
:020000040000fa
:0400a8002c04000024
:020000040000fa
:0400ac002c04000020
:020000040000fa
:0400b0002c0400001c
:020000040000fa
:0400b4002c04000018
:020000040000fa
:0400b8002c04000014
:020000040000fa
:0400bc002c04000010
:020000040000fa
:0400c0002c0400000c
:020000040000fa
:0400c4002c04000008
:020000040000fa
:0400c8002c04000004
:020000040000fa
:0400cc002c04000000
:020000040000fa
:0400d0002c040000fc
:020000040000fa
:0400d4002c040000f8
:020000040000fa
:0400d8002c040000f4
:020000040000fa
:0400dc002c040000f0
:020000040000fa
:0400e0002c040000ec
:020000040000fa
:0400e4002c040000e8
:020000040000fa
:0400e8002c040000e4
:020000040000fa
:0400ec002c040000e0
:020000040000fa
:0400f0002c040000dc
:020000040000fa
:0400f4002c040000d8
:020000040000fa
:0400f8002c040000d4
:020000040000fa
:0400fc002c040000d0
:020000040000fa
:040100002c040000cb
:020000040000fa
:040104002c040000c7
:020000040000fa
:040108002c040000c3
:020000040000fa
:04010c002c040000bf
:020000040000fa
:040110002c040000bb
:020000040000fa
:040114002c040000b7
:020000040000fa
:040118002c040000b3
:020000040000fa
:04011c002c040000af
:020000040000fa
:040120002c040000ab
:020000040000fa
:040124002c040000a7
:020000040000fa
:040128002c040000a3
:020000040000fa
:04012c002c0400009f
:020000040000fa
:040130002c0400009b
:020000040000fa
:040134002c04000097
:020000040000fa
:040138002c04000093
:020000040000fa
:04013c002c0400008f
:020000040000fa
:040140002c0400008b
:020000040000fa
:040144002c04000087
:020000040000fa
:040148002c04000083
:020000040000fa
:04014c002c0400007f
:020000040000fa
:040150002c0400007b
:020000040000fa
:040154002c04000077
:020000040000fa
:040158002c04000073
:020000040000fa
:04015c002c0400006f
:020000040000fa
:040160002c0400006b
:020000040000fa
:040164002c04000067
:020000040000fa
:040168002c04000063
:020000040000fa
:04016c002c0400005f
:020000040000fa
:040170002c0400005b
:020000040000fa
:040174002c04000057
:020000040000fa
:040178002c04000053
:020000040000fa
:04017c002c0400004f
:020000040000fa
:040180000204000075
:020000040000fa
:040184002c04000047
:020000040000fa
:040188002c04000043
:020000040000fa
:04018c002c0400003f
:020000040000fa
:040190002c0400003b
:020000040000fa
:040194002c04000037
:020000040000fa
:040198002c04000033
:020000040000fa
:04019c002c0400002f
:020000040000fa
:0401a0002c0400002b
:020000040000fa
:0401a4002c04000027
:020000040000fa
:0401a8002c04000023
:020000040000fa
:0401ac002c0400001f
:020000040000fa
:0401b0002c0400001b
:020000040000fa
:0401b4002c04000017
:020000040000fa
:0401b8002c04000013
:020000040000fa
:0401bc002c0400000f
:020000040000fa
:0401c0002c0400000b
:020000040000fa
:0401c4002c04000007
:020000040000fa
:0401c8002c04000003
:020000040000fa
:0401cc002c040000ff
:020000040000fa
:0401d0002c040000fb
:020000040000fa
:0401d4002c040000f7
:020000040000fa
:0401d8002c040000f3
:020000040000fa
:0401dc002c040000ef
:020000040000fa
:0401e0002c040000eb
:020000040000fa
:0401e4002c040000e7
:020000040000fa
:0401e8002c040000e3
:020000040000fa
:0401ec002c040000df
:020000040000fa
:0401f0002c040000db
:020000040000fa
:0401f4002c040000d7
:020000040000fa
:0401f8002c040000d3
:020000040000fa
:0401fc002c040000cf
:020000040000fa
:040208002c040000c2
:020000040000fa
:04020c003c030000af
:020000040000fa
:040210008003000067
:020000040000fa
:040214005a03000089
:020000040000fa
:040218009e03000041
:020000040000fa
:04021c002c040000ae
:020000040000fa
:040220002c040000aa
:020000040000fa
:040224002c040000a6
:020000040000fa
:04022800e6030000e9
:020000040000fa
:04022c002c0400009e
:020000040000fa
:040230002c0400009a
:020000040000fa
:040234002c04000096
:020000040000fa
:040238002c04000092
:020000040000fa
:04023c002c0400008e
:020000040000fa
:040240002c0400008a
:020000040000fa
:04024400bc030000f7
:020000040000fa
:040248002c04000082
:020000040000fa
:04024c002c0400007e
:020000040000fa
:040250002c0400007a
:020000040000fa
:040254002c04000076
:020000040000fa
:040258002c04000072
:020000040000fa
:04025c002c0400006e
:020000040000fa
:040260002c0400006a
:020000040000fa
:040264002c04000066
:020000040000fa
:040268002c04000062
:020000040000fa
:04026c002c0400005e
:020000040000fa
:040270002c0400005a
:020000040000fa
:040274002c04000056
:020000040000fa
:040278002c04000052
:020000040000fa
:04027c002c0400004e
:020000040000fa
:040280002c0400004a
:020000040000fa
:040284002c04000046
:020000040000fa
:040288002c04000042
:020000040000fa
:04028c002c0400003e
:020000040000fa
:040290002c0400003a
:020000040000fa
:040294002c04000036
:020000040000fa
:040298002c04000032
:020000040000fa
:04029c002c0400002e
:020000040000fa
:0402a0002c0400002a
:020000040000fa
:0402a4002c04000026
:020000040000fa
:0402a8002c04000022
:020000040000fa
:0402ac002c0400001e
:020000040000fa
:0402b0002c0400001a
:020000040000fa
:0402b4002c04000016
:020000040000fa
:0402b8002c04000012
:020000040000fa
:0402bc002c0400000e
:020000040000fa
:0402c0002c0400000a
:020000040000fa
:0402c4002c04000006
:020000040000fa
:0402c8002c04000002
:020000040000fa
:0402cc002c040000fe
:020000040000fa
:0402d0002c040000fa
:020000040000fa
:0402d4002c040000f6
:020000040000fa
:0402d8002c040000f2
:020000040000fa
:0402dc002c040000ee
:020000040000fa
:0402e0002c040000ea
:020000040000fa
:0402e4002c040000e6
:020000040000fa
:0402e8002c040000e2
:020000040000fa
:0402ec002c040000de
:020000040000fa
:0402f0002c040000da
:020000040000fa
:0402f4002c040000d6
:020000040000fa
:0402f8002c040000d2
:020000040000fa
:0402fc002c040000ce
:020000040000fa
:040300002c040000c9
:020000040000fa
:040304002c040000c5
:020000040000fa
:040308002c040000c1
:020000040000fa
:04030c002c040000bd
:020000040000fa
:040310002c040000b9
:020000040000fa
:040314002c040000b5
:020000040000fa
:040318002c040000b1
:020000040000fa
:04031c002c040000ad
:020000040000fa
:040320002c040000a9
:020000040000fa
:040324002c040000a5
:020000040000fa
:040328002c040000a1
:020000040000fa
:04032c002c0400009d
:020000040000fa
:040330002c04000099
:020000040000fa
:040334002c04000095
:020000040000fa
:040338002c04000091
:020000040000fa
:04033c002c0400008d
:020000040000fa
:040340002c04000089
:020000040000fa
:040344002c04000085
:020000040000fa
:040348002c04000081
:020000040000fa
:04034c002c0400007d
:020000040000fa
:040350002c04000079
:020000040000fa
:040354002c04000075
:020000040000fa
:040358002c04000071
:020000040000fa
:04035c002c0400006d
:020000040000fa
:040360002c04000069
:020000040000fa
:040364002c04000065
:020000040000fa
:040368002c04000061
:020000040000fa
:04036c002c0400005d
:020000040000fa
:040370002c04000059
:020000040000fa
:040374002c04000055
:020000040000fa
:040378002c04000051
:020000040000fa
:04037c002c0400004d
:020000040000fa
:040380000204000073
:020000040000fa
:040384002c04000045
:020000040000fa
:040388002c04000041
:020000040000fa
:04038c002c0400003d
:020000040000fa
:040390002c04000039
:020000040000fa
:040394002c04000035
:020000040000fa
:040398002c04000031
:020000040000fa
:04039c002c0400002d
:020000040000fa
:0403a0002c04000029
:020000040000fa
:0403a4002c04000025
:020000040000fa
:0403a8002c04000021
:020000040000fa
:0403ac002c0400001d
:020000040000fa
:0403b0002c04000019
:020000040000fa
:0403b4002c04000015
:020000040000fa
:0403b8002c04000011
:020000040000fa
:0403bc002c0400000d
:020000040000fa
:0403c0002c04000009
:020000040000fa
:0403c4002c04000005
:020000040000fa
:0403c8002c04000001
:020000040000fa
:0403cc002c040000fd
:020000040000fa
:0403d0002c040000f9
:020000040000fa
:0403d4002c040000f5
:020000040000fa
:0403d8002c040000f1
:020000040000fa
:0403dc002c040000ed
:020000040000fa
:0403e0002c040000e9
:020000040000fa
:0403e4002c040000e5
:020000040000fa
:0403e8002c040000e1
:020000040000fa
:0403ec002c040000dd
:020000040000fa
:0403f0002c040000d9
:020000040000fa
:0403f4002c040000d5
:020000040000fa
:0403f8002c040000d1
:020000040000fa
:0403fc002c040000cd
:020000040000fa
:100400000f4221000e7f22000e0188000000000034
:10041000000020000000e000020032000001200087
:1004200020028800140007000d0107000000e00012
:1004300003003a006014240011002000020037007d
:100440000000200001002000810f70000100320038
:1004500014000700000020000000e000020032004d
:100460000000020000000000dc4302000100000068
:100470000040da000000fe004440a90000362100e0
:100480000000e000030032000020200090018800fe
:100490004440a800000006008a1f78008b1f7800e7
:1004a00000000600a1028800800478000000eb0034
:1004b0001f003700e284440054a0b4009905ba003c
:1004c000e284440054a0b4009906ba00e2844400d7
:1004d00054a0b4000006eb00476fde00fd07b20039
:1004e000ae018800636ce10003003a00eaff0700f8
:1004f0000000eb000e003700606ce10008003a00dd
:10050000004deb000a05e800020039003420ec0041
:100510000af0a0008b05e900f9ff3e000400370057
:100520006168e100010032000086eb000b0007006b
:1005300019c7ba001905ba000e04e00003003a001a
:100540000a00e000dbff3a0000000600fe07b200f0
:10055000ae0288008a047800f5ff37000cd0a300b3
:10056000e20f4d001c00390089027800354dba00b9
:100570000a05e800020039003420ec000af0a0006f
:100580008b05e9000f003200254dba000a05e8008e
:10059000020039003420ec000af0a0008b05e900cd
:1005a000080032000c00e0000600320015cdba0051
:1005b0000a05e800020039003420ec000af0a0002f
:1005c0008b05e9008984e80054a0b4000b00e0002a
:1005d000e2ff3a00000006009902ba00055d7800cb
:1005e0008b05e900f7ff3200c82ade00055d7800c0
:1005f0008b05e900f3ff32000c00e000f1ff320050
:1006000019ddba00eeff37008c3f04000100000046
:100610006e44040001000000c43f0400010000001b
:10062000d03f040001000000004004000100000071
:100630002e400400010000005640040001000000ac
:100640005c40040001000000704004000100000054
:100650006040040001000000684404000100000044
:100660006244040001000000a03904000100000001
:10067000263d0400010000003600f800809fbe0007
:10068000829fbe00849fbe00869fbe008020a9007e
:100690000000eb00de440200010000004f03be003a
:1006a0004f02be004f01be004f00be003600f900f1
:1006b000004006003600f800809fbe00829fbe000a
:1006c000849fbe00869fbe00a03221008007780074
:1006d00020342100000188008040a9001000200083
:1006e000de440200010000004f03be004f02be00c6
:1006f0004f01be004f00be003600f900004006006a
:100700003600f800809fbe00829fbe00849fbe001e
:10071000869fbe008060a90020002000de44020009
:10072000010000004f03be004f02be004f01be009b
:100730004f00be003600f900004006003600f80009
:10074000809fbe00829fbe00849fbe00869fbe0029
:100750008080a90030002000de440200010000007b
:100760004f03be004f02be004f01be004f00be004f
:100770003600f900004006003600f800809fbe00f9
:10078000829fbe00849fbe00869fbe0050438000b3
:100790000000e0000100320000000100d03721001d
:1007a0001048e80011c0b300c037210001487800ac
:1007b00084e0a9004f03be004f02be004f01be00ff
:1007c0004f00be003600f900004006003600f80079
:1007d000809fbe00829fbe00849fbe00869fbe0099
:1007e000d4440200010000008400a9004f03be00b1
:1007f0004f02be004f01be004f00be003600f900a0
:10080000004006003600f800809fbe00829fbe00b8
:10081000849fbe00869fbe003200f8003400f800be
:1008200010002000a0018800002020009001880016
:10083000181e0200010000003400f9003200f90027
:100840004f03be004f02be004f01be004f00be006e
:100850003600f900004006000040da000000fe000b
:1008600000000500140020009a033700f4ff2f0059
:10087000980337000001be001c0007000470a700a9
:1008800003f0a10003f8a30013003a006509b100ca
:1008900010003200090035006928e100020035002f
:1008a0000100280000000500000040008180480091
:1008b0008502e900fcff3a0000000600f88f4200c4
:1008c000050035008100d1000080d3008502e800da
:1008d000fcff3a00000006008000eb00000005006d
:1008e0004f89de008201780095033700c70ade00d9
:1008f000f107b200f50fb20008003200e1cf42006c
:10090000020032000170a00024000500810f700079
:10091000010032000408050044000500810f70004a
:1009200002003a00140005008502e90000004000c2
:1009300081c04800fcff3b000170a00024000500be
:100940006022b800060220000000d0008180d200a2
:100950000482d2008582d2000000a0000202520070
:1009600083825a00030031000202420083824a005f
:100970000000a1000603e900f3ff3a0000000600b2
:1009800007f82700078361000638e10004003a00f9
:10099000f7072000878361008703710001003a0098
:1009a00003f0a200889fbe008a9fbe008c9fbe00fd
:1009b000470ade000480a100c71ade000580a100fe
:1009c000070028000785600087856100f70f200079
:1009d0000720e1009e0032000728e1009c00320061
:1009e000010678000400e000b4003200f7072000a0
:1009f000878060000170a0000500e000c0003200a8
:100a0000f7072000878161000370a00005065200ef
:100a10000f003a000b50e1000b0032000308e10028
:100a200002003a000200e1007e00320002045000a1
:100a300083845800040031000001fd008101fd00a5
:100a40008402fd008a05fd006044b80021003700e3
:100a50000520e10005003d000001fd008101fd00d1
:100a60008402fd008a05fd00050652007a60e1005f
:100a7000050035000170a1004722dd008480700070
:100a80008a807000630037006044b800ef0266009f
:100a900007ff2f00070666000500e000060034008f
:100aa000f08312008714dd000511de00071bdd0056
:100ab000060171008519de007060e1000500350057
:100ac0000904780082047800030178008001eb00bb
:100ad000700656000b50e10003003a00020040008f
:100ae000838048000400370060041400e0841c0088
:100af00002005800838058000188a30006003200dd
:100b00008100d1000080d3008984d3000884d30001
:100b10000402e800270037000178a30025003a000e
:100b20000100e000030032008186cf006986560094
:100b30000a0037008c0020000000e00004003a00aa
:100b400009007800880478000004eb00700252006d
:100b50008086cf000d0646000c06e9007060e100bb
:100b600006003500800078000900780088047800cd
:100b70000004eb0070065600700252000c00e0000a
:100b80000c0034008c08dd00f00316000703de00c3
:100b9000868070000c00dd00074bde000600700050
:100ba0008c4cdd000743de00868474000c44dd00bd
:100bb0000c0252006120e10020003500610160005c
:100bc0000700280087816400f7ff270087836400ff
:100bd000070374000300e000060032008203730084
:100be000040032000000e800e08048000188a30013
:100bf0000e003a00f70f20000720e1004a003d00f8
:100c00000170a1004722dd00810072008a8070001f
:100c10000000be004f06be004f05be004f04be00e0
:100c2000000006006000b800faff37008100d10024
:100c30000080d3000402e800eeff370004017800d2
:100c400089017400a10107008a807000f1ff37005c
:100c5000f7010700070278000001fd008101fd0097
:100c6000f301070087027800850372000778a3006c
:100c7000040032000001fd008101fd0006020700b2
:100c8000e4ff3700850362000768a3000800320014
:100c90000b50e10003003200f0ff2f00f1ff2700ae
:100ca000dcff37000001fd008101fd00d9ff3700a6
:100cb0000468a300d7ff3200faff3700f8ff2700cf
:100cc000888360000b003a000000e00009003a0051
:100cd0008303640082837300020032000200be00be
:100ce000ccff37000b50e100ceff3a000200be00ff
:100cf000c8ff370014002000810064003eff370069
:100d0000f8ff27008883610004003a000200e00039
:100d100002003a008c007800beff3700150020006a
:100d20008301640039ff370001f82700000020002c
:100d300081007500b7ff3700889fbe008a9fbe0004
:100d40008c9fbe001b0020000202be0005866800ca
:100d500006002800060666004709de00f20fb20012
:100d6000820032000243e80080003200c729de0022
:100d7000f30fb2007d0032000343e8007b00320035
:100d8000f107b2000170a000f507b2000570a000e5
:100d9000c708dd004903de00868070004700dd00e3
:100da000c72add004923de00868272004722dd006b
:100db00003055100040350008583580003003100ef
:100dc00000004000818048000a05e9008c1f78007f
:100dd0008a9fbe0004005000858058000402420033
:100de00085824a0000004000818048000005eb0039
:100df0000004be006033b8000406be000d48e100e8
:100e000056003100110009004dccd8000c01b8008b
:100e10000d02b8008481410060824a008283530041
:100e200003045c0084845c0060055d000a00e0004f
:100e300025003a00800578000d40e10049003100ae
:100e40008800780007007800110009004d88d8005c
:100e50000c01b8000d02b8008481410060824a0094
:100e60006003110083835b0004045c00e0845c0089
:100e70000900e00021003a004f01be000300e0003d
:100e80002b003200e3016000070673008c817100c3
:100e900001003200640070004200de004e5edd00a2
:100ea0000c007000c258de0001e0a00083010700c2
:100eb000cf017800818071004f06be004f05be0053
:100ec0004f04be00000006008c8343000d044c005c
:100ed000e0844c0060054d000000e9000a00e000dd
:100ee000d4ff32008c8343000d044c00e0844c009e
:100ef00060054d000000e900ceff37000c03430001
:100f00008d834b0060044c00e0844c000000e9003d
:100f10000900e000d8ff32000c0343008d834b0032
:100f200060044c00e0844c000000e900d2ff370070
:100f30004200de004e5edd000c007000c258de0094
:100f400001e0a000cf0178000300e000daff3200ea
:100f500060001000e0801800d7ff3700f0ff2f007e
:100f6000aaff3700f0ff2f00b9ff37000404be00ce
:100f70002f010700870678000004fd008104fd00b2
:100f80002b010700078366000678a30003003200e8
:100f90000960a7000800be002c0037000d78a300f0
:100fa000020032000800be00280037000778a300c6
:100fb00026003a0001f0a10009f0a1000668a30094
:100fc00003003200f1ff2700f0ff2f00baff3700c7
:100fd0000d68a300030032000800be008c80700082
:100fe000b5ff37000768a30007003a000648a300d2
:100ff00003003200f1ff2700f0ff2f00aeff3700a3
:101000000d48a300030032006000b8008c8070001f
:10101000a9ff37000748a3000400320001f82700a9
:10102000000020008c807000a3ff370076010700cd
:101030000004fd008104fd00020578007201070034
:101040000802be008a01780059ff37000160a00045
:1010500012022000c243880097ff37000100e00021
:10106000120032000500e00010003200889fbe0030
:101070008a9fbe008c9fbe000006eb0001f8a30013
:101080000300320060001000e08018000cf0a000a7
:1010900005f8a3000300320060021200e0821a008b
:1010a0000cf0a2008005eb0041ff37006000b800a3
:1010b000020005000383680007002800070363009f
:1010c000470ade000480a100c71ade000580a100e7
:1010d000f70f20000720e100420032000728e1005e
:1010e00040003200889fbe008a9fbe008c1f78009f
:1010f000f107b200f307b2000400e0006400320020
:101100000170a0000500e000680032000370a0003c
:1011100085054200eb07b1000204b8000302b800e5
:101120008484440060854a00020ab8008484440034
:101130000a854a00030ab80004054500040033008c
:101140000804d0008984d2000a85d2008b05e9000a
:101150006158e1003d0035000210200009016100e6
:101160000308200089816100f7072000878364005d
:1011700008867300c84cde00c853dd008784740005
:101180004855de000300e0000600320082037600ce
:10119000040032008904e80060054d000a88a300bd
:1011a0000c003a00f70f20000758e10044003d0012
:1011b0000a70a100c75ddd000a8575008a00730012
:1011c000090078004f0678004f05be004f04be00ae
:1011d000000006000a05d1008984d3008b05e800d1
:1011e000f0ff3700881f78000604780090000700a1
:1011f000070278000001fd008101fd008c0007005e
:1012000087027800850372000778a300050032008a
:101210000001fd008101fd009f0007004f047800e0
:1012200000000600850372000748a3000300320097
:10123000f0ff2f00f1ff2700f8ff3700000020002b
:1012400001f8270088807000f4ff370088017800db
:101250004848dd00808171004848de00c850dd004c
:1012600001007000c850de00060478000b01780011
:101270001600070088807000d2ff37000500e000ec
:1012800005003200170020003a0007009dff3700dc
:1012900081037000f9ff3a00860078004f0678005d
:1012a0004f05be004f04be0000000500830371001f
:1012b000f9ff3200270020002e00070094ff3700be
:1012c00001f8270086807000f4ff37000100e0007d
:1012d00026003200610111007810e10023003c007b
:1012e0006022b8007010e100040035008002780030
:1012f000010078008000eb00700151000200e00066
:101300000900340070031100062add00822ade0085
:101310008603dd00878272000200de00860bdd009e
:10132000070070008208de0084817100f4ff27004e
:1013300004826200848171000400280084826200bb
:101340006102600005f0a600000006000482710042
:10135000070032000000e800e080480000000600be
:101360000002be006000b800efff37006000b80068
:1013700000000600889fbe000004eb006138e10019
:1013800016003a000100e00008003a00c800de0044
:101390004800dd00880020000100e00003003a0062
:1013a000c800de004800dd00680444008184cf00ee
:1013b000e9845400060034008908dd00f08314003d
:1013c0008703de00878070000900dd000904440007
:1013d000610214004f04be00000006000300e0009c
:1013e00008003a00c811de004811dd008800200026
:1013f0000300e00003003a00c811de004811dd00e0
:10140000680444008384cf00e9845400060034005b
:101410008919dd00f08314008713de0087817100d5
:101420000911dd0009044400e1021400e9ff37005e
:101430002700200001f0a70017002000470bde0066
:10144000f60fb200040032000643e8000a00320042
:101450004702b3000000060001037800f607b2005f
:101460000603700002003a000703b3000000060004
:101470008702b3000000060001037800f607b200ff
:1014800006037000020032000770a0000000060092
:101490000760a000000006000478a30004003200ea
:1014a0000578a300030032000168a30001003a00a0
:1014b0000200be000160a000000006008101700073
:1014c000270032008002eb0001f8a3000300320085
:1014d00060001000e080180015002000f4072000d4
:1014e0000202420020003400f7032000870360005e
:1014f00006042000000363000208200000016100d0
:101500004700de00c909dd0000807100c708de0069
:101510000600e00008003200870371000600320078
:101520001000b0000180b0000188a300020032006a
:10153000c108de000402e800f107b200f30f20004a
:101540000320e10003003d004722dd00810072001e
:101550002900370001f827000000eb0026003700c3
:101560006000b80000000600680212007f20e10061
:10157000020034006000b8001f0037006011b8009e
:101580007020e1000400350080017800010078003f
:101590008000eb00700252000400e00009003400fb
:1015a000f00312000719dd008419de000703dd00d7
:1015b000868171000400de00070bdd00060070006c
:1015c0008408de00f7ff2700838363008703710030
:1015d0000600280003036300070032000700e00054
:1015e00003003a00610160000281730002003200d2
:1015f0001000b0000180b0000500a6000000060049
:1016000001f0a000000006004f0ade004709de00de
:10161000f107b200f20fb2000b003200f207b10086
:101620000170a000c708dd00c901de0083807000e2
:101630004700dd000400a600000006006000100066
:10164000e080180000000600810f700001003a00e1
:10165000000006008182cf000500e00010003e007f
:101660008082cf00ee8242007028e1000400390041
:1016700007003e00800078000000eb000e003700fd
:10168000708312008600de000500dd000a003700ce
:10169000708352008600dd000000eb00060037007a
:1016a000e28252008508dd00708312000603de002e
:1016b000868070000500dd007507b0000501ea00b6
:1016c0000400a6000000060060001000e080180082
:1016d00000000600889fbe008a9fbe00841f78001d
:1016e0007c0007004f00780011003300f0ff2f004e
:1016f000838f6c0006003b00040565000a00a7000c
:101700000800370009f0a60010002000080037008c
:10171000820f5400838f5c0003003900100020000a
:1017200001003e000000200009f0a7000000ea00d0
:101730004f05be004f04be000000e00000000600a0
:10174000881f7800030478000300e00007003d00d4
:1017500060001000e080180060011900e0811900ad
:1017600002003b0001f02d000300370004000700d9
:1017700008f0a70001f0a0004f0478000000060068
:10178000889fbe008a9fbe00008270000402710024
:1017900004827100260032000004be000200be0078
:1017a0006011b8006b092000950220000182cf0073
:1017b0000a0039000541b1000082cf00070039005e
:1017c0000541b1000982cf00040039000541b10094
:1017d0000882cf00010039000541b10005425200e6
:1017e000120032000a003b00828171006101640036
:1017f0008100d1000080d3008984d3000884d30005
:101800008b05e8000442e800f7ff3a0007003700c4
:101810000804440089844c0000004800818048008e
:101820008b05e9000442e900f9ff3a0003000700d4
:101830004f05be004f04be000000060081002000de
:10184000618055000b003d000b00200061fe2f0061
:101850000100e1001d00340082817100610164001b
:101860008904d1000884d3000000e800faff3a00a0
:10187000710020006100640003007000020060003d
:101880000900320061044400e0844c000988a5008e
:10189000050032008b05e8006808e10002003a000c
:1018a0008904d1000884d300f20f20000258e1001f
:1018b00005003d00c75ddd00f907b20089807500b5
:1018c00008007800000006000bf827008b00780065
:1018d000000005000004be0004fc07000003be0079
:1018e0000405be000200be0000fc0700844f750026
:1018f00000000600889fbe008a9fbe0030044200a0
:10190000b0844a0030054b0090854b006000b10068
:101910000898be000a90be000440e10005c8e1003e
:1019200006d0e10007d8e100020031006800400065
:101930001008e8004f05be004f04be00000006007e
:10194000889fbe008a9fbe003004be002005be00f6
:101950000418540005985c0006185d0007985d00a7
:10196000110020000440e10005c8e10006d0e100bc
:1019700007d8e100010039008000eb00108810005a
:101980004f05be004f04be0000000600f48747006c
:10199000889fbe008a9fbe008c9fbe008e1f78006d
:1019a000d0b79f00e1b79f00f2b79f0083bf9f00b1
:1019b0000605be000404be00cfae97000000eb0099
:1019c000c0b79f00b0b79f00a0b79f0090b79f001f
:1019d00080b79f00000678004fb0970000014000dc
:1019e0000000e00006003d003c0007000f07470034
:1019f000450007000f004000beff0700050037004c
:101a0000360007000f0747003f0007000f004000a7
:101a1000cbff07004fb797000e00e0000c00350029
:101a20005fb29700efb297007fb397008fbb97002c
:101a300010002000010020006011b80000027200b8
:101a40008182720002037300838373001c0007000d
:101a50000c06e80001042000810f5600deff3a006a
:101a60000e00e00005003d000802be000a03be00b3
:101a700000fe2f000f0040009eff07000d00e00059
:101a800005003a000fb297009fb297002fb397005e
:101a9000bfb397000a0007005fb09700efb0970050
:101aa0007fb197008fb997004f0778004f06be00af
:101ab0004f05be004f04be004f01b10000000600fc
:101ac000010007000000060094b79f00a5b79f0023
:101ad000b6b79f00c7b79f00000006009fb09700f1
:101ae0004f08de0002017000a2b79f000fb0970000
:101af0004f01de00818040008100710091b79f009e
:101b00000efe2f0000000600de0078004f09de0008
:101b1000000040000000710080b79f006fa8970090
:101b20004f01de0081804000010f71000e000700b0
:101b30004f3ade000000400004007000e0af9f005c
:101b4000090007000402420085824a0006034b0098
:101b500087834b00dcff07000802be000a03be00bb
:101b600000fe2f00000006001fb29700afb29700e2
:101b70003fb39700cfb3970000000600881f78009e
:101b800018002000881f780080ff07008f87e90079
:101b90004f04780000000600801feb007bff070069
:101ba0008f87e90000000600889fbe008a9fbe0064
:101bb000e00f5000e08f5800e00f5900e08f59000f
:101bc0000c003d006044b8006055b80000005400af
:101bd00081805c0002015d0083815d0018002000af
:101be0001500070008003d00180007000004eb0086
:101bf000050037000004eb000f00070002003d0065
:101c00001200070018002000dcff07000800e000b9
:101c1000060032006022b8006033b80000005200b5
:101c200081805a0002015b0083815b004f05be008a
:101c30004f04be0000000600e00f5200e08f5a0083
:101c4000e00f5b00e08f5b00000006006044b8001e
:101c50006055b8000402540085825c0006035d00f4
:101c600087835d0000000600889fbe008a9fbe003b
:101c70008c1f7800e00f5000e08f5800e00f5900f3
:101c8000e08f59000d003d006044b8006055b80079
:101c90000000540081805c0002015d0083815d00d2
:101ca0001c0020000820e10009a8e1000ab0e100c2
:101cb0000bb8e1000d003d00080037000006eb0006
:101cc000e00f5200e08f5a00e00f5b00e08f5b00f6
:101cd00006003d006044b8006055b800040254009e
:101ce00085825c0006035d0087835d00aaff070014
:101cf0000c00e000060032006022b8006033b8003b
:101d00000000520081805a0002015b0083815b0069
:101d10004f0678004f05be004f04be0000000600cd
:101d2000889fbe008a9fbe008c1f78000006eb00d3
:101d3000e00f5000e08f5800e00f5900e08f59008d
:101d400007003d006044b8006055b8000000540032
:101d500081805c0002015d0083815d001c00200029
:101d6000e00f5200e08f5a00e00f5b00e08f5b0055
:101d700007003d006044b8006055b80004025400fc
:101d800085825c0006035d0087835d000c00a20075
:101d90000c0007000c00e000060032006022b800d2
:101da0006033b8000000520081805a0002015b00dd
:101db00083815b004f0678004f05be004f04be00d4
:101dc00000000600889fbe008a9fbe008c9fbe0058
:101dd0000404b8000506b8008904460060854e007a
:101de0000606b8000a054600e0854e000706b80062
:101df0008b054600040eb800890446000a854e0093
:101e0000e0854d00050eb8000a0546008b854e00a2
:101e1000060eb8008b0546000416b8000a054600f9
:101e20008b854e000516b8008b054600041eb800d1
:101e30008b0546000800be000a01be004f06be002a
:101e40004f05be004f04be0000000600ea874700b1
:101e5000889fbe008a9fbe008c9fbe008e1f7800a8
:101e60000204be008185fb000200370061045400bb
:101e7000e0845c00000578008002eb0063026000f3
:101e8000e00f5200e08f5a0007003200e00f5400cc
:101e9000e08f5c0040003200b080fb008b8f500070
:101ea000f2ff3a00040037000000eb00e00f54009e
:101eb000e08f5c00390032001a80fb008b0f50006d
:101ec0003c0032006158b9001210200013102000ad
:101ed000fa010700f0b79f0081bf9f006151b80071
:101ee0000b0778000200370064045400e0845c00b3
:101ef00082027800e30f5400e08f5c00140036008b
:101f00007fb097008fb8970032056800a2856800ff
:101f100064014100e0814900f6ef2f00e7ef2f0058
:101f20000a0343008b834b000a85ea008b85ea0095
:101f300006026500878065000608280081066300a8
:101f400006066200e00f5600e08f5e00e6ff3200fa
:101f50008e057800850078000000eb000200370055
:101f600061045400e0845c00610ab8006101b800bb
:101f700004054100e00f5400e08f5c0006003200d1
:101f80000000e800644179000281fb008b0f5100e2
:101f9000f3ff3a00070037000000eb004f0778001e
:101fa0004f06be004f05be004f04be00af00b1009b
:101fb000000006000a007800f8ff37000202be00a9
:101fc0008001eb000200370061025200e0825a00fb
:101fd000e00f5200e08f5a000600320060c3790023
:101fe00061c179008301e800824f5300f6ff32009f
:101ff00001003700000005000680fb000281fb00a5
:1020000002005000000006000202be008001eb004a
:102010000400370061f0790061025200e0825a004a
:102020008301e800e00f5200e08f5a00f9ff3a0008
:1020300000000600889fbe008a9fbe008c1f7800ab
:102040008003780081027800810f50007400320014
:1020500002824000840f5000030031000202400061
:10206000848f500002003900e7ff07006c00370042
:1020700000826800810f50003b0031006302620063
:1020800003003a00000278008002eb0009003700ec
:102090008000eb0030003700e00f5100e08f590066
:1020a0005f00320061015100e0815900685a7d00f3
:1020b0008502e800610cb800612db80008034500f6
:1020c0008403780063066200f3ff3a000202be0058
:1020d0008000eb000c003700610db800425cdd00b1
:1020e000ce54de00890474004254dd0008854300ac
:1020f00008044300381d7800281578006401510059
:10210000e08159008100e800e30f5100e08f5900a1
:10211000f1ff3e006011b80063016200c22cde00d6
:10212000ce28dd004224de0008847000424add0033
:10213000ce42de00850272004242dd00848343000d
:1021400084024300d2ff3700e5f3780061015100bb
:10215000e08159008100e800e00f5100e08f590054
:10216000f9ff3a002e0037006302620003003a00d4
:102170000202be000003eb000d0037000203be00a8
:102180000002eb00220037000603e800e00f5200d7
:10219000e08f5a002200320061025200e0825a00b1
:1021a0008603ea0002854000020440006af47b00d6
:1021b0008203400086835300e3836300f2ff3a000a
:1021c0000403be000600370064025200e0825a0099
:1021d0000401400084814000331978002311780005
:1021e000e30f5200e08f5a00f7ff3e006011b80085
:1021f00063016300e1ff370061035300e0835b008c
:102200008402ea0002854000020440006af47a0079
:102210000402e800e00f5300e08f5b00f6ff3a0095
:102220004f0678004f05be004f04be0000000600b8
:102230000c00fa00889fbe008a9fbe008c1f7800a9
:102240008004780001007800e00f5100e08f590011
:102250007f00320080407800804c78000202e90064
:1022600080747a00e20f5100e08f59007800360048
:1022700090449800a04498000282e90080747a009b
:102280006302510080747a00e60f5100e08f59001c
:102290006f003600b04498006402510080747a00e8
:1022a000e80f5100e08f5900690036000900ea008c
:1022b0006022b800630260000484440004015100fd
:1022c0008581590083057800c0ff2f00020560005a
:1022d0000180fb008000eb00121020001310200092
:1022e000f6000700008cbe0064015500e0815d002f
:1022f000020144000089be00e80f5500e08f5d0038
:1023000053003600200498003104980040049800df
:10231000510498006c015500e0815d000201440009
:102320000089be0068015500e0815d0002014400a3
:102330000089be00f80f5500e08f5d0044003600b4
:102340006004980071049800000c9800110c98002b
:10235000200c9800310c9800400c9800510c98000b
:102360007c015500e0815d00020144000089be004f
:1023700078015500e0815d00020144000089be0043
:1023800074015500e0815d00020144000089be0037
:1023900070015500e0815d00020144000089be002b
:1023a00064026400780242006121b80092bf9f007d
:1023b000a3bf9f000205550083855d006011b80032
:1023c0000203be000002be000403be006022b8008b
:1023d000d4b79f00e5b79f00f6b79f0087bf9f0067
:1023e000000072008180720002017300838173001b
:1023f0009fba9700050244008002eb0011003700ed
:1024000084037800809bbe00829bbe00809bbe0040
:102410008293be00000a9800110a9800220a9800d0
:10242000330a9800400a9800510a9800620a9800fe
:10243000730a98000a02b1000b80b1000402b000d8
:102440000580b000ff0f5500e08f5d00ecff3e00ff
:10245000090078004f0678004f05be004f04be000b
:102460000080fa0000000600889fbe008a9fbe0020
:102470008c9fbe00800078000100780004003700c7
:102480000003e8001004e0001e003200060078009f
:10249000e3036000faff3a006103b8000604780025
:1024a0001606be0064034300e0834b00faef2f00e2
:1024b000ebef2f000c0545008d854d000c86ea00e2
:1024c0008d86ea008a0466008b8166000008280079
:1024d0008302600000826400e00f5200e08f5a0027
:1024e000eeff32000001eb006143b8006112b8005a
:1024f000060042000201e800e6417a000304e00021
:10250000f9ff3a0001005000cf80de004f06be0008
:102510004f05be004f04be0000000600881f780073
:10252000010478008800780005000700904f14002f
:10253000010032000000eb004f04780000000600ac
:10254000f4874700889fbe008a9fbe008c9fbe0014
:102550008e1f7800800478000184fb0002003200a6
:10256000090178000b00370009007800beff070062
:10257000808444004a003700020078001204e00022
:10258000470032000201e8001080fb00880f500075
:10259000430032008204780063006100f6ff3a00d5
:1025a0006140b90012102000131020004300070002
:1025b00080b79f0091b79f006149b80088bf9f0016
:1025c000020778001200be00f6ef2f00e7ef2f00a1
:1025d0000005430081854b000086ea008186ea0001
:1025e0008a0466000b846600f8b79f00e9b79f0075
:1025f0000a0828007fb4970008046500d8b79f0038
:102600008a846400c9b79f004fb49700dfb4970075
:10261000e00f5400e08f5c0014003a000fb2970006
:102620009fb2970000006a0081806a006401410047
:10263000e08149000003430081834b000086ea00eb
:102640008186ea008600660087826600b5b79f0033
:10265000a1b79f0085047800890265000a826000a6
:10266000e00f5200e08f5a00d5ff32000fbc9700f8
:102670008e0078000000eb00610ab8006101b8002c
:1026800084044100644179000204e0000400320047
:102690000000e8000281fb00880f5100f6ff3a00bd
:1026a000090078004f0778004f06be004f05be00b6
:1026b0004f04be004f01b10000000600020ab9003d
:1026c000001bb9000200b8008100420081004300f5
:0426d0000000060000
:020000040000fa
:1026d400030f000000000000030f00002d000000a5
:1026e400050f00005a000000090f0000a5000000bb
:1026f400070f00002c0100000c0f000095010000e2
:10270400090f000049020000030f0000d00200007e
:10271400050f0000fd020000050f00004803000043
:10272400070f000093030000090f0000fc030000e2
:10273400040f000083040000050f0000bf04000024
:10274400020f00000a050000060f00002805000023
:10275400070f000082050000050f0000eb050000d4
:10276400070f000036060000070f00009f06000058
:10277400080f000008070000070f00008007000092
:10278400070f0000e9070000070f000052080000cf
:10279400070f0000bb080000070f00002409000019
:1027a400020f00008d090000040f0000ab090000b7
:1027b400080f0000e7090000080f00005f0a00008e
:1027c400080f0000d70a0000060f00004f0b00009e
:1027d4000b0f0000a90b0000080f00004e0c0000b6
:1027e400070f0000c60c0000080f00002f0d0000aa
:1027f400080f0000a70d0000070f00001f0e0000c7
:10280400070f0000880e0000080f0000f10e000002
:10281400080f0000690f0000050f0000e10f000021
:10282400060f00002c100000080f000086100000a6
:10283400070f0000fe100000090f000067110000e0
:10284400080f0000ee110000090f000066120000de
:10285400070f0000ed120000090f000056130000de
:10286400080f0000dd130000070f000055140000de
:10287400090f0000be140000080f000045150000f9
:10288400080f0000bd1500000c0f000035160000f5
:10289400090f0000e9160000090f0000701700007e
:1028a400070f0000f7170000050f00006018000074
:1028b400050f0000ab180000050f0000f61800001b
:1028c400090f000041190000090f0000c819000099
:1028d400040f00004f1a0000060f00008b1a0000be
:1028e400070f0000e51a0000070f00004e1b000050
:1028f400070f0000b71b0000070f0000201c00009a
:10290400050f0000891c0000070f0000d41c000004
:10291400070f00003d1d0000020f0000a61d00006f
:10292400050f0000c41d0000070f00000f1e00006b
:10293400020f0000781e00000b0f0000961e00001e
:10294400070f00003b1f0000070f0000a41f00003a
:10295400070f00000d200000070f00007620000084
:10296400050f0000df200000060f00002a210000f0
:10297400070f000084210000070f0000ed21000074
:10298400080f0000562200000a0f0000ce220000ab
:10299400080f000064230000080f0000dc2300007f
:1029a400050f000054240000060f00009f240000bf
:1029b400030f0000f9240000060f00002625000084
:1029c400090f000080250000070f00000726000003
:1029d400060f000070260000060f0000ca26000043
:1029e400060f000024270000040f00007e270000cb
:1029f400070f0000ba270000080f0000232800007a
:102a0400090f00009b280000080f00002229000085
:102a1400070f00009a290000060f0000032a000097
:102a2400070f00005d2a0000070f0000c62a0000ff
:102a3400000000002f2b0000080f00002f2b0000c7
:102a44000f0f0000a72b00000f0f0000882c0000c0
:102a54000e0e0000692d00000f0f00002d2e000047
:102a64000f0f00000e2f00000f0f0000ef2f0000cb
:102a74000f0f0000d0300000050c0000b131000041
:102a8400050c0000ed3100000f0f0000293200009a
:102a94000f0f00000a3300000f0f0000eb3300009b
:102aa4000f0f0000cc3400000e0f0000ad35000005
:102ab400040f00007f360000040f0000bb36000046
:102ac4000f0f0000f73600000f0f0000d83700008a
:102ad4000a0f0000b93800000a0f00004f39000047
:102ae4000a0f0000e53900000f0f00007b3a0000d8
:102af4000f0f00005c3b00000f0f00003d3c000086
:102b04000f0f00001e3d00000f0f0000ff3d0000ee
:102b14000f0f0000e03e00000f0f0000c13f000057
:102b24000f0f0000a24000000000000000000000a1
:102b34000000000000000000000000000000000091
:102b4400000000000a00000000280000000000004f
:102b54006e000000000f0000fdff000000000000f8
:102b6400000000006d0000000008000020000000cc
:102b7400002c000000000000010000000003000021
:102b840021000000021e00000000000002000000fe
:102b94000005000022000000021f000000000000e9
:102ba40003000000000900002300000000310000c1
:102bb40000000000040000000007000024000000e2
:102bc400022100000000000005000000000c0000cd
:102bd40025000000022200000000000006000000a2
:102be400000900002600000002230000000000008d
:102bf400070000000003000027000000023100006d
:102c0400000000000800000000050000280000008b
:102c1400022500000000000009000000000500007b
:102c24002900000002260000000000000a00000045
:102c3400000700002a00000000550000000000000a
:102c44000b000000000900002b00000000570000ea
:102c5400000000000c000000000400002c00000034
:102c640000360000000000000d0000000005000018
:102c74002d00000000380000000000000e000000dd
:102c8400010200002e0000000037000000000000d8
:102c94000f000000000600002f00000002240000c6
:102ca40000000000100000000007000030000000d9
:102cb40000270000000000001100000001050000d2
:102cc40031000000001e000000000000120000009f
:102cd4000007000032000000001f00000000000098
:102ce4001300000000070000330000000020000073
:102cf4000000000014000000000800003400000080
:102d04000021000000000000150000000007000082
:102d14003500000000220000000000001600000042
:102d2400000700003600000000230000000000003f
:102d34001700000000070000370000000024000016
:102d44000000000018000000000700003800000028
:102d5400002500000000000019000000000700002a
:102d64003900000000260000000000001a000000e6
:102d7400010200003a0000000237000000000000d9
:102d84001b000000000400003b00000002360000ad
:102d9400000000001c000000000800003c000000cf
:102da40000640000000000001d0000000008000096
:102db4003d00000002270000000000001e0000008b
:102dc400010800003e000000026400000000000052
:102dd4001f000000000600003f000000022d00005c
:102de4000000000020000000000b00004000000074
:102df4004014000000000000210000000008000052
:102e04004100000002040000000000002200000055
:102e1400000700004200000002050000000000005e
:102e24002300000000080000430000000206000028
:102e3400000000002400000000080000440000001e
:102e44000207000000000000250000000007000049
:102e540045000000020800000000000026000000f9
:102e64000007000046000000020900000000000006
:102e7400270000000008000047000000020a0000cc
:102e840000000000280000000008000048000000c6
:102e9400020b0000000000002900000000050000f3
:102ea40049000000020c0000000000002a0000009d
:102eb400000600004a000000020d000000000000af
:102ec4002b000000000800004b000000020e000070
:102ed400000000002c000000000700004c0000006f
:102ee400020f0000000000002d0000000009000097
:102ef4004d00000002100000000000002e00000041
:102f0400000800004e000000021100000000000054
:102f14002f000000000900004f0000000212000012
:102f24000000000030000000000700005000000016
:102f3400021300000000000031000000000900003e
:102f440051000000021400000000000032000000e4
:102f540000080000520000000215000000000000fc
:102f640033000000000700005300000002160000b8
:102f740000000000340000000009000054000000bc
:102f840002170000000000003500000000080000e7
:102f94005500000002180000000000003600000088
:102fa40000080000560000000219000000000000a4
:102fb40037000000000c000057000000021a000057
:102fc4000000000038000000000900005800000064
:102fd400021b00000000000039000000000900008e
:102fe40059000000021d0000000000003a0000002b
:102ff400000700005a000000021c0000000000004e
:103004003b000000000500005b00000040250000bc
:10301400000000003c000000000500005c0000000f
:10302400402d0000000000003d00000000050000ed
:103034005d00000040260000000000003e0000008b
:10304400000900005e000000000000000000000015
:103054003f000000000900005f000000023800008b
:1030640000000000400000000104000060000000b7
:103074000000000000000000410000000006000005
:103084006100000000040000000000004200000095
:1030940000070000620000000005000000000000be
:1030a4004300000000070000630000000006000069
:1030b400000000004400000000070000640000005d
:1030c40000070000000000004500000000070000a9
:1030d4006500000000080000000000004600000039
:1030e4000005000066000000000900000000000068
:1030f400470000000007000067000000000a00000d
:103104000000000048000000000700006800000004
:10311400000b000000000000490000000002000055
:1031240069000000000c0000000000004a000000dc
:10313400000500006a000000000d0000000000000f
:103144004b000000000700006b000000000e0000b0
:10315400000000004c000000000200006c000000b1
:10316400000f0000000000004d000000000b0000f4
:103174006d00000000100000000000004e00000080
:10318400000700006e0000000011000000000000b5
:103194004f000000000700006f0000000012000054
:1031a4000000000050000000000700007000000054
:1031b40000130000000000005100000000070000a0
:1031c4007100000000140000000000005200000024
:1031d400000500007200000000150000000000005f
:1031e40053000000000600007300000000160000f9
:1031f40000000000540000000007000074000000fc
:103204000017000000000000550000000007000047
:1032140075000000001800000000000056000000c7
:103224000008000076000000001900000000000003
:1032340057000000000a000077000000001a000098
:1032440000000000580000000008000078000000a2
:10325400001b0000000000005900000000080000ee
:1032640079000000001d0000000000005a0000006a
:10327400000500007a000000001c000000000000af
:103284005b000000000600007b00000040240000fa
:10329400000000005c000000010300007c0000004e
:1032a40040640000000000005d0000000006000013
:1032b4007d00000040270000000000005e000000c8
:1032c400000900007e000000000000000000000073
:1032d4005f00000000070000a700000002200000bb
:1032e400000000006000000000060000b0000000c4
:1032f400023500000000000061000000000600002c
:10330400b2000000401f0000000000006200000046
:1033140000060000b3000000402000000000000090
:103324006300000002040000b4000000000000007c
:10333400000000006400000000070000b500000069
:1033440040100000000000006500000000080000bc
:10335400c400000002340000000000006600000009
:1033640000090000d6000000023300000000000045
:103374006700000000080000dc000000022f0000cd
:10338400000000006800000000070000df000000eb
:10339400002d00000000000069000000000600008d
:1033a400e400000000340000000000006a00000097
:1033b40000070000f60000000033000000000000d9
:1033c4006b00000000070000fc000000002f00005c
:1033d4000000000000000000000000000a000000df
:1033e4000100000020000000030000002100000094
:1033f400040000002200000005000000230000007b
:103404000600000024000000070000002500000062
:10341400080000002600000009000000270000004a
:103424000a000000280000000b0000002900000032
:103434000c0000002a0000000d0000002b0000001a
:103444000e0000002c0000000f0000002d00000002
:10345400100000002e000000110000002f000000ea
:1034640012000000300000001300000031000000d2
:1034740014000000320000001500000033000000ba
:1034840016000000340000001700000035000000a2
:10349400180000003600000019000000370000008a
:1034a4001a000000380000001b0000003900000072
:1034b4001c0000003a0000001d0000003b0000005a
:1034c4001e0000003c0000001f0000003d00000042
:1034d400200000003e000000210000003f0000002a
:1034e4002200000040000000230000004100000012
:1034f40024000000420000002500000043000000fa
:1035040026000000440000002700000045000000e1
:1035140028000000460000002900000047000000c9
:103524002a000000480000002b00000049000000b1
:103534002c0000004a0000002d0000004b00000099
:103544002e0000004c0000002f0000004d00000081
:10355400300000004e000000310000004f00000069
:103564003200000050000000330000005100000051
:103574003400000052000000350000005300000039
:103584003600000054000000370000005500000021
:103594003800000056000000390000005700000009
:1035a4003a000000580000003b00000059000000f1
:1035b4003c0000005a0000003d0000005b000000d9
:1035c4003e0000005c0000003f0000005d000000c1
:1035d400400000005e000000410000005f000000a9
:1035e4004200000060000000430000006100000091
:1035f4004400000062000000450000006300000079
:103604004600000064000000470000006500000060
:103614004800000066000000490000006700000048
:103624004a000000680000004b0000006900000030
:103634004c0000006a0000004d0000006b00000018
:103644004e0000006c0000004f0000006d00000000
:10365400500000006e000000510000006f000000e8
:1036640052000000700000005300000071000000d0
:1036740054000000720000005500000073000000b8
:1036840056000000740000005700000075000000a0
:103694005800000076000000590000007700000088
:1036a4005a000000780000005b0000007900000070
:1036b4005c0000007a0000005d0000007b00000058
:1036c4005e0000007c0000005f0000007d00000040
:1036d400600000007e00000061000000a700000000
:1036e40062000000b000000063000000b2000000af
:1036f40064000000b300000065000000b400000096
:1037040066000000b500000067000000c40000006f
:1037140068000000d600000069000000dc00000022
:103724006a000000df0000006b000000e4000000fd
:103734006c000000f60000006d000000fc000000ba
:103744006e000000fdff00000200000000290000e0
:10375400484b00004f480000550f0000034600008e
:1037640052510000574800005b570000035000000e
:1037740048500000525500005c03000052590000fc
:1037840048550000494f0000525a0000002500002f
:103794004c57000057480000035d000058480000e3
:1037a400555600005703000036270000102e000075
:1037b4004455000057480000034800004c510000e5
:1037c400496e00004a4800005100000029480000ea
:1037d4004b4f0000485500000f030000362700003f
:1037e400102e00004455000057480000034e00000e
:1037f4004451000051030000514c0000464b0000ae
:10380400570300004a4800004f4800005648000093
:10381400510300005a480000554700004851000079
:10382400003700004856000057000000334c0000e9
:1038340051030000484c0000514a00004845000074
:10384400485100001d0000003148000058480000a5
:1038540051030000334c000051030000484c0000a9
:10386400514a000048450000485100001d00000076
:10387400334c00005103000059480000554c00002f
:10388400494c00005d4c00004855000048510000c0
:103894001d000000334c00005114000003580000c8
:1038a400514a00004f4800004c4600004b03000002
:1038b400334c000051150000040400000400000013
:1038c4003044000056570000485500004e480000a0
:1038d4005c030000484c0000514a000048450000c9
:1038e400485100001d0000003044000056570000fd
:1038f400485500004e4800005c03000049440000a5
:103904004f560000464b0000040000003148000000
:103914005848000055030000284c0000515700008f
:10392400554400004a0000003144000050480000a3
:10393400034800004c5100004a480000454800007c
:1039440051000000385600004855000003480000ac
:103954004c5100004a480000454800005100000056
:10396400385500004f030000484c0000514a000045
:103974004845000048510000002e0000485c00004b
:10398400034800004c5100004a480000454800002c
:10399400510000002e4800005c15000003480000a0
:1039a4004c5100004a480000454800005100000006
:1039b4002c51000049520000034800004c51000003
:1039c4004a4800004548000051000000314400000e
:1039d4005048000003440000515d0000484c0000c2
:1039e4004a480000510000003856000048550000c5
:1039f40003440000515d0000484c00004a480000a8
:103a040051000000385500004f03000044510000ed
:103a14005d4800004c4a000048510000002e0000a0
:103a2400485c000003440000515d0000484c000065
:103a34004a480000510000002e4800005c150000b8
:103a440003440000515d0000484c00004a48000057
:103a5400510000002c5100004952000003440000b2
:103a6400515d0000484c00004a480000510000002d
:103a740031440000504800001d03000000380000dd
:103a840056480000551d0000030000002e480000a9
:103a94005c1400001d030000002e0000485c0000c0
:103aa400151d000003000000385500004f1d0000e4
:103ab400030000002c510000495200001d030000c7
:103ac4000027000048570000444c00004f560000f7
:103ad400002800004c51000057550000444a0000e3
:103ae400564f00004c5600005748000000320000ba
:103af400535700004c520000514800005100000090
:103b0400274400005758000050030000484c0000b0
:103b140051560000574800004f4f00004851000024
:103b2400004400005856000000390000103700001f
:103b34004456000057440000575800005500000048
:103b4400345800004c4600004e4e0000485c000013
:103b540056030000245800005600000034580000aa
:103b64004c4600004e4e0000485c00005603000026
:103b740024510000002800004c510000575500005b
:103b8400444a0000016e00004548000055560000fc
:103b9400464b0000554800004c45000048510000c9
:103ba40022000000375200004e480000510300007c
:103bb4004f6d0000564600004b48000051220000a3
:103bc40000240000464b000057580000514a0000f2
:103bd4000f030000284c000051570000554400001a
:103be4004a0300004f6d0000564600004b48000099
:103bf40051220000003200004b5100004803000035
:103c0400364c0000464b00004855000051010000ae
:103c14004445000045550000484600004b4800005c
:103c240051220000002800004c51000057550000ac
:103c3400444a000003440000514f0000484a000079
:103c440048510000002800004c5100005755000066
:103c5400444a0000034f00006d560000464b00002c
:103c640048510000002e000052510000494c000051
:103c74004a58000055440000574c000052510000bf
:103c8400005d0000585500006e4600004e00000024
:103c9400375200004e480000510300004548000020
:103ca40044550000454800004c57000048510000ae
:103cb40000370000524e000048510000034f00003e
:103cc4006d560000464b00004851000000380000cb
:103cd4003625000010330000585600004b00000049
:103ce400383600002503000024580000564a00001e
:103cf40044450000481100001111000000100000ac
:103d0400101000004f44000047480000101000004d
:103d14001000000000140000101c0000002400002b
:103d2400103d000000440000105d00000030000061
:103d34004851000058000000041000006e0000000c
:103d440035510000470b0000141900000c1d000041
:103d540003440000103d00000044000045460000fc
:103d640047480000494a00004b4c00004d4e0000fb
:103d74004f500000515200005354000055560000ab
:103d840057580000595a00005b5c00005d24000095
:103d94002526000027280000292a00002b2c0000db
:103da4002d2e00002f30000031320000333400008b
:103db4003536000037380000393a00003b3c00003b
:103dc4003d00000035510000470b000014190000ad
:103dd4000c1d000003440000101c000000440000ff
:103de4004546000047480000494a00004b4c00008b
:103df4004d4e00004f50000051520000535400003b
:103e04005556000057580000595a00005b5c0000ea
:103e14005d2400002526000027280000292a000030
:103e24002b2c00002d2e00002f300000313200001a
:103e3400333400003536000037380000393a0000ca
:103e44003b3c00003d130000141500001617000051
:103e5400181900001a1b00001c1100000f100000ac
:103e6400420e0000041e00001d0d0000003500007d
:103e7400514700000b140000190c00001d03000042
:103e8400441000006e000000444500004647000056
:103e9400484900004a4b00004c4d00004e4f0000c2
:103ea4005051000052530000545500005657000072
:103eb400585900005a5b00005c5d00002425000096
:103ec40026270000282900002a2b00002c2d0000a2
:103ed4002e2f000030310000323300003435000052
:103ee40036370000383900003a3b00003c3d000002
:103ef400131400001516000017180000191a00000a
:103f04001b1c0000040500006207000008090000f3
:103f14001222000043660000416300006465000053
:103f24003f6100000a060000104200000f1100006b
:103f34005f0e0000100d0000121f0000210b000096
:103f44000c3e0000402000005e60000000350000d0
:103f5400514700000b160000150c00001d03000063
:103f64004b4800005b00000013140000151600000d
:103f740017180000191a00001b1c0000444500001b
:103f8400464700004849000000000000000000000f
:103f94000100000021000000400000006b00000050
:103fa400700000007e00000092000000a4000000e9
:103fb400ba000000ce000000e0000000ee000000a7
:103fc400fc0000000a0100001701000024010000a9
:103fd40032010000400100004e0100005c010000bd
:103fe40069010000760100008401000092010000d4
:103ff40099010000a0010000a7010000ae0100002b
:10400400b4010000bb010000c3010000d1010000a5
:10401400da010000eb010000ef010000fa010000ea
:1040240008020000150200002c0200003b02000000
:10403400550200006d0200007d0200008d020000a8
:104044009b020000a2020000b3020000c1020000b3
:10405400ca020000d9020000e4020000e5020000e8
:10406400e9020000ed020000f1020000f602000087
:10407400fa020000070300003c03000049030000ab
:10408400910300009e030000010400000e040000e0
:10409400fa02000007030000100000003c030000c7
:1040a4004903000010000000910300009e0300007b
:1040b40010000000010400000e04000020000000b5
:1040c40000000000e4020000ffff00000000000008
:1040d40001000000e5020000ffff000000000000f6
:1040e40000000000e4020000ffff000000000000e8
:1040f40001000000e9020000ffff000028000000aa
:1041040001000000ed020000ffff0000500000006d
:1041140001000000f102000000000000780000002f
:1041240000000000e4020000ffff000000000000a7
:1041340001000000f6020000ffff0000a0000000e4
:1041440000000000e4020000ffff00000000000087
:104154000114000000000000011500000000000030
:10416400011600000000000001170000000000001c
:104174000118000000000000011900000000000008
:10418400011a000000000000011b000000000000f4
:10419400011c0000000000000113000000000000ea
:1041a400010e0000000000000110000000000000eb
:1041b400010d0000000000000112000000000000da
:1041c400011f0000000000000121000000000000a9
:1041d400010b000000000000010c000000000000c2
:1041e400013e00000000000001400000000000004b
:1041f4000120000000000000015e0000000000003b
:104204000160000000000000000000000600000043
:10421400000000000501000000000000040200008e
:10422400000000000303000000000000020400007e
:10423400000000000105000000000000000600006e
:104244000300000001000000030000000001000062
:10425400020000000500000002000000040100004c
:10426400020000000302000002000000020300003c
:10427400020000000104000002000000000500002c
:104284000400000001000000040000000001000020
:104294000134000000000000013a000000000000aa
:1042a40001280000000000000135000000000000ab
:1042b4000137000000000000013d00000000000084
:1042c4000138000000000000012c00000000000084
:1042d4000132000000000000013300000000000073
:1042e400012400000000000001360000000000006e
:1042f4000127000000000000012900000000000068
:10430400012a000000000000012b00000000000052
:10431400012d000000000000012e0000000000003c
:10432400012f0000000000000169000000000000ef
:10433400013c000000000000013b00000000000000
:104344000126000000000000013900000000000008
:104354000125000000000000013100000000000001
:1043640001300000000000000168000000000000af
:10437400016a000000000000016b00000000000062
:104384000111000000000000030000000100000013
:10439400030000000001000002000000040000000f
:1043a40002000000030100000200000002020000fd
:1043b40002000000010300000200000000040000ed
:1043c40004000000010000000400000000010000df
:1043d4000154000000000000015a00000000000029
:1043e400014800000000000001550000000000002a
:1043f4000157000000000000015d00000000000003
:104404000158000000000000014c00000000000002
:1044140001520000000000000153000000000000f1
:1044240001440000000000000156000000000000ec
:1044340001470000000000000149000000000000e6
:10444400014a000000000000014b000000000000d1
:10445400014d000000000000014e000000000000bb
:10446400014f000000000000016d0000000000008a
:10447400015c000000000000015b0000000000007f
:104484000146000000000000015900000000000087
:104494000145000000000000015100000000000080
:1044a4000150000000000000016c0000000000004a
:1044b400016e000000000000016b0000000000001d
:1044c40001110000000000000300000001000000d2
:1044d40003000000000100000200000004000000ce
:1044e40002000000030100000200000002020000bc
:1044f40002000000010300000200000000040000ac
:10450400040000000100000004000000000100009d
:10451400050000000100000005000000000100008b
:104524000600000001000000060000000001000079
:10453400070000000500000007000000040100005f
:10454400070000000302000007000000020300004f
:10455400070000000104000007000000000500003f
:104564000200000001000000020000000001000041
:10457400030000000100000003000000000100002f
:10458400070100000500000007010000040100000d
:1045940007010000030200000701000002030000fd
:1045a40007010000010400000701000000050000ed
:1045b40000000000030000000000000002010000f1
:1045c40000000000010200000000000000030000e1
:1045d40007020000050000000702000004010000bb
:1045e40007020000030200000702000002030000ab
:1045f400070200000104000007020000000500009b
:1046040000000000030000000000000002010000a0
:104614000000000001020000000000000003000090
:104624000703000005000000070300000401000068
:104634000703000003020000070300000203000058
:104644000703000001040000070300000005000048
:10465400010400000000000001050000000000004b
:1046640001620000000000000107000000000000db
:104674000108000000000000010900000000000023
:1046840001120000000000000122000000000000f0
:104694000000000001000000000000000001000014
:1046a400016400000000000001650000000000003b
:1046b400013f000000000000016300000000000052
:1046c400010a0000000000000106000000000000d4
:1046d4000110000000000000014200000000000082
:1046e40000000000010000000000000000010000c4
:1046f400010f000000000000011e00000000000087
:104704000111000000000000011d00000000000075
:10471400015f000000000000012300000000000011
:10472400016700000000000000000000020000001b
:104734000000000001010000000000000002000071
:10474400030000000100000003000000000100005d
:104754000200000005000000020000000401000047
:104764000200000003020000020000000203000037
:104774000200000001040000020000000005000027
:10478400040000000100000004000000000100001b
:10479400131400001516000017180000191a000061
:1047a4001b1c000044450000464700004849000027
:1047b400120100008032000011800000ff3a000066
:1047c400810500000ab10000830000000603000018
:1047d4000a36000001080000b602000015020000bd
:1047e400b401000000c0000082020000700a000052
:1047f400c101000005c200000201000002c5000062
:10480400823c0000380a0000fc0200001115000080
:10481400e01000000916000009200000211b000020
:1048240013190000171500001e2b000004050000da
:10483400020e0000e19000000b140000081e0000ae
:10484400221d0000181e00001b1a0000242b00006b
:1048540006060000020f00000a2a000004000000ff
:1048640002000000812b0000040000000200000090
:1048740081130000800a000029800000ff0f00005f
:10488400018000009611000080ff0000b1030000c9
:10489400012c00002db20000030100002c2d0000ab
:1048a400b3060000012c00002d0100002c2d000097
:1048b400b401000007c0000003a20000028400004d
:1048c400c1010000c5c20000020a000000c30000cc
:1048d400028a00002ac40000028a0000eec500001b
:1048e400010e00002000000036010000c83a00005c
:1048f4000105000004e00000100200001c07000095
:1049040012370000322900002d290000252b000059
:10491400390000000103000010e100001003000052
:104924001d070000062e00002c2900002d2e00007b
:104934002e3700003f0000000002000010130000aa
:10494400800a000029800000640200002a0400009c
:1049540000000000007f00002b04000000000000a5
:10496400009f000046410000543300003220000044
:1049740020200000002a00002b2c00003a3b0000fd
:104984003c3d00003e5b00005d7c0000223f0000d7
:104994007f000000435500004541000041410000f4
:1049a40041430000454500004549000049490000d5
:1049b4004141000045920000924f00004f4f00001b
:1049c40055550000594f0000554f00009c4f000002
:1049d4009e9f0000414900004f550000a5a500001e
:1049e400a6a70000a8a90000aaab0000acad000077
:1049f400aeaf0000b0b10000b2b30000b44100009b
:104a040041410000b8b90000babb0000bcbd0000c1
:104a1400bebf0000c0c10000c2c30000c4c5000086
:104a240041410000c8c90000cacb0000cccd000041
:104a3400cecf0000d1d1000045450000454900001b
:104a44004949000049d90000dadb0000dcdd000040
:104a540049df00004fe100004f4f00004f4f0000be
:104a6400e6e80000e85500005555000059590000db
:104a7400eeef0000f0f10000f2f30000f4f50000a6
:104a8400f6f70000f8f90000fafb0000fcfd000056
:104a9400feff000056450000524900004659000040
:104aa400004b00005300000000f80000e007000085
:104ab4001f000000ff0700001ff80000e0ff0000d7
:104ac40000fc0000000000000b0b000000000000d0
:104ad400010000000c120000180000000200000099
:104ae4000d13000019000000030000000f15000062
:104af4001a00000004000000101600001b00000053
:104b0400050000000e1400001c0000000600000058
:104b1400111700001d000000070000000000000045
:104b24000000000000010000020300000405000072
:104b340006070000080900000a0b00000c0d000025
:104b44000e0f000000010000000000000000000043
:104b540000000000000000001200000068000000d7
:104b64003c06000050010000120400001a0400007a
:104b74003c04000050000000180000001c0000006d
:104b84001201000000020000000000000008000004
:104b9400d8040000550000000100000001020000dc
:104ba40000010000090200002900000001010000ca
:104bb40000c000007d0900000400000000020000a5
:104bc40003010000010000000921000011010000a0
:104bd40000010000223f00000007000005810000e2
:104be40003080000000100000705000001030000a5
:104bf4000800000001000000040300000904000094
:104c0400160300004400000061000000740000006e
:104c140061000000730000006800000069000000eb
:104c2400650000006c000000640000001003000038
:104c340044000000610000007400000061000000f6
:104c44006b0000006500000079000000d4a500009e
:104c5400fea5000002a6000018a600000501000041
:104c640009060000a10100000507000019e000008a
:104c740029e700001500000025010000750100006f
:104c840095080000810200009501000075080000ed
:104c9400810300009505000075010000050800006f
:104ca400190100002905000091020000950100008f
:104cb40075030000910300009506000075080000cc
:104cc400150000002565000005070000190000001c
:104cd4002965000081000000c000000004030000fa
:104ce400080300000c03000010030000140300007c
:104cf400180300001c03000020030000240300002c
:104d040028030000040300002c0300000c0300002f
:104d14001003000014030000180300001c0300002b
:104d24002003000024030000280300000403000003
:104d3400300300000c030000100300001403000003
:104d4400180300001c0300002003000024030000db
:104d54002803000020010000000000000000000003
:104d6400600000000000000000000000600000007f
:104d74001300000000000000200100003f000000bc
:104d840000000000303a0000000000002a0000008b
:020000040000fa
:104d9400000000000000000000000000000000000f
:104da40000000000000000000000000000000000ff
:104db40000000000000000000000000000000000ef
:104dc40000000000000000000000000000000000df
:104dd40000000000000000000000000000000000cf
:104de40000000000000000000000000000000000bf
:104df40000000000000000000000000000000000af
:104e0400000000000000000000000000000000009e
:104e1400000000000000000000000000000000008e
:104e2400000000000000000000000000000000007e
:104e3400000000000000000000000000000000006e
:104e4400000000000000000000000000000000005e
:104e5400000000000000000000000000000000004e
:104e64000000000000000000084200003ce70000d1
:104e740008420000084200003ce70000084200002d
:104e8400084200003ce70000084200000421000042
:104e940079ce0000042100000421000079ce000036
:104ea400042100000421000079ce00000421000048
:104eb4000421000079ce000004210000000000005d
:104ec4000000000000000000084200003ce7000071
:104ed4000842000000000000000000000000000084
:104ee40000000000000000000000000000000000be
:104ef40000000000000000000000000000000000ae
:104f0400000000000000000000000000000000009d
:104f1400000000000000000000000000000000008d
:104f240008420000dbde0000284200003ce70000ed
:104f3400eb5a00000842000018c6000024210000bb
:104f440018c600000842000004210000b6b50000a5
:104f54002421000018c600000842000000000000e0
:104f6400000000000000000000000000000000003d
:104f7400000000000000000000000000000000002d
:104f8400000000000000000000000000000000001d
:104f9400000000000000000000000000000000000d
:104fa40000000000000000000000000000000000fd
:104fb40000000000000000000000000000000000ed
:104fc40000000000000000000000000000000000dd
:104fd40000000000000000000000000000000000cd
:104fe40000000000000000000000000000000000bd
:104ff40000000000000000000000000000000000ad
:10500400000000000000000000000000000000009c
:10501400000000000000000000000000000000008c
:10502400000000000000000000000000000000007c
:10503400000000000000000000000000000000006c
:10504400000000000000000000000000000000005c
:10505400000000000000000000000000000000004c
:10506400000000000000000000000000000000003c
:10507400000000000000000000000000000000002c
:10508400000000000000000000000000000000001c
:1050940000000000000000000000000008420000c2
:1050a400108400000000000034a500000842000045
:1050b40000000000000000000000000000000000ec
:1050c400718c0000eb5a000082100000f39c000079
:1050d400821000000000000000000000718c00003d
:1050e400ffff0000ffff0000ffff0000ffff0000c4
:1050f400ffff00009ef700000842000000000000cf
:105104000000000082100000f39c000082100000e8
:10511400eb5a0000718c0000000000000000000049
:10512400000000000000000008420000108400009d
:10513400000000001084000008420000000000008d
:1051440000000000084200009ef70000ffff00007e
:10515400ffff0000ffff0000ffff0000ffff000053
:10516400718c00000000000000000000000000003e
:1051740034a50000084200000842000034a50000e5
:10518400000000000000000000000000000000001b
:1051940082100000f39c000082100000eb5a000013
:1051a400718c0000000000000000000000000000fe
:1051b400000000000842000034a5000000000000c8
:1051c40010840000084200000000000000000000fd
